{
  "_format": "hh-sol-artifact-1",
  "contractName": "HeroToken",
  "sourceName": "contracts/HeroToken.sol",
  "abi": [
    {
      "inputs": [
        {
          "internalType": "string",
          "name": "getName",
          "type": "string"
        },
        {
          "internalType": "string",
          "name": "getSymbol",
          "type": "string"
        }
      ],
      "stateMutability": "nonpayable",
      "type": "constructor"
    },
    {
      "inputs": [
        {
          "internalType": "uint256",
          "name": "amount",
          "type": "uint256"
        },
        {
          "internalType": "uint256",
          "name": "senderBalance",
          "type": "uint256"
        }
      ],
      "name": "ExceedsBalance",
      "type": "error"
    },
    {
      "inputs": [],
      "name": "FromZeroAddress",
      "type": "error"
    },
    {
      "inputs": [],
      "name": "ToZeroAddress",
      "type": "error"
    },
    {
      "anonymous": false,
      "inputs": [
        {
          "indexed": true,
          "internalType": "address",
          "name": "owner",
          "type": "address"
        },
        {
          "indexed": true,
          "internalType": "address",
          "name": "spender",
          "type": "address"
        },
        {
          "indexed": false,
          "internalType": "uint256",
          "name": "value",
          "type": "uint256"
        }
      ],
      "name": "Approval",
      "type": "event"
    },
    {
      "anonymous": false,
      "inputs": [
        {
          "indexed": true,
          "internalType": "address",
          "name": "from",
          "type": "address"
        },
        {
          "indexed": true,
          "internalType": "address",
          "name": "to",
          "type": "address"
        },
        {
          "indexed": false,
          "internalType": "uint256",
          "name": "value",
          "type": "uint256"
        }
      ],
      "name": "Transfer",
      "type": "event"
    },
    {
      "inputs": [
        {
          "internalType": "address",
          "name": "",
          "type": "address"
        },
        {
          "internalType": "address",
          "name": "",
          "type": "address"
        }
      ],
      "name": "_allowances",
      "outputs": [
        {
          "internalType": "uint256",
          "name": "",
          "type": "uint256"
        }
      ],
      "stateMutability": "view",
      "type": "function"
    },
    {
      "inputs": [],
      "name": "_decimals",
      "outputs": [
        {
          "internalType": "uint8",
          "name": "",
          "type": "uint8"
        }
      ],
      "stateMutability": "view",
      "type": "function"
    },
    {
      "inputs": [],
      "name": "_name",
      "outputs": [
        {
          "internalType": "string",
          "name": "",
          "type": "string"
        }
      ],
      "stateMutability": "view",
      "type": "function"
    },
    {
      "inputs": [],
      "name": "_symbol",
      "outputs": [
        {
          "internalType": "string",
          "name": "",
          "type": "string"
        }
      ],
      "stateMutability": "view",
      "type": "function"
    },
    {
      "inputs": [],
      "name": "_totalSupply",
      "outputs": [
        {
          "internalType": "uint256",
          "name": "",
          "type": "uint256"
        }
      ],
      "stateMutability": "view",
      "type": "function"
    },
    {
      "inputs": [
        {
          "internalType": "address",
          "name": "owner",
          "type": "address"
        },
        {
          "internalType": "address",
          "name": "spender",
          "type": "address"
        }
      ],
      "name": "allowance",
      "outputs": [
        {
          "internalType": "uint256",
          "name": "",
          "type": "uint256"
        }
      ],
      "stateMutability": "view",
      "type": "function"
    },
    {
      "inputs": [
        {
          "internalType": "address",
          "name": "spender",
          "type": "address"
        },
        {
          "internalType": "uint256",
          "name": "amount",
          "type": "uint256"
        }
      ],
      "name": "approve",
      "outputs": [
        {
          "internalType": "bool",
          "name": "",
          "type": "bool"
        }
      ],
      "stateMutability": "nonpayable",
      "type": "function"
    },
    {
      "inputs": [
        {
          "internalType": "address",
          "name": "account",
          "type": "address"
        }
      ],
      "name": "balanceOf",
      "outputs": [
        {
          "internalType": "uint256",
          "name": "",
          "type": "uint256"
        }
      ],
      "stateMutability": "view",
      "type": "function"
    },
    {
      "inputs": [],
      "name": "decimals",
      "outputs": [
        {
          "internalType": "uint8",
          "name": "",
          "type": "uint8"
        }
      ],
      "stateMutability": "view",
      "type": "function"
    },
    {
      "inputs": [],
      "name": "name",
      "outputs": [
        {
          "internalType": "string",
          "name": "",
          "type": "string"
        }
      ],
      "stateMutability": "view",
      "type": "function"
    },
    {
      "inputs": [],
      "name": "symbol",
      "outputs": [
        {
          "internalType": "string",
          "name": "",
          "type": "string"
        }
      ],
      "stateMutability": "view",
      "type": "function"
    },
    {
      "inputs": [],
      "name": "totalSupply",
      "outputs": [
        {
          "internalType": "uint256",
          "name": "",
          "type": "uint256"
        }
      ],
      "stateMutability": "view",
      "type": "function"
    },
    {
      "inputs": [
        {
          "internalType": "address",
          "name": "recipient",
          "type": "address"
        },
        {
          "internalType": "uint256",
          "name": "amount",
          "type": "uint256"
        }
      ],
      "name": "transfer",
      "outputs": [
        {
          "internalType": "bool",
          "name": "",
          "type": "bool"
        }
      ],
      "stateMutability": "nonpayable",
      "type": "function"
    },
    {
      "inputs": [
        {
          "internalType": "address",
          "name": "sender",
          "type": "address"
        },
        {
          "internalType": "address",
          "name": "recipient",
          "type": "address"
        },
        {
          "internalType": "uint256",
          "name": "amount",
          "type": "uint256"
        }
      ],
      "name": "transferFrom",
      "outputs": [
        {
          "internalType": "bool",
          "name": "",
          "type": "bool"
        }
      ],
      "stateMutability": "nonpayable",
      "type": "function"
    }
  ],
  "bytecode": "0x60806040523480156200001157600080fd5b5060405162000a9638038062000a9683398101604081905262000034916200014d565b600362000042838262000246565b50600462000051828262000246565b50506005805460ff19166012179055506a52b7d2dcc80cd2e400000060028190553360009081526020819052604090205562000312565b634e487b7160e01b600052604160045260246000fd5b600082601f830112620000b057600080fd5b81516001600160401b0380821115620000cd57620000cd62000088565b604051601f8301601f19908116603f01168101908282118183101715620000f857620000f862000088565b816040528381526020925086838588010111156200011557600080fd5b600091505b838210156200013957858201830151818301840152908201906200011a565b600093810190920192909252949350505050565b600080604083850312156200016157600080fd5b82516001600160401b03808211156200017957600080fd5b62000187868387016200009e565b935060208501519150808211156200019e57600080fd5b50620001ad858286016200009e565b9150509250929050565b600181811c90821680620001cc57607f821691505b602082108103620001ed57634e487b7160e01b600052602260045260246000fd5b50919050565b601f8211156200024157600081815260208120601f850160051c810160208610156200021c5750805b601f850160051c820191505b818110156200023d5782815560010162000228565b5050505b505050565b81516001600160401b0381111562000262576200026262000088565b6200027a81620002738454620001b7565b84620001f3565b602080601f831160018114620002b25760008415620002995750858301515b600019600386901b1c1916600185901b1785556200023d565b600085815260208120601f198616915b82811015620002e357888601518255948401946001909101908401620002c2565b5085821015620003025787850151600019600388901b60f8161c191681555b5050505050600190811b01905550565b61077480620003226000396000f3fe608060405234801561001057600080fd5b50600436106100ea5760003560e01c80633eaaf86b1161008c578063a9059cbb11610066578063a9059cbb146101e0578063b09f1266146101f3578063d28d8852146101fb578063dd62ed3e1461020357600080fd5b80633eaaf86b146101a657806370a08231146101af57806395d89b41146101d857600080fd5b806318160ddd116100c857806318160ddd1461016557806323b872dd1461016d578063313ce5671461018057806332424aa31461019957600080fd5b8063024c2ddd146100ef57806306fdde031461012d578063095ea7b314610142575b600080fd5b61011a6100fd3660046105da565b600160209081526000928352604080842090915290825290205481565b6040519081526020015b60405180910390f35b61013561023c565b604051610124919061060d565b61015561015036600461065b565b6102ce565b6040519015158152602001610124565b60025461011a565b61015561017b366004610685565b6102e7565b60055460ff165b60405160ff9091168152602001610124565b6005546101879060ff1681565b61011a60025481565b61011a6101bd3660046106c1565b6001600160a01b031660009081526020819052604090205490565b610135610343565b6101556101ee36600461065b565b610352565b61013561035f565b6101356103ed565b61011a6102113660046105da565b6001600160a01b03918216600090815260016020908152604080832093909416825291909152205490565b60606003805461024b906106e3565b80601f0160208091040260200160405190810160405280929190818152602001828054610277906106e3565b80156102c45780601f10610299576101008083540402835291602001916102c4565b820191906000526020600020905b8154815290600101906020018083116102a757829003601f168201915b5050505050905090565b60006102dd33848460016103fa565b5060015b92915050565b6001600160a01b0380841660009081526001602090815260408083209386168352929052908120548083111561032d5761032d8585610326848761071d565b60006103fa565b6103388585856104ca565b506001949350505050565b60606004805461024b906106e3565b60006102dd3384846104ca565b6004805461036c906106e3565b80601f0160208091040260200160405190810160405280929190818152602001828054610398906106e3565b80156103e55780601f106103ba576101008083540402835291602001916103e5565b820191906000526020600020905b8154815290600101906020018083116103c857829003601f168201915b505050505081565b6003805461036c906106e3565b6001600160a01b0384166104215760405163bc687e9d60e01b815260040160405180910390fd5b6001600160a01b03831661044857604051630c63e1ed60e11b815260040160405180910390fd5b6001600160a01b03808516600090815260016020908152604080832093871683529290522082905580156104c457826001600160a01b0316846001600160a01b03167f8c5be1e5ebec7d5bd14f71427d1e84f3dd0314c0f7b2291e5b200ac8c7c3b925846040516104bb91815260200190565b60405180910390a35b50505050565b6001600160a01b0383166104f15760405163bc687e9d60e01b815260040160405180910390fd5b6001600160a01b03821661051857604051630c63e1ed60e11b815260040160405180910390fd5b6001600160a01b038316600090815260208190526040902054808211156105605760405163d8bf65b560e01b8152600481018390526024810182905260440160405180910390fd5b6001600160a01b03848116600081815260208181526040808320878703905593871680835291849020805487019055925185815290927fddf252ad1be2c89b69c2b068fc378daa952ba7f163c4a11628f55a4df523b3ef91016104bb565b80356001600160a01b03811681146105d557600080fd5b919050565b600080604083850312156105ed57600080fd5b6105f6836105be565b9150610604602084016105be565b90509250929050565b600060208083528351808285015260005b8181101561063a5785810183015185820160400152820161061e565b506000604082860101526040601f19601f8301168501019250505092915050565b6000806040838503121561066e57600080fd5b610677836105be565b946020939093013593505050565b60008060006060848603121561069a57600080fd5b6106a3846105be565b92506106b1602085016105be565b9150604084013590509250925092565b6000602082840312156106d357600080fd5b6106dc826105be565b9392505050565b600181811c908216806106f757607f821691505b60208210810361071757634e487b7160e01b600052602260045260246000fd5b50919050565b818103818111156102e157634e487b7160e01b600052601160045260246000fdfea26469706673582212207378560c2e7438847537145334afd880800b273c02226979cb6be35f3f3feeba64736f6c63430008140033",
  "linkReferences": {},
  "deployedLinkReferences": {}
}