{"contracts/HeroTicket.sol":{"HeroTicket":{"abi":[{"inputs":[{"internalType":"address payable","name":"accountImpl","type":"address"},{"internalType":"address","name":"registryImpl","type":"address"},{"internalType":"address","name":"heroToken","type":"address"}],"stateMutability":"nonpayable","type":"constructor"},{"inputs":[{"internalType":"address","name":"owner","type":"address"}],"name":"OwnableInvalidOwner","type":"error"},{"inputs":[{"internalType":"address","name":"account","type":"address"}],"name":"OwnableUnauthorizedAccount","type":"error"},{"anonymous":false,"inputs":[{"indexed":true,"internalType":"address","name":"previousOwner","type":"address"},{"indexed":true,"internalType":"address","name":"newOwner","type":"address"}],"name":"OwnershipTransferred","type":"event"},{"anonymous":false,"inputs":[{"indexed":true,"internalType":"address","name":"owner","type":"address"},{"indexed":true,"internalType":"address","name":"account","type":"address"},{"indexed":false,"internalType":"uint256","name":"tokenId","type":"uint256"}],"name":"TBACreated","type":"event"},{"anonymous":false,"inputs":[{"indexed":true,"internalType":"address","name":"_ticketAddress","type":"address"},{"indexed":true,"internalType":"address","name":"_owner","type":"address"},{"indexed":false,"internalType":"string","name":"_ticketName","type":"string"},{"indexed":false,"internalType":"string","name":"_ticketSymbol","type":"string"},{"indexed":false,"internalType":"string","name":"_ticketUri","type":"string"},{"indexed":false,"internalType":"address","name":"_initialOwner","type":"address"},{"indexed":false,"internalType":"uint256","name":"_ticketAmount","type":"uint256"},{"indexed":false,"internalType":"uint256","name":"_ticketEthPrice","type":"uint256"},{"indexed":false,"internalType":"uint256","name":"_ticketTokenPrice","type":"uint256"},{"indexed":false,"internalType":"uint256","name":"_saleDuration","type":"uint256"}],"name":"TicketIssued","type":"event"},{"anonymous":false,"inputs":[{"indexed":true,"internalType":"address","name":"_ticketAddress","type":"address"},{"indexed":true,"internalType":"address","name":"_buyer","type":"address"},{"indexed":false,"internalType":"uint256","name":"_ticketId","type":"uint256"},{"indexed":false,"internalType":"enum ITicketExtended.TicketSaleType","name":"_saleType","type":"uint8"}],"name":"TicketSold","type":"event"},{"inputs":[{"internalType":"uint256","name":"","type":"uint256"}],"name":"_tickets","outputs":[{"internalType":"address","name":"","type":"address"}],"stateMutability":"view","type":"function"},{"inputs":[{"internalType":"address","name":"_ticketAddress","type":"address"}],"name":"buyTicketByEther","outputs":[{"internalType":"uint256","name":"","type":"uint256"}],"stateMutability":"payable","type":"function"},{"inputs":[{"internalType":"address","name":"_ticketAddress","type":"address"},{"internalType":"address","name":"_buyer","type":"address"}],"name":"buyTicketByToken","outputs":[{"internalType":"uint256","name":"","type":"uint256"}],"stateMutability":"payable","type":"function"},{"inputs":[{"internalType":"address","name":"to","type":"address"},{"internalType":"string","name":"tokenURI","type":"string"}],"name":"createTBA","outputs":[{"internalType":"uint256","name":"","type":"uint256"},{"internalType":"address","name":"","type":"address"}],"stateMutability":"payable","type":"function"},{"inputs":[{"internalType":"string","name":"ticketName","type":"string"},{"internalType":"string","name":"ticketSymbol","type":"string"},{"internalType":"string","name":"ticketUri","type":"string"},{"internalType":"address","name":"issuer","type":"address"},{"internalType":"uint256","name":"ticketAmount","type":"uint256"},{"internalType":"uint256","name":"ticketEthPrice","type":"uint256"},{"internalType":"uint256","name":"ticketTokenPrice","type":"uint256"},{"internalType":"uint256","name":"saleDuration","type":"uint256"}],"name":"issueTicket","outputs":[{"internalType":"address","name":"","type":"address"}],"stateMutability":"nonpayable","type":"function"},{"inputs":[{"internalType":"address","name":"","type":"address"}],"name":"issuedTicket","outputs":[{"internalType":"bool","name":"","type":"bool"}],"stateMutability":"view","type":"function"},{"inputs":[{"internalType":"address","name":"","type":"address"},{"internalType":"uint256","name":"","type":"uint256"}],"name":"ownedTickets","outputs":[{"internalType":"address","name":"","type":"address"}],"stateMutability":"view","type":"function"},{"inputs":[],"name":"owner","outputs":[{"internalType":"address","name":"","type":"address"}],"stateMutability":"view","type":"function"},{"inputs":[],"name":"renounceOwnership","outputs":[],"stateMutability":"nonpayable","type":"function"},{"inputs":[{"internalType":"address","name":"","type":"address"}],"name":"tbaAddress","outputs":[{"internalType":"address","name":"","type":"address"}],"stateMutability":"view","type":"function"},{"inputs":[{"internalType":"address","name":"newOwner","type":"address"}],"name":"transferOwnership","outputs":[],"stateMutability":"nonpayable","type":"function"},{"inputs":[{"internalType":"address","name":"_ticketAddress","type":"address"},{"internalType":"address","name":"to","type":"address"}],"name":"updateWhiteList","outputs":[],"stateMutability":"nonpayable","type":"function"}],"evm":{"bytecode":{"linkReferences":{},"object":"60806040523480156200001157600080fd5b50604051620064c7380380620064c783398101604081905262000034916200015b565b33806200005b57604051631e4fbdf760e01b81526000600482015260240160405180910390fd5b6200006681620000e4565b50604051620000759062000134565b604051809103906000f08015801562000092573d6000803e3d6000fd5b50600380546001600160a01b03199081166001600160a01b03938416179091556002805482169583169590951790945560018054851693821693909317909255600480549093169116179055620001af565b600080546001600160a01b038381166001600160a01b0319831681178455604051919092169283917f8be0079c531659141344cd1fd0a4f28419497f9722a3daafe3b4186f6b6457e09190a35050565b611bb2806200491583390190565b6001600160a01b03811681146200015857600080fd5b50565b6000806000606084860312156200017157600080fd5b83516200017e8162000142565b6020850151909350620001918162000142565b6040850151909250620001a48162000142565b809150509250925092565b61475680620001bf6000396000f3fe608060405260043610620000d75760003560e01c806399eb3759116200007d578063c2b92c571162000054578063c2b92c5714620002b0578063e3bdcfd314620002c7578063f2fde38b14620002ec57600080fd5b806399eb375914620002245780639a827de51462000249578063c0fa772b146200028b57600080fd5b806378a2db8811620000b257806378a2db8814620001655780638da5cb5b14620001b057806397cd607714620001dd57600080fd5b8063416af20914620000dc578063664f7d5f1462000106578063715018a6146200014b575b600080fd5b620000f3620000ed3660046200158d565b62000311565b6040519081526020015b60405180910390f35b3480156200011357600080fd5b506200013a62000125366004620015cb565b60076020526000908152604090205460ff1681565b6040519015158152602001620000fd565b3480156200015857600080fd5b5062000163620009c2565b005b3480156200017257600080fd5b506200018a62000184366004620015f2565b620009da565b60405173ffffffffffffffffffffffffffffffffffffffff9091168152602001620000fd565b348015620001bd57600080fd5b5060005473ffffffffffffffffffffffffffffffffffffffff166200018a565b348015620001ea57600080fd5b506200018a620001fc366004620015cb565b60056020526000908152604090205473ffffffffffffffffffffffffffffffffffffffff1681565b3480156200023157600080fd5b506200018a620002433660046200160c565b62000a12565b620002606200025a3660046200171d565b62000a58565b6040805192835273ffffffffffffffffffffffffffffffffffffffff909116602083015201620000fd565b3480156200029857600080fd5b506200018a620002aa36600462001773565b62000e96565b620000f3620002c1366004620015cb565b6200100a565b348015620002d457600080fd5b5062000163620002e63660046200158d565b620012c3565b348015620002f957600080fd5b50620001636200030b366004620015cb565b62001416565b60006200031d62001480565b73ffffffffffffffffffffffffffffffffffffffff831660009081526007602052604090205460ff16620003d8576040517f08c379a000000000000000000000000000000000000000000000000000000000815260206004820152602560248201527f7469636b6574206973206e6f7420697373756564206279207468697320636f6e60448201527f747261637400000000000000000000000000000000000000000000000000000060648201526084015b60405180910390fd5b73ffffffffffffffffffffffffffffffffffffffff821662000457576040517f08c379a000000000000000000000000000000000000000000000000000000000815260206004820152601560248201527f696e76616c6964206275796572206164647265737300000000000000000000006044820152606401620003cf565b73ffffffffffffffffffffffffffffffffffffffff8083166000908152600560205260409020541680620004e8576040517f08c379a000000000000000000000000000000000000000000000000000000000815260206004820152601760248201527f696e76616c6964206163636f756e7420616464726573730000000000000000006044820152606401620003cf565b600084905060008173ffffffffffffffffffffffffffffffffffffffff166380a3e2836040518163ffffffff1660e01b8152600401602060405180830381865afa1580156200053b573d6000803e3d6000fd5b505050506040513d601f19601f820116820180604052508101906200056191906200183c565b600480546040517f70a0823100000000000000000000000000000000000000000000000000000000815273ffffffffffffffffffffffffffffffffffffffff898116938201939093529293506000929116906370a0823190602401602060405180830381865afa158015620005da573d6000803e3d6000fd5b505050506040513d601f19601f820116820180604052508101906200060091906200183c565b600480546040517f70a0823100000000000000000000000000000000000000000000000000000000815273ffffffffffffffffffffffffffffffffffffffff888116938201939093529293506000929116906370a0823190602401602060405180830381865afa15801562000679573d6000803e3d6000fd5b505050506040513d601f19601f820116820180604052508101906200069f91906200183c565b905082620006ae828462001885565b10156200073e576040517f08c379a000000000000000000000000000000000000000000000000000000000815260206004820152602260248201527f696e73756666696369656e742062616c616e636520746f20627579207469636b60448201527f65740000000000000000000000000000000000000000000000000000000000006064820152608401620003cf565b82811015620008045760006200075582856200189b565b600480546040517f422d054700000000000000000000000000000000000000000000000000000000815273ffffffffffffffffffffffffffffffffffffffff8c811693820193909352898316602482015260448101849052929350169063422d0547906064016020604051808303816000875af1158015620007db573d6000803e3d6000fd5b505050506040513d601f19601f82011682018060405250810190620008019190620018b1565b50505b600480546040517fed8c2a2500000000000000000000000000000000000000000000000000000000815273ffffffffffffffffffffffffffffffffffffffff888116938201939093528a831660248201526044810186905291169063ed8c2a25906064016020604051808303816000875af115801562000888573d6000803e3d6000fd5b505050506040513d601f19601f82011682018060405250810190620008ae9190620018b1565b506040517f6eb78beb00000000000000000000000000000000000000000000000000000000815273ffffffffffffffffffffffffffffffffffffffff868116600483015260009190861690636eb78beb906024016020604051808303816000875af115801562000922573d6000803e3d6000fd5b505050506040513d601f19601f820116820180604052508101906200094891906200183c565b90508773ffffffffffffffffffffffffffffffffffffffff168973ffffffffffffffffffffffffffffffffffffffff167f1e4e0bc720755ad50b7af8209717b1f6044596f0ef3f0bac4908cfe59d1104f3836001604051620009ac929190620018d5565b60405180910390a3955050505050505b92915050565b620009cc62001480565b620009d86000620014d5565b565b60088181548110620009eb57600080fd5b60009182526020909120015473ffffffffffffffffffffffffffffffffffffffff16905081565b6006602052816000526040600020818154811062000a2f57600080fd5b60009182526020909120015473ffffffffffffffffffffffffffffffffffffffff169150829050565b73ffffffffffffffffffffffffffffffffffffffff82811660009081526005602052604081205490918291161562000aed576040517f08c379a000000000000000000000000000000000000000000000000000000000815260206004820152601260248201527f54424120616c72656164792065786973747300000000000000000000000000006044820152606401620003cf565b6003546040517feacabe1400000000000000000000000000000000000000000000000000000000815260009173ffffffffffffffffffffffffffffffffffffffff169063eacabe149062000b48908890889060040162001987565b6020604051808303816000875af115801562000b68573d6000803e3d6000fd5b505050506040513d601f19601f8201168201806040525081019062000b8e91906200183c565b60408051426020808301919091527fffffffffffffffffffffffffffffffffffffffff0000000000000000000000003360601b1682840152605480830185905283518084039091018152607490920190925280519101209091506000906001546002546003546040517f8a54c52f00000000000000000000000000000000000000000000000000000000815273ffffffffffffffffffffffffffffffffffffffff928316600482015260248101859052466044820152908216606482015260848101869052929350600092911690638a54c52f9060a4016020604051808303816000875af115801562000c85573d6000803e3d6000fd5b505050506040513d601f19601f8201168201806040525081019062000cab9190620019c0565b6001546002546003546040517f246a002100000000000000000000000000000000000000000000000000000000815273ffffffffffffffffffffffffffffffffffffffff92831660048201526024810187905246604482015290821660648201526084810187905292935060009291169063246a00219060a401602060405180830381865afa15801562000d43573d6000803e3d6000fd5b505050506040513d601f19601f8201168201806040525081019062000d699190620019c0565b90508073ffffffffffffffffffffffffffffffffffffffff168273ffffffffffffffffffffffffffffffffffffffff161462000e02576040517f08c379a000000000000000000000000000000000000000000000000000000000815260206004820152601760248201527f4163636f756e74206372656174696f6e206661696c65640000000000000000006044820152606401620003cf565b73ffffffffffffffffffffffffffffffffffffffff88811660008181526005602090815260409182902080547fffffffffffffffffffffffff000000000000000000000000000000000000000016948716948517905590518781527f99846f4a13095aea1fa388bfc0280cce1bba671fd6788b108d637ce604b6faaf910160405180910390a3509196919550909350505050565b600080600460009054906101000a900473ffffffffffffffffffffffffffffffffffffffff168a8a8a8a8a8a8a8a60405162000ed2906200154a565b62000ee699989796959493929190620019e0565b604051809103906000f08015801562000f03573d6000803e3d6000fd5b5073ffffffffffffffffffffffffffffffffffffffff811660008181526007602052604080822080547fffffffffffffffffffffffffffffffffffffffffffffffffffffffffffffff001660019081179091556008805491820181559092527ff3f7a9fe364faab93b216da50a3214154f22a0a2b415b23a84c8169e8b636ee390910180547fffffffffffffffffffffffff000000000000000000000000000000000000000016831790555191925082913391907fb68a2626e56537ae86f86105124fefc066702f3e0b088ab131b4432afdc60dc59062000ff4908f908f908f908f908f908f908f908f9062001a6c565b60405180910390a39a9950505050505050505050565b73ffffffffffffffffffffffffffffffffffffffff811660009081526007602052604081205460ff16620010c1576040517f08c379a000000000000000000000000000000000000000000000000000000000815260206004820152602560248201527f7469636b6574206973206e6f7420697373756564206279207468697320636f6e60448201527f74726163740000000000000000000000000000000000000000000000000000006064820152608401620003cf565b600082905060008173ffffffffffffffffffffffffffffffffffffffff166311ddc2366040518163ffffffff1660e01b8152600401602060405180830381865afa15801562001114573d6000803e3d6000fd5b505050506040513d601f19601f820116820180604052508101906200113a91906200183c565b9050803414620011a7576040517f08c379a000000000000000000000000000000000000000000000000000000000815260206004820152600f60248201527f696e76616c6964207061796d656e7400000000000000000000000000000000006044820152606401620003cf565b336000908152600560205260408082205490517fc2b92c5700000000000000000000000000000000000000000000000000000000815273ffffffffffffffffffffffffffffffffffffffff91821660048201529084169063c2b92c5790849060240160206040518083038185885af115801562001228573d6000803e3d6000fd5b50505050506040513d601f19601f820116820180604052508101906200124f91906200183c565b90503373ffffffffffffffffffffffffffffffffffffffff168573ffffffffffffffffffffffffffffffffffffffff167f1e4e0bc720755ad50b7af8209717b1f6044596f0ef3f0bac4908cfe59d1104f3836000604051620012b3929190620018d5565b60405180910390a3949350505050565b620012cd62001480565b73ffffffffffffffffffffffffffffffffffffffff821660009081526007602052604090205460ff1662001384576040517f08c379a000000000000000000000000000000000000000000000000000000000815260206004820152602560248201527f7469636b6574206973206e6f7420697373756564206279207468697320636f6e60448201527f74726163740000000000000000000000000000000000000000000000000000006064820152608401620003cf565b6040517fac1d060900000000000000000000000000000000000000000000000000000000815273ffffffffffffffffffffffffffffffffffffffff82811660048301526001602483015283919082169063ac1d060990604401600060405180830381600087803b158015620013f857600080fd5b505af11580156200140d573d6000803e3d6000fd5b50505050505050565b6200142062001480565b73ffffffffffffffffffffffffffffffffffffffff811662001472576040517f1e4fbdf700000000000000000000000000000000000000000000000000000000815260006004820152602401620003cf565b6200147d81620014d5565b50565b60005473ffffffffffffffffffffffffffffffffffffffff163314620009d8576040517f118cdaa7000000000000000000000000000000000000000000000000000000008152336004820152602401620003cf565b6000805473ffffffffffffffffffffffffffffffffffffffff8381167fffffffffffffffffffffffff0000000000000000000000000000000000000000831681178455604051919092169283917f8be0079c531659141344cd1fd0a4f28419497f9722a3daafe3b4186f6b6457e09190a35050565b612c308062001af183390190565b73ffffffffffffffffffffffffffffffffffffffff811681146200147d57600080fd5b8035620015888162001558565b919050565b60008060408385031215620015a157600080fd5b8235620015ae8162001558565b91506020830135620015c08162001558565b809150509250929050565b600060208284031215620015de57600080fd5b8135620015eb8162001558565b9392505050565b6000602082840312156200160557600080fd5b5035919050565b600080604083850312156200162057600080fd5b82356200162d8162001558565b946020939093013593505050565b7f4e487b7100000000000000000000000000000000000000000000000000000000600052604160045260246000fd5b600082601f8301126200167c57600080fd5b813567ffffffffffffffff808211156200169a576200169a6200163b565b604051601f83017fffffffffffffffffffffffffffffffffffffffffffffffffffffffffffffffe0908116603f01168101908282118183101715620016e357620016e36200163b565b81604052838152866020858801011115620016fd57600080fd5b836020870160208301376000602085830101528094505050505092915050565b600080604083850312156200173157600080fd5b82356200173e8162001558565b9150602083013567ffffffffffffffff8111156200175b57600080fd5b62001769858286016200166a565b9150509250929050565b600080600080600080600080610100898b0312156200179157600080fd5b883567ffffffffffffffff80821115620017aa57600080fd5b620017b88c838d016200166a565b995060208b0135915080821115620017cf57600080fd5b620017dd8c838d016200166a565b985060408b0135915080821115620017f457600080fd5b50620018038b828c016200166a565b9650506200181460608a016200157b565b979a969950949760808101359660a0820135965060c0820135955060e0909101359350915050565b6000602082840312156200184f57600080fd5b5051919050565b7f4e487b7100000000000000000000000000000000000000000000000000000000600052601160045260246000fd5b80820180821115620009bc57620009bc62001856565b81810381811115620009bc57620009bc62001856565b600060208284031215620018c457600080fd5b81518015158114620015eb57600080fd5b828152604081016002831062001914577f4e487b7100000000000000000000000000000000000000000000000000000000600052602160045260246000fd5b8260208301529392505050565b6000815180845260005b8181101562001949576020818501810151868301820152016200192b565b5060006020828601015260207fffffffffffffffffffffffffffffffffffffffffffffffffffffffffffffffe0601f83011685010191505092915050565b73ffffffffffffffffffffffffffffffffffffffff83168152604060208201526000620019b8604083018462001921565b949350505050565b600060208284031215620019d357600080fd5b8151620015eb8162001558565b600061012073ffffffffffffffffffffffffffffffffffffffff808d16845281602085015262001a138285018d62001921565b9150838203604085015262001a29828c62001921565b9150838203606085015262001a3f828b62001921565b98166080840152505060a081019490945260c084019290925260e083015261010090910152949350505050565b600061010080835262001a828184018c62001921565b9050828103602084015262001a98818b62001921565b9050828103604084015262001aae818a62001921565b73ffffffffffffffffffffffffffffffffffffffff9890981660608401525050608081019490945260a084019290925260c083015260e090910152939250505056fe60806040523480156200001157600080fd5b5060405162002c3038038062002c3083398101604081905262000034916200030f565b878733806200005d57604051631e4fbdf760e01b81526000600482015260240160405180910390fd5b6200006881620001dd565b5060016200007783826200047d565b5060026200008682826200047d565b5050506001600160a01b038916620000b15760405163e6c4247b60e01b815260040160405180910390fd5b6001600160a01b038516620000d95760405163e6c4247b60e01b815260040160405180910390fd5b6001841015620000fb5760405162fab39f60e31b815260040160405180910390fd5b633b9aca0083101562000121576040516306f6808b60e01b815260040160405180910390fd5b600182101562000144576040516306f6808b60e01b815260040160405180910390fd5b620151808110156200016957604051636f736f7560e01b815260040160405180910390fd5b600880546001600160a01b03808c166001600160a01b031992831617909255600c869055600b805492881692909116919091179055600d839055600e829055600a620001b687826200047d565b5042600f819055620001ca90829062000549565b6010555062000571975050505050505050565b600080546001600160a01b038381166001600160a01b0319831681178455604051919092169283917f8be0079c531659141344cd1fd0a4f28419497f9722a3daafe3b4186f6b6457e09190a35050565b80516001600160a01b03811681146200024557600080fd5b919050565b634e487b7160e01b600052604160045260246000fd5b600082601f8301126200027257600080fd5b81516001600160401b03808211156200028f576200028f6200024a565b604051601f8301601f19908116603f01168101908282118183101715620002ba57620002ba6200024a565b81604052838152602092508683858801011115620002d757600080fd5b600091505b83821015620002fb5785820183015181830184015290820190620002dc565b600093810190920192909252949350505050565b60008060008060008060008060006101208a8c0312156200032f57600080fd5b6200033a8a6200022d565b60208b01519099506001600160401b03808211156200035857600080fd5b620003668d838e0162000260565b995060408c01519150808211156200037d57600080fd5b6200038b8d838e0162000260565b985060608c0151915080821115620003a257600080fd5b50620003b18c828d0162000260565b965050620003c260808b016200022d565b945060a08a0151935060c08a0151925060e08a015191506101008a015190509295985092959850929598565b600181811c908216806200040357607f821691505b6020821081036200042457634e487b7160e01b600052602260045260246000fd5b50919050565b601f8211156200047857600081815260208120601f850160051c81016020861015620004535750805b601f850160051c820191505b8181101562000474578281556001016200045f565b5050505b505050565b81516001600160401b038111156200049957620004996200024a565b620004b181620004aa8454620003ee565b846200042a565b602080601f831160018114620004e95760008415620004d05750858301515b600019600386901b1c1916600185901b17855562000474565b600085815260208120601f198616915b828110156200051a57888601518255948401946001909101908401620004f9565b5085821015620005395787850151600019600388901b60f8161c191681555b5050505050600190811b01905550565b808201808211156200056b57634e487b7160e01b600052601160045260246000fd5b92915050565b6126af80620005816000396000f3fe6080604052600436106101fe5760003560e01c80638cea8e8f1161011d578063b163d652116100b0578063c87b56dd1161007f578063e2142fde11610064578063e2142fde14610574578063e985e9c5146105a4578063f2fde38b146105ed57600080fd5b8063c87b56dd1461053e578063cbe8b7b41461055e57600080fd5b8063b163d652146104e0578063b88d4fde146104f6578063c2b92c5714610516578063c43c36db1461052957600080fd5b8063a22cb465116100ec578063a22cb46514610469578063a63234e014610489578063ac1d0609146104a9578063ac9b2c34146104c957600080fd5b80638cea8e8f1461041e5780638da5cb5b1461043657806395d89b4114610454578063a0c40d361461025a57600080fd5b8063372c12b1116101955780636eb78beb116101645780636eb78beb146103b357806370a08231146103d3578063715018a6146103f357806380a3e2831461040857600080fd5b8063372c12b11461032357806342842e0e146103535780636352211e14610373578063679ebf1a1461039357600080fd5b8063095ea7b3116101d1578063095ea7b3146102b557806311ddc236146102d75780631b022673146102ed57806323b872dd1461030357600080fd5b806301ffc9a71461020357806306fdde031461023857806307960e7e1461025a578063081812fc1461027d575b600080fd5b34801561020f57600080fd5b5061022361021e366004611fef565b61060d565b60405190151581526020015b60405180910390f35b34801561024457600080fd5b5061024d610669565b60405161022f919061207a565b34801561026657600080fd5b5061026f600181565b60405190815260200161022f565b34801561028957600080fd5b5061029d61029836600461208d565b6106fb565b6040516001600160a01b03909116815260200161022f565b3480156102c157600080fd5b506102d56102d03660046120bd565b610724565b005b3480156102e357600080fd5b5061026f600d5481565b3480156102f957600080fd5b5061026f60105481565b34801561030f57600080fd5b506102d561031e3660046120e7565b610733565b34801561032f57600080fd5b5061022361033e366004612123565b60116020526000908152604090205460ff1681565b34801561035f57600080fd5b506102d561036e3660046120e7565b6107f5565b34801561037f57600080fd5b5061029d61038e36600461208d565b610815565b34801561039f57600080fd5b506102d56103ae36600461213e565b610820565b3480156103bf57600080fd5b5061026f6103ce366004612123565b6108fa565b3480156103df57600080fd5b5061026f6103ee366004612123565b610a95565b3480156103ff57600080fd5b506102d5610af6565b34801561041457600080fd5b5061026f600e5481565b34801561042a57600080fd5b5061026f633b9aca0081565b34801561044257600080fd5b506000546001600160a01b031661029d565b34801561046057600080fd5b5061024d610b0a565b34801561047557600080fd5b506102d5610484366004612178565b610b19565b34801561049557600080fd5b50600b5461029d906001600160a01b031681565b3480156104b557600080fd5b506102d56104c4366004612178565b610b24565b3480156104d557600080fd5b5061026f6201518081565b3480156104ec57600080fd5b5061026f600c5481565b34801561050257600080fd5b506102d56105113660046121de565b610bea565b61026f610524366004612123565b610c01565b34801561053557600080fd5b506102d5610dba565b34801561054a57600080fd5b5061024d61055936600461208d565b610feb565b34801561056a57600080fd5b5061026f600f5481565b34801561058057600080fd5b5061022361058f366004612123565b60126020526000908152604090205460ff1681565b3480156105b057600080fd5b506102236105bf3660046122d8565b6001600160a01b03918216600090815260066020908152604080832093909416825291909152205460ff1690565b3480156105f957600080fd5b506102d5610608366004612123565b6110fc565b60007fffffffff0000000000000000000000000000000000000000000000000000000082167f49064906000000000000000000000000000000000000000000000000000000001480610663575061066382611153565b92915050565b60606001805461067890612302565b80601f01602080910402602001604051908101604052809291908181526020018280546106a490612302565b80156106f15780601f106106c6576101008083540402835291602001916106f1565b820191906000526020600020905b8154815290600101906020018083116106d457829003601f168201915b5050505050905090565b600061070682611236565b506000828152600560205260409020546001600160a01b0316610663565b61072f828233611288565b5050565b6001600160a01b03821661077b576040517f64a0ae92000000000000000000000000000000000000000000000000000000008152600060048201526024015b60405180910390fd5b6000610788838333611295565b9050836001600160a01b0316816001600160a01b0316146107ef576040517f64283d7b0000000000000000000000000000000000000000000000000000000081526001600160a01b0380861660048301526024820184905282166044820152606401610772565b50505050565b61081083838360405180602001604052806000815250610bea565b505050565b600061066382611236565b6001600160a01b038116610860576040517fe6c4247b00000000000000000000000000000000000000000000000000000000815260040160405180910390fd5b3361086a83610815565b6001600160a01b0316146108b3576040517fabd2857700000000000000000000000000000000000000000000000000000000815260048101839052336024820152604401610772565b6108be3382846107f5565b6040516001600160a01b03821690339084907fd15524263ae66f75c1e604c47db6085085110f23ef7322b355179ac5e3b0783a90600090a45050565b60006109046113c4565b600c54600003610940576040517f1281480200000000000000000000000000000000000000000000000000000000815260040160405180910390fd5b601054421061097b576040517f28d09ec100000000000000000000000000000000000000000000000000000000815260040160405180910390fd5b6001600160a01b0382166109bb576040517fe6c4247b00000000000000000000000000000000000000000000000000000000815260040160405180910390fd5b6001600160a01b03821660009081526012602052604090205460ff1615610a19576040517f66c1a1440000000000000000000000000000000000000000000000000000000081526001600160a01b0383166004820152602401610772565b610a228261140a565b6001600c6000828254610a359190612384565b9091555060009050610a4883600a611695565b905080836001600160a01b03167f64c70245ecf357faebc70330126993aeb69711984c09059595df6399dd510857600a604051610a859190612397565b60405180910390a390505b919050565b60006001600160a01b038216610ada576040517f89c62b6400000000000000000000000000000000000000000000000000000000815260006004820152602401610772565b506001600160a01b031660009081526004602052604090205490565b610afe6113c4565b610b086000611756565b565b60606002805461067890612302565b61072f3383836117be565b610b2c6113c4565b6001600160a01b038216610b6c576040517fe6c4247b00000000000000000000000000000000000000000000000000000000815260040160405180910390fd5b6001600160a01b03821660008181526011602090815260409182902080547fffffffffffffffffffffffffffffffffffffffffffffffffffffffffffffff001685151590811790915591519182527fb1288e9f7bae3599e10819d5553febea48e11a6f8f585b32c8abad397dd2627e91015b60405180910390a25050565b610bf5848484610733565b6107ef84848484611894565b6000610c0b6113c4565b600c54600003610c47576040517f1281480200000000000000000000000000000000000000000000000000000000815260040160405180910390fd5b6010544210610c82576040517f28d09ec100000000000000000000000000000000000000000000000000000000815260040160405180910390fd5b6001600160a01b038216610cc2576040517fe6c4247b00000000000000000000000000000000000000000000000000000000815260040160405180910390fd5b6001600160a01b03821660009081526011602052604090205460ff16610d1f576040517fb4535f360000000000000000000000000000000000000000000000000000000081526001600160a01b0383166004820152602401610772565b6001600160a01b03821660009081526012602052604090205460ff1615610d7d576040517f66c1a1440000000000000000000000000000000000000000000000000000000081526001600160a01b0383166004820152602401610772565b600d543414610a22576040517f296d36e8000000000000000000000000000000000000000000000000000000008152346004820152602401610772565b601054421015610df6576040517f21539dff00000000000000000000000000000000000000000000000000000000815260040160405180910390fd5b478015610e5f57600b546040516000916001600160a01b03169083908381818185875af1925050503d8060008114610e4a576040519150601f19603f3d011682016040523d82523d6000602084013e610e4f565b606091505b5050905080610e5d57600080fd5b505b6008546040517f70a082310000000000000000000000000000000000000000000000000000000081523060048201526000916001600160a01b0316906370a0823190602401602060405180830381865afa158015610ec1573d6000803e3d6000fd5b505050506040513d601f19601f82011682018060405250810190610ee59190612440565b90508015610f9257600854600b546040517fa9059cbb0000000000000000000000000000000000000000000000000000000081526001600160a01b03918216600482015260248101849052600092919091169063a9059cbb906044016020604051808303816000875af1158015610f60573d6000803e3d6000fd5b505050506040513d601f19601f82011682018060405250810190610f849190612459565b905080610f9057600080fd5b505b6000821180610fa15750600081115b1561072f57600b5460408051848152602081018490526001600160a01b03909216917f7aad6f98d5cb1c7d292c4cc72de936265c595b1317165c9c45b46bd2a2c5fe9f9101610bde565b6060610ff682611236565b506000828152600760205260408120805461101090612302565b80601f016020809104026020016040519081016040528092919081815260200182805461103c90612302565b80156110895780601f1061105e57610100808354040283529160200191611089565b820191906000526020600020905b81548152906001019060200180831161106c57829003601f168201915b5050505050905060006110a760408051602081019091526000815290565b905080516000036110b9575092915050565b8151156110eb5780826040516020016110d3929190612476565b60405160208183030381529060405292505050919050565b6110f484611a57565b949350505050565b6111046113c4565b6001600160a01b038116611147576040517f1e4fbdf700000000000000000000000000000000000000000000000000000000815260006004820152602401610772565b61115081611756565b50565b60007fffffffff0000000000000000000000000000000000000000000000000000000082167f80ac58cd0000000000000000000000000000000000000000000000000000000014806111e657507fffffffff0000000000000000000000000000000000000000000000000000000082167f5b5e139f00000000000000000000000000000000000000000000000000000000145b8061066357507f01ffc9a7000000000000000000000000000000000000000000000000000000007fffffffff00000000000000000000000000000000000000000000000000000000831614610663565b6000818152600360205260408120546001600160a01b031680610663576040517f7e27328900000000000000000000000000000000000000000000000000000000815260048101849052602401610772565b6108108383836001611acb565b6000828152600360205260408120546001600160a01b03908116908316156112c2576112c2818486611c21565b6001600160a01b0381161561131e576112df600085600080611acb565b6001600160a01b038116600090815260046020526040902080547fffffffffffffffffffffffffffffffffffffffffffffffffffffffffffffffff0190555b6001600160a01b0385161561134d576001600160a01b0385166000908152600460205260409020805460010190555b60008481526003602052604080822080547fffffffffffffffffffffffff0000000000000000000000000000000000000000166001600160a01b0389811691821790925591518793918516917fddf252ad1be2c89b69c2b068fc378daa952ba7f163c4a11628f55a4df523b3ef91a4949350505050565b6000546001600160a01b03163314610b08576040517f118cdaa7000000000000000000000000000000000000000000000000000000008152336004820152602401610772565b6008546040517f70a082310000000000000000000000000000000000000000000000000000000081526001600160a01b03838116600483015260009216906370a0823190602401602060405180830381865afa15801561146e573d6000803e3d6000fd5b505050506040513d601f19601f820116820180604052508101906114929190612440565b9050600e548110156114d3576040517f1bc3a58200000000000000000000000000000000000000000000000000000000815260048101829052602401610772565b6008546040517fdd62ed3e0000000000000000000000000000000000000000000000000000000081526001600160a01b038481166004830152306024830152600092169063dd62ed3e90604401602060405180830381865afa15801561153d573d6000803e3d6000fd5b505050506040513d601f19601f820116820180604052508101906115619190612440565b9050600e548110156115a2576040517f8ef24d4d00000000000000000000000000000000000000000000000000000000815260048101829052602401610772565b600854600e546040517f23b872dd0000000000000000000000000000000000000000000000000000000081526001600160a01b038681166004830152306024830152604482019290925260009291909116906323b872dd906064016020604051808303816000875af115801561161c573d6000803e3d6000fd5b505050506040513d601f19601f820116820180604052508101906116409190612459565b9050806107ef57600e546040517fbf182be80000000000000000000000000000000000000000000000000000000081526001600160a01b03861660048201523060248201526044810191909152606401610772565b60006001600960008282546116aa91906124a5565b90915550506009546116bc8482611cb7565b61174f818480546116cc90612302565b80601f01602080910402602001604051908101604052809291908181526020018280546116f890612302565b80156117455780601f1061171a57610100808354040283529160200191611745565b820191906000526020600020905b81548152906001019060200180831161172857829003601f168201915b5050505050611d4e565b9392505050565b600080546001600160a01b038381167fffffffffffffffffffffffff0000000000000000000000000000000000000000831681178455604051919092169283917f8be0079c531659141344cd1fd0a4f28419497f9722a3daafe3b4186f6b6457e09190a35050565b6001600160a01b038216611809576040517f5b08ba180000000000000000000000000000000000000000000000000000000081526001600160a01b0383166004820152602401610772565b6001600160a01b0383811660008181526006602090815260408083209487168084529482529182902080547fffffffffffffffffffffffffffffffffffffffffffffffffffffffffffffff001686151590811790915591519182527f17307eab39ab6107e8899845ad3d59bd9653f200f220920489ca2b5937696c31910160405180910390a3505050565b6001600160a01b0383163b156107ef576040517f150b7a020000000000000000000000000000000000000000000000000000000081526001600160a01b0384169063150b7a02906118ef9033908890879087906004016124b8565b6020604051808303816000875af1925050508015611948575060408051601f3d9081017fffffffffffffffffffffffffffffffffffffffffffffffffffffffffffffffe0168201909252611945918101906124f4565b60015b6119ca573d808015611976576040519150601f19603f3d011682016040523d82523d6000602084013e61197b565b606091505b5080516000036119c2576040517f64a0ae920000000000000000000000000000000000000000000000000000000081526001600160a01b0385166004820152602401610772565b805181602001fd5b7fffffffff0000000000000000000000000000000000000000000000000000000081167f150b7a020000000000000000000000000000000000000000000000000000000014611a50576040517f64a0ae920000000000000000000000000000000000000000000000000000000081526001600160a01b0385166004820152602401610772565b5050505050565b6060611a6282611236565b506000611a7a60408051602081019091526000815290565b90506000815111611a9a576040518060200160405280600081525061174f565b80611aa484611d9e565b604051602001611ab5929190612476565b6040516020818303038152906040529392505050565b8080611adf57506001600160a01b03821615155b15611bd9576000611aef84611236565b90506001600160a01b03831615801590611b1b5750826001600160a01b0316816001600160a01b031614155b8015611b4d57506001600160a01b0380821660009081526006602090815260408083209387168352929052205460ff16155b15611b8f576040517fa9fbf51f0000000000000000000000000000000000000000000000000000000081526001600160a01b0384166004820152602401610772565b8115611bd75783856001600160a01b0316826001600160a01b03167f8c5be1e5ebec7d5bd14f71427d1e84f3dd0314c0f7b2291e5b200ac8c7c3b92560405160405180910390a45b505b5050600090815260056020526040902080547fffffffffffffffffffffffff0000000000000000000000000000000000000000166001600160a01b0392909216919091179055565b611c2c838383611e5c565b610810576001600160a01b038316611c73576040517f7e27328900000000000000000000000000000000000000000000000000000000815260048101829052602401610772565b6040517f177e802f0000000000000000000000000000000000000000000000000000000081526001600160a01b038316600482015260248101829052604401610772565b6001600160a01b038216611cfa576040517f64a0ae9200000000000000000000000000000000000000000000000000000000815260006004820152602401610772565b6000611d0883836000611295565b90506001600160a01b03811615610810576040517f73c6ac6e00000000000000000000000000000000000000000000000000000000815260006004820152602401610772565b6000828152600760205260409020611d66828261255f565b506040518281527ff8e1a15aba9398e019f0b49df1a4fde98ee17ae345cb5f6b5e2c27f5033e8ce79060200160405180910390a15050565b60606000611dab83611edf565b600101905060008167ffffffffffffffff811115611dcb57611dcb6121af565b6040519080825280601f01601f191660200182016040528015611df5576020820181803683370190505b5090508181016020015b7fffffffffffffffffffffffffffffffffffffffffffffffffffffffffffffffff017f3031323334353637383961626364656600000000000000000000000000000000600a86061a8153600a8504945084611dff57509392505050565b60006001600160a01b038316158015906110f45750826001600160a01b0316846001600160a01b03161480611eb657506001600160a01b0380851660009081526006602090815260408083209387168352929052205460ff165b806110f45750506000908152600560205260409020546001600160a01b03908116911614919050565b6000807a184f03e93ff9f4daa797ed6e38ed64bf6a1f0100000000000000008310611f28577a184f03e93ff9f4daa797ed6e38ed64bf6a1f010000000000000000830492506040015b6d04ee2d6d415b85acef81000000008310611f54576d04ee2d6d415b85acef8100000000830492506020015b662386f26fc100008310611f7257662386f26fc10000830492506010015b6305f5e1008310611f8a576305f5e100830492506008015b6127108310611f9e57612710830492506004015b60648310611fb0576064830492506002015b600a83106106635760010192915050565b7fffffffff000000000000000000000000000000000000000000000000000000008116811461115057600080fd5b60006020828403121561200157600080fd5b813561174f81611fc1565b60005b8381101561202757818101518382015260200161200f565b50506000910152565b6000815180845261204881602086016020860161200c565b601f017fffffffffffffffffffffffffffffffffffffffffffffffffffffffffffffffe0169290920160200192915050565b60208152600061174f6020830184612030565b60006020828403121561209f57600080fd5b5035919050565b80356001600160a01b0381168114610a9057600080fd5b600080604083850312156120d057600080fd5b6120d9836120a6565b946020939093013593505050565b6000806000606084860312156120fc57600080fd5b612105846120a6565b9250612113602085016120a6565b9150604084013590509250925092565b60006020828403121561213557600080fd5b61174f826120a6565b6000806040838503121561215157600080fd5b82359150612161602084016120a6565b90509250929050565b801515811461115057600080fd5b6000806040838503121561218b57600080fd5b612194836120a6565b915060208301356121a48161216a565b809150509250929050565b7f4e487b7100000000000000000000000000000000000000000000000000000000600052604160045260246000fd5b600080600080608085870312156121f457600080fd5b6121fd856120a6565b935061220b602086016120a6565b925060408501359150606085013567ffffffffffffffff8082111561222f57600080fd5b818701915087601f83011261224357600080fd5b813581811115612255576122556121af565b604051601f82017fffffffffffffffffffffffffffffffffffffffffffffffffffffffffffffffe0908116603f0116810190838211818310171561229b5761229b6121af565b816040528281528a60208487010111156122b457600080fd5b82602086016020830137600060208483010152809550505050505092959194509250565b600080604083850312156122eb57600080fd5b6122f4836120a6565b9150612161602084016120a6565b600181811c9082168061231657607f821691505b60208210810361234f577f4e487b7100000000000000000000000000000000000000000000000000000000600052602260045260246000fd5b50919050565b7f4e487b7100000000000000000000000000000000000000000000000000000000600052601160045260246000fd5b8181038181111561066357610663612355565b60006020808352600084546123ab81612302565b808487015260406001808416600081146123cc576001811461240457612432565b7fffffffffffffffffffffffffffffffffffffffffffffffffffffffffffffff008516838a01528284151560051b8a01019550612432565b896000528660002060005b8581101561242a5781548b820186015290830190880161240f565b8a0184019650505b509398975050505050505050565b60006020828403121561245257600080fd5b5051919050565b60006020828403121561246b57600080fd5b815161174f8161216a565b6000835161248881846020880161200c565b83519083019061249c81836020880161200c565b01949350505050565b8082018082111561066357610663612355565b60006001600160a01b038087168352808616602084015250836040830152608060608301526124ea6080830184612030565b9695505050505050565b60006020828403121561250657600080fd5b815161174f81611fc1565b601f82111561081057600081815260208120601f850160051c810160208610156125385750805b601f850160051c820191505b8181101561255757828155600101612544565b505050505050565b815167ffffffffffffffff811115612579576125796121af565b61258d816125878454612302565b84612511565b602080601f8311600181146125e057600084156125aa5750858301515b7fffffffffffffffffffffffffffffffffffffffffffffffffffffffffffffffff600386901b1c1916600185901b178555612557565b6000858152602081207fffffffffffffffffffffffffffffffffffffffffffffffffffffffffffffffe08616915b8281101561262d5788860151825594840194600190910190840161260e565b508582101561266957878501517fffffffffffffffffffffffffffffffffffffffffffffffffffffffffffffffff600388901b60f8161c191681555b5050505050600190811b0190555056fea264697066735822122057f7e8092793789c8807cc05582317aee13043b82961b60abb4cb7639fac3df164736f6c63430008140033a264697066735822122084a9d9402bc95f9904e4af0fbac7797266d5dd7ccc395569c846d37e82a4e1e064736f6c6343000814003360806040523480156200001157600080fd5b50336040518060400160405280600f81526020016e12195c9bc8151a58dad95d08139195608a1b81525060405180604001604052806003815260200162242a2760e91b8152508160009081620000689190620001b2565b506001620000778282620001b2565b5050506001600160a01b038116620000a957604051631e4fbdf760e01b81526000600482015260240160405180910390fd5b620000b481620000bb565b506200027e565b600780546001600160a01b038381166001600160a01b0319831681179093556040519116919082907f8be0079c531659141344cd1fd0a4f28419497f9722a3daafe3b4186f6b6457e090600090a35050565b634e487b7160e01b600052604160045260246000fd5b600181811c908216806200013857607f821691505b6020821081036200015957634e487b7160e01b600052602260045260246000fd5b50919050565b601f821115620001ad57600081815260208120601f850160051c81016020861015620001885750805b601f850160051c820191505b81811015620001a95782815560010162000194565b5050505b505050565b81516001600160401b03811115620001ce57620001ce6200010d565b620001e681620001df845462000123565b846200015f565b602080601f8311600181146200021e5760008415620002055750858301515b600019600386901b1c1916600185901b178555620001a9565b600085815260208120601f198616915b828110156200024f578886015182559484019460019091019084016200022e565b50858210156200026e5787850151600019600388901b60f8161c191681555b5050505050600190811b01905550565b611924806200028e6000396000f3fe608060405234801561001057600080fd5b50600436106101365760003560e01c8063715018a6116100b2578063b88d4fde11610081578063e985e9c511610066578063e985e9c514610295578063eacabe14146102d1578063f2fde38b146102e457600080fd5b8063b88d4fde1461026f578063c87b56dd1461028257600080fd5b8063715018a61461023b5780638da5cb5b1461024357806395d89b4114610254578063a22cb4651461025c57600080fd5b806323b872dd1161010957806342842e0e116100ee57806342842e0e146102025780636352211e1461021557806370a082311461022857600080fd5b806323b872dd146101b857806323ca0cd2146101cb57600080fd5b806301ffc9a71461013b57806306fdde0314610163578063081812fc14610178578063095ea7b3146101a3575b600080fd5b61014e6101493660046112cd565b6102f7565b60405190151581526020015b60405180910390f35b61016b610353565b60405161015a9190611358565b61018b61018636600461136b565b6103e5565b6040516001600160a01b03909116815260200161015a565b6101b66101b13660046113a0565b61040e565b005b6101b66101c63660046113ca565b61041d565b6101f46101d9366004611406565b6001600160a01b031660009081526009602052604090205490565b60405190815260200161015a565b6101b66102103660046113ca565b6104df565b61018b61022336600461136b565b6104ff565b6101f4610236366004611406565b61050a565b6101b661056b565b6007546001600160a01b031661018b565b61016b61057f565b6101b661026a366004611421565b61058e565b6101b661027d366004611520565b610599565b61016b61029036600461136b565b6105b0565b61014e6102a336600461159c565b6001600160a01b03918216600090815260056020908152604080832093909416825291909152205460ff1690565b6101f46102df3660046115cf565b6106c1565b6101b66102f2366004611406565b610723565b60007fffffffff0000000000000000000000000000000000000000000000000000000082167f4906490600000000000000000000000000000000000000000000000000000000148061034d575061034d8261077a565b92915050565b60606000805461036290611631565b80601f016020809104026020016040519081016040528092919081815260200182805461038e90611631565b80156103db5780601f106103b0576101008083540402835291602001916103db565b820191906000526020600020905b8154815290600101906020018083116103be57829003601f168201915b5050505050905090565b60006103f08261085d565b506000828152600460205260409020546001600160a01b031661034d565b6104198282336108af565b5050565b6001600160a01b038216610465576040517f64a0ae92000000000000000000000000000000000000000000000000000000008152600060048201526024015b60405180910390fd5b60006104728383336108bc565b9050836001600160a01b0316816001600160a01b0316146104d9576040517f64283d7b0000000000000000000000000000000000000000000000000000000081526001600160a01b038086166004830152602482018490528216604482015260640161045c565b50505050565b6104fa83838360405180602001604052806000815250610599565b505050565b600061034d8261085d565b60006001600160a01b03821661054f576040517f89c62b640000000000000000000000000000000000000000000000000000000081526000600482015260240161045c565b506001600160a01b031660009081526003602052604090205490565b6105736109eb565b61057d6000610a31565b565b60606001805461036290611631565b610419338383610a9b565b6105a484848461041d565b6104d984848484610b71565b60606105bb8261085d565b50600082815260066020526040812080546105d590611631565b80601f016020809104026020016040519081016040528092919081815260200182805461060190611631565b801561064e5780601f106106235761010080835404028352916020019161064e565b820191906000526020600020905b81548152906001019060200180831161063157829003601f168201915b50505050509050600061066c60408051602081019091526000815290565b9050805160000361067e575092915050565b8151156106b0578082604051602001610698929190611684565b60405160208183030381529060405292505050919050565b6106b984610d34565b949350505050565b60006106cb6109eb565b6008546106d99060016116e2565b60088190556106e88482610da9565b6106f28184610e40565b6001600160a01b0384166000908152600960205260408120805491610716836116f5565b9091555090949350505050565b61072b6109eb565b6001600160a01b03811661076e576040517f1e4fbdf70000000000000000000000000000000000000000000000000000000081526000600482015260240161045c565b61077781610a31565b50565b60007fffffffff0000000000000000000000000000000000000000000000000000000082167f80ac58cd00000000000000000000000000000000000000000000000000000000148061080d57507fffffffff0000000000000000000000000000000000000000000000000000000082167f5b5e139f00000000000000000000000000000000000000000000000000000000145b8061034d57507f01ffc9a7000000000000000000000000000000000000000000000000000000007fffffffff0000000000000000000000000000000000000000000000000000000083161461034d565b6000818152600260205260408120546001600160a01b03168061034d576040517f7e2732890000000000000000000000000000000000000000000000000000000081526004810184905260240161045c565b6104fa8383836001610e90565b6000828152600260205260408120546001600160a01b03908116908316156108e9576108e9818486610fe6565b6001600160a01b0381161561094557610906600085600080610e90565b6001600160a01b038116600090815260036020526040902080547fffffffffffffffffffffffffffffffffffffffffffffffffffffffffffffffff0190555b6001600160a01b03851615610974576001600160a01b0385166000908152600360205260409020805460010190555b60008481526002602052604080822080547fffffffffffffffffffffffff0000000000000000000000000000000000000000166001600160a01b0389811691821790925591518793918516917fddf252ad1be2c89b69c2b068fc378daa952ba7f163c4a11628f55a4df523b3ef91a4949350505050565b6007546001600160a01b0316331461057d576040517f118cdaa700000000000000000000000000000000000000000000000000000000815233600482015260240161045c565b600780546001600160a01b038381167fffffffffffffffffffffffff0000000000000000000000000000000000000000831681179093556040519116919082907f8be0079c531659141344cd1fd0a4f28419497f9722a3daafe3b4186f6b6457e090600090a35050565b6001600160a01b038216610ae6576040517f5b08ba180000000000000000000000000000000000000000000000000000000081526001600160a01b038316600482015260240161045c565b6001600160a01b0383811660008181526005602090815260408083209487168084529482529182902080547fffffffffffffffffffffffffffffffffffffffffffffffffffffffffffffff001686151590811790915591519182527f17307eab39ab6107e8899845ad3d59bd9653f200f220920489ca2b5937696c31910160405180910390a3505050565b6001600160a01b0383163b156104d9576040517f150b7a020000000000000000000000000000000000000000000000000000000081526001600160a01b0384169063150b7a0290610bcc90339088908790879060040161172d565b6020604051808303816000875af1925050508015610c25575060408051601f3d9081017fffffffffffffffffffffffffffffffffffffffffffffffffffffffffffffffe0168201909252610c2291810190611769565b60015b610ca7573d808015610c53576040519150601f19603f3d011682016040523d82523d6000602084013e610c58565b606091505b508051600003610c9f576040517f64a0ae920000000000000000000000000000000000000000000000000000000081526001600160a01b038516600482015260240161045c565b805181602001fd5b7fffffffff0000000000000000000000000000000000000000000000000000000081167f150b7a020000000000000000000000000000000000000000000000000000000014610d2d576040517f64a0ae920000000000000000000000000000000000000000000000000000000081526001600160a01b038516600482015260240161045c565b5050505050565b6060610d3f8261085d565b506000610d5760408051602081019091526000815290565b90506000815111610d775760405180602001604052806000815250610da2565b80610d818461107c565b604051602001610d92929190611684565b6040516020818303038152906040525b9392505050565b6001600160a01b038216610dec576040517f64a0ae920000000000000000000000000000000000000000000000000000000081526000600482015260240161045c565b6000610dfa838360006108bc565b90506001600160a01b038116156104fa576040517f73c6ac6e0000000000000000000000000000000000000000000000000000000081526000600482015260240161045c565b6000828152600660205260409020610e5882826117d4565b506040518281527ff8e1a15aba9398e019f0b49df1a4fde98ee17ae345cb5f6b5e2c27f5033e8ce79060200160405180910390a15050565b8080610ea457506001600160a01b03821615155b15610f9e576000610eb48461085d565b90506001600160a01b03831615801590610ee05750826001600160a01b0316816001600160a01b031614155b8015610f1257506001600160a01b0380821660009081526005602090815260408083209387168352929052205460ff16155b15610f54576040517fa9fbf51f0000000000000000000000000000000000000000000000000000000081526001600160a01b038416600482015260240161045c565b8115610f9c5783856001600160a01b0316826001600160a01b03167f8c5be1e5ebec7d5bd14f71427d1e84f3dd0314c0f7b2291e5b200ac8c7c3b92560405160405180910390a45b505b5050600090815260046020526040902080547fffffffffffffffffffffffff0000000000000000000000000000000000000000166001600160a01b0392909216919091179055565b610ff183838361113a565b6104fa576001600160a01b038316611038576040517f7e2732890000000000000000000000000000000000000000000000000000000081526004810182905260240161045c565b6040517f177e802f0000000000000000000000000000000000000000000000000000000081526001600160a01b03831660048201526024810182905260440161045c565b60606000611089836111bd565b600101905060008167ffffffffffffffff8111156110a9576110a961145d565b6040519080825280601f01601f1916602001820160405280156110d3576020820181803683370190505b5090508181016020015b7fffffffffffffffffffffffffffffffffffffffffffffffffffffffffffffffff017f3031323334353637383961626364656600000000000000000000000000000000600a86061a8153600a85049450846110dd57509392505050565b60006001600160a01b038316158015906106b95750826001600160a01b0316846001600160a01b0316148061119457506001600160a01b0380851660009081526005602090815260408083209387168352929052205460ff165b806106b95750506000908152600460205260409020546001600160a01b03908116911614919050565b6000807a184f03e93ff9f4daa797ed6e38ed64bf6a1f0100000000000000008310611206577a184f03e93ff9f4daa797ed6e38ed64bf6a1f010000000000000000830492506040015b6d04ee2d6d415b85acef81000000008310611232576d04ee2d6d415b85acef8100000000830492506020015b662386f26fc10000831061125057662386f26fc10000830492506010015b6305f5e1008310611268576305f5e100830492506008015b612710831061127c57612710830492506004015b6064831061128e576064830492506002015b600a831061034d5760010192915050565b7fffffffff000000000000000000000000000000000000000000000000000000008116811461077757600080fd5b6000602082840312156112df57600080fd5b8135610da28161129f565b60005b838110156113055781810151838201526020016112ed565b50506000910152565b600081518084526113268160208601602086016112ea565b601f017fffffffffffffffffffffffffffffffffffffffffffffffffffffffffffffffe0169290920160200192915050565b602081526000610da2602083018461130e565b60006020828403121561137d57600080fd5b5035919050565b80356001600160a01b038116811461139b57600080fd5b919050565b600080604083850312156113b357600080fd5b6113bc83611384565b946020939093013593505050565b6000806000606084860312156113df57600080fd5b6113e884611384565b92506113f660208501611384565b9150604084013590509250925092565b60006020828403121561141857600080fd5b610da282611384565b6000806040838503121561143457600080fd5b61143d83611384565b91506020830135801515811461145257600080fd5b809150509250929050565b7f4e487b7100000000000000000000000000000000000000000000000000000000600052604160045260246000fd5b600067ffffffffffffffff808411156114a7576114a761145d565b604051601f85017fffffffffffffffffffffffffffffffffffffffffffffffffffffffffffffffe0908116603f011681019082821181831017156114ed576114ed61145d565b8160405280935085815286868601111561150657600080fd5b858560208301376000602087830101525050509392505050565b6000806000806080858703121561153657600080fd5b61153f85611384565b935061154d60208601611384565b925060408501359150606085013567ffffffffffffffff81111561157057600080fd5b8501601f8101871361158157600080fd5b6115908782356020840161148c565b91505092959194509250565b600080604083850312156115af57600080fd5b6115b883611384565b91506115c660208401611384565b90509250929050565b600080604083850312156115e257600080fd5b6115eb83611384565b9150602083013567ffffffffffffffff81111561160757600080fd5b8301601f8101851361161857600080fd5b6116278582356020840161148c565b9150509250929050565b600181811c9082168061164557607f821691505b60208210810361167e577f4e487b7100000000000000000000000000000000000000000000000000000000600052602260045260246000fd5b50919050565b600083516116968184602088016112ea565b8351908301906116aa8183602088016112ea565b01949350505050565b7f4e487b7100000000000000000000000000000000000000000000000000000000600052601160045260246000fd5b8082018082111561034d5761034d6116b3565b60007fffffffffffffffffffffffffffffffffffffffffffffffffffffffffffffffff8203611726576117266116b3565b5060010190565b60006001600160a01b0380871683528086166020840152508360408301526080606083015261175f608083018461130e565b9695505050505050565b60006020828403121561177b57600080fd5b8151610da28161129f565b601f8211156104fa57600081815260208120601f850160051c810160208610156117ad5750805b601f850160051c820191505b818110156117cc578281556001016117b9565b505050505050565b815167ffffffffffffffff8111156117ee576117ee61145d565b611802816117fc8454611631565b84611786565b602080601f831160018114611855576000841561181f5750858301515b7fffffffffffffffffffffffffffffffffffffffffffffffffffffffffffffffff600386901b1c1916600185901b1785556117cc565b6000858152602081207fffffffffffffffffffffffffffffffffffffffffffffffffffffffffffffffe08616915b828110156118a257888601518255948401946001909101908401611883565b50858210156118de57878501517fffffffffffffffffffffffffffffffffffffffffffffffffffffffffffffffff600388901b60f8161c191681555b5050505050600190811b0190555056fea26469706673582212202d84e7d1914b708e6b808021ddb78eef7f0b762efe8c85b78e553f7622e3ddf464736f6c63430008140033","opcodes":"PUSH1 0x80 PUSH1 0x40 MSTORE CALLVALUE DUP1 ISZERO PUSH3 0x11 JUMPI PUSH1 0x0 DUP1 REVERT JUMPDEST POP PUSH1 0x40 MLOAD PUSH3 0x64C7 CODESIZE SUB DUP1 PUSH3 0x64C7 DUP4 CODECOPY DUP2 ADD PUSH1 0x40 DUP2 SWAP1 MSTORE PUSH3 0x34 SWAP2 PUSH3 0x15B JUMP JUMPDEST CALLER DUP1 PUSH3 0x5B JUMPI PUSH1 0x40 MLOAD PUSH4 0x1E4FBDF7 PUSH1 0xE0 SHL DUP2 MSTORE PUSH1 0x0 PUSH1 0x4 DUP3 ADD MSTORE PUSH1 0x24 ADD PUSH1 0x40 MLOAD DUP1 SWAP2 SUB SWAP1 REVERT JUMPDEST PUSH3 0x66 DUP2 PUSH3 0xE4 JUMP JUMPDEST POP PUSH1 0x40 MLOAD PUSH3 0x75 SWAP1 PUSH3 0x134 JUMP JUMPDEST PUSH1 0x40 MLOAD DUP1 SWAP2 SUB SWAP1 PUSH1 0x0 CREATE DUP1 ISZERO DUP1 ISZERO PUSH3 0x92 JUMPI RETURNDATASIZE PUSH1 0x0 DUP1 RETURNDATACOPY RETURNDATASIZE PUSH1 0x0 REVERT JUMPDEST POP PUSH1 0x3 DUP1 SLOAD PUSH1 0x1 PUSH1 0x1 PUSH1 0xA0 SHL SUB NOT SWAP1 DUP2 AND PUSH1 0x1 PUSH1 0x1 PUSH1 0xA0 SHL SUB SWAP4 DUP5 AND OR SWAP1 SWAP2 SSTORE PUSH1 0x2 DUP1 SLOAD DUP3 AND SWAP6 DUP4 AND SWAP6 SWAP1 SWAP6 OR SWAP1 SWAP5 SSTORE PUSH1 0x1 DUP1 SLOAD DUP6 AND SWAP4 DUP3 AND SWAP4 SWAP1 SWAP4 OR SWAP1 SWAP3 SSTORE PUSH1 0x4 DUP1 SLOAD SWAP1 SWAP4 AND SWAP2 AND OR SWAP1 SSTORE PUSH3 0x1AF JUMP JUMPDEST PUSH1 0x0 DUP1 SLOAD PUSH1 0x1 PUSH1 0x1 PUSH1 0xA0 SHL SUB DUP4 DUP2 AND PUSH1 0x1 PUSH1 0x1 PUSH1 0xA0 SHL SUB NOT DUP4 AND DUP2 OR DUP5 SSTORE PUSH1 0x40 MLOAD SWAP2 SWAP1 SWAP3 AND SWAP3 DUP4 SWAP2 PUSH32 0x8BE0079C531659141344CD1FD0A4F28419497F9722A3DAAFE3B4186F6B6457E0 SWAP2 SWAP1 LOG3 POP POP JUMP JUMPDEST PUSH2 0x1BB2 DUP1 PUSH3 0x4915 DUP4 CODECOPY ADD SWAP1 JUMP JUMPDEST PUSH1 0x1 PUSH1 0x1 PUSH1 0xA0 SHL SUB DUP2 AND DUP2 EQ PUSH3 0x158 JUMPI PUSH1 0x0 DUP1 REVERT JUMPDEST POP JUMP JUMPDEST PUSH1 0x0 DUP1 PUSH1 0x0 PUSH1 0x60 DUP5 DUP7 SUB SLT ISZERO PUSH3 0x171 JUMPI PUSH1 0x0 DUP1 REVERT JUMPDEST DUP4 MLOAD PUSH3 0x17E DUP2 PUSH3 0x142 JUMP JUMPDEST PUSH1 0x20 DUP6 ADD MLOAD SWAP1 SWAP4 POP PUSH3 0x191 DUP2 PUSH3 0x142 JUMP JUMPDEST PUSH1 0x40 DUP6 ADD MLOAD SWAP1 SWAP3 POP PUSH3 0x1A4 DUP2 PUSH3 0x142 JUMP JUMPDEST DUP1 SWAP2 POP POP SWAP3 POP SWAP3 POP SWAP3 JUMP JUMPDEST PUSH2 0x4756 DUP1 PUSH3 0x1BF PUSH1 0x0 CODECOPY PUSH1 0x0 RETURN INVALID PUSH1 0x80 PUSH1 0x40 MSTORE PUSH1 0x4 CALLDATASIZE LT PUSH3 0xD7 JUMPI PUSH1 0x0 CALLDATALOAD PUSH1 0xE0 SHR DUP1 PUSH4 0x99EB3759 GT PUSH3 0x7D JUMPI DUP1 PUSH4 0xC2B92C57 GT PUSH3 0x54 JUMPI DUP1 PUSH4 0xC2B92C57 EQ PUSH3 0x2B0 JUMPI DUP1 PUSH4 0xE3BDCFD3 EQ PUSH3 0x2C7 JUMPI DUP1 PUSH4 0xF2FDE38B EQ PUSH3 0x2EC JUMPI PUSH1 0x0 DUP1 REVERT JUMPDEST DUP1 PUSH4 0x99EB3759 EQ PUSH3 0x224 JUMPI DUP1 PUSH4 0x9A827DE5 EQ PUSH3 0x249 JUMPI DUP1 PUSH4 0xC0FA772B EQ PUSH3 0x28B JUMPI PUSH1 0x0 DUP1 REVERT JUMPDEST DUP1 PUSH4 0x78A2DB88 GT PUSH3 0xB2 JUMPI DUP1 PUSH4 0x78A2DB88 EQ PUSH3 0x165 JUMPI DUP1 PUSH4 0x8DA5CB5B EQ PUSH3 0x1B0 JUMPI DUP1 PUSH4 0x97CD6077 EQ PUSH3 0x1DD JUMPI PUSH1 0x0 DUP1 REVERT JUMPDEST DUP1 PUSH4 0x416AF209 EQ PUSH3 0xDC JUMPI DUP1 PUSH4 0x664F7D5F EQ PUSH3 0x106 JUMPI DUP1 PUSH4 0x715018A6 EQ PUSH3 0x14B JUMPI JUMPDEST PUSH1 0x0 DUP1 REVERT JUMPDEST PUSH3 0xF3 PUSH3 0xED CALLDATASIZE PUSH1 0x4 PUSH3 0x158D JUMP JUMPDEST PUSH3 0x311 JUMP JUMPDEST PUSH1 0x40 MLOAD SWAP1 DUP2 MSTORE PUSH1 0x20 ADD JUMPDEST PUSH1 0x40 MLOAD DUP1 SWAP2 SUB SWAP1 RETURN JUMPDEST CALLVALUE DUP1 ISZERO PUSH3 0x113 JUMPI PUSH1 0x0 DUP1 REVERT JUMPDEST POP PUSH3 0x13A PUSH3 0x125 CALLDATASIZE PUSH1 0x4 PUSH3 0x15CB JUMP JUMPDEST PUSH1 0x7 PUSH1 0x20 MSTORE PUSH1 0x0 SWAP1 DUP2 MSTORE PUSH1 0x40 SWAP1 KECCAK256 SLOAD PUSH1 0xFF AND DUP2 JUMP JUMPDEST PUSH1 0x40 MLOAD SWAP1 ISZERO ISZERO DUP2 MSTORE PUSH1 0x20 ADD PUSH3 0xFD JUMP JUMPDEST CALLVALUE DUP1 ISZERO PUSH3 0x158 JUMPI PUSH1 0x0 DUP1 REVERT JUMPDEST POP PUSH3 0x163 PUSH3 0x9C2 JUMP JUMPDEST STOP JUMPDEST CALLVALUE DUP1 ISZERO PUSH3 0x172 JUMPI PUSH1 0x0 DUP1 REVERT JUMPDEST POP PUSH3 0x18A PUSH3 0x184 CALLDATASIZE PUSH1 0x4 PUSH3 0x15F2 JUMP JUMPDEST PUSH3 0x9DA JUMP JUMPDEST PUSH1 0x40 MLOAD PUSH20 0xFFFFFFFFFFFFFFFFFFFFFFFFFFFFFFFFFFFFFFFF SWAP1 SWAP2 AND DUP2 MSTORE PUSH1 0x20 ADD PUSH3 0xFD JUMP JUMPDEST CALLVALUE DUP1 ISZERO PUSH3 0x1BD JUMPI PUSH1 0x0 DUP1 REVERT JUMPDEST POP PUSH1 0x0 SLOAD PUSH20 0xFFFFFFFFFFFFFFFFFFFFFFFFFFFFFFFFFFFFFFFF AND PUSH3 0x18A JUMP JUMPDEST CALLVALUE DUP1 ISZERO PUSH3 0x1EA JUMPI PUSH1 0x0 DUP1 REVERT JUMPDEST POP PUSH3 0x18A PUSH3 0x1FC CALLDATASIZE PUSH1 0x4 PUSH3 0x15CB JUMP JUMPDEST PUSH1 0x5 PUSH1 0x20 MSTORE PUSH1 0x0 SWAP1 DUP2 MSTORE PUSH1 0x40 SWAP1 KECCAK256 SLOAD PUSH20 0xFFFFFFFFFFFFFFFFFFFFFFFFFFFFFFFFFFFFFFFF AND DUP2 JUMP JUMPDEST CALLVALUE DUP1 ISZERO PUSH3 0x231 JUMPI PUSH1 0x0 DUP1 REVERT JUMPDEST POP PUSH3 0x18A PUSH3 0x243 CALLDATASIZE PUSH1 0x4 PUSH3 0x160C JUMP JUMPDEST PUSH3 0xA12 JUMP JUMPDEST PUSH3 0x260 PUSH3 0x25A CALLDATASIZE PUSH1 0x4 PUSH3 0x171D JUMP JUMPDEST PUSH3 0xA58 JUMP JUMPDEST PUSH1 0x40 DUP1 MLOAD SWAP3 DUP4 MSTORE PUSH20 0xFFFFFFFFFFFFFFFFFFFFFFFFFFFFFFFFFFFFFFFF SWAP1 SWAP2 AND PUSH1 0x20 DUP4 ADD MSTORE ADD PUSH3 0xFD JUMP JUMPDEST CALLVALUE DUP1 ISZERO PUSH3 0x298 JUMPI PUSH1 0x0 DUP1 REVERT JUMPDEST POP PUSH3 0x18A PUSH3 0x2AA CALLDATASIZE PUSH1 0x4 PUSH3 0x1773 JUMP JUMPDEST PUSH3 0xE96 JUMP JUMPDEST PUSH3 0xF3 PUSH3 0x2C1 CALLDATASIZE PUSH1 0x4 PUSH3 0x15CB JUMP JUMPDEST PUSH3 0x100A JUMP JUMPDEST CALLVALUE DUP1 ISZERO PUSH3 0x2D4 JUMPI PUSH1 0x0 DUP1 REVERT JUMPDEST POP PUSH3 0x163 PUSH3 0x2E6 CALLDATASIZE PUSH1 0x4 PUSH3 0x158D JUMP JUMPDEST PUSH3 0x12C3 JUMP JUMPDEST CALLVALUE DUP1 ISZERO PUSH3 0x2F9 JUMPI PUSH1 0x0 DUP1 REVERT JUMPDEST POP PUSH3 0x163 PUSH3 0x30B CALLDATASIZE PUSH1 0x4 PUSH3 0x15CB JUMP JUMPDEST PUSH3 0x1416 JUMP JUMPDEST PUSH1 0x0 PUSH3 0x31D PUSH3 0x1480 JUMP JUMPDEST PUSH20 0xFFFFFFFFFFFFFFFFFFFFFFFFFFFFFFFFFFFFFFFF DUP4 AND PUSH1 0x0 SWAP1 DUP2 MSTORE PUSH1 0x7 PUSH1 0x20 MSTORE PUSH1 0x40 SWAP1 KECCAK256 SLOAD PUSH1 0xFF AND PUSH3 0x3D8 JUMPI PUSH1 0x40 MLOAD PUSH32 0x8C379A000000000000000000000000000000000000000000000000000000000 DUP2 MSTORE PUSH1 0x20 PUSH1 0x4 DUP3 ADD MSTORE PUSH1 0x25 PUSH1 0x24 DUP3 ADD MSTORE PUSH32 0x7469636B6574206973206E6F7420697373756564206279207468697320636F6E PUSH1 0x44 DUP3 ADD MSTORE PUSH32 0x7472616374000000000000000000000000000000000000000000000000000000 PUSH1 0x64 DUP3 ADD MSTORE PUSH1 0x84 ADD JUMPDEST PUSH1 0x40 MLOAD DUP1 SWAP2 SUB SWAP1 REVERT JUMPDEST PUSH20 0xFFFFFFFFFFFFFFFFFFFFFFFFFFFFFFFFFFFFFFFF DUP3 AND PUSH3 0x457 JUMPI PUSH1 0x40 MLOAD PUSH32 0x8C379A000000000000000000000000000000000000000000000000000000000 DUP2 MSTORE PUSH1 0x20 PUSH1 0x4 DUP3 ADD MSTORE PUSH1 0x15 PUSH1 0x24 DUP3 ADD MSTORE PUSH32 0x696E76616C696420627579657220616464726573730000000000000000000000 PUSH1 0x44 DUP3 ADD MSTORE PUSH1 0x64 ADD PUSH3 0x3CF JUMP JUMPDEST PUSH20 0xFFFFFFFFFFFFFFFFFFFFFFFFFFFFFFFFFFFFFFFF DUP1 DUP4 AND PUSH1 0x0 SWAP1 DUP2 MSTORE PUSH1 0x5 PUSH1 0x20 MSTORE PUSH1 0x40 SWAP1 KECCAK256 SLOAD AND DUP1 PUSH3 0x4E8 JUMPI PUSH1 0x40 MLOAD PUSH32 0x8C379A000000000000000000000000000000000000000000000000000000000 DUP2 MSTORE PUSH1 0x20 PUSH1 0x4 DUP3 ADD MSTORE PUSH1 0x17 PUSH1 0x24 DUP3 ADD MSTORE PUSH32 0x696E76616C6964206163636F756E742061646472657373000000000000000000 PUSH1 0x44 DUP3 ADD MSTORE PUSH1 0x64 ADD PUSH3 0x3CF JUMP JUMPDEST PUSH1 0x0 DUP5 SWAP1 POP PUSH1 0x0 DUP2 PUSH20 0xFFFFFFFFFFFFFFFFFFFFFFFFFFFFFFFFFFFFFFFF AND PUSH4 0x80A3E283 PUSH1 0x40 MLOAD DUP2 PUSH4 0xFFFFFFFF AND PUSH1 0xE0 SHL DUP2 MSTORE PUSH1 0x4 ADD PUSH1 0x20 PUSH1 0x40 MLOAD DUP1 DUP4 SUB DUP2 DUP7 GAS STATICCALL ISZERO DUP1 ISZERO PUSH3 0x53B JUMPI RETURNDATASIZE PUSH1 0x0 DUP1 RETURNDATACOPY RETURNDATASIZE PUSH1 0x0 REVERT JUMPDEST POP POP POP POP PUSH1 0x40 MLOAD RETURNDATASIZE PUSH1 0x1F NOT PUSH1 0x1F DUP3 ADD AND DUP3 ADD DUP1 PUSH1 0x40 MSTORE POP DUP2 ADD SWAP1 PUSH3 0x561 SWAP2 SWAP1 PUSH3 0x183C JUMP JUMPDEST PUSH1 0x4 DUP1 SLOAD PUSH1 0x40 MLOAD PUSH32 0x70A0823100000000000000000000000000000000000000000000000000000000 DUP2 MSTORE PUSH20 0xFFFFFFFFFFFFFFFFFFFFFFFFFFFFFFFFFFFFFFFF DUP10 DUP2 AND SWAP4 DUP3 ADD SWAP4 SWAP1 SWAP4 MSTORE SWAP3 SWAP4 POP PUSH1 0x0 SWAP3 SWAP2 AND SWAP1 PUSH4 0x70A08231 SWAP1 PUSH1 0x24 ADD PUSH1 0x20 PUSH1 0x40 MLOAD DUP1 DUP4 SUB DUP2 DUP7 GAS STATICCALL ISZERO DUP1 ISZERO PUSH3 0x5DA JUMPI RETURNDATASIZE PUSH1 0x0 DUP1 RETURNDATACOPY RETURNDATASIZE PUSH1 0x0 REVERT JUMPDEST POP POP POP POP PUSH1 0x40 MLOAD RETURNDATASIZE PUSH1 0x1F NOT PUSH1 0x1F DUP3 ADD AND DUP3 ADD DUP1 PUSH1 0x40 MSTORE POP DUP2 ADD SWAP1 PUSH3 0x600 SWAP2 SWAP1 PUSH3 0x183C JUMP JUMPDEST PUSH1 0x4 DUP1 SLOAD PUSH1 0x40 MLOAD PUSH32 0x70A0823100000000000000000000000000000000000000000000000000000000 DUP2 MSTORE PUSH20 0xFFFFFFFFFFFFFFFFFFFFFFFFFFFFFFFFFFFFFFFF DUP9 DUP2 AND SWAP4 DUP3 ADD SWAP4 SWAP1 SWAP4 MSTORE SWAP3 SWAP4 POP PUSH1 0x0 SWAP3 SWAP2 AND SWAP1 PUSH4 0x70A08231 SWAP1 PUSH1 0x24 ADD PUSH1 0x20 PUSH1 0x40 MLOAD DUP1 DUP4 SUB DUP2 DUP7 GAS STATICCALL ISZERO DUP1 ISZERO PUSH3 0x679 JUMPI RETURNDATASIZE PUSH1 0x0 DUP1 RETURNDATACOPY RETURNDATASIZE PUSH1 0x0 REVERT JUMPDEST POP POP POP POP PUSH1 0x40 MLOAD RETURNDATASIZE PUSH1 0x1F NOT PUSH1 0x1F DUP3 ADD AND DUP3 ADD DUP1 PUSH1 0x40 MSTORE POP DUP2 ADD SWAP1 PUSH3 0x69F SWAP2 SWAP1 PUSH3 0x183C JUMP JUMPDEST SWAP1 POP DUP3 PUSH3 0x6AE DUP3 DUP5 PUSH3 0x1885 JUMP JUMPDEST LT ISZERO PUSH3 0x73E JUMPI PUSH1 0x40 MLOAD PUSH32 0x8C379A000000000000000000000000000000000000000000000000000000000 DUP2 MSTORE PUSH1 0x20 PUSH1 0x4 DUP3 ADD MSTORE PUSH1 0x22 PUSH1 0x24 DUP3 ADD MSTORE PUSH32 0x696E73756666696369656E742062616C616E636520746F20627579207469636B PUSH1 0x44 DUP3 ADD MSTORE PUSH32 0x6574000000000000000000000000000000000000000000000000000000000000 PUSH1 0x64 DUP3 ADD MSTORE PUSH1 0x84 ADD PUSH3 0x3CF JUMP JUMPDEST DUP3 DUP2 LT ISZERO PUSH3 0x804 JUMPI PUSH1 0x0 PUSH3 0x755 DUP3 DUP6 PUSH3 0x189B JUMP JUMPDEST PUSH1 0x4 DUP1 SLOAD PUSH1 0x40 MLOAD PUSH32 0x422D054700000000000000000000000000000000000000000000000000000000 DUP2 MSTORE PUSH20 0xFFFFFFFFFFFFFFFFFFFFFFFFFFFFFFFFFFFFFFFF DUP13 DUP2 AND SWAP4 DUP3 ADD SWAP4 SWAP1 SWAP4 MSTORE DUP10 DUP4 AND PUSH1 0x24 DUP3 ADD MSTORE PUSH1 0x44 DUP2 ADD DUP5 SWAP1 MSTORE SWAP3 SWAP4 POP AND SWAP1 PUSH4 0x422D0547 SWAP1 PUSH1 0x64 ADD PUSH1 0x20 PUSH1 0x40 MLOAD DUP1 DUP4 SUB DUP2 PUSH1 0x0 DUP8 GAS CALL ISZERO DUP1 ISZERO PUSH3 0x7DB JUMPI RETURNDATASIZE PUSH1 0x0 DUP1 RETURNDATACOPY RETURNDATASIZE PUSH1 0x0 REVERT JUMPDEST POP POP POP POP PUSH1 0x40 MLOAD RETURNDATASIZE PUSH1 0x1F NOT PUSH1 0x1F DUP3 ADD AND DUP3 ADD DUP1 PUSH1 0x40 MSTORE POP DUP2 ADD SWAP1 PUSH3 0x801 SWAP2 SWAP1 PUSH3 0x18B1 JUMP JUMPDEST POP POP JUMPDEST PUSH1 0x4 DUP1 SLOAD PUSH1 0x40 MLOAD PUSH32 0xED8C2A2500000000000000000000000000000000000000000000000000000000 DUP2 MSTORE PUSH20 0xFFFFFFFFFFFFFFFFFFFFFFFFFFFFFFFFFFFFFFFF DUP9 DUP2 AND SWAP4 DUP3 ADD SWAP4 SWAP1 SWAP4 MSTORE DUP11 DUP4 AND PUSH1 0x24 DUP3 ADD MSTORE PUSH1 0x44 DUP2 ADD DUP7 SWAP1 MSTORE SWAP2 AND SWAP1 PUSH4 0xED8C2A25 SWAP1 PUSH1 0x64 ADD PUSH1 0x20 PUSH1 0x40 MLOAD DUP1 DUP4 SUB DUP2 PUSH1 0x0 DUP8 GAS CALL ISZERO DUP1 ISZERO PUSH3 0x888 JUMPI RETURNDATASIZE PUSH1 0x0 DUP1 RETURNDATACOPY RETURNDATASIZE PUSH1 0x0 REVERT JUMPDEST POP POP POP POP PUSH1 0x40 MLOAD RETURNDATASIZE PUSH1 0x1F NOT PUSH1 0x1F DUP3 ADD AND DUP3 ADD DUP1 PUSH1 0x40 MSTORE POP DUP2 ADD SWAP1 PUSH3 0x8AE SWAP2 SWAP1 PUSH3 0x18B1 JUMP JUMPDEST POP PUSH1 0x40 MLOAD PUSH32 0x6EB78BEB00000000000000000000000000000000000000000000000000000000 DUP2 MSTORE PUSH20 0xFFFFFFFFFFFFFFFFFFFFFFFFFFFFFFFFFFFFFFFF DUP7 DUP2 AND PUSH1 0x4 DUP4 ADD MSTORE PUSH1 0x0 SWAP2 SWAP1 DUP7 AND SWAP1 PUSH4 0x6EB78BEB SWAP1 PUSH1 0x24 ADD PUSH1 0x20 PUSH1 0x40 MLOAD DUP1 DUP4 SUB DUP2 PUSH1 0x0 DUP8 GAS CALL ISZERO DUP1 ISZERO PUSH3 0x922 JUMPI RETURNDATASIZE PUSH1 0x0 DUP1 RETURNDATACOPY RETURNDATASIZE PUSH1 0x0 REVERT JUMPDEST POP POP POP POP PUSH1 0x40 MLOAD RETURNDATASIZE PUSH1 0x1F NOT PUSH1 0x1F DUP3 ADD AND DUP3 ADD DUP1 PUSH1 0x40 MSTORE POP DUP2 ADD SWAP1 PUSH3 0x948 SWAP2 SWAP1 PUSH3 0x183C JUMP JUMPDEST SWAP1 POP DUP8 PUSH20 0xFFFFFFFFFFFFFFFFFFFFFFFFFFFFFFFFFFFFFFFF AND DUP10 PUSH20 0xFFFFFFFFFFFFFFFFFFFFFFFFFFFFFFFFFFFFFFFF AND PUSH32 0x1E4E0BC720755AD50B7AF8209717B1F6044596F0EF3F0BAC4908CFE59D1104F3 DUP4 PUSH1 0x1 PUSH1 0x40 MLOAD PUSH3 0x9AC SWAP3 SWAP2 SWAP1 PUSH3 0x18D5 JUMP JUMPDEST PUSH1 0x40 MLOAD DUP1 SWAP2 SUB SWAP1 LOG3 SWAP6 POP POP POP POP POP POP JUMPDEST SWAP3 SWAP2 POP POP JUMP JUMPDEST PUSH3 0x9CC PUSH3 0x1480 JUMP JUMPDEST PUSH3 0x9D8 PUSH1 0x0 PUSH3 0x14D5 JUMP JUMPDEST JUMP JUMPDEST PUSH1 0x8 DUP2 DUP2 SLOAD DUP2 LT PUSH3 0x9EB JUMPI PUSH1 0x0 DUP1 REVERT JUMPDEST PUSH1 0x0 SWAP2 DUP3 MSTORE PUSH1 0x20 SWAP1 SWAP2 KECCAK256 ADD SLOAD PUSH20 0xFFFFFFFFFFFFFFFFFFFFFFFFFFFFFFFFFFFFFFFF AND SWAP1 POP DUP2 JUMP JUMPDEST PUSH1 0x6 PUSH1 0x20 MSTORE DUP2 PUSH1 0x0 MSTORE PUSH1 0x40 PUSH1 0x0 KECCAK256 DUP2 DUP2 SLOAD DUP2 LT PUSH3 0xA2F JUMPI PUSH1 0x0 DUP1 REVERT JUMPDEST PUSH1 0x0 SWAP2 DUP3 MSTORE PUSH1 0x20 SWAP1 SWAP2 KECCAK256 ADD SLOAD PUSH20 0xFFFFFFFFFFFFFFFFFFFFFFFFFFFFFFFFFFFFFFFF AND SWAP2 POP DUP3 SWAP1 POP JUMP JUMPDEST PUSH20 0xFFFFFFFFFFFFFFFFFFFFFFFFFFFFFFFFFFFFFFFF DUP3 DUP2 AND PUSH1 0x0 SWAP1 DUP2 MSTORE PUSH1 0x5 PUSH1 0x20 MSTORE PUSH1 0x40 DUP2 KECCAK256 SLOAD SWAP1 SWAP2 DUP3 SWAP2 AND ISZERO PUSH3 0xAED JUMPI PUSH1 0x40 MLOAD PUSH32 0x8C379A000000000000000000000000000000000000000000000000000000000 DUP2 MSTORE PUSH1 0x20 PUSH1 0x4 DUP3 ADD MSTORE PUSH1 0x12 PUSH1 0x24 DUP3 ADD MSTORE PUSH32 0x54424120616C7265616479206578697374730000000000000000000000000000 PUSH1 0x44 DUP3 ADD MSTORE PUSH1 0x64 ADD PUSH3 0x3CF JUMP JUMPDEST PUSH1 0x3 SLOAD PUSH1 0x40 MLOAD PUSH32 0xEACABE1400000000000000000000000000000000000000000000000000000000 DUP2 MSTORE PUSH1 0x0 SWAP2 PUSH20 0xFFFFFFFFFFFFFFFFFFFFFFFFFFFFFFFFFFFFFFFF AND SWAP1 PUSH4 0xEACABE14 SWAP1 PUSH3 0xB48 SWAP1 DUP9 SWAP1 DUP9 SWAP1 PUSH1 0x4 ADD PUSH3 0x1987 JUMP JUMPDEST PUSH1 0x20 PUSH1 0x40 MLOAD DUP1 DUP4 SUB DUP2 PUSH1 0x0 DUP8 GAS CALL ISZERO DUP1 ISZERO PUSH3 0xB68 JUMPI RETURNDATASIZE PUSH1 0x0 DUP1 RETURNDATACOPY RETURNDATASIZE PUSH1 0x0 REVERT JUMPDEST POP POP POP POP PUSH1 0x40 MLOAD RETURNDATASIZE PUSH1 0x1F NOT PUSH1 0x1F DUP3 ADD AND DUP3 ADD DUP1 PUSH1 0x40 MSTORE POP DUP2 ADD SWAP1 PUSH3 0xB8E SWAP2 SWAP1 PUSH3 0x183C JUMP JUMPDEST PUSH1 0x40 DUP1 MLOAD TIMESTAMP PUSH1 0x20 DUP1 DUP4 ADD SWAP2 SWAP1 SWAP2 MSTORE PUSH32 0xFFFFFFFFFFFFFFFFFFFFFFFFFFFFFFFFFFFFFFFF000000000000000000000000 CALLER PUSH1 0x60 SHL AND DUP3 DUP5 ADD MSTORE PUSH1 0x54 DUP1 DUP4 ADD DUP6 SWAP1 MSTORE DUP4 MLOAD DUP1 DUP5 SUB SWAP1 SWAP2 ADD DUP2 MSTORE PUSH1 0x74 SWAP1 SWAP3 ADD SWAP1 SWAP3 MSTORE DUP1 MLOAD SWAP2 ADD KECCAK256 SWAP1 SWAP2 POP PUSH1 0x0 SWAP1 PUSH1 0x1 SLOAD PUSH1 0x2 SLOAD PUSH1 0x3 SLOAD PUSH1 0x40 MLOAD PUSH32 0x8A54C52F00000000000000000000000000000000000000000000000000000000 DUP2 MSTORE PUSH20 0xFFFFFFFFFFFFFFFFFFFFFFFFFFFFFFFFFFFFFFFF SWAP3 DUP4 AND PUSH1 0x4 DUP3 ADD MSTORE PUSH1 0x24 DUP2 ADD DUP6 SWAP1 MSTORE CHAINID PUSH1 0x44 DUP3 ADD MSTORE SWAP1 DUP3 AND PUSH1 0x64 DUP3 ADD MSTORE PUSH1 0x84 DUP2 ADD DUP7 SWAP1 MSTORE SWAP3 SWAP4 POP PUSH1 0x0 SWAP3 SWAP2 AND SWAP1 PUSH4 0x8A54C52F SWAP1 PUSH1 0xA4 ADD PUSH1 0x20 PUSH1 0x40 MLOAD DUP1 DUP4 SUB DUP2 PUSH1 0x0 DUP8 GAS CALL ISZERO DUP1 ISZERO PUSH3 0xC85 JUMPI RETURNDATASIZE PUSH1 0x0 DUP1 RETURNDATACOPY RETURNDATASIZE PUSH1 0x0 REVERT JUMPDEST POP POP POP POP PUSH1 0x40 MLOAD RETURNDATASIZE PUSH1 0x1F NOT PUSH1 0x1F DUP3 ADD AND DUP3 ADD DUP1 PUSH1 0x40 MSTORE POP DUP2 ADD SWAP1 PUSH3 0xCAB SWAP2 SWAP1 PUSH3 0x19C0 JUMP JUMPDEST PUSH1 0x1 SLOAD PUSH1 0x2 SLOAD PUSH1 0x3 SLOAD PUSH1 0x40 MLOAD PUSH32 0x246A002100000000000000000000000000000000000000000000000000000000 DUP2 MSTORE PUSH20 0xFFFFFFFFFFFFFFFFFFFFFFFFFFFFFFFFFFFFFFFF SWAP3 DUP4 AND PUSH1 0x4 DUP3 ADD MSTORE PUSH1 0x24 DUP2 ADD DUP8 SWAP1 MSTORE CHAINID PUSH1 0x44 DUP3 ADD MSTORE SWAP1 DUP3 AND PUSH1 0x64 DUP3 ADD MSTORE PUSH1 0x84 DUP2 ADD DUP8 SWAP1 MSTORE SWAP3 SWAP4 POP PUSH1 0x0 SWAP3 SWAP2 AND SWAP1 PUSH4 0x246A0021 SWAP1 PUSH1 0xA4 ADD PUSH1 0x20 PUSH1 0x40 MLOAD DUP1 DUP4 SUB DUP2 DUP7 GAS STATICCALL ISZERO DUP1 ISZERO PUSH3 0xD43 JUMPI RETURNDATASIZE PUSH1 0x0 DUP1 RETURNDATACOPY RETURNDATASIZE PUSH1 0x0 REVERT JUMPDEST POP POP POP POP PUSH1 0x40 MLOAD RETURNDATASIZE PUSH1 0x1F NOT PUSH1 0x1F DUP3 ADD AND DUP3 ADD DUP1 PUSH1 0x40 MSTORE POP DUP2 ADD SWAP1 PUSH3 0xD69 SWAP2 SWAP1 PUSH3 0x19C0 JUMP JUMPDEST SWAP1 POP DUP1 PUSH20 0xFFFFFFFFFFFFFFFFFFFFFFFFFFFFFFFFFFFFFFFF AND DUP3 PUSH20 0xFFFFFFFFFFFFFFFFFFFFFFFFFFFFFFFFFFFFFFFF AND EQ PUSH3 0xE02 JUMPI PUSH1 0x40 MLOAD PUSH32 0x8C379A000000000000000000000000000000000000000000000000000000000 DUP2 MSTORE PUSH1 0x20 PUSH1 0x4 DUP3 ADD MSTORE PUSH1 0x17 PUSH1 0x24 DUP3 ADD MSTORE PUSH32 0x4163636F756E74206372656174696F6E206661696C6564000000000000000000 PUSH1 0x44 DUP3 ADD MSTORE PUSH1 0x64 ADD PUSH3 0x3CF JUMP JUMPDEST PUSH20 0xFFFFFFFFFFFFFFFFFFFFFFFFFFFFFFFFFFFFFFFF DUP9 DUP2 AND PUSH1 0x0 DUP2 DUP2 MSTORE PUSH1 0x5 PUSH1 0x20 SWAP1 DUP2 MSTORE PUSH1 0x40 SWAP2 DUP3 SWAP1 KECCAK256 DUP1 SLOAD PUSH32 0xFFFFFFFFFFFFFFFFFFFFFFFF0000000000000000000000000000000000000000 AND SWAP5 DUP8 AND SWAP5 DUP6 OR SWAP1 SSTORE SWAP1 MLOAD DUP8 DUP2 MSTORE PUSH32 0x99846F4A13095AEA1FA388BFC0280CCE1BBA671FD6788B108D637CE604B6FAAF SWAP2 ADD PUSH1 0x40 MLOAD DUP1 SWAP2 SUB SWAP1 LOG3 POP SWAP2 SWAP7 SWAP2 SWAP6 POP SWAP1 SWAP4 POP POP POP POP JUMP JUMPDEST PUSH1 0x0 DUP1 PUSH1 0x4 PUSH1 0x0 SWAP1 SLOAD SWAP1 PUSH2 0x100 EXP SWAP1 DIV PUSH20 0xFFFFFFFFFFFFFFFFFFFFFFFFFFFFFFFFFFFFFFFF AND DUP11 DUP11 DUP11 DUP11 DUP11 DUP11 DUP11 DUP11 PUSH1 0x40 MLOAD PUSH3 0xED2 SWAP1 PUSH3 0x154A JUMP JUMPDEST PUSH3 0xEE6 SWAP10 SWAP9 SWAP8 SWAP7 SWAP6 SWAP5 SWAP4 SWAP3 SWAP2 SWAP1 PUSH3 0x19E0 JUMP JUMPDEST PUSH1 0x40 MLOAD DUP1 SWAP2 SUB SWAP1 PUSH1 0x0 CREATE DUP1 ISZERO DUP1 ISZERO PUSH3 0xF03 JUMPI RETURNDATASIZE PUSH1 0x0 DUP1 RETURNDATACOPY RETURNDATASIZE PUSH1 0x0 REVERT JUMPDEST POP PUSH20 0xFFFFFFFFFFFFFFFFFFFFFFFFFFFFFFFFFFFFFFFF DUP2 AND PUSH1 0x0 DUP2 DUP2 MSTORE PUSH1 0x7 PUSH1 0x20 MSTORE PUSH1 0x40 DUP1 DUP3 KECCAK256 DUP1 SLOAD PUSH32 0xFFFFFFFFFFFFFFFFFFFFFFFFFFFFFFFFFFFFFFFFFFFFFFFFFFFFFFFFFFFFFF00 AND PUSH1 0x1 SWAP1 DUP2 OR SWAP1 SWAP2 SSTORE PUSH1 0x8 DUP1 SLOAD SWAP2 DUP3 ADD DUP2 SSTORE SWAP1 SWAP3 MSTORE PUSH32 0xF3F7A9FE364FAAB93B216DA50A3214154F22A0A2B415B23A84C8169E8B636EE3 SWAP1 SWAP2 ADD DUP1 SLOAD PUSH32 0xFFFFFFFFFFFFFFFFFFFFFFFF0000000000000000000000000000000000000000 AND DUP4 OR SWAP1 SSTORE MLOAD SWAP2 SWAP3 POP DUP3 SWAP2 CALLER SWAP2 SWAP1 PUSH32 0xB68A2626E56537AE86F86105124FEFC066702F3E0B088AB131B4432AFDC60DC5 SWAP1 PUSH3 0xFF4 SWAP1 DUP16 SWAP1 DUP16 SWAP1 DUP16 SWAP1 DUP16 SWAP1 DUP16 SWAP1 DUP16 SWAP1 DUP16 SWAP1 DUP16 SWAP1 PUSH3 0x1A6C JUMP JUMPDEST PUSH1 0x40 MLOAD DUP1 SWAP2 SUB SWAP1 LOG3 SWAP11 SWAP10 POP POP POP POP POP POP POP POP POP POP JUMP JUMPDEST PUSH20 0xFFFFFFFFFFFFFFFFFFFFFFFFFFFFFFFFFFFFFFFF DUP2 AND PUSH1 0x0 SWAP1 DUP2 MSTORE PUSH1 0x7 PUSH1 0x20 MSTORE PUSH1 0x40 DUP2 KECCAK256 SLOAD PUSH1 0xFF AND PUSH3 0x10C1 JUMPI PUSH1 0x40 MLOAD PUSH32 0x8C379A000000000000000000000000000000000000000000000000000000000 DUP2 MSTORE PUSH1 0x20 PUSH1 0x4 DUP3 ADD MSTORE PUSH1 0x25 PUSH1 0x24 DUP3 ADD MSTORE PUSH32 0x7469636B6574206973206E6F7420697373756564206279207468697320636F6E PUSH1 0x44 DUP3 ADD MSTORE PUSH32 0x7472616374000000000000000000000000000000000000000000000000000000 PUSH1 0x64 DUP3 ADD MSTORE PUSH1 0x84 ADD PUSH3 0x3CF JUMP JUMPDEST PUSH1 0x0 DUP3 SWAP1 POP PUSH1 0x0 DUP2 PUSH20 0xFFFFFFFFFFFFFFFFFFFFFFFFFFFFFFFFFFFFFFFF AND PUSH4 0x11DDC236 PUSH1 0x40 MLOAD DUP2 PUSH4 0xFFFFFFFF AND PUSH1 0xE0 SHL DUP2 MSTORE PUSH1 0x4 ADD PUSH1 0x20 PUSH1 0x40 MLOAD DUP1 DUP4 SUB DUP2 DUP7 GAS STATICCALL ISZERO DUP1 ISZERO PUSH3 0x1114 JUMPI RETURNDATASIZE PUSH1 0x0 DUP1 RETURNDATACOPY RETURNDATASIZE PUSH1 0x0 REVERT JUMPDEST POP POP POP POP PUSH1 0x40 MLOAD RETURNDATASIZE PUSH1 0x1F NOT PUSH1 0x1F DUP3 ADD AND DUP3 ADD DUP1 PUSH1 0x40 MSTORE POP DUP2 ADD SWAP1 PUSH3 0x113A SWAP2 SWAP1 PUSH3 0x183C JUMP JUMPDEST SWAP1 POP DUP1 CALLVALUE EQ PUSH3 0x11A7 JUMPI PUSH1 0x40 MLOAD PUSH32 0x8C379A000000000000000000000000000000000000000000000000000000000 DUP2 MSTORE PUSH1 0x20 PUSH1 0x4 DUP3 ADD MSTORE PUSH1 0xF PUSH1 0x24 DUP3 ADD MSTORE PUSH32 0x696E76616C6964207061796D656E740000000000000000000000000000000000 PUSH1 0x44 DUP3 ADD MSTORE PUSH1 0x64 ADD PUSH3 0x3CF JUMP JUMPDEST CALLER PUSH1 0x0 SWAP1 DUP2 MSTORE PUSH1 0x5 PUSH1 0x20 MSTORE PUSH1 0x40 DUP1 DUP3 KECCAK256 SLOAD SWAP1 MLOAD PUSH32 0xC2B92C5700000000000000000000000000000000000000000000000000000000 DUP2 MSTORE PUSH20 0xFFFFFFFFFFFFFFFFFFFFFFFFFFFFFFFFFFFFFFFF SWAP2 DUP3 AND PUSH1 0x4 DUP3 ADD MSTORE SWAP1 DUP5 AND SWAP1 PUSH4 0xC2B92C57 SWAP1 DUP5 SWAP1 PUSH1 0x24 ADD PUSH1 0x20 PUSH1 0x40 MLOAD DUP1 DUP4 SUB DUP2 DUP6 DUP9 GAS CALL ISZERO DUP1 ISZERO PUSH3 0x1228 JUMPI RETURNDATASIZE PUSH1 0x0 DUP1 RETURNDATACOPY RETURNDATASIZE PUSH1 0x0 REVERT JUMPDEST POP POP POP POP POP PUSH1 0x40 MLOAD RETURNDATASIZE PUSH1 0x1F NOT PUSH1 0x1F DUP3 ADD AND DUP3 ADD DUP1 PUSH1 0x40 MSTORE POP DUP2 ADD SWAP1 PUSH3 0x124F SWAP2 SWAP1 PUSH3 0x183C JUMP JUMPDEST SWAP1 POP CALLER PUSH20 0xFFFFFFFFFFFFFFFFFFFFFFFFFFFFFFFFFFFFFFFF AND DUP6 PUSH20 0xFFFFFFFFFFFFFFFFFFFFFFFFFFFFFFFFFFFFFFFF AND PUSH32 0x1E4E0BC720755AD50B7AF8209717B1F6044596F0EF3F0BAC4908CFE59D1104F3 DUP4 PUSH1 0x0 PUSH1 0x40 MLOAD PUSH3 0x12B3 SWAP3 SWAP2 SWAP1 PUSH3 0x18D5 JUMP JUMPDEST PUSH1 0x40 MLOAD DUP1 SWAP2 SUB SWAP1 LOG3 SWAP5 SWAP4 POP POP POP POP JUMP JUMPDEST PUSH3 0x12CD PUSH3 0x1480 JUMP JUMPDEST PUSH20 0xFFFFFFFFFFFFFFFFFFFFFFFFFFFFFFFFFFFFFFFF DUP3 AND PUSH1 0x0 SWAP1 DUP2 MSTORE PUSH1 0x7 PUSH1 0x20 MSTORE PUSH1 0x40 SWAP1 KECCAK256 SLOAD PUSH1 0xFF AND PUSH3 0x1384 JUMPI PUSH1 0x40 MLOAD PUSH32 0x8C379A000000000000000000000000000000000000000000000000000000000 DUP2 MSTORE PUSH1 0x20 PUSH1 0x4 DUP3 ADD MSTORE PUSH1 0x25 PUSH1 0x24 DUP3 ADD MSTORE PUSH32 0x7469636B6574206973206E6F7420697373756564206279207468697320636F6E PUSH1 0x44 DUP3 ADD MSTORE PUSH32 0x7472616374000000000000000000000000000000000000000000000000000000 PUSH1 0x64 DUP3 ADD MSTORE PUSH1 0x84 ADD PUSH3 0x3CF JUMP JUMPDEST PUSH1 0x40 MLOAD PUSH32 0xAC1D060900000000000000000000000000000000000000000000000000000000 DUP2 MSTORE PUSH20 0xFFFFFFFFFFFFFFFFFFFFFFFFFFFFFFFFFFFFFFFF DUP3 DUP2 AND PUSH1 0x4 DUP4 ADD MSTORE PUSH1 0x1 PUSH1 0x24 DUP4 ADD MSTORE DUP4 SWAP2 SWAP1 DUP3 AND SWAP1 PUSH4 0xAC1D0609 SWAP1 PUSH1 0x44 ADD PUSH1 0x0 PUSH1 0x40 MLOAD DUP1 DUP4 SUB DUP2 PUSH1 0x0 DUP8 DUP1 EXTCODESIZE ISZERO DUP1 ISZERO PUSH3 0x13F8 JUMPI PUSH1 0x0 DUP1 REVERT JUMPDEST POP GAS CALL ISZERO DUP1 ISZERO PUSH3 0x140D JUMPI RETURNDATASIZE PUSH1 0x0 DUP1 RETURNDATACOPY RETURNDATASIZE PUSH1 0x0 REVERT JUMPDEST POP POP POP POP POP POP POP JUMP JUMPDEST PUSH3 0x1420 PUSH3 0x1480 JUMP JUMPDEST PUSH20 0xFFFFFFFFFFFFFFFFFFFFFFFFFFFFFFFFFFFFFFFF DUP2 AND PUSH3 0x1472 JUMPI PUSH1 0x40 MLOAD PUSH32 0x1E4FBDF700000000000000000000000000000000000000000000000000000000 DUP2 MSTORE PUSH1 0x0 PUSH1 0x4 DUP3 ADD MSTORE PUSH1 0x24 ADD PUSH3 0x3CF JUMP JUMPDEST PUSH3 0x147D DUP2 PUSH3 0x14D5 JUMP JUMPDEST POP JUMP JUMPDEST PUSH1 0x0 SLOAD PUSH20 0xFFFFFFFFFFFFFFFFFFFFFFFFFFFFFFFFFFFFFFFF AND CALLER EQ PUSH3 0x9D8 JUMPI PUSH1 0x40 MLOAD PUSH32 0x118CDAA700000000000000000000000000000000000000000000000000000000 DUP2 MSTORE CALLER PUSH1 0x4 DUP3 ADD MSTORE PUSH1 0x24 ADD PUSH3 0x3CF JUMP JUMPDEST PUSH1 0x0 DUP1 SLOAD PUSH20 0xFFFFFFFFFFFFFFFFFFFFFFFFFFFFFFFFFFFFFFFF DUP4 DUP2 AND PUSH32 0xFFFFFFFFFFFFFFFFFFFFFFFF0000000000000000000000000000000000000000 DUP4 AND DUP2 OR DUP5 SSTORE PUSH1 0x40 MLOAD SWAP2 SWAP1 SWAP3 AND SWAP3 DUP4 SWAP2 PUSH32 0x8BE0079C531659141344CD1FD0A4F28419497F9722A3DAAFE3B4186F6B6457E0 SWAP2 SWAP1 LOG3 POP POP JUMP JUMPDEST PUSH2 0x2C30 DUP1 PUSH3 0x1AF1 DUP4 CODECOPY ADD SWAP1 JUMP JUMPDEST PUSH20 0xFFFFFFFFFFFFFFFFFFFFFFFFFFFFFFFFFFFFFFFF DUP2 AND DUP2 EQ PUSH3 0x147D JUMPI PUSH1 0x0 DUP1 REVERT JUMPDEST DUP1 CALLDATALOAD PUSH3 0x1588 DUP2 PUSH3 0x1558 JUMP JUMPDEST SWAP2 SWAP1 POP JUMP JUMPDEST PUSH1 0x0 DUP1 PUSH1 0x40 DUP4 DUP6 SUB SLT ISZERO PUSH3 0x15A1 JUMPI PUSH1 0x0 DUP1 REVERT JUMPDEST DUP3 CALLDATALOAD PUSH3 0x15AE DUP2 PUSH3 0x1558 JUMP JUMPDEST SWAP2 POP PUSH1 0x20 DUP4 ADD CALLDATALOAD PUSH3 0x15C0 DUP2 PUSH3 0x1558 JUMP JUMPDEST DUP1 SWAP2 POP POP SWAP3 POP SWAP3 SWAP1 POP JUMP JUMPDEST PUSH1 0x0 PUSH1 0x20 DUP3 DUP5 SUB SLT ISZERO PUSH3 0x15DE JUMPI PUSH1 0x0 DUP1 REVERT JUMPDEST DUP2 CALLDATALOAD PUSH3 0x15EB DUP2 PUSH3 0x1558 JUMP JUMPDEST SWAP4 SWAP3 POP POP POP JUMP JUMPDEST PUSH1 0x0 PUSH1 0x20 DUP3 DUP5 SUB SLT ISZERO PUSH3 0x1605 JUMPI PUSH1 0x0 DUP1 REVERT JUMPDEST POP CALLDATALOAD SWAP2 SWAP1 POP JUMP JUMPDEST PUSH1 0x0 DUP1 PUSH1 0x40 DUP4 DUP6 SUB SLT ISZERO PUSH3 0x1620 JUMPI PUSH1 0x0 DUP1 REVERT JUMPDEST DUP3 CALLDATALOAD PUSH3 0x162D DUP2 PUSH3 0x1558 JUMP JUMPDEST SWAP5 PUSH1 0x20 SWAP4 SWAP1 SWAP4 ADD CALLDATALOAD SWAP4 POP POP POP JUMP JUMPDEST PUSH32 0x4E487B7100000000000000000000000000000000000000000000000000000000 PUSH1 0x0 MSTORE PUSH1 0x41 PUSH1 0x4 MSTORE PUSH1 0x24 PUSH1 0x0 REVERT JUMPDEST PUSH1 0x0 DUP3 PUSH1 0x1F DUP4 ADD SLT PUSH3 0x167C JUMPI PUSH1 0x0 DUP1 REVERT JUMPDEST DUP2 CALLDATALOAD PUSH8 0xFFFFFFFFFFFFFFFF DUP1 DUP3 GT ISZERO PUSH3 0x169A JUMPI PUSH3 0x169A PUSH3 0x163B JUMP JUMPDEST PUSH1 0x40 MLOAD PUSH1 0x1F DUP4 ADD PUSH32 0xFFFFFFFFFFFFFFFFFFFFFFFFFFFFFFFFFFFFFFFFFFFFFFFFFFFFFFFFFFFFFFE0 SWAP1 DUP2 AND PUSH1 0x3F ADD AND DUP2 ADD SWAP1 DUP3 DUP3 GT DUP2 DUP4 LT OR ISZERO PUSH3 0x16E3 JUMPI PUSH3 0x16E3 PUSH3 0x163B JUMP JUMPDEST DUP2 PUSH1 0x40 MSTORE DUP4 DUP2 MSTORE DUP7 PUSH1 0x20 DUP6 DUP9 ADD ADD GT ISZERO PUSH3 0x16FD JUMPI PUSH1 0x0 DUP1 REVERT JUMPDEST DUP4 PUSH1 0x20 DUP8 ADD PUSH1 0x20 DUP4 ADD CALLDATACOPY PUSH1 0x0 PUSH1 0x20 DUP6 DUP4 ADD ADD MSTORE DUP1 SWAP5 POP POP POP POP POP SWAP3 SWAP2 POP POP JUMP JUMPDEST PUSH1 0x0 DUP1 PUSH1 0x40 DUP4 DUP6 SUB SLT ISZERO PUSH3 0x1731 JUMPI PUSH1 0x0 DUP1 REVERT JUMPDEST DUP3 CALLDATALOAD PUSH3 0x173E DUP2 PUSH3 0x1558 JUMP JUMPDEST SWAP2 POP PUSH1 0x20 DUP4 ADD CALLDATALOAD PUSH8 0xFFFFFFFFFFFFFFFF DUP2 GT ISZERO PUSH3 0x175B JUMPI PUSH1 0x0 DUP1 REVERT JUMPDEST PUSH3 0x1769 DUP6 DUP3 DUP7 ADD PUSH3 0x166A JUMP JUMPDEST SWAP2 POP POP SWAP3 POP SWAP3 SWAP1 POP JUMP JUMPDEST PUSH1 0x0 DUP1 PUSH1 0x0 DUP1 PUSH1 0x0 DUP1 PUSH1 0x0 DUP1 PUSH2 0x100 DUP10 DUP12 SUB SLT ISZERO PUSH3 0x1791 JUMPI PUSH1 0x0 DUP1 REVERT JUMPDEST DUP9 CALLDATALOAD PUSH8 0xFFFFFFFFFFFFFFFF DUP1 DUP3 GT ISZERO PUSH3 0x17AA JUMPI PUSH1 0x0 DUP1 REVERT JUMPDEST PUSH3 0x17B8 DUP13 DUP4 DUP14 ADD PUSH3 0x166A JUMP JUMPDEST SWAP10 POP PUSH1 0x20 DUP12 ADD CALLDATALOAD SWAP2 POP DUP1 DUP3 GT ISZERO PUSH3 0x17CF JUMPI PUSH1 0x0 DUP1 REVERT JUMPDEST PUSH3 0x17DD DUP13 DUP4 DUP14 ADD PUSH3 0x166A JUMP JUMPDEST SWAP9 POP PUSH1 0x40 DUP12 ADD CALLDATALOAD SWAP2 POP DUP1 DUP3 GT ISZERO PUSH3 0x17F4 JUMPI PUSH1 0x0 DUP1 REVERT JUMPDEST POP PUSH3 0x1803 DUP12 DUP3 DUP13 ADD PUSH3 0x166A JUMP JUMPDEST SWAP7 POP POP PUSH3 0x1814 PUSH1 0x60 DUP11 ADD PUSH3 0x157B JUMP JUMPDEST SWAP8 SWAP11 SWAP7 SWAP10 POP SWAP5 SWAP8 PUSH1 0x80 DUP2 ADD CALLDATALOAD SWAP7 PUSH1 0xA0 DUP3 ADD CALLDATALOAD SWAP7 POP PUSH1 0xC0 DUP3 ADD CALLDATALOAD SWAP6 POP PUSH1 0xE0 SWAP1 SWAP2 ADD CALLDATALOAD SWAP4 POP SWAP2 POP POP JUMP JUMPDEST PUSH1 0x0 PUSH1 0x20 DUP3 DUP5 SUB SLT ISZERO PUSH3 0x184F JUMPI PUSH1 0x0 DUP1 REVERT JUMPDEST POP MLOAD SWAP2 SWAP1 POP JUMP JUMPDEST PUSH32 0x4E487B7100000000000000000000000000000000000000000000000000000000 PUSH1 0x0 MSTORE PUSH1 0x11 PUSH1 0x4 MSTORE PUSH1 0x24 PUSH1 0x0 REVERT JUMPDEST DUP1 DUP3 ADD DUP1 DUP3 GT ISZERO PUSH3 0x9BC JUMPI PUSH3 0x9BC PUSH3 0x1856 JUMP JUMPDEST DUP2 DUP2 SUB DUP2 DUP2 GT ISZERO PUSH3 0x9BC JUMPI PUSH3 0x9BC PUSH3 0x1856 JUMP JUMPDEST PUSH1 0x0 PUSH1 0x20 DUP3 DUP5 SUB SLT ISZERO PUSH3 0x18C4 JUMPI PUSH1 0x0 DUP1 REVERT JUMPDEST DUP2 MLOAD DUP1 ISZERO ISZERO DUP2 EQ PUSH3 0x15EB JUMPI PUSH1 0x0 DUP1 REVERT JUMPDEST DUP3 DUP2 MSTORE PUSH1 0x40 DUP2 ADD PUSH1 0x2 DUP4 LT PUSH3 0x1914 JUMPI PUSH32 0x4E487B7100000000000000000000000000000000000000000000000000000000 PUSH1 0x0 MSTORE PUSH1 0x21 PUSH1 0x4 MSTORE PUSH1 0x24 PUSH1 0x0 REVERT JUMPDEST DUP3 PUSH1 0x20 DUP4 ADD MSTORE SWAP4 SWAP3 POP POP POP JUMP JUMPDEST PUSH1 0x0 DUP2 MLOAD DUP1 DUP5 MSTORE PUSH1 0x0 JUMPDEST DUP2 DUP2 LT ISZERO PUSH3 0x1949 JUMPI PUSH1 0x20 DUP2 DUP6 ADD DUP2 ADD MLOAD DUP7 DUP4 ADD DUP3 ADD MSTORE ADD PUSH3 0x192B JUMP JUMPDEST POP PUSH1 0x0 PUSH1 0x20 DUP3 DUP7 ADD ADD MSTORE PUSH1 0x20 PUSH32 0xFFFFFFFFFFFFFFFFFFFFFFFFFFFFFFFFFFFFFFFFFFFFFFFFFFFFFFFFFFFFFFE0 PUSH1 0x1F DUP4 ADD AND DUP6 ADD ADD SWAP2 POP POP SWAP3 SWAP2 POP POP JUMP JUMPDEST PUSH20 0xFFFFFFFFFFFFFFFFFFFFFFFFFFFFFFFFFFFFFFFF DUP4 AND DUP2 MSTORE PUSH1 0x40 PUSH1 0x20 DUP3 ADD MSTORE PUSH1 0x0 PUSH3 0x19B8 PUSH1 0x40 DUP4 ADD DUP5 PUSH3 0x1921 JUMP JUMPDEST SWAP5 SWAP4 POP POP POP POP JUMP JUMPDEST PUSH1 0x0 PUSH1 0x20 DUP3 DUP5 SUB SLT ISZERO PUSH3 0x19D3 JUMPI PUSH1 0x0 DUP1 REVERT JUMPDEST DUP2 MLOAD PUSH3 0x15EB DUP2 PUSH3 0x1558 JUMP JUMPDEST PUSH1 0x0 PUSH2 0x120 PUSH20 0xFFFFFFFFFFFFFFFFFFFFFFFFFFFFFFFFFFFFFFFF DUP1 DUP14 AND DUP5 MSTORE DUP2 PUSH1 0x20 DUP6 ADD MSTORE PUSH3 0x1A13 DUP3 DUP6 ADD DUP14 PUSH3 0x1921 JUMP JUMPDEST SWAP2 POP DUP4 DUP3 SUB PUSH1 0x40 DUP6 ADD MSTORE PUSH3 0x1A29 DUP3 DUP13 PUSH3 0x1921 JUMP JUMPDEST SWAP2 POP DUP4 DUP3 SUB PUSH1 0x60 DUP6 ADD MSTORE PUSH3 0x1A3F DUP3 DUP12 PUSH3 0x1921 JUMP JUMPDEST SWAP9 AND PUSH1 0x80 DUP5 ADD MSTORE POP POP PUSH1 0xA0 DUP2 ADD SWAP5 SWAP1 SWAP5 MSTORE PUSH1 0xC0 DUP5 ADD SWAP3 SWAP1 SWAP3 MSTORE PUSH1 0xE0 DUP4 ADD MSTORE PUSH2 0x100 SWAP1 SWAP2 ADD MSTORE SWAP5 SWAP4 POP POP POP POP JUMP JUMPDEST PUSH1 0x0 PUSH2 0x100 DUP1 DUP4 MSTORE PUSH3 0x1A82 DUP2 DUP5 ADD DUP13 PUSH3 0x1921 JUMP JUMPDEST SWAP1 POP DUP3 DUP2 SUB PUSH1 0x20 DUP5 ADD MSTORE PUSH3 0x1A98 DUP2 DUP12 PUSH3 0x1921 JUMP JUMPDEST SWAP1 POP DUP3 DUP2 SUB PUSH1 0x40 DUP5 ADD MSTORE PUSH3 0x1AAE DUP2 DUP11 PUSH3 0x1921 JUMP JUMPDEST PUSH20 0xFFFFFFFFFFFFFFFFFFFFFFFFFFFFFFFFFFFFFFFF SWAP9 SWAP1 SWAP9 AND PUSH1 0x60 DUP5 ADD MSTORE POP POP PUSH1 0x80 DUP2 ADD SWAP5 SWAP1 SWAP5 MSTORE PUSH1 0xA0 DUP5 ADD SWAP3 SWAP1 SWAP3 MSTORE PUSH1 0xC0 DUP4 ADD MSTORE PUSH1 0xE0 SWAP1 SWAP2 ADD MSTORE SWAP4 SWAP3 POP POP POP JUMP INVALID PUSH1 0x80 PUSH1 0x40 MSTORE CALLVALUE DUP1 ISZERO PUSH3 0x11 JUMPI PUSH1 0x0 DUP1 REVERT JUMPDEST POP PUSH1 0x40 MLOAD PUSH3 0x2C30 CODESIZE SUB DUP1 PUSH3 0x2C30 DUP4 CODECOPY DUP2 ADD PUSH1 0x40 DUP2 SWAP1 MSTORE PUSH3 0x34 SWAP2 PUSH3 0x30F JUMP JUMPDEST DUP8 DUP8 CALLER DUP1 PUSH3 0x5D JUMPI PUSH1 0x40 MLOAD PUSH4 0x1E4FBDF7 PUSH1 0xE0 SHL DUP2 MSTORE PUSH1 0x0 PUSH1 0x4 DUP3 ADD MSTORE PUSH1 0x24 ADD PUSH1 0x40 MLOAD DUP1 SWAP2 SUB SWAP1 REVERT JUMPDEST PUSH3 0x68 DUP2 PUSH3 0x1DD JUMP JUMPDEST POP PUSH1 0x1 PUSH3 0x77 DUP4 DUP3 PUSH3 0x47D JUMP JUMPDEST POP PUSH1 0x2 PUSH3 0x86 DUP3 DUP3 PUSH3 0x47D JUMP JUMPDEST POP POP POP PUSH1 0x1 PUSH1 0x1 PUSH1 0xA0 SHL SUB DUP10 AND PUSH3 0xB1 JUMPI PUSH1 0x40 MLOAD PUSH4 0xE6C4247B PUSH1 0xE0 SHL DUP2 MSTORE PUSH1 0x4 ADD PUSH1 0x40 MLOAD DUP1 SWAP2 SUB SWAP1 REVERT JUMPDEST PUSH1 0x1 PUSH1 0x1 PUSH1 0xA0 SHL SUB DUP6 AND PUSH3 0xD9 JUMPI PUSH1 0x40 MLOAD PUSH4 0xE6C4247B PUSH1 0xE0 SHL DUP2 MSTORE PUSH1 0x4 ADD PUSH1 0x40 MLOAD DUP1 SWAP2 SUB SWAP1 REVERT JUMPDEST PUSH1 0x1 DUP5 LT ISZERO PUSH3 0xFB JUMPI PUSH1 0x40 MLOAD PUSH3 0xFAB39F PUSH1 0xE3 SHL DUP2 MSTORE PUSH1 0x4 ADD PUSH1 0x40 MLOAD DUP1 SWAP2 SUB SWAP1 REVERT JUMPDEST PUSH4 0x3B9ACA00 DUP4 LT ISZERO PUSH3 0x121 JUMPI PUSH1 0x40 MLOAD PUSH4 0x6F6808B PUSH1 0xE0 SHL DUP2 MSTORE PUSH1 0x4 ADD PUSH1 0x40 MLOAD DUP1 SWAP2 SUB SWAP1 REVERT JUMPDEST PUSH1 0x1 DUP3 LT ISZERO PUSH3 0x144 JUMPI PUSH1 0x40 MLOAD PUSH4 0x6F6808B PUSH1 0xE0 SHL DUP2 MSTORE PUSH1 0x4 ADD PUSH1 0x40 MLOAD DUP1 SWAP2 SUB SWAP1 REVERT JUMPDEST PUSH3 0x15180 DUP2 LT ISZERO PUSH3 0x169 JUMPI PUSH1 0x40 MLOAD PUSH4 0x6F736F75 PUSH1 0xE0 SHL DUP2 MSTORE PUSH1 0x4 ADD PUSH1 0x40 MLOAD DUP1 SWAP2 SUB SWAP1 REVERT JUMPDEST PUSH1 0x8 DUP1 SLOAD PUSH1 0x1 PUSH1 0x1 PUSH1 0xA0 SHL SUB DUP1 DUP13 AND PUSH1 0x1 PUSH1 0x1 PUSH1 0xA0 SHL SUB NOT SWAP3 DUP4 AND OR SWAP1 SWAP3 SSTORE PUSH1 0xC DUP7 SWAP1 SSTORE PUSH1 0xB DUP1 SLOAD SWAP3 DUP9 AND SWAP3 SWAP1 SWAP2 AND SWAP2 SWAP1 SWAP2 OR SWAP1 SSTORE PUSH1 0xD DUP4 SWAP1 SSTORE PUSH1 0xE DUP3 SWAP1 SSTORE PUSH1 0xA PUSH3 0x1B6 DUP8 DUP3 PUSH3 0x47D JUMP JUMPDEST POP TIMESTAMP PUSH1 0xF DUP2 SWAP1 SSTORE PUSH3 0x1CA SWAP1 DUP3 SWAP1 PUSH3 0x549 JUMP JUMPDEST PUSH1 0x10 SSTORE POP PUSH3 0x571 SWAP8 POP POP POP POP POP POP POP POP JUMP JUMPDEST PUSH1 0x0 DUP1 SLOAD PUSH1 0x1 PUSH1 0x1 PUSH1 0xA0 SHL SUB DUP4 DUP2 AND PUSH1 0x1 PUSH1 0x1 PUSH1 0xA0 SHL SUB NOT DUP4 AND DUP2 OR DUP5 SSTORE PUSH1 0x40 MLOAD SWAP2 SWAP1 SWAP3 AND SWAP3 DUP4 SWAP2 PUSH32 0x8BE0079C531659141344CD1FD0A4F28419497F9722A3DAAFE3B4186F6B6457E0 SWAP2 SWAP1 LOG3 POP POP JUMP JUMPDEST DUP1 MLOAD PUSH1 0x1 PUSH1 0x1 PUSH1 0xA0 SHL SUB DUP2 AND DUP2 EQ PUSH3 0x245 JUMPI PUSH1 0x0 DUP1 REVERT JUMPDEST SWAP2 SWAP1 POP JUMP JUMPDEST PUSH4 0x4E487B71 PUSH1 0xE0 SHL PUSH1 0x0 MSTORE PUSH1 0x41 PUSH1 0x4 MSTORE PUSH1 0x24 PUSH1 0x0 REVERT JUMPDEST PUSH1 0x0 DUP3 PUSH1 0x1F DUP4 ADD SLT PUSH3 0x272 JUMPI PUSH1 0x0 DUP1 REVERT JUMPDEST DUP2 MLOAD PUSH1 0x1 PUSH1 0x1 PUSH1 0x40 SHL SUB DUP1 DUP3 GT ISZERO PUSH3 0x28F JUMPI PUSH3 0x28F PUSH3 0x24A JUMP JUMPDEST PUSH1 0x40 MLOAD PUSH1 0x1F DUP4 ADD PUSH1 0x1F NOT SWAP1 DUP2 AND PUSH1 0x3F ADD AND DUP2 ADD SWAP1 DUP3 DUP3 GT DUP2 DUP4 LT OR ISZERO PUSH3 0x2BA JUMPI PUSH3 0x2BA PUSH3 0x24A JUMP JUMPDEST DUP2 PUSH1 0x40 MSTORE DUP4 DUP2 MSTORE PUSH1 0x20 SWAP3 POP DUP7 DUP4 DUP6 DUP9 ADD ADD GT ISZERO PUSH3 0x2D7 JUMPI PUSH1 0x0 DUP1 REVERT JUMPDEST PUSH1 0x0 SWAP2 POP JUMPDEST DUP4 DUP3 LT ISZERO PUSH3 0x2FB JUMPI DUP6 DUP3 ADD DUP4 ADD MLOAD DUP2 DUP4 ADD DUP5 ADD MSTORE SWAP1 DUP3 ADD SWAP1 PUSH3 0x2DC JUMP JUMPDEST PUSH1 0x0 SWAP4 DUP2 ADD SWAP1 SWAP3 ADD SWAP3 SWAP1 SWAP3 MSTORE SWAP5 SWAP4 POP POP POP POP JUMP JUMPDEST PUSH1 0x0 DUP1 PUSH1 0x0 DUP1 PUSH1 0x0 DUP1 PUSH1 0x0 DUP1 PUSH1 0x0 PUSH2 0x120 DUP11 DUP13 SUB SLT ISZERO PUSH3 0x32F JUMPI PUSH1 0x0 DUP1 REVERT JUMPDEST PUSH3 0x33A DUP11 PUSH3 0x22D JUMP JUMPDEST PUSH1 0x20 DUP12 ADD MLOAD SWAP1 SWAP10 POP PUSH1 0x1 PUSH1 0x1 PUSH1 0x40 SHL SUB DUP1 DUP3 GT ISZERO PUSH3 0x358 JUMPI PUSH1 0x0 DUP1 REVERT JUMPDEST PUSH3 0x366 DUP14 DUP4 DUP15 ADD PUSH3 0x260 JUMP JUMPDEST SWAP10 POP PUSH1 0x40 DUP13 ADD MLOAD SWAP2 POP DUP1 DUP3 GT ISZERO PUSH3 0x37D JUMPI PUSH1 0x0 DUP1 REVERT JUMPDEST PUSH3 0x38B DUP14 DUP4 DUP15 ADD PUSH3 0x260 JUMP JUMPDEST SWAP9 POP PUSH1 0x60 DUP13 ADD MLOAD SWAP2 POP DUP1 DUP3 GT ISZERO PUSH3 0x3A2 JUMPI PUSH1 0x0 DUP1 REVERT JUMPDEST POP PUSH3 0x3B1 DUP13 DUP3 DUP14 ADD PUSH3 0x260 JUMP JUMPDEST SWAP7 POP POP PUSH3 0x3C2 PUSH1 0x80 DUP12 ADD PUSH3 0x22D JUMP JUMPDEST SWAP5 POP PUSH1 0xA0 DUP11 ADD MLOAD SWAP4 POP PUSH1 0xC0 DUP11 ADD MLOAD SWAP3 POP PUSH1 0xE0 DUP11 ADD MLOAD SWAP2 POP PUSH2 0x100 DUP11 ADD MLOAD SWAP1 POP SWAP3 SWAP6 SWAP9 POP SWAP3 SWAP6 SWAP9 POP SWAP3 SWAP6 SWAP9 JUMP JUMPDEST PUSH1 0x1 DUP2 DUP2 SHR SWAP1 DUP3 AND DUP1 PUSH3 0x403 JUMPI PUSH1 0x7F DUP3 AND SWAP2 POP JUMPDEST PUSH1 0x20 DUP3 LT DUP2 SUB PUSH3 0x424 JUMPI PUSH4 0x4E487B71 PUSH1 0xE0 SHL PUSH1 0x0 MSTORE PUSH1 0x22 PUSH1 0x4 MSTORE PUSH1 0x24 PUSH1 0x0 REVERT JUMPDEST POP SWAP2 SWAP1 POP JUMP JUMPDEST PUSH1 0x1F DUP3 GT ISZERO PUSH3 0x478 JUMPI PUSH1 0x0 DUP2 DUP2 MSTORE PUSH1 0x20 DUP2 KECCAK256 PUSH1 0x1F DUP6 ADD PUSH1 0x5 SHR DUP2 ADD PUSH1 0x20 DUP7 LT ISZERO PUSH3 0x453 JUMPI POP DUP1 JUMPDEST PUSH1 0x1F DUP6 ADD PUSH1 0x5 SHR DUP3 ADD SWAP2 POP JUMPDEST DUP2 DUP2 LT ISZERO PUSH3 0x474 JUMPI DUP3 DUP2 SSTORE PUSH1 0x1 ADD PUSH3 0x45F JUMP JUMPDEST POP POP POP JUMPDEST POP POP POP JUMP JUMPDEST DUP2 MLOAD PUSH1 0x1 PUSH1 0x1 PUSH1 0x40 SHL SUB DUP2 GT ISZERO PUSH3 0x499 JUMPI PUSH3 0x499 PUSH3 0x24A JUMP JUMPDEST PUSH3 0x4B1 DUP2 PUSH3 0x4AA DUP5 SLOAD PUSH3 0x3EE JUMP JUMPDEST DUP5 PUSH3 0x42A JUMP JUMPDEST PUSH1 0x20 DUP1 PUSH1 0x1F DUP4 GT PUSH1 0x1 DUP2 EQ PUSH3 0x4E9 JUMPI PUSH1 0x0 DUP5 ISZERO PUSH3 0x4D0 JUMPI POP DUP6 DUP4 ADD MLOAD JUMPDEST PUSH1 0x0 NOT PUSH1 0x3 DUP7 SWAP1 SHL SHR NOT AND PUSH1 0x1 DUP6 SWAP1 SHL OR DUP6 SSTORE PUSH3 0x474 JUMP JUMPDEST PUSH1 0x0 DUP6 DUP2 MSTORE PUSH1 0x20 DUP2 KECCAK256 PUSH1 0x1F NOT DUP7 AND SWAP2 JUMPDEST DUP3 DUP2 LT ISZERO PUSH3 0x51A JUMPI DUP9 DUP7 ADD MLOAD DUP3 SSTORE SWAP5 DUP5 ADD SWAP5 PUSH1 0x1 SWAP1 SWAP2 ADD SWAP1 DUP5 ADD PUSH3 0x4F9 JUMP JUMPDEST POP DUP6 DUP3 LT ISZERO PUSH3 0x539 JUMPI DUP8 DUP6 ADD MLOAD PUSH1 0x0 NOT PUSH1 0x3 DUP9 SWAP1 SHL PUSH1 0xF8 AND SHR NOT AND DUP2 SSTORE JUMPDEST POP POP POP POP POP PUSH1 0x1 SWAP1 DUP2 SHL ADD SWAP1 SSTORE POP JUMP JUMPDEST DUP1 DUP3 ADD DUP1 DUP3 GT ISZERO PUSH3 0x56B JUMPI PUSH4 0x4E487B71 PUSH1 0xE0 SHL PUSH1 0x0 MSTORE PUSH1 0x11 PUSH1 0x4 MSTORE PUSH1 0x24 PUSH1 0x0 REVERT JUMPDEST SWAP3 SWAP2 POP POP JUMP JUMPDEST PUSH2 0x26AF DUP1 PUSH3 0x581 PUSH1 0x0 CODECOPY PUSH1 0x0 RETURN INVALID PUSH1 0x80 PUSH1 0x40 MSTORE PUSH1 0x4 CALLDATASIZE LT PUSH2 0x1FE JUMPI PUSH1 0x0 CALLDATALOAD PUSH1 0xE0 SHR DUP1 PUSH4 0x8CEA8E8F GT PUSH2 0x11D JUMPI DUP1 PUSH4 0xB163D652 GT PUSH2 0xB0 JUMPI DUP1 PUSH4 0xC87B56DD GT PUSH2 0x7F JUMPI DUP1 PUSH4 0xE2142FDE GT PUSH2 0x64 JUMPI DUP1 PUSH4 0xE2142FDE EQ PUSH2 0x574 JUMPI DUP1 PUSH4 0xE985E9C5 EQ PUSH2 0x5A4 JUMPI DUP1 PUSH4 0xF2FDE38B EQ PUSH2 0x5ED JUMPI PUSH1 0x0 DUP1 REVERT JUMPDEST DUP1 PUSH4 0xC87B56DD EQ PUSH2 0x53E JUMPI DUP1 PUSH4 0xCBE8B7B4 EQ PUSH2 0x55E JUMPI PUSH1 0x0 DUP1 REVERT JUMPDEST DUP1 PUSH4 0xB163D652 EQ PUSH2 0x4E0 JUMPI DUP1 PUSH4 0xB88D4FDE EQ PUSH2 0x4F6 JUMPI DUP1 PUSH4 0xC2B92C57 EQ PUSH2 0x516 JUMPI DUP1 PUSH4 0xC43C36DB EQ PUSH2 0x529 JUMPI PUSH1 0x0 DUP1 REVERT JUMPDEST DUP1 PUSH4 0xA22CB465 GT PUSH2 0xEC JUMPI DUP1 PUSH4 0xA22CB465 EQ PUSH2 0x469 JUMPI DUP1 PUSH4 0xA63234E0 EQ PUSH2 0x489 JUMPI DUP1 PUSH4 0xAC1D0609 EQ PUSH2 0x4A9 JUMPI DUP1 PUSH4 0xAC9B2C34 EQ PUSH2 0x4C9 JUMPI PUSH1 0x0 DUP1 REVERT JUMPDEST DUP1 PUSH4 0x8CEA8E8F EQ PUSH2 0x41E JUMPI DUP1 PUSH4 0x8DA5CB5B EQ PUSH2 0x436 JUMPI DUP1 PUSH4 0x95D89B41 EQ PUSH2 0x454 JUMPI DUP1 PUSH4 0xA0C40D36 EQ PUSH2 0x25A JUMPI PUSH1 0x0 DUP1 REVERT JUMPDEST DUP1 PUSH4 0x372C12B1 GT PUSH2 0x195 JUMPI DUP1 PUSH4 0x6EB78BEB GT PUSH2 0x164 JUMPI DUP1 PUSH4 0x6EB78BEB EQ PUSH2 0x3B3 JUMPI DUP1 PUSH4 0x70A08231 EQ PUSH2 0x3D3 JUMPI DUP1 PUSH4 0x715018A6 EQ PUSH2 0x3F3 JUMPI DUP1 PUSH4 0x80A3E283 EQ PUSH2 0x408 JUMPI PUSH1 0x0 DUP1 REVERT JUMPDEST DUP1 PUSH4 0x372C12B1 EQ PUSH2 0x323 JUMPI DUP1 PUSH4 0x42842E0E EQ PUSH2 0x353 JUMPI DUP1 PUSH4 0x6352211E EQ PUSH2 0x373 JUMPI DUP1 PUSH4 0x679EBF1A EQ PUSH2 0x393 JUMPI PUSH1 0x0 DUP1 REVERT JUMPDEST DUP1 PUSH4 0x95EA7B3 GT PUSH2 0x1D1 JUMPI DUP1 PUSH4 0x95EA7B3 EQ PUSH2 0x2B5 JUMPI DUP1 PUSH4 0x11DDC236 EQ PUSH2 0x2D7 JUMPI DUP1 PUSH4 0x1B022673 EQ PUSH2 0x2ED JUMPI DUP1 PUSH4 0x23B872DD EQ PUSH2 0x303 JUMPI PUSH1 0x0 DUP1 REVERT JUMPDEST DUP1 PUSH4 0x1FFC9A7 EQ PUSH2 0x203 JUMPI DUP1 PUSH4 0x6FDDE03 EQ PUSH2 0x238 JUMPI DUP1 PUSH4 0x7960E7E EQ PUSH2 0x25A JUMPI DUP1 PUSH4 0x81812FC EQ PUSH2 0x27D JUMPI JUMPDEST PUSH1 0x0 DUP1 REVERT JUMPDEST CALLVALUE DUP1 ISZERO PUSH2 0x20F JUMPI PUSH1 0x0 DUP1 REVERT JUMPDEST POP PUSH2 0x223 PUSH2 0x21E CALLDATASIZE PUSH1 0x4 PUSH2 0x1FEF JUMP JUMPDEST PUSH2 0x60D JUMP JUMPDEST PUSH1 0x40 MLOAD SWAP1 ISZERO ISZERO DUP2 MSTORE PUSH1 0x20 ADD JUMPDEST PUSH1 0x40 MLOAD DUP1 SWAP2 SUB SWAP1 RETURN JUMPDEST CALLVALUE DUP1 ISZERO PUSH2 0x244 JUMPI PUSH1 0x0 DUP1 REVERT JUMPDEST POP PUSH2 0x24D PUSH2 0x669 JUMP JUMPDEST PUSH1 0x40 MLOAD PUSH2 0x22F SWAP2 SWAP1 PUSH2 0x207A JUMP JUMPDEST CALLVALUE DUP1 ISZERO PUSH2 0x266 JUMPI PUSH1 0x0 DUP1 REVERT JUMPDEST POP PUSH2 0x26F PUSH1 0x1 DUP2 JUMP JUMPDEST PUSH1 0x40 MLOAD SWAP1 DUP2 MSTORE PUSH1 0x20 ADD PUSH2 0x22F JUMP JUMPDEST CALLVALUE DUP1 ISZERO PUSH2 0x289 JUMPI PUSH1 0x0 DUP1 REVERT JUMPDEST POP PUSH2 0x29D PUSH2 0x298 CALLDATASIZE PUSH1 0x4 PUSH2 0x208D JUMP JUMPDEST PUSH2 0x6FB JUMP JUMPDEST PUSH1 0x40 MLOAD PUSH1 0x1 PUSH1 0x1 PUSH1 0xA0 SHL SUB SWAP1 SWAP2 AND DUP2 MSTORE PUSH1 0x20 ADD PUSH2 0x22F JUMP JUMPDEST CALLVALUE DUP1 ISZERO PUSH2 0x2C1 JUMPI PUSH1 0x0 DUP1 REVERT JUMPDEST POP PUSH2 0x2D5 PUSH2 0x2D0 CALLDATASIZE PUSH1 0x4 PUSH2 0x20BD JUMP JUMPDEST PUSH2 0x724 JUMP JUMPDEST STOP JUMPDEST CALLVALUE DUP1 ISZERO PUSH2 0x2E3 JUMPI PUSH1 0x0 DUP1 REVERT JUMPDEST POP PUSH2 0x26F PUSH1 0xD SLOAD DUP2 JUMP JUMPDEST CALLVALUE DUP1 ISZERO PUSH2 0x2F9 JUMPI PUSH1 0x0 DUP1 REVERT JUMPDEST POP PUSH2 0x26F PUSH1 0x10 SLOAD DUP2 JUMP JUMPDEST CALLVALUE DUP1 ISZERO PUSH2 0x30F JUMPI PUSH1 0x0 DUP1 REVERT JUMPDEST POP PUSH2 0x2D5 PUSH2 0x31E CALLDATASIZE PUSH1 0x4 PUSH2 0x20E7 JUMP JUMPDEST PUSH2 0x733 JUMP JUMPDEST CALLVALUE DUP1 ISZERO PUSH2 0x32F JUMPI PUSH1 0x0 DUP1 REVERT JUMPDEST POP PUSH2 0x223 PUSH2 0x33E CALLDATASIZE PUSH1 0x4 PUSH2 0x2123 JUMP JUMPDEST PUSH1 0x11 PUSH1 0x20 MSTORE PUSH1 0x0 SWAP1 DUP2 MSTORE PUSH1 0x40 SWAP1 KECCAK256 SLOAD PUSH1 0xFF AND DUP2 JUMP JUMPDEST CALLVALUE DUP1 ISZERO PUSH2 0x35F JUMPI PUSH1 0x0 DUP1 REVERT JUMPDEST POP PUSH2 0x2D5 PUSH2 0x36E CALLDATASIZE PUSH1 0x4 PUSH2 0x20E7 JUMP JUMPDEST PUSH2 0x7F5 JUMP JUMPDEST CALLVALUE DUP1 ISZERO PUSH2 0x37F JUMPI PUSH1 0x0 DUP1 REVERT JUMPDEST POP PUSH2 0x29D PUSH2 0x38E CALLDATASIZE PUSH1 0x4 PUSH2 0x208D JUMP JUMPDEST PUSH2 0x815 JUMP JUMPDEST CALLVALUE DUP1 ISZERO PUSH2 0x39F JUMPI PUSH1 0x0 DUP1 REVERT JUMPDEST POP PUSH2 0x2D5 PUSH2 0x3AE CALLDATASIZE PUSH1 0x4 PUSH2 0x213E JUMP JUMPDEST PUSH2 0x820 JUMP JUMPDEST CALLVALUE DUP1 ISZERO PUSH2 0x3BF JUMPI PUSH1 0x0 DUP1 REVERT JUMPDEST POP PUSH2 0x26F PUSH2 0x3CE CALLDATASIZE PUSH1 0x4 PUSH2 0x2123 JUMP JUMPDEST PUSH2 0x8FA JUMP JUMPDEST CALLVALUE DUP1 ISZERO PUSH2 0x3DF JUMPI PUSH1 0x0 DUP1 REVERT JUMPDEST POP PUSH2 0x26F PUSH2 0x3EE CALLDATASIZE PUSH1 0x4 PUSH2 0x2123 JUMP JUMPDEST PUSH2 0xA95 JUMP JUMPDEST CALLVALUE DUP1 ISZERO PUSH2 0x3FF JUMPI PUSH1 0x0 DUP1 REVERT JUMPDEST POP PUSH2 0x2D5 PUSH2 0xAF6 JUMP JUMPDEST CALLVALUE DUP1 ISZERO PUSH2 0x414 JUMPI PUSH1 0x0 DUP1 REVERT JUMPDEST POP PUSH2 0x26F PUSH1 0xE SLOAD DUP2 JUMP JUMPDEST CALLVALUE DUP1 ISZERO PUSH2 0x42A JUMPI PUSH1 0x0 DUP1 REVERT JUMPDEST POP PUSH2 0x26F PUSH4 0x3B9ACA00 DUP2 JUMP JUMPDEST CALLVALUE DUP1 ISZERO PUSH2 0x442 JUMPI PUSH1 0x0 DUP1 REVERT JUMPDEST POP PUSH1 0x0 SLOAD PUSH1 0x1 PUSH1 0x1 PUSH1 0xA0 SHL SUB AND PUSH2 0x29D JUMP JUMPDEST CALLVALUE DUP1 ISZERO PUSH2 0x460 JUMPI PUSH1 0x0 DUP1 REVERT JUMPDEST POP PUSH2 0x24D PUSH2 0xB0A JUMP JUMPDEST CALLVALUE DUP1 ISZERO PUSH2 0x475 JUMPI PUSH1 0x0 DUP1 REVERT JUMPDEST POP PUSH2 0x2D5 PUSH2 0x484 CALLDATASIZE PUSH1 0x4 PUSH2 0x2178 JUMP JUMPDEST PUSH2 0xB19 JUMP JUMPDEST CALLVALUE DUP1 ISZERO PUSH2 0x495 JUMPI PUSH1 0x0 DUP1 REVERT JUMPDEST POP PUSH1 0xB SLOAD PUSH2 0x29D SWAP1 PUSH1 0x1 PUSH1 0x1 PUSH1 0xA0 SHL SUB AND DUP2 JUMP JUMPDEST CALLVALUE DUP1 ISZERO PUSH2 0x4B5 JUMPI PUSH1 0x0 DUP1 REVERT JUMPDEST POP PUSH2 0x2D5 PUSH2 0x4C4 CALLDATASIZE PUSH1 0x4 PUSH2 0x2178 JUMP JUMPDEST PUSH2 0xB24 JUMP JUMPDEST CALLVALUE DUP1 ISZERO PUSH2 0x4D5 JUMPI PUSH1 0x0 DUP1 REVERT JUMPDEST POP PUSH2 0x26F PUSH3 0x15180 DUP2 JUMP JUMPDEST CALLVALUE DUP1 ISZERO PUSH2 0x4EC JUMPI PUSH1 0x0 DUP1 REVERT JUMPDEST POP PUSH2 0x26F PUSH1 0xC SLOAD DUP2 JUMP JUMPDEST CALLVALUE DUP1 ISZERO PUSH2 0x502 JUMPI PUSH1 0x0 DUP1 REVERT JUMPDEST POP PUSH2 0x2D5 PUSH2 0x511 CALLDATASIZE PUSH1 0x4 PUSH2 0x21DE JUMP JUMPDEST PUSH2 0xBEA JUMP JUMPDEST PUSH2 0x26F PUSH2 0x524 CALLDATASIZE PUSH1 0x4 PUSH2 0x2123 JUMP JUMPDEST PUSH2 0xC01 JUMP JUMPDEST CALLVALUE DUP1 ISZERO PUSH2 0x535 JUMPI PUSH1 0x0 DUP1 REVERT JUMPDEST POP PUSH2 0x2D5 PUSH2 0xDBA JUMP JUMPDEST CALLVALUE DUP1 ISZERO PUSH2 0x54A JUMPI PUSH1 0x0 DUP1 REVERT JUMPDEST POP PUSH2 0x24D PUSH2 0x559 CALLDATASIZE PUSH1 0x4 PUSH2 0x208D JUMP JUMPDEST PUSH2 0xFEB JUMP JUMPDEST CALLVALUE DUP1 ISZERO PUSH2 0x56A JUMPI PUSH1 0x0 DUP1 REVERT JUMPDEST POP PUSH2 0x26F PUSH1 0xF SLOAD DUP2 JUMP JUMPDEST CALLVALUE DUP1 ISZERO PUSH2 0x580 JUMPI PUSH1 0x0 DUP1 REVERT JUMPDEST POP PUSH2 0x223 PUSH2 0x58F CALLDATASIZE PUSH1 0x4 PUSH2 0x2123 JUMP JUMPDEST PUSH1 0x12 PUSH1 0x20 MSTORE PUSH1 0x0 SWAP1 DUP2 MSTORE PUSH1 0x40 SWAP1 KECCAK256 SLOAD PUSH1 0xFF AND DUP2 JUMP JUMPDEST CALLVALUE DUP1 ISZERO PUSH2 0x5B0 JUMPI PUSH1 0x0 DUP1 REVERT JUMPDEST POP PUSH2 0x223 PUSH2 0x5BF CALLDATASIZE PUSH1 0x4 PUSH2 0x22D8 JUMP JUMPDEST PUSH1 0x1 PUSH1 0x1 PUSH1 0xA0 SHL SUB SWAP2 DUP3 AND PUSH1 0x0 SWAP1 DUP2 MSTORE PUSH1 0x6 PUSH1 0x20 SWAP1 DUP2 MSTORE PUSH1 0x40 DUP1 DUP4 KECCAK256 SWAP4 SWAP1 SWAP5 AND DUP3 MSTORE SWAP2 SWAP1 SWAP2 MSTORE KECCAK256 SLOAD PUSH1 0xFF AND SWAP1 JUMP JUMPDEST CALLVALUE DUP1 ISZERO PUSH2 0x5F9 JUMPI PUSH1 0x0 DUP1 REVERT JUMPDEST POP PUSH2 0x2D5 PUSH2 0x608 CALLDATASIZE PUSH1 0x4 PUSH2 0x2123 JUMP JUMPDEST PUSH2 0x10FC JUMP JUMPDEST PUSH1 0x0 PUSH32 0xFFFFFFFF00000000000000000000000000000000000000000000000000000000 DUP3 AND PUSH32 0x4906490600000000000000000000000000000000000000000000000000000000 EQ DUP1 PUSH2 0x663 JUMPI POP PUSH2 0x663 DUP3 PUSH2 0x1153 JUMP JUMPDEST SWAP3 SWAP2 POP POP JUMP JUMPDEST PUSH1 0x60 PUSH1 0x1 DUP1 SLOAD PUSH2 0x678 SWAP1 PUSH2 0x2302 JUMP JUMPDEST DUP1 PUSH1 0x1F ADD PUSH1 0x20 DUP1 SWAP2 DIV MUL PUSH1 0x20 ADD PUSH1 0x40 MLOAD SWAP1 DUP2 ADD PUSH1 0x40 MSTORE DUP1 SWAP3 SWAP2 SWAP1 DUP2 DUP2 MSTORE PUSH1 0x20 ADD DUP3 DUP1 SLOAD PUSH2 0x6A4 SWAP1 PUSH2 0x2302 JUMP JUMPDEST DUP1 ISZERO PUSH2 0x6F1 JUMPI DUP1 PUSH1 0x1F LT PUSH2 0x6C6 JUMPI PUSH2 0x100 DUP1 DUP4 SLOAD DIV MUL DUP4 MSTORE SWAP2 PUSH1 0x20 ADD SWAP2 PUSH2 0x6F1 JUMP JUMPDEST DUP3 ADD SWAP2 SWAP1 PUSH1 0x0 MSTORE PUSH1 0x20 PUSH1 0x0 KECCAK256 SWAP1 JUMPDEST DUP2 SLOAD DUP2 MSTORE SWAP1 PUSH1 0x1 ADD SWAP1 PUSH1 0x20 ADD DUP1 DUP4 GT PUSH2 0x6D4 JUMPI DUP3 SWAP1 SUB PUSH1 0x1F AND DUP3 ADD SWAP2 JUMPDEST POP POP POP POP POP SWAP1 POP SWAP1 JUMP JUMPDEST PUSH1 0x0 PUSH2 0x706 DUP3 PUSH2 0x1236 JUMP JUMPDEST POP PUSH1 0x0 DUP3 DUP2 MSTORE PUSH1 0x5 PUSH1 0x20 MSTORE PUSH1 0x40 SWAP1 KECCAK256 SLOAD PUSH1 0x1 PUSH1 0x1 PUSH1 0xA0 SHL SUB AND PUSH2 0x663 JUMP JUMPDEST PUSH2 0x72F DUP3 DUP3 CALLER PUSH2 0x1288 JUMP JUMPDEST POP POP JUMP JUMPDEST PUSH1 0x1 PUSH1 0x1 PUSH1 0xA0 SHL SUB DUP3 AND PUSH2 0x77B JUMPI PUSH1 0x40 MLOAD PUSH32 0x64A0AE9200000000000000000000000000000000000000000000000000000000 DUP2 MSTORE PUSH1 0x0 PUSH1 0x4 DUP3 ADD MSTORE PUSH1 0x24 ADD JUMPDEST PUSH1 0x40 MLOAD DUP1 SWAP2 SUB SWAP1 REVERT JUMPDEST PUSH1 0x0 PUSH2 0x788 DUP4 DUP4 CALLER PUSH2 0x1295 JUMP JUMPDEST SWAP1 POP DUP4 PUSH1 0x1 PUSH1 0x1 PUSH1 0xA0 SHL SUB AND DUP2 PUSH1 0x1 PUSH1 0x1 PUSH1 0xA0 SHL SUB AND EQ PUSH2 0x7EF JUMPI PUSH1 0x40 MLOAD PUSH32 0x64283D7B00000000000000000000000000000000000000000000000000000000 DUP2 MSTORE PUSH1 0x1 PUSH1 0x1 PUSH1 0xA0 SHL SUB DUP1 DUP7 AND PUSH1 0x4 DUP4 ADD MSTORE PUSH1 0x24 DUP3 ADD DUP5 SWAP1 MSTORE DUP3 AND PUSH1 0x44 DUP3 ADD MSTORE PUSH1 0x64 ADD PUSH2 0x772 JUMP JUMPDEST POP POP POP POP JUMP JUMPDEST PUSH2 0x810 DUP4 DUP4 DUP4 PUSH1 0x40 MLOAD DUP1 PUSH1 0x20 ADD PUSH1 0x40 MSTORE DUP1 PUSH1 0x0 DUP2 MSTORE POP PUSH2 0xBEA JUMP JUMPDEST POP POP POP JUMP JUMPDEST PUSH1 0x0 PUSH2 0x663 DUP3 PUSH2 0x1236 JUMP JUMPDEST PUSH1 0x1 PUSH1 0x1 PUSH1 0xA0 SHL SUB DUP2 AND PUSH2 0x860 JUMPI PUSH1 0x40 MLOAD PUSH32 0xE6C4247B00000000000000000000000000000000000000000000000000000000 DUP2 MSTORE PUSH1 0x4 ADD PUSH1 0x40 MLOAD DUP1 SWAP2 SUB SWAP1 REVERT JUMPDEST CALLER PUSH2 0x86A DUP4 PUSH2 0x815 JUMP JUMPDEST PUSH1 0x1 PUSH1 0x1 PUSH1 0xA0 SHL SUB AND EQ PUSH2 0x8B3 JUMPI PUSH1 0x40 MLOAD PUSH32 0xABD2857700000000000000000000000000000000000000000000000000000000 DUP2 MSTORE PUSH1 0x4 DUP2 ADD DUP4 SWAP1 MSTORE CALLER PUSH1 0x24 DUP3 ADD MSTORE PUSH1 0x44 ADD PUSH2 0x772 JUMP JUMPDEST PUSH2 0x8BE CALLER DUP3 DUP5 PUSH2 0x7F5 JUMP JUMPDEST PUSH1 0x40 MLOAD PUSH1 0x1 PUSH1 0x1 PUSH1 0xA0 SHL SUB DUP3 AND SWAP1 CALLER SWAP1 DUP5 SWAP1 PUSH32 0xD15524263AE66F75C1E604C47DB6085085110F23EF7322B355179AC5E3B0783A SWAP1 PUSH1 0x0 SWAP1 LOG4 POP POP JUMP JUMPDEST PUSH1 0x0 PUSH2 0x904 PUSH2 0x13C4 JUMP JUMPDEST PUSH1 0xC SLOAD PUSH1 0x0 SUB PUSH2 0x940 JUMPI PUSH1 0x40 MLOAD PUSH32 0x1281480200000000000000000000000000000000000000000000000000000000 DUP2 MSTORE PUSH1 0x4 ADD PUSH1 0x40 MLOAD DUP1 SWAP2 SUB SWAP1 REVERT JUMPDEST PUSH1 0x10 SLOAD TIMESTAMP LT PUSH2 0x97B JUMPI PUSH1 0x40 MLOAD PUSH32 0x28D09EC100000000000000000000000000000000000000000000000000000000 DUP2 MSTORE PUSH1 0x4 ADD PUSH1 0x40 MLOAD DUP1 SWAP2 SUB SWAP1 REVERT JUMPDEST PUSH1 0x1 PUSH1 0x1 PUSH1 0xA0 SHL SUB DUP3 AND PUSH2 0x9BB JUMPI PUSH1 0x40 MLOAD PUSH32 0xE6C4247B00000000000000000000000000000000000000000000000000000000 DUP2 MSTORE PUSH1 0x4 ADD PUSH1 0x40 MLOAD DUP1 SWAP2 SUB SWAP1 REVERT JUMPDEST PUSH1 0x1 PUSH1 0x1 PUSH1 0xA0 SHL SUB DUP3 AND PUSH1 0x0 SWAP1 DUP2 MSTORE PUSH1 0x12 PUSH1 0x20 MSTORE PUSH1 0x40 SWAP1 KECCAK256 SLOAD PUSH1 0xFF AND ISZERO PUSH2 0xA19 JUMPI PUSH1 0x40 MLOAD PUSH32 0x66C1A14400000000000000000000000000000000000000000000000000000000 DUP2 MSTORE PUSH1 0x1 PUSH1 0x1 PUSH1 0xA0 SHL SUB DUP4 AND PUSH1 0x4 DUP3 ADD MSTORE PUSH1 0x24 ADD PUSH2 0x772 JUMP JUMPDEST PUSH2 0xA22 DUP3 PUSH2 0x140A JUMP JUMPDEST PUSH1 0x1 PUSH1 0xC PUSH1 0x0 DUP3 DUP3 SLOAD PUSH2 0xA35 SWAP2 SWAP1 PUSH2 0x2384 JUMP JUMPDEST SWAP1 SWAP2 SSTORE POP PUSH1 0x0 SWAP1 POP PUSH2 0xA48 DUP4 PUSH1 0xA PUSH2 0x1695 JUMP JUMPDEST SWAP1 POP DUP1 DUP4 PUSH1 0x1 PUSH1 0x1 PUSH1 0xA0 SHL SUB AND PUSH32 0x64C70245ECF357FAEBC70330126993AEB69711984C09059595DF6399DD510857 PUSH1 0xA PUSH1 0x40 MLOAD PUSH2 0xA85 SWAP2 SWAP1 PUSH2 0x2397 JUMP JUMPDEST PUSH1 0x40 MLOAD DUP1 SWAP2 SUB SWAP1 LOG3 SWAP1 POP JUMPDEST SWAP2 SWAP1 POP JUMP JUMPDEST PUSH1 0x0 PUSH1 0x1 PUSH1 0x1 PUSH1 0xA0 SHL SUB DUP3 AND PUSH2 0xADA JUMPI PUSH1 0x40 MLOAD PUSH32 0x89C62B6400000000000000000000000000000000000000000000000000000000 DUP2 MSTORE PUSH1 0x0 PUSH1 0x4 DUP3 ADD MSTORE PUSH1 0x24 ADD PUSH2 0x772 JUMP JUMPDEST POP PUSH1 0x1 PUSH1 0x1 PUSH1 0xA0 SHL SUB AND PUSH1 0x0 SWAP1 DUP2 MSTORE PUSH1 0x4 PUSH1 0x20 MSTORE PUSH1 0x40 SWAP1 KECCAK256 SLOAD SWAP1 JUMP JUMPDEST PUSH2 0xAFE PUSH2 0x13C4 JUMP JUMPDEST PUSH2 0xB08 PUSH1 0x0 PUSH2 0x1756 JUMP JUMPDEST JUMP JUMPDEST PUSH1 0x60 PUSH1 0x2 DUP1 SLOAD PUSH2 0x678 SWAP1 PUSH2 0x2302 JUMP JUMPDEST PUSH2 0x72F CALLER DUP4 DUP4 PUSH2 0x17BE JUMP JUMPDEST PUSH2 0xB2C PUSH2 0x13C4 JUMP JUMPDEST PUSH1 0x1 PUSH1 0x1 PUSH1 0xA0 SHL SUB DUP3 AND PUSH2 0xB6C JUMPI PUSH1 0x40 MLOAD PUSH32 0xE6C4247B00000000000000000000000000000000000000000000000000000000 DUP2 MSTORE PUSH1 0x4 ADD PUSH1 0x40 MLOAD DUP1 SWAP2 SUB SWAP1 REVERT JUMPDEST PUSH1 0x1 PUSH1 0x1 PUSH1 0xA0 SHL SUB DUP3 AND PUSH1 0x0 DUP2 DUP2 MSTORE PUSH1 0x11 PUSH1 0x20 SWAP1 DUP2 MSTORE PUSH1 0x40 SWAP2 DUP3 SWAP1 KECCAK256 DUP1 SLOAD PUSH32 0xFFFFFFFFFFFFFFFFFFFFFFFFFFFFFFFFFFFFFFFFFFFFFFFFFFFFFFFFFFFFFF00 AND DUP6 ISZERO ISZERO SWAP1 DUP2 OR SWAP1 SWAP2 SSTORE SWAP2 MLOAD SWAP2 DUP3 MSTORE PUSH32 0xB1288E9F7BAE3599E10819D5553FEBEA48E11A6F8F585B32C8ABAD397DD2627E SWAP2 ADD JUMPDEST PUSH1 0x40 MLOAD DUP1 SWAP2 SUB SWAP1 LOG2 POP POP JUMP JUMPDEST PUSH2 0xBF5 DUP5 DUP5 DUP5 PUSH2 0x733 JUMP JUMPDEST PUSH2 0x7EF DUP5 DUP5 DUP5 DUP5 PUSH2 0x1894 JUMP JUMPDEST PUSH1 0x0 PUSH2 0xC0B PUSH2 0x13C4 JUMP JUMPDEST PUSH1 0xC SLOAD PUSH1 0x0 SUB PUSH2 0xC47 JUMPI PUSH1 0x40 MLOAD PUSH32 0x1281480200000000000000000000000000000000000000000000000000000000 DUP2 MSTORE PUSH1 0x4 ADD PUSH1 0x40 MLOAD DUP1 SWAP2 SUB SWAP1 REVERT JUMPDEST PUSH1 0x10 SLOAD TIMESTAMP LT PUSH2 0xC82 JUMPI PUSH1 0x40 MLOAD PUSH32 0x28D09EC100000000000000000000000000000000000000000000000000000000 DUP2 MSTORE PUSH1 0x4 ADD PUSH1 0x40 MLOAD DUP1 SWAP2 SUB SWAP1 REVERT JUMPDEST PUSH1 0x1 PUSH1 0x1 PUSH1 0xA0 SHL SUB DUP3 AND PUSH2 0xCC2 JUMPI PUSH1 0x40 MLOAD PUSH32 0xE6C4247B00000000000000000000000000000000000000000000000000000000 DUP2 MSTORE PUSH1 0x4 ADD PUSH1 0x40 MLOAD DUP1 SWAP2 SUB SWAP1 REVERT JUMPDEST PUSH1 0x1 PUSH1 0x1 PUSH1 0xA0 SHL SUB DUP3 AND PUSH1 0x0 SWAP1 DUP2 MSTORE PUSH1 0x11 PUSH1 0x20 MSTORE PUSH1 0x40 SWAP1 KECCAK256 SLOAD PUSH1 0xFF AND PUSH2 0xD1F JUMPI PUSH1 0x40 MLOAD PUSH32 0xB4535F3600000000000000000000000000000000000000000000000000000000 DUP2 MSTORE PUSH1 0x1 PUSH1 0x1 PUSH1 0xA0 SHL SUB DUP4 AND PUSH1 0x4 DUP3 ADD MSTORE PUSH1 0x24 ADD PUSH2 0x772 JUMP JUMPDEST PUSH1 0x1 PUSH1 0x1 PUSH1 0xA0 SHL SUB DUP3 AND PUSH1 0x0 SWAP1 DUP2 MSTORE PUSH1 0x12 PUSH1 0x20 MSTORE PUSH1 0x40 SWAP1 KECCAK256 SLOAD PUSH1 0xFF AND ISZERO PUSH2 0xD7D JUMPI PUSH1 0x40 MLOAD PUSH32 0x66C1A14400000000000000000000000000000000000000000000000000000000 DUP2 MSTORE PUSH1 0x1 PUSH1 0x1 PUSH1 0xA0 SHL SUB DUP4 AND PUSH1 0x4 DUP3 ADD MSTORE PUSH1 0x24 ADD PUSH2 0x772 JUMP JUMPDEST PUSH1 0xD SLOAD CALLVALUE EQ PUSH2 0xA22 JUMPI PUSH1 0x40 MLOAD PUSH32 0x296D36E800000000000000000000000000000000000000000000000000000000 DUP2 MSTORE CALLVALUE PUSH1 0x4 DUP3 ADD MSTORE PUSH1 0x24 ADD PUSH2 0x772 JUMP JUMPDEST PUSH1 0x10 SLOAD TIMESTAMP LT ISZERO PUSH2 0xDF6 JUMPI PUSH1 0x40 MLOAD PUSH32 0x21539DFF00000000000000000000000000000000000000000000000000000000 DUP2 MSTORE PUSH1 0x4 ADD PUSH1 0x40 MLOAD DUP1 SWAP2 SUB SWAP1 REVERT JUMPDEST SELFBALANCE DUP1 ISZERO PUSH2 0xE5F JUMPI PUSH1 0xB SLOAD PUSH1 0x40 MLOAD PUSH1 0x0 SWAP2 PUSH1 0x1 PUSH1 0x1 PUSH1 0xA0 SHL SUB AND SWAP1 DUP4 SWAP1 DUP4 DUP2 DUP2 DUP2 DUP6 DUP8 GAS CALL SWAP3 POP POP POP RETURNDATASIZE DUP1 PUSH1 0x0 DUP2 EQ PUSH2 0xE4A JUMPI PUSH1 0x40 MLOAD SWAP2 POP PUSH1 0x1F NOT PUSH1 0x3F RETURNDATASIZE ADD AND DUP3 ADD PUSH1 0x40 MSTORE RETURNDATASIZE DUP3 MSTORE RETURNDATASIZE PUSH1 0x0 PUSH1 0x20 DUP5 ADD RETURNDATACOPY PUSH2 0xE4F JUMP JUMPDEST PUSH1 0x60 SWAP2 POP JUMPDEST POP POP SWAP1 POP DUP1 PUSH2 0xE5D JUMPI PUSH1 0x0 DUP1 REVERT JUMPDEST POP JUMPDEST PUSH1 0x8 SLOAD PUSH1 0x40 MLOAD PUSH32 0x70A0823100000000000000000000000000000000000000000000000000000000 DUP2 MSTORE ADDRESS PUSH1 0x4 DUP3 ADD MSTORE PUSH1 0x0 SWAP2 PUSH1 0x1 PUSH1 0x1 PUSH1 0xA0 SHL SUB AND SWAP1 PUSH4 0x70A08231 SWAP1 PUSH1 0x24 ADD PUSH1 0x20 PUSH1 0x40 MLOAD DUP1 DUP4 SUB DUP2 DUP7 GAS STATICCALL ISZERO DUP1 ISZERO PUSH2 0xEC1 JUMPI RETURNDATASIZE PUSH1 0x0 DUP1 RETURNDATACOPY RETURNDATASIZE PUSH1 0x0 REVERT JUMPDEST POP POP POP POP PUSH1 0x40 MLOAD RETURNDATASIZE PUSH1 0x1F NOT PUSH1 0x1F DUP3 ADD AND DUP3 ADD DUP1 PUSH1 0x40 MSTORE POP DUP2 ADD SWAP1 PUSH2 0xEE5 SWAP2 SWAP1 PUSH2 0x2440 JUMP JUMPDEST SWAP1 POP DUP1 ISZERO PUSH2 0xF92 JUMPI PUSH1 0x8 SLOAD PUSH1 0xB SLOAD PUSH1 0x40 MLOAD PUSH32 0xA9059CBB00000000000000000000000000000000000000000000000000000000 DUP2 MSTORE PUSH1 0x1 PUSH1 0x1 PUSH1 0xA0 SHL SUB SWAP2 DUP3 AND PUSH1 0x4 DUP3 ADD MSTORE PUSH1 0x24 DUP2 ADD DUP5 SWAP1 MSTORE PUSH1 0x0 SWAP3 SWAP2 SWAP1 SWAP2 AND SWAP1 PUSH4 0xA9059CBB SWAP1 PUSH1 0x44 ADD PUSH1 0x20 PUSH1 0x40 MLOAD DUP1 DUP4 SUB DUP2 PUSH1 0x0 DUP8 GAS CALL ISZERO DUP1 ISZERO PUSH2 0xF60 JUMPI RETURNDATASIZE PUSH1 0x0 DUP1 RETURNDATACOPY RETURNDATASIZE PUSH1 0x0 REVERT JUMPDEST POP POP POP POP PUSH1 0x40 MLOAD RETURNDATASIZE PUSH1 0x1F NOT PUSH1 0x1F DUP3 ADD AND DUP3 ADD DUP1 PUSH1 0x40 MSTORE POP DUP2 ADD SWAP1 PUSH2 0xF84 SWAP2 SWAP1 PUSH2 0x2459 JUMP JUMPDEST SWAP1 POP DUP1 PUSH2 0xF90 JUMPI PUSH1 0x0 DUP1 REVERT JUMPDEST POP JUMPDEST PUSH1 0x0 DUP3 GT DUP1 PUSH2 0xFA1 JUMPI POP PUSH1 0x0 DUP2 GT JUMPDEST ISZERO PUSH2 0x72F JUMPI PUSH1 0xB SLOAD PUSH1 0x40 DUP1 MLOAD DUP5 DUP2 MSTORE PUSH1 0x20 DUP2 ADD DUP5 SWAP1 MSTORE PUSH1 0x1 PUSH1 0x1 PUSH1 0xA0 SHL SUB SWAP1 SWAP3 AND SWAP2 PUSH32 0x7AAD6F98D5CB1C7D292C4CC72DE936265C595B1317165C9C45B46BD2A2C5FE9F SWAP2 ADD PUSH2 0xBDE JUMP JUMPDEST PUSH1 0x60 PUSH2 0xFF6 DUP3 PUSH2 0x1236 JUMP JUMPDEST POP PUSH1 0x0 DUP3 DUP2 MSTORE PUSH1 0x7 PUSH1 0x20 MSTORE PUSH1 0x40 DUP2 KECCAK256 DUP1 SLOAD PUSH2 0x1010 SWAP1 PUSH2 0x2302 JUMP JUMPDEST DUP1 PUSH1 0x1F ADD PUSH1 0x20 DUP1 SWAP2 DIV MUL PUSH1 0x20 ADD PUSH1 0x40 MLOAD SWAP1 DUP2 ADD PUSH1 0x40 MSTORE DUP1 SWAP3 SWAP2 SWAP1 DUP2 DUP2 MSTORE PUSH1 0x20 ADD DUP3 DUP1 SLOAD PUSH2 0x103C SWAP1 PUSH2 0x2302 JUMP JUMPDEST DUP1 ISZERO PUSH2 0x1089 JUMPI DUP1 PUSH1 0x1F LT PUSH2 0x105E JUMPI PUSH2 0x100 DUP1 DUP4 SLOAD DIV MUL DUP4 MSTORE SWAP2 PUSH1 0x20 ADD SWAP2 PUSH2 0x1089 JUMP JUMPDEST DUP3 ADD SWAP2 SWAP1 PUSH1 0x0 MSTORE PUSH1 0x20 PUSH1 0x0 KECCAK256 SWAP1 JUMPDEST DUP2 SLOAD DUP2 MSTORE SWAP1 PUSH1 0x1 ADD SWAP1 PUSH1 0x20 ADD DUP1 DUP4 GT PUSH2 0x106C JUMPI DUP3 SWAP1 SUB PUSH1 0x1F AND DUP3 ADD SWAP2 JUMPDEST POP POP POP POP POP SWAP1 POP PUSH1 0x0 PUSH2 0x10A7 PUSH1 0x40 DUP1 MLOAD PUSH1 0x20 DUP2 ADD SWAP1 SWAP2 MSTORE PUSH1 0x0 DUP2 MSTORE SWAP1 JUMP JUMPDEST SWAP1 POP DUP1 MLOAD PUSH1 0x0 SUB PUSH2 0x10B9 JUMPI POP SWAP3 SWAP2 POP POP JUMP JUMPDEST DUP2 MLOAD ISZERO PUSH2 0x10EB JUMPI DUP1 DUP3 PUSH1 0x40 MLOAD PUSH1 0x20 ADD PUSH2 0x10D3 SWAP3 SWAP2 SWAP1 PUSH2 0x2476 JUMP JUMPDEST PUSH1 0x40 MLOAD PUSH1 0x20 DUP2 DUP4 SUB SUB DUP2 MSTORE SWAP1 PUSH1 0x40 MSTORE SWAP3 POP POP POP SWAP2 SWAP1 POP JUMP JUMPDEST PUSH2 0x10F4 DUP5 PUSH2 0x1A57 JUMP JUMPDEST SWAP5 SWAP4 POP POP POP POP JUMP JUMPDEST PUSH2 0x1104 PUSH2 0x13C4 JUMP JUMPDEST PUSH1 0x1 PUSH1 0x1 PUSH1 0xA0 SHL SUB DUP2 AND PUSH2 0x1147 JUMPI PUSH1 0x40 MLOAD PUSH32 0x1E4FBDF700000000000000000000000000000000000000000000000000000000 DUP2 MSTORE PUSH1 0x0 PUSH1 0x4 DUP3 ADD MSTORE PUSH1 0x24 ADD PUSH2 0x772 JUMP JUMPDEST PUSH2 0x1150 DUP2 PUSH2 0x1756 JUMP JUMPDEST POP JUMP JUMPDEST PUSH1 0x0 PUSH32 0xFFFFFFFF00000000000000000000000000000000000000000000000000000000 DUP3 AND PUSH32 0x80AC58CD00000000000000000000000000000000000000000000000000000000 EQ DUP1 PUSH2 0x11E6 JUMPI POP PUSH32 0xFFFFFFFF00000000000000000000000000000000000000000000000000000000 DUP3 AND PUSH32 0x5B5E139F00000000000000000000000000000000000000000000000000000000 EQ JUMPDEST DUP1 PUSH2 0x663 JUMPI POP PUSH32 0x1FFC9A700000000000000000000000000000000000000000000000000000000 PUSH32 0xFFFFFFFF00000000000000000000000000000000000000000000000000000000 DUP4 AND EQ PUSH2 0x663 JUMP JUMPDEST PUSH1 0x0 DUP2 DUP2 MSTORE PUSH1 0x3 PUSH1 0x20 MSTORE PUSH1 0x40 DUP2 KECCAK256 SLOAD PUSH1 0x1 PUSH1 0x1 PUSH1 0xA0 SHL SUB AND DUP1 PUSH2 0x663 JUMPI PUSH1 0x40 MLOAD PUSH32 0x7E27328900000000000000000000000000000000000000000000000000000000 DUP2 MSTORE PUSH1 0x4 DUP2 ADD DUP5 SWAP1 MSTORE PUSH1 0x24 ADD PUSH2 0x772 JUMP JUMPDEST PUSH2 0x810 DUP4 DUP4 DUP4 PUSH1 0x1 PUSH2 0x1ACB JUMP JUMPDEST PUSH1 0x0 DUP3 DUP2 MSTORE PUSH1 0x3 PUSH1 0x20 MSTORE PUSH1 0x40 DUP2 KECCAK256 SLOAD PUSH1 0x1 PUSH1 0x1 PUSH1 0xA0 SHL SUB SWAP1 DUP2 AND SWAP1 DUP4 AND ISZERO PUSH2 0x12C2 JUMPI PUSH2 0x12C2 DUP2 DUP5 DUP7 PUSH2 0x1C21 JUMP JUMPDEST PUSH1 0x1 PUSH1 0x1 PUSH1 0xA0 SHL SUB DUP2 AND ISZERO PUSH2 0x131E JUMPI PUSH2 0x12DF PUSH1 0x0 DUP6 PUSH1 0x0 DUP1 PUSH2 0x1ACB JUMP JUMPDEST PUSH1 0x1 PUSH1 0x1 PUSH1 0xA0 SHL SUB DUP2 AND PUSH1 0x0 SWAP1 DUP2 MSTORE PUSH1 0x4 PUSH1 0x20 MSTORE PUSH1 0x40 SWAP1 KECCAK256 DUP1 SLOAD PUSH32 0xFFFFFFFFFFFFFFFFFFFFFFFFFFFFFFFFFFFFFFFFFFFFFFFFFFFFFFFFFFFFFFFF ADD SWAP1 SSTORE JUMPDEST PUSH1 0x1 PUSH1 0x1 PUSH1 0xA0 SHL SUB DUP6 AND ISZERO PUSH2 0x134D JUMPI PUSH1 0x1 PUSH1 0x1 PUSH1 0xA0 SHL SUB DUP6 AND PUSH1 0x0 SWAP1 DUP2 MSTORE PUSH1 0x4 PUSH1 0x20 MSTORE PUSH1 0x40 SWAP1 KECCAK256 DUP1 SLOAD PUSH1 0x1 ADD SWAP1 SSTORE JUMPDEST PUSH1 0x0 DUP5 DUP2 MSTORE PUSH1 0x3 PUSH1 0x20 MSTORE PUSH1 0x40 DUP1 DUP3 KECCAK256 DUP1 SLOAD PUSH32 0xFFFFFFFFFFFFFFFFFFFFFFFF0000000000000000000000000000000000000000 AND PUSH1 0x1 PUSH1 0x1 PUSH1 0xA0 SHL SUB DUP10 DUP2 AND SWAP2 DUP3 OR SWAP1 SWAP3 SSTORE SWAP2 MLOAD DUP8 SWAP4 SWAP2 DUP6 AND SWAP2 PUSH32 0xDDF252AD1BE2C89B69C2B068FC378DAA952BA7F163C4A11628F55A4DF523B3EF SWAP2 LOG4 SWAP5 SWAP4 POP POP POP POP JUMP JUMPDEST PUSH1 0x0 SLOAD PUSH1 0x1 PUSH1 0x1 PUSH1 0xA0 SHL SUB AND CALLER EQ PUSH2 0xB08 JUMPI PUSH1 0x40 MLOAD PUSH32 0x118CDAA700000000000000000000000000000000000000000000000000000000 DUP2 MSTORE CALLER PUSH1 0x4 DUP3 ADD MSTORE PUSH1 0x24 ADD PUSH2 0x772 JUMP JUMPDEST PUSH1 0x8 SLOAD PUSH1 0x40 MLOAD PUSH32 0x70A0823100000000000000000000000000000000000000000000000000000000 DUP2 MSTORE PUSH1 0x1 PUSH1 0x1 PUSH1 0xA0 SHL SUB DUP4 DUP2 AND PUSH1 0x4 DUP4 ADD MSTORE PUSH1 0x0 SWAP3 AND SWAP1 PUSH4 0x70A08231 SWAP1 PUSH1 0x24 ADD PUSH1 0x20 PUSH1 0x40 MLOAD DUP1 DUP4 SUB DUP2 DUP7 GAS STATICCALL ISZERO DUP1 ISZERO PUSH2 0x146E JUMPI RETURNDATASIZE PUSH1 0x0 DUP1 RETURNDATACOPY RETURNDATASIZE PUSH1 0x0 REVERT JUMPDEST POP POP POP POP PUSH1 0x40 MLOAD RETURNDATASIZE PUSH1 0x1F NOT PUSH1 0x1F DUP3 ADD AND DUP3 ADD DUP1 PUSH1 0x40 MSTORE POP DUP2 ADD SWAP1 PUSH2 0x1492 SWAP2 SWAP1 PUSH2 0x2440 JUMP JUMPDEST SWAP1 POP PUSH1 0xE SLOAD DUP2 LT ISZERO PUSH2 0x14D3 JUMPI PUSH1 0x40 MLOAD PUSH32 0x1BC3A58200000000000000000000000000000000000000000000000000000000 DUP2 MSTORE PUSH1 0x4 DUP2 ADD DUP3 SWAP1 MSTORE PUSH1 0x24 ADD PUSH2 0x772 JUMP JUMPDEST PUSH1 0x8 SLOAD PUSH1 0x40 MLOAD PUSH32 0xDD62ED3E00000000000000000000000000000000000000000000000000000000 DUP2 MSTORE PUSH1 0x1 PUSH1 0x1 PUSH1 0xA0 SHL SUB DUP5 DUP2 AND PUSH1 0x4 DUP4 ADD MSTORE ADDRESS PUSH1 0x24 DUP4 ADD MSTORE PUSH1 0x0 SWAP3 AND SWAP1 PUSH4 0xDD62ED3E SWAP1 PUSH1 0x44 ADD PUSH1 0x20 PUSH1 0x40 MLOAD DUP1 DUP4 SUB DUP2 DUP7 GAS STATICCALL ISZERO DUP1 ISZERO PUSH2 0x153D JUMPI RETURNDATASIZE PUSH1 0x0 DUP1 RETURNDATACOPY RETURNDATASIZE PUSH1 0x0 REVERT JUMPDEST POP POP POP POP PUSH1 0x40 MLOAD RETURNDATASIZE PUSH1 0x1F NOT PUSH1 0x1F DUP3 ADD AND DUP3 ADD DUP1 PUSH1 0x40 MSTORE POP DUP2 ADD SWAP1 PUSH2 0x1561 SWAP2 SWAP1 PUSH2 0x2440 JUMP JUMPDEST SWAP1 POP PUSH1 0xE SLOAD DUP2 LT ISZERO PUSH2 0x15A2 JUMPI PUSH1 0x40 MLOAD PUSH32 0x8EF24D4D00000000000000000000000000000000000000000000000000000000 DUP2 MSTORE PUSH1 0x4 DUP2 ADD DUP3 SWAP1 MSTORE PUSH1 0x24 ADD PUSH2 0x772 JUMP JUMPDEST PUSH1 0x8 SLOAD PUSH1 0xE SLOAD PUSH1 0x40 MLOAD PUSH32 0x23B872DD00000000000000000000000000000000000000000000000000000000 DUP2 MSTORE PUSH1 0x1 PUSH1 0x1 PUSH1 0xA0 SHL SUB DUP7 DUP2 AND PUSH1 0x4 DUP4 ADD MSTORE ADDRESS PUSH1 0x24 DUP4 ADD MSTORE PUSH1 0x44 DUP3 ADD SWAP3 SWAP1 SWAP3 MSTORE PUSH1 0x0 SWAP3 SWAP2 SWAP1 SWAP2 AND SWAP1 PUSH4 0x23B872DD SWAP1 PUSH1 0x64 ADD PUSH1 0x20 PUSH1 0x40 MLOAD DUP1 DUP4 SUB DUP2 PUSH1 0x0 DUP8 GAS CALL ISZERO DUP1 ISZERO PUSH2 0x161C JUMPI RETURNDATASIZE PUSH1 0x0 DUP1 RETURNDATACOPY RETURNDATASIZE PUSH1 0x0 REVERT JUMPDEST POP POP POP POP PUSH1 0x40 MLOAD RETURNDATASIZE PUSH1 0x1F NOT PUSH1 0x1F DUP3 ADD AND DUP3 ADD DUP1 PUSH1 0x40 MSTORE POP DUP2 ADD SWAP1 PUSH2 0x1640 SWAP2 SWAP1 PUSH2 0x2459 JUMP JUMPDEST SWAP1 POP DUP1 PUSH2 0x7EF JUMPI PUSH1 0xE SLOAD PUSH1 0x40 MLOAD PUSH32 0xBF182BE800000000000000000000000000000000000000000000000000000000 DUP2 MSTORE PUSH1 0x1 PUSH1 0x1 PUSH1 0xA0 SHL SUB DUP7 AND PUSH1 0x4 DUP3 ADD MSTORE ADDRESS PUSH1 0x24 DUP3 ADD MSTORE PUSH1 0x44 DUP2 ADD SWAP2 SWAP1 SWAP2 MSTORE PUSH1 0x64 ADD PUSH2 0x772 JUMP JUMPDEST PUSH1 0x0 PUSH1 0x1 PUSH1 0x9 PUSH1 0x0 DUP3 DUP3 SLOAD PUSH2 0x16AA SWAP2 SWAP1 PUSH2 0x24A5 JUMP JUMPDEST SWAP1 SWAP2 SSTORE POP POP PUSH1 0x9 SLOAD PUSH2 0x16BC DUP5 DUP3 PUSH2 0x1CB7 JUMP JUMPDEST PUSH2 0x174F DUP2 DUP5 DUP1 SLOAD PUSH2 0x16CC SWAP1 PUSH2 0x2302 JUMP JUMPDEST DUP1 PUSH1 0x1F ADD PUSH1 0x20 DUP1 SWAP2 DIV MUL PUSH1 0x20 ADD PUSH1 0x40 MLOAD SWAP1 DUP2 ADD PUSH1 0x40 MSTORE DUP1 SWAP3 SWAP2 SWAP1 DUP2 DUP2 MSTORE PUSH1 0x20 ADD DUP3 DUP1 SLOAD PUSH2 0x16F8 SWAP1 PUSH2 0x2302 JUMP JUMPDEST DUP1 ISZERO PUSH2 0x1745 JUMPI DUP1 PUSH1 0x1F LT PUSH2 0x171A JUMPI PUSH2 0x100 DUP1 DUP4 SLOAD DIV MUL DUP4 MSTORE SWAP2 PUSH1 0x20 ADD SWAP2 PUSH2 0x1745 JUMP JUMPDEST DUP3 ADD SWAP2 SWAP1 PUSH1 0x0 MSTORE PUSH1 0x20 PUSH1 0x0 KECCAK256 SWAP1 JUMPDEST DUP2 SLOAD DUP2 MSTORE SWAP1 PUSH1 0x1 ADD SWAP1 PUSH1 0x20 ADD DUP1 DUP4 GT PUSH2 0x1728 JUMPI DUP3 SWAP1 SUB PUSH1 0x1F AND DUP3 ADD SWAP2 JUMPDEST POP POP POP POP POP PUSH2 0x1D4E JUMP JUMPDEST SWAP4 SWAP3 POP POP POP JUMP JUMPDEST PUSH1 0x0 DUP1 SLOAD PUSH1 0x1 PUSH1 0x1 PUSH1 0xA0 SHL SUB DUP4 DUP2 AND PUSH32 0xFFFFFFFFFFFFFFFFFFFFFFFF0000000000000000000000000000000000000000 DUP4 AND DUP2 OR DUP5 SSTORE PUSH1 0x40 MLOAD SWAP2 SWAP1 SWAP3 AND SWAP3 DUP4 SWAP2 PUSH32 0x8BE0079C531659141344CD1FD0A4F28419497F9722A3DAAFE3B4186F6B6457E0 SWAP2 SWAP1 LOG3 POP POP JUMP JUMPDEST PUSH1 0x1 PUSH1 0x1 PUSH1 0xA0 SHL SUB DUP3 AND PUSH2 0x1809 JUMPI PUSH1 0x40 MLOAD PUSH32 0x5B08BA1800000000000000000000000000000000000000000000000000000000 DUP2 MSTORE PUSH1 0x1 PUSH1 0x1 PUSH1 0xA0 SHL SUB DUP4 AND PUSH1 0x4 DUP3 ADD MSTORE PUSH1 0x24 ADD PUSH2 0x772 JUMP JUMPDEST PUSH1 0x1 PUSH1 0x1 PUSH1 0xA0 SHL SUB DUP4 DUP2 AND PUSH1 0x0 DUP2 DUP2 MSTORE PUSH1 0x6 PUSH1 0x20 SWAP1 DUP2 MSTORE PUSH1 0x40 DUP1 DUP4 KECCAK256 SWAP5 DUP8 AND DUP1 DUP5 MSTORE SWAP5 DUP3 MSTORE SWAP2 DUP3 SWAP1 KECCAK256 DUP1 SLOAD PUSH32 0xFFFFFFFFFFFFFFFFFFFFFFFFFFFFFFFFFFFFFFFFFFFFFFFFFFFFFFFFFFFFFF00 AND DUP7 ISZERO ISZERO SWAP1 DUP2 OR SWAP1 SWAP2 SSTORE SWAP2 MLOAD SWAP2 DUP3 MSTORE PUSH32 0x17307EAB39AB6107E8899845AD3D59BD9653F200F220920489CA2B5937696C31 SWAP2 ADD PUSH1 0x40 MLOAD DUP1 SWAP2 SUB SWAP1 LOG3 POP POP POP JUMP JUMPDEST PUSH1 0x1 PUSH1 0x1 PUSH1 0xA0 SHL SUB DUP4 AND EXTCODESIZE ISZERO PUSH2 0x7EF JUMPI PUSH1 0x40 MLOAD PUSH32 0x150B7A0200000000000000000000000000000000000000000000000000000000 DUP2 MSTORE PUSH1 0x1 PUSH1 0x1 PUSH1 0xA0 SHL SUB DUP5 AND SWAP1 PUSH4 0x150B7A02 SWAP1 PUSH2 0x18EF SWAP1 CALLER SWAP1 DUP9 SWAP1 DUP8 SWAP1 DUP8 SWAP1 PUSH1 0x4 ADD PUSH2 0x24B8 JUMP JUMPDEST PUSH1 0x20 PUSH1 0x40 MLOAD DUP1 DUP4 SUB DUP2 PUSH1 0x0 DUP8 GAS CALL SWAP3 POP POP POP DUP1 ISZERO PUSH2 0x1948 JUMPI POP PUSH1 0x40 DUP1 MLOAD PUSH1 0x1F RETURNDATASIZE SWAP1 DUP2 ADD PUSH32 0xFFFFFFFFFFFFFFFFFFFFFFFFFFFFFFFFFFFFFFFFFFFFFFFFFFFFFFFFFFFFFFE0 AND DUP3 ADD SWAP1 SWAP3 MSTORE PUSH2 0x1945 SWAP2 DUP2 ADD SWAP1 PUSH2 0x24F4 JUMP JUMPDEST PUSH1 0x1 JUMPDEST PUSH2 0x19CA JUMPI RETURNDATASIZE DUP1 DUP1 ISZERO PUSH2 0x1976 JUMPI PUSH1 0x40 MLOAD SWAP2 POP PUSH1 0x1F NOT PUSH1 0x3F RETURNDATASIZE ADD AND DUP3 ADD PUSH1 0x40 MSTORE RETURNDATASIZE DUP3 MSTORE RETURNDATASIZE PUSH1 0x0 PUSH1 0x20 DUP5 ADD RETURNDATACOPY PUSH2 0x197B JUMP JUMPDEST PUSH1 0x60 SWAP2 POP JUMPDEST POP DUP1 MLOAD PUSH1 0x0 SUB PUSH2 0x19C2 JUMPI PUSH1 0x40 MLOAD PUSH32 0x64A0AE9200000000000000000000000000000000000000000000000000000000 DUP2 MSTORE PUSH1 0x1 PUSH1 0x1 PUSH1 0xA0 SHL SUB DUP6 AND PUSH1 0x4 DUP3 ADD MSTORE PUSH1 0x24 ADD PUSH2 0x772 JUMP JUMPDEST DUP1 MLOAD DUP2 PUSH1 0x20 ADD REVERT JUMPDEST PUSH32 0xFFFFFFFF00000000000000000000000000000000000000000000000000000000 DUP2 AND PUSH32 0x150B7A0200000000000000000000000000000000000000000000000000000000 EQ PUSH2 0x1A50 JUMPI PUSH1 0x40 MLOAD PUSH32 0x64A0AE9200000000000000000000000000000000000000000000000000000000 DUP2 MSTORE PUSH1 0x1 PUSH1 0x1 PUSH1 0xA0 SHL SUB DUP6 AND PUSH1 0x4 DUP3 ADD MSTORE PUSH1 0x24 ADD PUSH2 0x772 JUMP JUMPDEST POP POP POP POP POP JUMP JUMPDEST PUSH1 0x60 PUSH2 0x1A62 DUP3 PUSH2 0x1236 JUMP JUMPDEST POP PUSH1 0x0 PUSH2 0x1A7A PUSH1 0x40 DUP1 MLOAD PUSH1 0x20 DUP2 ADD SWAP1 SWAP2 MSTORE PUSH1 0x0 DUP2 MSTORE SWAP1 JUMP JUMPDEST SWAP1 POP PUSH1 0x0 DUP2 MLOAD GT PUSH2 0x1A9A JUMPI PUSH1 0x40 MLOAD DUP1 PUSH1 0x20 ADD PUSH1 0x40 MSTORE DUP1 PUSH1 0x0 DUP2 MSTORE POP PUSH2 0x174F JUMP JUMPDEST DUP1 PUSH2 0x1AA4 DUP5 PUSH2 0x1D9E JUMP JUMPDEST PUSH1 0x40 MLOAD PUSH1 0x20 ADD PUSH2 0x1AB5 SWAP3 SWAP2 SWAP1 PUSH2 0x2476 JUMP JUMPDEST PUSH1 0x40 MLOAD PUSH1 0x20 DUP2 DUP4 SUB SUB DUP2 MSTORE SWAP1 PUSH1 0x40 MSTORE SWAP4 SWAP3 POP POP POP JUMP JUMPDEST DUP1 DUP1 PUSH2 0x1ADF JUMPI POP PUSH1 0x1 PUSH1 0x1 PUSH1 0xA0 SHL SUB DUP3 AND ISZERO ISZERO JUMPDEST ISZERO PUSH2 0x1BD9 JUMPI PUSH1 0x0 PUSH2 0x1AEF DUP5 PUSH2 0x1236 JUMP JUMPDEST SWAP1 POP PUSH1 0x1 PUSH1 0x1 PUSH1 0xA0 SHL SUB DUP4 AND ISZERO DUP1 ISZERO SWAP1 PUSH2 0x1B1B JUMPI POP DUP3 PUSH1 0x1 PUSH1 0x1 PUSH1 0xA0 SHL SUB AND DUP2 PUSH1 0x1 PUSH1 0x1 PUSH1 0xA0 SHL SUB AND EQ ISZERO JUMPDEST DUP1 ISZERO PUSH2 0x1B4D JUMPI POP PUSH1 0x1 PUSH1 0x1 PUSH1 0xA0 SHL SUB DUP1 DUP3 AND PUSH1 0x0 SWAP1 DUP2 MSTORE PUSH1 0x6 PUSH1 0x20 SWAP1 DUP2 MSTORE PUSH1 0x40 DUP1 DUP4 KECCAK256 SWAP4 DUP8 AND DUP4 MSTORE SWAP3 SWAP1 MSTORE KECCAK256 SLOAD PUSH1 0xFF AND ISZERO JUMPDEST ISZERO PUSH2 0x1B8F JUMPI PUSH1 0x40 MLOAD PUSH32 0xA9FBF51F00000000000000000000000000000000000000000000000000000000 DUP2 MSTORE PUSH1 0x1 PUSH1 0x1 PUSH1 0xA0 SHL SUB DUP5 AND PUSH1 0x4 DUP3 ADD MSTORE PUSH1 0x24 ADD PUSH2 0x772 JUMP JUMPDEST DUP2 ISZERO PUSH2 0x1BD7 JUMPI DUP4 DUP6 PUSH1 0x1 PUSH1 0x1 PUSH1 0xA0 SHL SUB AND DUP3 PUSH1 0x1 PUSH1 0x1 PUSH1 0xA0 SHL SUB AND PUSH32 0x8C5BE1E5EBEC7D5BD14F71427D1E84F3DD0314C0F7B2291E5B200AC8C7C3B925 PUSH1 0x40 MLOAD PUSH1 0x40 MLOAD DUP1 SWAP2 SUB SWAP1 LOG4 JUMPDEST POP JUMPDEST POP POP PUSH1 0x0 SWAP1 DUP2 MSTORE PUSH1 0x5 PUSH1 0x20 MSTORE PUSH1 0x40 SWAP1 KECCAK256 DUP1 SLOAD PUSH32 0xFFFFFFFFFFFFFFFFFFFFFFFF0000000000000000000000000000000000000000 AND PUSH1 0x1 PUSH1 0x1 PUSH1 0xA0 SHL SUB SWAP3 SWAP1 SWAP3 AND SWAP2 SWAP1 SWAP2 OR SWAP1 SSTORE JUMP JUMPDEST PUSH2 0x1C2C DUP4 DUP4 DUP4 PUSH2 0x1E5C JUMP JUMPDEST PUSH2 0x810 JUMPI PUSH1 0x1 PUSH1 0x1 PUSH1 0xA0 SHL SUB DUP4 AND PUSH2 0x1C73 JUMPI PUSH1 0x40 MLOAD PUSH32 0x7E27328900000000000000000000000000000000000000000000000000000000 DUP2 MSTORE PUSH1 0x4 DUP2 ADD DUP3 SWAP1 MSTORE PUSH1 0x24 ADD PUSH2 0x772 JUMP JUMPDEST PUSH1 0x40 MLOAD PUSH32 0x177E802F00000000000000000000000000000000000000000000000000000000 DUP2 MSTORE PUSH1 0x1 PUSH1 0x1 PUSH1 0xA0 SHL SUB DUP4 AND PUSH1 0x4 DUP3 ADD MSTORE PUSH1 0x24 DUP2 ADD DUP3 SWAP1 MSTORE PUSH1 0x44 ADD PUSH2 0x772 JUMP JUMPDEST PUSH1 0x1 PUSH1 0x1 PUSH1 0xA0 SHL SUB DUP3 AND PUSH2 0x1CFA JUMPI PUSH1 0x40 MLOAD PUSH32 0x64A0AE9200000000000000000000000000000000000000000000000000000000 DUP2 MSTORE PUSH1 0x0 PUSH1 0x4 DUP3 ADD MSTORE PUSH1 0x24 ADD PUSH2 0x772 JUMP JUMPDEST PUSH1 0x0 PUSH2 0x1D08 DUP4 DUP4 PUSH1 0x0 PUSH2 0x1295 JUMP JUMPDEST SWAP1 POP PUSH1 0x1 PUSH1 0x1 PUSH1 0xA0 SHL SUB DUP2 AND ISZERO PUSH2 0x810 JUMPI PUSH1 0x40 MLOAD PUSH32 0x73C6AC6E00000000000000000000000000000000000000000000000000000000 DUP2 MSTORE PUSH1 0x0 PUSH1 0x4 DUP3 ADD MSTORE PUSH1 0x24 ADD PUSH2 0x772 JUMP JUMPDEST PUSH1 0x0 DUP3 DUP2 MSTORE PUSH1 0x7 PUSH1 0x20 MSTORE PUSH1 0x40 SWAP1 KECCAK256 PUSH2 0x1D66 DUP3 DUP3 PUSH2 0x255F JUMP JUMPDEST POP PUSH1 0x40 MLOAD DUP3 DUP2 MSTORE PUSH32 0xF8E1A15ABA9398E019F0B49DF1A4FDE98EE17AE345CB5F6B5E2C27F5033E8CE7 SWAP1 PUSH1 0x20 ADD PUSH1 0x40 MLOAD DUP1 SWAP2 SUB SWAP1 LOG1 POP POP JUMP JUMPDEST PUSH1 0x60 PUSH1 0x0 PUSH2 0x1DAB DUP4 PUSH2 0x1EDF JUMP JUMPDEST PUSH1 0x1 ADD SWAP1 POP PUSH1 0x0 DUP2 PUSH8 0xFFFFFFFFFFFFFFFF DUP2 GT ISZERO PUSH2 0x1DCB JUMPI PUSH2 0x1DCB PUSH2 0x21AF JUMP JUMPDEST PUSH1 0x40 MLOAD SWAP1 DUP1 DUP3 MSTORE DUP1 PUSH1 0x1F ADD PUSH1 0x1F NOT AND PUSH1 0x20 ADD DUP3 ADD PUSH1 0x40 MSTORE DUP1 ISZERO PUSH2 0x1DF5 JUMPI PUSH1 0x20 DUP3 ADD DUP2 DUP1 CALLDATASIZE DUP4 CALLDATACOPY ADD SWAP1 POP JUMPDEST POP SWAP1 POP DUP2 DUP2 ADD PUSH1 0x20 ADD JUMPDEST PUSH32 0xFFFFFFFFFFFFFFFFFFFFFFFFFFFFFFFFFFFFFFFFFFFFFFFFFFFFFFFFFFFFFFFF ADD PUSH32 0x3031323334353637383961626364656600000000000000000000000000000000 PUSH1 0xA DUP7 MOD BYTE DUP2 MSTORE8 PUSH1 0xA DUP6 DIV SWAP5 POP DUP5 PUSH2 0x1DFF JUMPI POP SWAP4 SWAP3 POP POP POP JUMP JUMPDEST PUSH1 0x0 PUSH1 0x1 PUSH1 0x1 PUSH1 0xA0 SHL SUB DUP4 AND ISZERO DUP1 ISZERO SWAP1 PUSH2 0x10F4 JUMPI POP DUP3 PUSH1 0x1 PUSH1 0x1 PUSH1 0xA0 SHL SUB AND DUP5 PUSH1 0x1 PUSH1 0x1 PUSH1 0xA0 SHL SUB AND EQ DUP1 PUSH2 0x1EB6 JUMPI POP PUSH1 0x1 PUSH1 0x1 PUSH1 0xA0 SHL SUB DUP1 DUP6 AND PUSH1 0x0 SWAP1 DUP2 MSTORE PUSH1 0x6 PUSH1 0x20 SWAP1 DUP2 MSTORE PUSH1 0x40 DUP1 DUP4 KECCAK256 SWAP4 DUP8 AND DUP4 MSTORE SWAP3 SWAP1 MSTORE KECCAK256 SLOAD PUSH1 0xFF AND JUMPDEST DUP1 PUSH2 0x10F4 JUMPI POP POP PUSH1 0x0 SWAP1 DUP2 MSTORE PUSH1 0x5 PUSH1 0x20 MSTORE PUSH1 0x40 SWAP1 KECCAK256 SLOAD PUSH1 0x1 PUSH1 0x1 PUSH1 0xA0 SHL SUB SWAP1 DUP2 AND SWAP2 AND EQ SWAP2 SWAP1 POP JUMP JUMPDEST PUSH1 0x0 DUP1 PUSH27 0x184F03E93FF9F4DAA797ED6E38ED64BF6A1F010000000000000000 DUP4 LT PUSH2 0x1F28 JUMPI PUSH27 0x184F03E93FF9F4DAA797ED6E38ED64BF6A1F010000000000000000 DUP4 DIV SWAP3 POP PUSH1 0x40 ADD JUMPDEST PUSH14 0x4EE2D6D415B85ACEF8100000000 DUP4 LT PUSH2 0x1F54 JUMPI PUSH14 0x4EE2D6D415B85ACEF8100000000 DUP4 DIV SWAP3 POP PUSH1 0x20 ADD JUMPDEST PUSH7 0x2386F26FC10000 DUP4 LT PUSH2 0x1F72 JUMPI PUSH7 0x2386F26FC10000 DUP4 DIV SWAP3 POP PUSH1 0x10 ADD JUMPDEST PUSH4 0x5F5E100 DUP4 LT PUSH2 0x1F8A JUMPI PUSH4 0x5F5E100 DUP4 DIV SWAP3 POP PUSH1 0x8 ADD JUMPDEST PUSH2 0x2710 DUP4 LT PUSH2 0x1F9E JUMPI PUSH2 0x2710 DUP4 DIV SWAP3 POP PUSH1 0x4 ADD JUMPDEST PUSH1 0x64 DUP4 LT PUSH2 0x1FB0 JUMPI PUSH1 0x64 DUP4 DIV SWAP3 POP PUSH1 0x2 ADD JUMPDEST PUSH1 0xA DUP4 LT PUSH2 0x663 JUMPI PUSH1 0x1 ADD SWAP3 SWAP2 POP POP JUMP JUMPDEST PUSH32 0xFFFFFFFF00000000000000000000000000000000000000000000000000000000 DUP2 AND DUP2 EQ PUSH2 0x1150 JUMPI PUSH1 0x0 DUP1 REVERT JUMPDEST PUSH1 0x0 PUSH1 0x20 DUP3 DUP5 SUB SLT ISZERO PUSH2 0x2001 JUMPI PUSH1 0x0 DUP1 REVERT JUMPDEST DUP2 CALLDATALOAD PUSH2 0x174F DUP2 PUSH2 0x1FC1 JUMP JUMPDEST PUSH1 0x0 JUMPDEST DUP4 DUP2 LT ISZERO PUSH2 0x2027 JUMPI DUP2 DUP2 ADD MLOAD DUP4 DUP3 ADD MSTORE PUSH1 0x20 ADD PUSH2 0x200F JUMP JUMPDEST POP POP PUSH1 0x0 SWAP2 ADD MSTORE JUMP JUMPDEST PUSH1 0x0 DUP2 MLOAD DUP1 DUP5 MSTORE PUSH2 0x2048 DUP2 PUSH1 0x20 DUP7 ADD PUSH1 0x20 DUP7 ADD PUSH2 0x200C JUMP JUMPDEST PUSH1 0x1F ADD PUSH32 0xFFFFFFFFFFFFFFFFFFFFFFFFFFFFFFFFFFFFFFFFFFFFFFFFFFFFFFFFFFFFFFE0 AND SWAP3 SWAP1 SWAP3 ADD PUSH1 0x20 ADD SWAP3 SWAP2 POP POP JUMP JUMPDEST PUSH1 0x20 DUP2 MSTORE PUSH1 0x0 PUSH2 0x174F PUSH1 0x20 DUP4 ADD DUP5 PUSH2 0x2030 JUMP JUMPDEST PUSH1 0x0 PUSH1 0x20 DUP3 DUP5 SUB SLT ISZERO PUSH2 0x209F JUMPI PUSH1 0x0 DUP1 REVERT JUMPDEST POP CALLDATALOAD SWAP2 SWAP1 POP JUMP JUMPDEST DUP1 CALLDATALOAD PUSH1 0x1 PUSH1 0x1 PUSH1 0xA0 SHL SUB DUP2 AND DUP2 EQ PUSH2 0xA90 JUMPI PUSH1 0x0 DUP1 REVERT JUMPDEST PUSH1 0x0 DUP1 PUSH1 0x40 DUP4 DUP6 SUB SLT ISZERO PUSH2 0x20D0 JUMPI PUSH1 0x0 DUP1 REVERT JUMPDEST PUSH2 0x20D9 DUP4 PUSH2 0x20A6 JUMP JUMPDEST SWAP5 PUSH1 0x20 SWAP4 SWAP1 SWAP4 ADD CALLDATALOAD SWAP4 POP POP POP JUMP JUMPDEST PUSH1 0x0 DUP1 PUSH1 0x0 PUSH1 0x60 DUP5 DUP7 SUB SLT ISZERO PUSH2 0x20FC JUMPI PUSH1 0x0 DUP1 REVERT JUMPDEST PUSH2 0x2105 DUP5 PUSH2 0x20A6 JUMP JUMPDEST SWAP3 POP PUSH2 0x2113 PUSH1 0x20 DUP6 ADD PUSH2 0x20A6 JUMP JUMPDEST SWAP2 POP PUSH1 0x40 DUP5 ADD CALLDATALOAD SWAP1 POP SWAP3 POP SWAP3 POP SWAP3 JUMP JUMPDEST PUSH1 0x0 PUSH1 0x20 DUP3 DUP5 SUB SLT ISZERO PUSH2 0x2135 JUMPI PUSH1 0x0 DUP1 REVERT JUMPDEST PUSH2 0x174F DUP3 PUSH2 0x20A6 JUMP JUMPDEST PUSH1 0x0 DUP1 PUSH1 0x40 DUP4 DUP6 SUB SLT ISZERO PUSH2 0x2151 JUMPI PUSH1 0x0 DUP1 REVERT JUMPDEST DUP3 CALLDATALOAD SWAP2 POP PUSH2 0x2161 PUSH1 0x20 DUP5 ADD PUSH2 0x20A6 JUMP JUMPDEST SWAP1 POP SWAP3 POP SWAP3 SWAP1 POP JUMP JUMPDEST DUP1 ISZERO ISZERO DUP2 EQ PUSH2 0x1150 JUMPI PUSH1 0x0 DUP1 REVERT JUMPDEST PUSH1 0x0 DUP1 PUSH1 0x40 DUP4 DUP6 SUB SLT ISZERO PUSH2 0x218B JUMPI PUSH1 0x0 DUP1 REVERT JUMPDEST PUSH2 0x2194 DUP4 PUSH2 0x20A6 JUMP JUMPDEST SWAP2 POP PUSH1 0x20 DUP4 ADD CALLDATALOAD PUSH2 0x21A4 DUP2 PUSH2 0x216A JUMP JUMPDEST DUP1 SWAP2 POP POP SWAP3 POP SWAP3 SWAP1 POP JUMP JUMPDEST PUSH32 0x4E487B7100000000000000000000000000000000000000000000000000000000 PUSH1 0x0 MSTORE PUSH1 0x41 PUSH1 0x4 MSTORE PUSH1 0x24 PUSH1 0x0 REVERT JUMPDEST PUSH1 0x0 DUP1 PUSH1 0x0 DUP1 PUSH1 0x80 DUP6 DUP8 SUB SLT ISZERO PUSH2 0x21F4 JUMPI PUSH1 0x0 DUP1 REVERT JUMPDEST PUSH2 0x21FD DUP6 PUSH2 0x20A6 JUMP JUMPDEST SWAP4 POP PUSH2 0x220B PUSH1 0x20 DUP7 ADD PUSH2 0x20A6 JUMP JUMPDEST SWAP3 POP PUSH1 0x40 DUP6 ADD CALLDATALOAD SWAP2 POP PUSH1 0x60 DUP6 ADD CALLDATALOAD PUSH8 0xFFFFFFFFFFFFFFFF DUP1 DUP3 GT ISZERO PUSH2 0x222F JUMPI PUSH1 0x0 DUP1 REVERT JUMPDEST DUP2 DUP8 ADD SWAP2 POP DUP8 PUSH1 0x1F DUP4 ADD SLT PUSH2 0x2243 JUMPI PUSH1 0x0 DUP1 REVERT JUMPDEST DUP2 CALLDATALOAD DUP2 DUP2 GT ISZERO PUSH2 0x2255 JUMPI PUSH2 0x2255 PUSH2 0x21AF JUMP JUMPDEST PUSH1 0x40 MLOAD PUSH1 0x1F DUP3 ADD PUSH32 0xFFFFFFFFFFFFFFFFFFFFFFFFFFFFFFFFFFFFFFFFFFFFFFFFFFFFFFFFFFFFFFE0 SWAP1 DUP2 AND PUSH1 0x3F ADD AND DUP2 ADD SWAP1 DUP4 DUP3 GT DUP2 DUP4 LT OR ISZERO PUSH2 0x229B JUMPI PUSH2 0x229B PUSH2 0x21AF JUMP JUMPDEST DUP2 PUSH1 0x40 MSTORE DUP3 DUP2 MSTORE DUP11 PUSH1 0x20 DUP5 DUP8 ADD ADD GT ISZERO PUSH2 0x22B4 JUMPI PUSH1 0x0 DUP1 REVERT JUMPDEST DUP3 PUSH1 0x20 DUP7 ADD PUSH1 0x20 DUP4 ADD CALLDATACOPY PUSH1 0x0 PUSH1 0x20 DUP5 DUP4 ADD ADD MSTORE DUP1 SWAP6 POP POP POP POP POP POP SWAP3 SWAP6 SWAP2 SWAP5 POP SWAP3 POP JUMP JUMPDEST PUSH1 0x0 DUP1 PUSH1 0x40 DUP4 DUP6 SUB SLT ISZERO PUSH2 0x22EB JUMPI PUSH1 0x0 DUP1 REVERT JUMPDEST PUSH2 0x22F4 DUP4 PUSH2 0x20A6 JUMP JUMPDEST SWAP2 POP PUSH2 0x2161 PUSH1 0x20 DUP5 ADD PUSH2 0x20A6 JUMP JUMPDEST PUSH1 0x1 DUP2 DUP2 SHR SWAP1 DUP3 AND DUP1 PUSH2 0x2316 JUMPI PUSH1 0x7F DUP3 AND SWAP2 POP JUMPDEST PUSH1 0x20 DUP3 LT DUP2 SUB PUSH2 0x234F JUMPI PUSH32 0x4E487B7100000000000000000000000000000000000000000000000000000000 PUSH1 0x0 MSTORE PUSH1 0x22 PUSH1 0x4 MSTORE PUSH1 0x24 PUSH1 0x0 REVERT JUMPDEST POP SWAP2 SWAP1 POP JUMP JUMPDEST PUSH32 0x4E487B7100000000000000000000000000000000000000000000000000000000 PUSH1 0x0 MSTORE PUSH1 0x11 PUSH1 0x4 MSTORE PUSH1 0x24 PUSH1 0x0 REVERT JUMPDEST DUP2 DUP2 SUB DUP2 DUP2 GT ISZERO PUSH2 0x663 JUMPI PUSH2 0x663 PUSH2 0x2355 JUMP JUMPDEST PUSH1 0x0 PUSH1 0x20 DUP1 DUP4 MSTORE PUSH1 0x0 DUP5 SLOAD PUSH2 0x23AB DUP2 PUSH2 0x2302 JUMP JUMPDEST DUP1 DUP5 DUP8 ADD MSTORE PUSH1 0x40 PUSH1 0x1 DUP1 DUP5 AND PUSH1 0x0 DUP2 EQ PUSH2 0x23CC JUMPI PUSH1 0x1 DUP2 EQ PUSH2 0x2404 JUMPI PUSH2 0x2432 JUMP JUMPDEST PUSH32 0xFFFFFFFFFFFFFFFFFFFFFFFFFFFFFFFFFFFFFFFFFFFFFFFFFFFFFFFFFFFFFF00 DUP6 AND DUP4 DUP11 ADD MSTORE DUP3 DUP5 ISZERO ISZERO PUSH1 0x5 SHL DUP11 ADD ADD SWAP6 POP PUSH2 0x2432 JUMP JUMPDEST DUP10 PUSH1 0x0 MSTORE DUP7 PUSH1 0x0 KECCAK256 PUSH1 0x0 JUMPDEST DUP6 DUP2 LT ISZERO PUSH2 0x242A JUMPI DUP2 SLOAD DUP12 DUP3 ADD DUP7 ADD MSTORE SWAP1 DUP4 ADD SWAP1 DUP9 ADD PUSH2 0x240F JUMP JUMPDEST DUP11 ADD DUP5 ADD SWAP7 POP POP JUMPDEST POP SWAP4 SWAP9 SWAP8 POP POP POP POP POP POP POP POP JUMP JUMPDEST PUSH1 0x0 PUSH1 0x20 DUP3 DUP5 SUB SLT ISZERO PUSH2 0x2452 JUMPI PUSH1 0x0 DUP1 REVERT JUMPDEST POP MLOAD SWAP2 SWAP1 POP JUMP JUMPDEST PUSH1 0x0 PUSH1 0x20 DUP3 DUP5 SUB SLT ISZERO PUSH2 0x246B JUMPI PUSH1 0x0 DUP1 REVERT JUMPDEST DUP2 MLOAD PUSH2 0x174F DUP2 PUSH2 0x216A JUMP JUMPDEST PUSH1 0x0 DUP4 MLOAD PUSH2 0x2488 DUP2 DUP5 PUSH1 0x20 DUP9 ADD PUSH2 0x200C JUMP JUMPDEST DUP4 MLOAD SWAP1 DUP4 ADD SWAP1 PUSH2 0x249C DUP2 DUP4 PUSH1 0x20 DUP9 ADD PUSH2 0x200C JUMP JUMPDEST ADD SWAP5 SWAP4 POP POP POP POP JUMP JUMPDEST DUP1 DUP3 ADD DUP1 DUP3 GT ISZERO PUSH2 0x663 JUMPI PUSH2 0x663 PUSH2 0x2355 JUMP JUMPDEST PUSH1 0x0 PUSH1 0x1 PUSH1 0x1 PUSH1 0xA0 SHL SUB DUP1 DUP8 AND DUP4 MSTORE DUP1 DUP7 AND PUSH1 0x20 DUP5 ADD MSTORE POP DUP4 PUSH1 0x40 DUP4 ADD MSTORE PUSH1 0x80 PUSH1 0x60 DUP4 ADD MSTORE PUSH2 0x24EA PUSH1 0x80 DUP4 ADD DUP5 PUSH2 0x2030 JUMP JUMPDEST SWAP7 SWAP6 POP POP POP POP POP POP JUMP JUMPDEST PUSH1 0x0 PUSH1 0x20 DUP3 DUP5 SUB SLT ISZERO PUSH2 0x2506 JUMPI PUSH1 0x0 DUP1 REVERT JUMPDEST DUP2 MLOAD PUSH2 0x174F DUP2 PUSH2 0x1FC1 JUMP JUMPDEST PUSH1 0x1F DUP3 GT ISZERO PUSH2 0x810 JUMPI PUSH1 0x0 DUP2 DUP2 MSTORE PUSH1 0x20 DUP2 KECCAK256 PUSH1 0x1F DUP6 ADD PUSH1 0x5 SHR DUP2 ADD PUSH1 0x20 DUP7 LT ISZERO PUSH2 0x2538 JUMPI POP DUP1 JUMPDEST PUSH1 0x1F DUP6 ADD PUSH1 0x5 SHR DUP3 ADD SWAP2 POP JUMPDEST DUP2 DUP2 LT ISZERO PUSH2 0x2557 JUMPI DUP3 DUP2 SSTORE PUSH1 0x1 ADD PUSH2 0x2544 JUMP JUMPDEST POP POP POP POP POP POP JUMP JUMPDEST DUP2 MLOAD PUSH8 0xFFFFFFFFFFFFFFFF DUP2 GT ISZERO PUSH2 0x2579 JUMPI PUSH2 0x2579 PUSH2 0x21AF JUMP JUMPDEST PUSH2 0x258D DUP2 PUSH2 0x2587 DUP5 SLOAD PUSH2 0x2302 JUMP JUMPDEST DUP5 PUSH2 0x2511 JUMP JUMPDEST PUSH1 0x20 DUP1 PUSH1 0x1F DUP4 GT PUSH1 0x1 DUP2 EQ PUSH2 0x25E0 JUMPI PUSH1 0x0 DUP5 ISZERO PUSH2 0x25AA JUMPI POP DUP6 DUP4 ADD MLOAD JUMPDEST PUSH32 0xFFFFFFFFFFFFFFFFFFFFFFFFFFFFFFFFFFFFFFFFFFFFFFFFFFFFFFFFFFFFFFFF PUSH1 0x3 DUP7 SWAP1 SHL SHR NOT AND PUSH1 0x1 DUP6 SWAP1 SHL OR DUP6 SSTORE PUSH2 0x2557 JUMP JUMPDEST PUSH1 0x0 DUP6 DUP2 MSTORE PUSH1 0x20 DUP2 KECCAK256 PUSH32 0xFFFFFFFFFFFFFFFFFFFFFFFFFFFFFFFFFFFFFFFFFFFFFFFFFFFFFFFFFFFFFFE0 DUP7 AND SWAP2 JUMPDEST DUP3 DUP2 LT ISZERO PUSH2 0x262D JUMPI DUP9 DUP7 ADD MLOAD DUP3 SSTORE SWAP5 DUP5 ADD SWAP5 PUSH1 0x1 SWAP1 SWAP2 ADD SWAP1 DUP5 ADD PUSH2 0x260E JUMP JUMPDEST POP DUP6 DUP3 LT ISZERO PUSH2 0x2669 JUMPI DUP8 DUP6 ADD MLOAD PUSH32 0xFFFFFFFFFFFFFFFFFFFFFFFFFFFFFFFFFFFFFFFFFFFFFFFFFFFFFFFFFFFFFFFF PUSH1 0x3 DUP9 SWAP1 SHL PUSH1 0xF8 AND SHR NOT AND DUP2 SSTORE JUMPDEST POP POP POP POP POP PUSH1 0x1 SWAP1 DUP2 SHL ADD SWAP1 SSTORE POP JUMP INVALID LOG2 PUSH5 0x6970667358 0x22 SLT KECCAK256 JUMPI 0xF7 0xE8 MULMOD 0x27 SWAP4 PUSH25 0x9C8807CC05582317AEE13043B82961B60ABB4CB7639FAC3DF1 PUSH5 0x736F6C6343 STOP ADDMOD EQ STOP CALLER LOG2 PUSH5 0x6970667358 0x22 SLT KECCAK256 DUP5 0xA9 0xD9 BLOCKHASH 0x2B 0xC9 PUSH0 SWAP10 DIV 0xE4 0xAF 0xF 0xBA 0xC7 PUSH26 0x7266D5DD7CCC395569C846D37E82A4E1E064736F6C6343000814 STOP CALLER PUSH1 0x80 PUSH1 0x40 MSTORE CALLVALUE DUP1 ISZERO PUSH3 0x11 JUMPI PUSH1 0x0 DUP1 REVERT JUMPDEST POP CALLER PUSH1 0x40 MLOAD DUP1 PUSH1 0x40 ADD PUSH1 0x40 MSTORE DUP1 PUSH1 0xF DUP2 MSTORE PUSH1 0x20 ADD PUSH15 0x12195C9BC8151A58DAD95D08139195 PUSH1 0x8A SHL DUP2 MSTORE POP PUSH1 0x40 MLOAD DUP1 PUSH1 0x40 ADD PUSH1 0x40 MSTORE DUP1 PUSH1 0x3 DUP2 MSTORE PUSH1 0x20 ADD PUSH3 0x242A27 PUSH1 0xE9 SHL DUP2 MSTORE POP DUP2 PUSH1 0x0 SWAP1 DUP2 PUSH3 0x68 SWAP2 SWAP1 PUSH3 0x1B2 JUMP JUMPDEST POP PUSH1 0x1 PUSH3 0x77 DUP3 DUP3 PUSH3 0x1B2 JUMP JUMPDEST POP POP POP PUSH1 0x1 PUSH1 0x1 PUSH1 0xA0 SHL SUB DUP2 AND PUSH3 0xA9 JUMPI PUSH1 0x40 MLOAD PUSH4 0x1E4FBDF7 PUSH1 0xE0 SHL DUP2 MSTORE PUSH1 0x0 PUSH1 0x4 DUP3 ADD MSTORE PUSH1 0x24 ADD PUSH1 0x40 MLOAD DUP1 SWAP2 SUB SWAP1 REVERT JUMPDEST PUSH3 0xB4 DUP2 PUSH3 0xBB JUMP JUMPDEST POP PUSH3 0x27E JUMP JUMPDEST PUSH1 0x7 DUP1 SLOAD PUSH1 0x1 PUSH1 0x1 PUSH1 0xA0 SHL SUB DUP4 DUP2 AND PUSH1 0x1 PUSH1 0x1 PUSH1 0xA0 SHL SUB NOT DUP4 AND DUP2 OR SWAP1 SWAP4 SSTORE PUSH1 0x40 MLOAD SWAP2 AND SWAP2 SWAP1 DUP3 SWAP1 PUSH32 0x8BE0079C531659141344CD1FD0A4F28419497F9722A3DAAFE3B4186F6B6457E0 SWAP1 PUSH1 0x0 SWAP1 LOG3 POP POP JUMP JUMPDEST PUSH4 0x4E487B71 PUSH1 0xE0 SHL PUSH1 0x0 MSTORE PUSH1 0x41 PUSH1 0x4 MSTORE PUSH1 0x24 PUSH1 0x0 REVERT JUMPDEST PUSH1 0x1 DUP2 DUP2 SHR SWAP1 DUP3 AND DUP1 PUSH3 0x138 JUMPI PUSH1 0x7F DUP3 AND SWAP2 POP JUMPDEST PUSH1 0x20 DUP3 LT DUP2 SUB PUSH3 0x159 JUMPI PUSH4 0x4E487B71 PUSH1 0xE0 SHL PUSH1 0x0 MSTORE PUSH1 0x22 PUSH1 0x4 MSTORE PUSH1 0x24 PUSH1 0x0 REVERT JUMPDEST POP SWAP2 SWAP1 POP JUMP JUMPDEST PUSH1 0x1F DUP3 GT ISZERO PUSH3 0x1AD JUMPI PUSH1 0x0 DUP2 DUP2 MSTORE PUSH1 0x20 DUP2 KECCAK256 PUSH1 0x1F DUP6 ADD PUSH1 0x5 SHR DUP2 ADD PUSH1 0x20 DUP7 LT ISZERO PUSH3 0x188 JUMPI POP DUP1 JUMPDEST PUSH1 0x1F DUP6 ADD PUSH1 0x5 SHR DUP3 ADD SWAP2 POP JUMPDEST DUP2 DUP2 LT ISZERO PUSH3 0x1A9 JUMPI DUP3 DUP2 SSTORE PUSH1 0x1 ADD PUSH3 0x194 JUMP JUMPDEST POP POP POP JUMPDEST POP POP POP JUMP JUMPDEST DUP2 MLOAD PUSH1 0x1 PUSH1 0x1 PUSH1 0x40 SHL SUB DUP2 GT ISZERO PUSH3 0x1CE JUMPI PUSH3 0x1CE PUSH3 0x10D JUMP JUMPDEST PUSH3 0x1E6 DUP2 PUSH3 0x1DF DUP5 SLOAD PUSH3 0x123 JUMP JUMPDEST DUP5 PUSH3 0x15F JUMP JUMPDEST PUSH1 0x20 DUP1 PUSH1 0x1F DUP4 GT PUSH1 0x1 DUP2 EQ PUSH3 0x21E JUMPI PUSH1 0x0 DUP5 ISZERO PUSH3 0x205 JUMPI POP DUP6 DUP4 ADD MLOAD JUMPDEST PUSH1 0x0 NOT PUSH1 0x3 DUP7 SWAP1 SHL SHR NOT AND PUSH1 0x1 DUP6 SWAP1 SHL OR DUP6 SSTORE PUSH3 0x1A9 JUMP JUMPDEST PUSH1 0x0 DUP6 DUP2 MSTORE PUSH1 0x20 DUP2 KECCAK256 PUSH1 0x1F NOT DUP7 AND SWAP2 JUMPDEST DUP3 DUP2 LT ISZERO PUSH3 0x24F JUMPI DUP9 DUP7 ADD MLOAD DUP3 SSTORE SWAP5 DUP5 ADD SWAP5 PUSH1 0x1 SWAP1 SWAP2 ADD SWAP1 DUP5 ADD PUSH3 0x22E JUMP JUMPDEST POP DUP6 DUP3 LT ISZERO PUSH3 0x26E JUMPI DUP8 DUP6 ADD MLOAD PUSH1 0x0 NOT PUSH1 0x3 DUP9 SWAP1 SHL PUSH1 0xF8 AND SHR NOT AND DUP2 SSTORE JUMPDEST POP POP POP POP POP PUSH1 0x1 SWAP1 DUP2 SHL ADD SWAP1 SSTORE POP JUMP JUMPDEST PUSH2 0x1924 DUP1 PUSH3 0x28E PUSH1 0x0 CODECOPY PUSH1 0x0 RETURN INVALID PUSH1 0x80 PUSH1 0x40 MSTORE CALLVALUE DUP1 ISZERO PUSH2 0x10 JUMPI PUSH1 0x0 DUP1 REVERT JUMPDEST POP PUSH1 0x4 CALLDATASIZE LT PUSH2 0x136 JUMPI PUSH1 0x0 CALLDATALOAD PUSH1 0xE0 SHR DUP1 PUSH4 0x715018A6 GT PUSH2 0xB2 JUMPI DUP1 PUSH4 0xB88D4FDE GT PUSH2 0x81 JUMPI DUP1 PUSH4 0xE985E9C5 GT PUSH2 0x66 JUMPI DUP1 PUSH4 0xE985E9C5 EQ PUSH2 0x295 JUMPI DUP1 PUSH4 0xEACABE14 EQ PUSH2 0x2D1 JUMPI DUP1 PUSH4 0xF2FDE38B EQ PUSH2 0x2E4 JUMPI PUSH1 0x0 DUP1 REVERT JUMPDEST DUP1 PUSH4 0xB88D4FDE EQ PUSH2 0x26F JUMPI DUP1 PUSH4 0xC87B56DD EQ PUSH2 0x282 JUMPI PUSH1 0x0 DUP1 REVERT JUMPDEST DUP1 PUSH4 0x715018A6 EQ PUSH2 0x23B JUMPI DUP1 PUSH4 0x8DA5CB5B EQ PUSH2 0x243 JUMPI DUP1 PUSH4 0x95D89B41 EQ PUSH2 0x254 JUMPI DUP1 PUSH4 0xA22CB465 EQ PUSH2 0x25C JUMPI PUSH1 0x0 DUP1 REVERT JUMPDEST DUP1 PUSH4 0x23B872DD GT PUSH2 0x109 JUMPI DUP1 PUSH4 0x42842E0E GT PUSH2 0xEE JUMPI DUP1 PUSH4 0x42842E0E EQ PUSH2 0x202 JUMPI DUP1 PUSH4 0x6352211E EQ PUSH2 0x215 JUMPI DUP1 PUSH4 0x70A08231 EQ PUSH2 0x228 JUMPI PUSH1 0x0 DUP1 REVERT JUMPDEST DUP1 PUSH4 0x23B872DD EQ PUSH2 0x1B8 JUMPI DUP1 PUSH4 0x23CA0CD2 EQ PUSH2 0x1CB JUMPI PUSH1 0x0 DUP1 REVERT JUMPDEST DUP1 PUSH4 0x1FFC9A7 EQ PUSH2 0x13B JUMPI DUP1 PUSH4 0x6FDDE03 EQ PUSH2 0x163 JUMPI DUP1 PUSH4 0x81812FC EQ PUSH2 0x178 JUMPI DUP1 PUSH4 0x95EA7B3 EQ PUSH2 0x1A3 JUMPI JUMPDEST PUSH1 0x0 DUP1 REVERT JUMPDEST PUSH2 0x14E PUSH2 0x149 CALLDATASIZE PUSH1 0x4 PUSH2 0x12CD JUMP JUMPDEST PUSH2 0x2F7 JUMP JUMPDEST PUSH1 0x40 MLOAD SWAP1 ISZERO ISZERO DUP2 MSTORE PUSH1 0x20 ADD JUMPDEST PUSH1 0x40 MLOAD DUP1 SWAP2 SUB SWAP1 RETURN JUMPDEST PUSH2 0x16B PUSH2 0x353 JUMP JUMPDEST PUSH1 0x40 MLOAD PUSH2 0x15A SWAP2 SWAP1 PUSH2 0x1358 JUMP JUMPDEST PUSH2 0x18B PUSH2 0x186 CALLDATASIZE PUSH1 0x4 PUSH2 0x136B JUMP JUMPDEST PUSH2 0x3E5 JUMP JUMPDEST PUSH1 0x40 MLOAD PUSH1 0x1 PUSH1 0x1 PUSH1 0xA0 SHL SUB SWAP1 SWAP2 AND DUP2 MSTORE PUSH1 0x20 ADD PUSH2 0x15A JUMP JUMPDEST PUSH2 0x1B6 PUSH2 0x1B1 CALLDATASIZE PUSH1 0x4 PUSH2 0x13A0 JUMP JUMPDEST PUSH2 0x40E JUMP JUMPDEST STOP JUMPDEST PUSH2 0x1B6 PUSH2 0x1C6 CALLDATASIZE PUSH1 0x4 PUSH2 0x13CA JUMP JUMPDEST PUSH2 0x41D JUMP JUMPDEST PUSH2 0x1F4 PUSH2 0x1D9 CALLDATASIZE PUSH1 0x4 PUSH2 0x1406 JUMP JUMPDEST PUSH1 0x1 PUSH1 0x1 PUSH1 0xA0 SHL SUB AND PUSH1 0x0 SWAP1 DUP2 MSTORE PUSH1 0x9 PUSH1 0x20 MSTORE PUSH1 0x40 SWAP1 KECCAK256 SLOAD SWAP1 JUMP JUMPDEST PUSH1 0x40 MLOAD SWAP1 DUP2 MSTORE PUSH1 0x20 ADD PUSH2 0x15A JUMP JUMPDEST PUSH2 0x1B6 PUSH2 0x210 CALLDATASIZE PUSH1 0x4 PUSH2 0x13CA JUMP JUMPDEST PUSH2 0x4DF JUMP JUMPDEST PUSH2 0x18B PUSH2 0x223 CALLDATASIZE PUSH1 0x4 PUSH2 0x136B JUMP JUMPDEST PUSH2 0x4FF JUMP JUMPDEST PUSH2 0x1F4 PUSH2 0x236 CALLDATASIZE PUSH1 0x4 PUSH2 0x1406 JUMP JUMPDEST PUSH2 0x50A JUMP JUMPDEST PUSH2 0x1B6 PUSH2 0x56B JUMP JUMPDEST PUSH1 0x7 SLOAD PUSH1 0x1 PUSH1 0x1 PUSH1 0xA0 SHL SUB AND PUSH2 0x18B JUMP JUMPDEST PUSH2 0x16B PUSH2 0x57F JUMP JUMPDEST PUSH2 0x1B6 PUSH2 0x26A CALLDATASIZE PUSH1 0x4 PUSH2 0x1421 JUMP JUMPDEST PUSH2 0x58E JUMP JUMPDEST PUSH2 0x1B6 PUSH2 0x27D CALLDATASIZE PUSH1 0x4 PUSH2 0x1520 JUMP JUMPDEST PUSH2 0x599 JUMP JUMPDEST PUSH2 0x16B PUSH2 0x290 CALLDATASIZE PUSH1 0x4 PUSH2 0x136B JUMP JUMPDEST PUSH2 0x5B0 JUMP JUMPDEST PUSH2 0x14E PUSH2 0x2A3 CALLDATASIZE PUSH1 0x4 PUSH2 0x159C JUMP JUMPDEST PUSH1 0x1 PUSH1 0x1 PUSH1 0xA0 SHL SUB SWAP2 DUP3 AND PUSH1 0x0 SWAP1 DUP2 MSTORE PUSH1 0x5 PUSH1 0x20 SWAP1 DUP2 MSTORE PUSH1 0x40 DUP1 DUP4 KECCAK256 SWAP4 SWAP1 SWAP5 AND DUP3 MSTORE SWAP2 SWAP1 SWAP2 MSTORE KECCAK256 SLOAD PUSH1 0xFF AND SWAP1 JUMP JUMPDEST PUSH2 0x1F4 PUSH2 0x2DF CALLDATASIZE PUSH1 0x4 PUSH2 0x15CF JUMP JUMPDEST PUSH2 0x6C1 JUMP JUMPDEST PUSH2 0x1B6 PUSH2 0x2F2 CALLDATASIZE PUSH1 0x4 PUSH2 0x1406 JUMP JUMPDEST PUSH2 0x723 JUMP JUMPDEST PUSH1 0x0 PUSH32 0xFFFFFFFF00000000000000000000000000000000000000000000000000000000 DUP3 AND PUSH32 0x4906490600000000000000000000000000000000000000000000000000000000 EQ DUP1 PUSH2 0x34D JUMPI POP PUSH2 0x34D DUP3 PUSH2 0x77A JUMP JUMPDEST SWAP3 SWAP2 POP POP JUMP JUMPDEST PUSH1 0x60 PUSH1 0x0 DUP1 SLOAD PUSH2 0x362 SWAP1 PUSH2 0x1631 JUMP JUMPDEST DUP1 PUSH1 0x1F ADD PUSH1 0x20 DUP1 SWAP2 DIV MUL PUSH1 0x20 ADD PUSH1 0x40 MLOAD SWAP1 DUP2 ADD PUSH1 0x40 MSTORE DUP1 SWAP3 SWAP2 SWAP1 DUP2 DUP2 MSTORE PUSH1 0x20 ADD DUP3 DUP1 SLOAD PUSH2 0x38E SWAP1 PUSH2 0x1631 JUMP JUMPDEST DUP1 ISZERO PUSH2 0x3DB JUMPI DUP1 PUSH1 0x1F LT PUSH2 0x3B0 JUMPI PUSH2 0x100 DUP1 DUP4 SLOAD DIV MUL DUP4 MSTORE SWAP2 PUSH1 0x20 ADD SWAP2 PUSH2 0x3DB JUMP JUMPDEST DUP3 ADD SWAP2 SWAP1 PUSH1 0x0 MSTORE PUSH1 0x20 PUSH1 0x0 KECCAK256 SWAP1 JUMPDEST DUP2 SLOAD DUP2 MSTORE SWAP1 PUSH1 0x1 ADD SWAP1 PUSH1 0x20 ADD DUP1 DUP4 GT PUSH2 0x3BE JUMPI DUP3 SWAP1 SUB PUSH1 0x1F AND DUP3 ADD SWAP2 JUMPDEST POP POP POP POP POP SWAP1 POP SWAP1 JUMP JUMPDEST PUSH1 0x0 PUSH2 0x3F0 DUP3 PUSH2 0x85D JUMP JUMPDEST POP PUSH1 0x0 DUP3 DUP2 MSTORE PUSH1 0x4 PUSH1 0x20 MSTORE PUSH1 0x40 SWAP1 KECCAK256 SLOAD PUSH1 0x1 PUSH1 0x1 PUSH1 0xA0 SHL SUB AND PUSH2 0x34D JUMP JUMPDEST PUSH2 0x419 DUP3 DUP3 CALLER PUSH2 0x8AF JUMP JUMPDEST POP POP JUMP JUMPDEST PUSH1 0x1 PUSH1 0x1 PUSH1 0xA0 SHL SUB DUP3 AND PUSH2 0x465 JUMPI PUSH1 0x40 MLOAD PUSH32 0x64A0AE9200000000000000000000000000000000000000000000000000000000 DUP2 MSTORE PUSH1 0x0 PUSH1 0x4 DUP3 ADD MSTORE PUSH1 0x24 ADD JUMPDEST PUSH1 0x40 MLOAD DUP1 SWAP2 SUB SWAP1 REVERT JUMPDEST PUSH1 0x0 PUSH2 0x472 DUP4 DUP4 CALLER PUSH2 0x8BC JUMP JUMPDEST SWAP1 POP DUP4 PUSH1 0x1 PUSH1 0x1 PUSH1 0xA0 SHL SUB AND DUP2 PUSH1 0x1 PUSH1 0x1 PUSH1 0xA0 SHL SUB AND EQ PUSH2 0x4D9 JUMPI PUSH1 0x40 MLOAD PUSH32 0x64283D7B00000000000000000000000000000000000000000000000000000000 DUP2 MSTORE PUSH1 0x1 PUSH1 0x1 PUSH1 0xA0 SHL SUB DUP1 DUP7 AND PUSH1 0x4 DUP4 ADD MSTORE PUSH1 0x24 DUP3 ADD DUP5 SWAP1 MSTORE DUP3 AND PUSH1 0x44 DUP3 ADD MSTORE PUSH1 0x64 ADD PUSH2 0x45C JUMP JUMPDEST POP POP POP POP JUMP JUMPDEST PUSH2 0x4FA DUP4 DUP4 DUP4 PUSH1 0x40 MLOAD DUP1 PUSH1 0x20 ADD PUSH1 0x40 MSTORE DUP1 PUSH1 0x0 DUP2 MSTORE POP PUSH2 0x599 JUMP JUMPDEST POP POP POP JUMP JUMPDEST PUSH1 0x0 PUSH2 0x34D DUP3 PUSH2 0x85D JUMP JUMPDEST PUSH1 0x0 PUSH1 0x1 PUSH1 0x1 PUSH1 0xA0 SHL SUB DUP3 AND PUSH2 0x54F JUMPI PUSH1 0x40 MLOAD PUSH32 0x89C62B6400000000000000000000000000000000000000000000000000000000 DUP2 MSTORE PUSH1 0x0 PUSH1 0x4 DUP3 ADD MSTORE PUSH1 0x24 ADD PUSH2 0x45C JUMP JUMPDEST POP PUSH1 0x1 PUSH1 0x1 PUSH1 0xA0 SHL SUB AND PUSH1 0x0 SWAP1 DUP2 MSTORE PUSH1 0x3 PUSH1 0x20 MSTORE PUSH1 0x40 SWAP1 KECCAK256 SLOAD SWAP1 JUMP JUMPDEST PUSH2 0x573 PUSH2 0x9EB JUMP JUMPDEST PUSH2 0x57D PUSH1 0x0 PUSH2 0xA31 JUMP JUMPDEST JUMP JUMPDEST PUSH1 0x60 PUSH1 0x1 DUP1 SLOAD PUSH2 0x362 SWAP1 PUSH2 0x1631 JUMP JUMPDEST PUSH2 0x419 CALLER DUP4 DUP4 PUSH2 0xA9B JUMP JUMPDEST PUSH2 0x5A4 DUP5 DUP5 DUP5 PUSH2 0x41D JUMP JUMPDEST PUSH2 0x4D9 DUP5 DUP5 DUP5 DUP5 PUSH2 0xB71 JUMP JUMPDEST PUSH1 0x60 PUSH2 0x5BB DUP3 PUSH2 0x85D JUMP JUMPDEST POP PUSH1 0x0 DUP3 DUP2 MSTORE PUSH1 0x6 PUSH1 0x20 MSTORE PUSH1 0x40 DUP2 KECCAK256 DUP1 SLOAD PUSH2 0x5D5 SWAP1 PUSH2 0x1631 JUMP JUMPDEST DUP1 PUSH1 0x1F ADD PUSH1 0x20 DUP1 SWAP2 DIV MUL PUSH1 0x20 ADD PUSH1 0x40 MLOAD SWAP1 DUP2 ADD PUSH1 0x40 MSTORE DUP1 SWAP3 SWAP2 SWAP1 DUP2 DUP2 MSTORE PUSH1 0x20 ADD DUP3 DUP1 SLOAD PUSH2 0x601 SWAP1 PUSH2 0x1631 JUMP JUMPDEST DUP1 ISZERO PUSH2 0x64E JUMPI DUP1 PUSH1 0x1F LT PUSH2 0x623 JUMPI PUSH2 0x100 DUP1 DUP4 SLOAD DIV MUL DUP4 MSTORE SWAP2 PUSH1 0x20 ADD SWAP2 PUSH2 0x64E JUMP JUMPDEST DUP3 ADD SWAP2 SWAP1 PUSH1 0x0 MSTORE PUSH1 0x20 PUSH1 0x0 KECCAK256 SWAP1 JUMPDEST DUP2 SLOAD DUP2 MSTORE SWAP1 PUSH1 0x1 ADD SWAP1 PUSH1 0x20 ADD DUP1 DUP4 GT PUSH2 0x631 JUMPI DUP3 SWAP1 SUB PUSH1 0x1F AND DUP3 ADD SWAP2 JUMPDEST POP POP POP POP POP SWAP1 POP PUSH1 0x0 PUSH2 0x66C PUSH1 0x40 DUP1 MLOAD PUSH1 0x20 DUP2 ADD SWAP1 SWAP2 MSTORE PUSH1 0x0 DUP2 MSTORE SWAP1 JUMP JUMPDEST SWAP1 POP DUP1 MLOAD PUSH1 0x0 SUB PUSH2 0x67E JUMPI POP SWAP3 SWAP2 POP POP JUMP JUMPDEST DUP2 MLOAD ISZERO PUSH2 0x6B0 JUMPI DUP1 DUP3 PUSH1 0x40 MLOAD PUSH1 0x20 ADD PUSH2 0x698 SWAP3 SWAP2 SWAP1 PUSH2 0x1684 JUMP JUMPDEST PUSH1 0x40 MLOAD PUSH1 0x20 DUP2 DUP4 SUB SUB DUP2 MSTORE SWAP1 PUSH1 0x40 MSTORE SWAP3 POP POP POP SWAP2 SWAP1 POP JUMP JUMPDEST PUSH2 0x6B9 DUP5 PUSH2 0xD34 JUMP JUMPDEST SWAP5 SWAP4 POP POP POP POP JUMP JUMPDEST PUSH1 0x0 PUSH2 0x6CB PUSH2 0x9EB JUMP JUMPDEST PUSH1 0x8 SLOAD PUSH2 0x6D9 SWAP1 PUSH1 0x1 PUSH2 0x16E2 JUMP JUMPDEST PUSH1 0x8 DUP2 SWAP1 SSTORE PUSH2 0x6E8 DUP5 DUP3 PUSH2 0xDA9 JUMP JUMPDEST PUSH2 0x6F2 DUP2 DUP5 PUSH2 0xE40 JUMP JUMPDEST PUSH1 0x1 PUSH1 0x1 PUSH1 0xA0 SHL SUB DUP5 AND PUSH1 0x0 SWAP1 DUP2 MSTORE PUSH1 0x9 PUSH1 0x20 MSTORE PUSH1 0x40 DUP2 KECCAK256 DUP1 SLOAD SWAP2 PUSH2 0x716 DUP4 PUSH2 0x16F5 JUMP JUMPDEST SWAP1 SWAP2 SSTORE POP SWAP1 SWAP5 SWAP4 POP POP POP POP JUMP JUMPDEST PUSH2 0x72B PUSH2 0x9EB JUMP JUMPDEST PUSH1 0x1 PUSH1 0x1 PUSH1 0xA0 SHL SUB DUP2 AND PUSH2 0x76E JUMPI PUSH1 0x40 MLOAD PUSH32 0x1E4FBDF700000000000000000000000000000000000000000000000000000000 DUP2 MSTORE PUSH1 0x0 PUSH1 0x4 DUP3 ADD MSTORE PUSH1 0x24 ADD PUSH2 0x45C JUMP JUMPDEST PUSH2 0x777 DUP2 PUSH2 0xA31 JUMP JUMPDEST POP JUMP JUMPDEST PUSH1 0x0 PUSH32 0xFFFFFFFF00000000000000000000000000000000000000000000000000000000 DUP3 AND PUSH32 0x80AC58CD00000000000000000000000000000000000000000000000000000000 EQ DUP1 PUSH2 0x80D JUMPI POP PUSH32 0xFFFFFFFF00000000000000000000000000000000000000000000000000000000 DUP3 AND PUSH32 0x5B5E139F00000000000000000000000000000000000000000000000000000000 EQ JUMPDEST DUP1 PUSH2 0x34D JUMPI POP PUSH32 0x1FFC9A700000000000000000000000000000000000000000000000000000000 PUSH32 0xFFFFFFFF00000000000000000000000000000000000000000000000000000000 DUP4 AND EQ PUSH2 0x34D JUMP JUMPDEST PUSH1 0x0 DUP2 DUP2 MSTORE PUSH1 0x2 PUSH1 0x20 MSTORE PUSH1 0x40 DUP2 KECCAK256 SLOAD PUSH1 0x1 PUSH1 0x1 PUSH1 0xA0 SHL SUB AND DUP1 PUSH2 0x34D JUMPI PUSH1 0x40 MLOAD PUSH32 0x7E27328900000000000000000000000000000000000000000000000000000000 DUP2 MSTORE PUSH1 0x4 DUP2 ADD DUP5 SWAP1 MSTORE PUSH1 0x24 ADD PUSH2 0x45C JUMP JUMPDEST PUSH2 0x4FA DUP4 DUP4 DUP4 PUSH1 0x1 PUSH2 0xE90 JUMP JUMPDEST PUSH1 0x0 DUP3 DUP2 MSTORE PUSH1 0x2 PUSH1 0x20 MSTORE PUSH1 0x40 DUP2 KECCAK256 SLOAD PUSH1 0x1 PUSH1 0x1 PUSH1 0xA0 SHL SUB SWAP1 DUP2 AND SWAP1 DUP4 AND ISZERO PUSH2 0x8E9 JUMPI PUSH2 0x8E9 DUP2 DUP5 DUP7 PUSH2 0xFE6 JUMP JUMPDEST PUSH1 0x1 PUSH1 0x1 PUSH1 0xA0 SHL SUB DUP2 AND ISZERO PUSH2 0x945 JUMPI PUSH2 0x906 PUSH1 0x0 DUP6 PUSH1 0x0 DUP1 PUSH2 0xE90 JUMP JUMPDEST PUSH1 0x1 PUSH1 0x1 PUSH1 0xA0 SHL SUB DUP2 AND PUSH1 0x0 SWAP1 DUP2 MSTORE PUSH1 0x3 PUSH1 0x20 MSTORE PUSH1 0x40 SWAP1 KECCAK256 DUP1 SLOAD PUSH32 0xFFFFFFFFFFFFFFFFFFFFFFFFFFFFFFFFFFFFFFFFFFFFFFFFFFFFFFFFFFFFFFFF ADD SWAP1 SSTORE JUMPDEST PUSH1 0x1 PUSH1 0x1 PUSH1 0xA0 SHL SUB DUP6 AND ISZERO PUSH2 0x974 JUMPI PUSH1 0x1 PUSH1 0x1 PUSH1 0xA0 SHL SUB DUP6 AND PUSH1 0x0 SWAP1 DUP2 MSTORE PUSH1 0x3 PUSH1 0x20 MSTORE PUSH1 0x40 SWAP1 KECCAK256 DUP1 SLOAD PUSH1 0x1 ADD SWAP1 SSTORE JUMPDEST PUSH1 0x0 DUP5 DUP2 MSTORE PUSH1 0x2 PUSH1 0x20 MSTORE PUSH1 0x40 DUP1 DUP3 KECCAK256 DUP1 SLOAD PUSH32 0xFFFFFFFFFFFFFFFFFFFFFFFF0000000000000000000000000000000000000000 AND PUSH1 0x1 PUSH1 0x1 PUSH1 0xA0 SHL SUB DUP10 DUP2 AND SWAP2 DUP3 OR SWAP1 SWAP3 SSTORE SWAP2 MLOAD DUP8 SWAP4 SWAP2 DUP6 AND SWAP2 PUSH32 0xDDF252AD1BE2C89B69C2B068FC378DAA952BA7F163C4A11628F55A4DF523B3EF SWAP2 LOG4 SWAP5 SWAP4 POP POP POP POP JUMP JUMPDEST PUSH1 0x7 SLOAD PUSH1 0x1 PUSH1 0x1 PUSH1 0xA0 SHL SUB AND CALLER EQ PUSH2 0x57D JUMPI PUSH1 0x40 MLOAD PUSH32 0x118CDAA700000000000000000000000000000000000000000000000000000000 DUP2 MSTORE CALLER PUSH1 0x4 DUP3 ADD MSTORE PUSH1 0x24 ADD PUSH2 0x45C JUMP JUMPDEST PUSH1 0x7 DUP1 SLOAD PUSH1 0x1 PUSH1 0x1 PUSH1 0xA0 SHL SUB DUP4 DUP2 AND PUSH32 0xFFFFFFFFFFFFFFFFFFFFFFFF0000000000000000000000000000000000000000 DUP4 AND DUP2 OR SWAP1 SWAP4 SSTORE PUSH1 0x40 MLOAD SWAP2 AND SWAP2 SWAP1 DUP3 SWAP1 PUSH32 0x8BE0079C531659141344CD1FD0A4F28419497F9722A3DAAFE3B4186F6B6457E0 SWAP1 PUSH1 0x0 SWAP1 LOG3 POP POP JUMP JUMPDEST PUSH1 0x1 PUSH1 0x1 PUSH1 0xA0 SHL SUB DUP3 AND PUSH2 0xAE6 JUMPI PUSH1 0x40 MLOAD PUSH32 0x5B08BA1800000000000000000000000000000000000000000000000000000000 DUP2 MSTORE PUSH1 0x1 PUSH1 0x1 PUSH1 0xA0 SHL SUB DUP4 AND PUSH1 0x4 DUP3 ADD MSTORE PUSH1 0x24 ADD PUSH2 0x45C JUMP JUMPDEST PUSH1 0x1 PUSH1 0x1 PUSH1 0xA0 SHL SUB DUP4 DUP2 AND PUSH1 0x0 DUP2 DUP2 MSTORE PUSH1 0x5 PUSH1 0x20 SWAP1 DUP2 MSTORE PUSH1 0x40 DUP1 DUP4 KECCAK256 SWAP5 DUP8 AND DUP1 DUP5 MSTORE SWAP5 DUP3 MSTORE SWAP2 DUP3 SWAP1 KECCAK256 DUP1 SLOAD PUSH32 0xFFFFFFFFFFFFFFFFFFFFFFFFFFFFFFFFFFFFFFFFFFFFFFFFFFFFFFFFFFFFFF00 AND DUP7 ISZERO ISZERO SWAP1 DUP2 OR SWAP1 SWAP2 SSTORE SWAP2 MLOAD SWAP2 DUP3 MSTORE PUSH32 0x17307EAB39AB6107E8899845AD3D59BD9653F200F220920489CA2B5937696C31 SWAP2 ADD PUSH1 0x40 MLOAD DUP1 SWAP2 SUB SWAP1 LOG3 POP POP POP JUMP JUMPDEST PUSH1 0x1 PUSH1 0x1 PUSH1 0xA0 SHL SUB DUP4 AND EXTCODESIZE ISZERO PUSH2 0x4D9 JUMPI PUSH1 0x40 MLOAD PUSH32 0x150B7A0200000000000000000000000000000000000000000000000000000000 DUP2 MSTORE PUSH1 0x1 PUSH1 0x1 PUSH1 0xA0 SHL SUB DUP5 AND SWAP1 PUSH4 0x150B7A02 SWAP1 PUSH2 0xBCC SWAP1 CALLER SWAP1 DUP9 SWAP1 DUP8 SWAP1 DUP8 SWAP1 PUSH1 0x4 ADD PUSH2 0x172D JUMP JUMPDEST PUSH1 0x20 PUSH1 0x40 MLOAD DUP1 DUP4 SUB DUP2 PUSH1 0x0 DUP8 GAS CALL SWAP3 POP POP POP DUP1 ISZERO PUSH2 0xC25 JUMPI POP PUSH1 0x40 DUP1 MLOAD PUSH1 0x1F RETURNDATASIZE SWAP1 DUP2 ADD PUSH32 0xFFFFFFFFFFFFFFFFFFFFFFFFFFFFFFFFFFFFFFFFFFFFFFFFFFFFFFFFFFFFFFE0 AND DUP3 ADD SWAP1 SWAP3 MSTORE PUSH2 0xC22 SWAP2 DUP2 ADD SWAP1 PUSH2 0x1769 JUMP JUMPDEST PUSH1 0x1 JUMPDEST PUSH2 0xCA7 JUMPI RETURNDATASIZE DUP1 DUP1 ISZERO PUSH2 0xC53 JUMPI PUSH1 0x40 MLOAD SWAP2 POP PUSH1 0x1F NOT PUSH1 0x3F RETURNDATASIZE ADD AND DUP3 ADD PUSH1 0x40 MSTORE RETURNDATASIZE DUP3 MSTORE RETURNDATASIZE PUSH1 0x0 PUSH1 0x20 DUP5 ADD RETURNDATACOPY PUSH2 0xC58 JUMP JUMPDEST PUSH1 0x60 SWAP2 POP JUMPDEST POP DUP1 MLOAD PUSH1 0x0 SUB PUSH2 0xC9F JUMPI PUSH1 0x40 MLOAD PUSH32 0x64A0AE9200000000000000000000000000000000000000000000000000000000 DUP2 MSTORE PUSH1 0x1 PUSH1 0x1 PUSH1 0xA0 SHL SUB DUP6 AND PUSH1 0x4 DUP3 ADD MSTORE PUSH1 0x24 ADD PUSH2 0x45C JUMP JUMPDEST DUP1 MLOAD DUP2 PUSH1 0x20 ADD REVERT JUMPDEST PUSH32 0xFFFFFFFF00000000000000000000000000000000000000000000000000000000 DUP2 AND PUSH32 0x150B7A0200000000000000000000000000000000000000000000000000000000 EQ PUSH2 0xD2D JUMPI PUSH1 0x40 MLOAD PUSH32 0x64A0AE9200000000000000000000000000000000000000000000000000000000 DUP2 MSTORE PUSH1 0x1 PUSH1 0x1 PUSH1 0xA0 SHL SUB DUP6 AND PUSH1 0x4 DUP3 ADD MSTORE PUSH1 0x24 ADD PUSH2 0x45C JUMP JUMPDEST POP POP POP POP POP JUMP JUMPDEST PUSH1 0x60 PUSH2 0xD3F DUP3 PUSH2 0x85D JUMP JUMPDEST POP PUSH1 0x0 PUSH2 0xD57 PUSH1 0x40 DUP1 MLOAD PUSH1 0x20 DUP2 ADD SWAP1 SWAP2 MSTORE PUSH1 0x0 DUP2 MSTORE SWAP1 JUMP JUMPDEST SWAP1 POP PUSH1 0x0 DUP2 MLOAD GT PUSH2 0xD77 JUMPI PUSH1 0x40 MLOAD DUP1 PUSH1 0x20 ADD PUSH1 0x40 MSTORE DUP1 PUSH1 0x0 DUP2 MSTORE POP PUSH2 0xDA2 JUMP JUMPDEST DUP1 PUSH2 0xD81 DUP5 PUSH2 0x107C JUMP JUMPDEST PUSH1 0x40 MLOAD PUSH1 0x20 ADD PUSH2 0xD92 SWAP3 SWAP2 SWAP1 PUSH2 0x1684 JUMP JUMPDEST PUSH1 0x40 MLOAD PUSH1 0x20 DUP2 DUP4 SUB SUB DUP2 MSTORE SWAP1 PUSH1 0x40 MSTORE JUMPDEST SWAP4 SWAP3 POP POP POP JUMP JUMPDEST PUSH1 0x1 PUSH1 0x1 PUSH1 0xA0 SHL SUB DUP3 AND PUSH2 0xDEC JUMPI PUSH1 0x40 MLOAD PUSH32 0x64A0AE9200000000000000000000000000000000000000000000000000000000 DUP2 MSTORE PUSH1 0x0 PUSH1 0x4 DUP3 ADD MSTORE PUSH1 0x24 ADD PUSH2 0x45C JUMP JUMPDEST PUSH1 0x0 PUSH2 0xDFA DUP4 DUP4 PUSH1 0x0 PUSH2 0x8BC JUMP JUMPDEST SWAP1 POP PUSH1 0x1 PUSH1 0x1 PUSH1 0xA0 SHL SUB DUP2 AND ISZERO PUSH2 0x4FA JUMPI PUSH1 0x40 MLOAD PUSH32 0x73C6AC6E00000000000000000000000000000000000000000000000000000000 DUP2 MSTORE PUSH1 0x0 PUSH1 0x4 DUP3 ADD MSTORE PUSH1 0x24 ADD PUSH2 0x45C JUMP JUMPDEST PUSH1 0x0 DUP3 DUP2 MSTORE PUSH1 0x6 PUSH1 0x20 MSTORE PUSH1 0x40 SWAP1 KECCAK256 PUSH2 0xE58 DUP3 DUP3 PUSH2 0x17D4 JUMP JUMPDEST POP PUSH1 0x40 MLOAD DUP3 DUP2 MSTORE PUSH32 0xF8E1A15ABA9398E019F0B49DF1A4FDE98EE17AE345CB5F6B5E2C27F5033E8CE7 SWAP1 PUSH1 0x20 ADD PUSH1 0x40 MLOAD DUP1 SWAP2 SUB SWAP1 LOG1 POP POP JUMP JUMPDEST DUP1 DUP1 PUSH2 0xEA4 JUMPI POP PUSH1 0x1 PUSH1 0x1 PUSH1 0xA0 SHL SUB DUP3 AND ISZERO ISZERO JUMPDEST ISZERO PUSH2 0xF9E JUMPI PUSH1 0x0 PUSH2 0xEB4 DUP5 PUSH2 0x85D JUMP JUMPDEST SWAP1 POP PUSH1 0x1 PUSH1 0x1 PUSH1 0xA0 SHL SUB DUP4 AND ISZERO DUP1 ISZERO SWAP1 PUSH2 0xEE0 JUMPI POP DUP3 PUSH1 0x1 PUSH1 0x1 PUSH1 0xA0 SHL SUB AND DUP2 PUSH1 0x1 PUSH1 0x1 PUSH1 0xA0 SHL SUB AND EQ ISZERO JUMPDEST DUP1 ISZERO PUSH2 0xF12 JUMPI POP PUSH1 0x1 PUSH1 0x1 PUSH1 0xA0 SHL SUB DUP1 DUP3 AND PUSH1 0x0 SWAP1 DUP2 MSTORE PUSH1 0x5 PUSH1 0x20 SWAP1 DUP2 MSTORE PUSH1 0x40 DUP1 DUP4 KECCAK256 SWAP4 DUP8 AND DUP4 MSTORE SWAP3 SWAP1 MSTORE KECCAK256 SLOAD PUSH1 0xFF AND ISZERO JUMPDEST ISZERO PUSH2 0xF54 JUMPI PUSH1 0x40 MLOAD PUSH32 0xA9FBF51F00000000000000000000000000000000000000000000000000000000 DUP2 MSTORE PUSH1 0x1 PUSH1 0x1 PUSH1 0xA0 SHL SUB DUP5 AND PUSH1 0x4 DUP3 ADD MSTORE PUSH1 0x24 ADD PUSH2 0x45C JUMP JUMPDEST DUP2 ISZERO PUSH2 0xF9C JUMPI DUP4 DUP6 PUSH1 0x1 PUSH1 0x1 PUSH1 0xA0 SHL SUB AND DUP3 PUSH1 0x1 PUSH1 0x1 PUSH1 0xA0 SHL SUB AND PUSH32 0x8C5BE1E5EBEC7D5BD14F71427D1E84F3DD0314C0F7B2291E5B200AC8C7C3B925 PUSH1 0x40 MLOAD PUSH1 0x40 MLOAD DUP1 SWAP2 SUB SWAP1 LOG4 JUMPDEST POP JUMPDEST POP POP PUSH1 0x0 SWAP1 DUP2 MSTORE PUSH1 0x4 PUSH1 0x20 MSTORE PUSH1 0x40 SWAP1 KECCAK256 DUP1 SLOAD PUSH32 0xFFFFFFFFFFFFFFFFFFFFFFFF0000000000000000000000000000000000000000 AND PUSH1 0x1 PUSH1 0x1 PUSH1 0xA0 SHL SUB SWAP3 SWAP1 SWAP3 AND SWAP2 SWAP1 SWAP2 OR SWAP1 SSTORE JUMP JUMPDEST PUSH2 0xFF1 DUP4 DUP4 DUP4 PUSH2 0x113A JUMP JUMPDEST PUSH2 0x4FA JUMPI PUSH1 0x1 PUSH1 0x1 PUSH1 0xA0 SHL SUB DUP4 AND PUSH2 0x1038 JUMPI PUSH1 0x40 MLOAD PUSH32 0x7E27328900000000000000000000000000000000000000000000000000000000 DUP2 MSTORE PUSH1 0x4 DUP2 ADD DUP3 SWAP1 MSTORE PUSH1 0x24 ADD PUSH2 0x45C JUMP JUMPDEST PUSH1 0x40 MLOAD PUSH32 0x177E802F00000000000000000000000000000000000000000000000000000000 DUP2 MSTORE PUSH1 0x1 PUSH1 0x1 PUSH1 0xA0 SHL SUB DUP4 AND PUSH1 0x4 DUP3 ADD MSTORE PUSH1 0x24 DUP2 ADD DUP3 SWAP1 MSTORE PUSH1 0x44 ADD PUSH2 0x45C JUMP JUMPDEST PUSH1 0x60 PUSH1 0x0 PUSH2 0x1089 DUP4 PUSH2 0x11BD JUMP JUMPDEST PUSH1 0x1 ADD SWAP1 POP PUSH1 0x0 DUP2 PUSH8 0xFFFFFFFFFFFFFFFF DUP2 GT ISZERO PUSH2 0x10A9 JUMPI PUSH2 0x10A9 PUSH2 0x145D JUMP JUMPDEST PUSH1 0x40 MLOAD SWAP1 DUP1 DUP3 MSTORE DUP1 PUSH1 0x1F ADD PUSH1 0x1F NOT AND PUSH1 0x20 ADD DUP3 ADD PUSH1 0x40 MSTORE DUP1 ISZERO PUSH2 0x10D3 JUMPI PUSH1 0x20 DUP3 ADD DUP2 DUP1 CALLDATASIZE DUP4 CALLDATACOPY ADD SWAP1 POP JUMPDEST POP SWAP1 POP DUP2 DUP2 ADD PUSH1 0x20 ADD JUMPDEST PUSH32 0xFFFFFFFFFFFFFFFFFFFFFFFFFFFFFFFFFFFFFFFFFFFFFFFFFFFFFFFFFFFFFFFF ADD PUSH32 0x3031323334353637383961626364656600000000000000000000000000000000 PUSH1 0xA DUP7 MOD BYTE DUP2 MSTORE8 PUSH1 0xA DUP6 DIV SWAP5 POP DUP5 PUSH2 0x10DD JUMPI POP SWAP4 SWAP3 POP POP POP JUMP JUMPDEST PUSH1 0x0 PUSH1 0x1 PUSH1 0x1 PUSH1 0xA0 SHL SUB DUP4 AND ISZERO DUP1 ISZERO SWAP1 PUSH2 0x6B9 JUMPI POP DUP3 PUSH1 0x1 PUSH1 0x1 PUSH1 0xA0 SHL SUB AND DUP5 PUSH1 0x1 PUSH1 0x1 PUSH1 0xA0 SHL SUB AND EQ DUP1 PUSH2 0x1194 JUMPI POP PUSH1 0x1 PUSH1 0x1 PUSH1 0xA0 SHL SUB DUP1 DUP6 AND PUSH1 0x0 SWAP1 DUP2 MSTORE PUSH1 0x5 PUSH1 0x20 SWAP1 DUP2 MSTORE PUSH1 0x40 DUP1 DUP4 KECCAK256 SWAP4 DUP8 AND DUP4 MSTORE SWAP3 SWAP1 MSTORE KECCAK256 SLOAD PUSH1 0xFF AND JUMPDEST DUP1 PUSH2 0x6B9 JUMPI POP POP PUSH1 0x0 SWAP1 DUP2 MSTORE PUSH1 0x4 PUSH1 0x20 MSTORE PUSH1 0x40 SWAP1 KECCAK256 SLOAD PUSH1 0x1 PUSH1 0x1 PUSH1 0xA0 SHL SUB SWAP1 DUP2 AND SWAP2 AND EQ SWAP2 SWAP1 POP JUMP JUMPDEST PUSH1 0x0 DUP1 PUSH27 0x184F03E93FF9F4DAA797ED6E38ED64BF6A1F010000000000000000 DUP4 LT PUSH2 0x1206 JUMPI PUSH27 0x184F03E93FF9F4DAA797ED6E38ED64BF6A1F010000000000000000 DUP4 DIV SWAP3 POP PUSH1 0x40 ADD JUMPDEST PUSH14 0x4EE2D6D415B85ACEF8100000000 DUP4 LT PUSH2 0x1232 JUMPI PUSH14 0x4EE2D6D415B85ACEF8100000000 DUP4 DIV SWAP3 POP PUSH1 0x20 ADD JUMPDEST PUSH7 0x2386F26FC10000 DUP4 LT PUSH2 0x1250 JUMPI PUSH7 0x2386F26FC10000 DUP4 DIV SWAP3 POP PUSH1 0x10 ADD JUMPDEST PUSH4 0x5F5E100 DUP4 LT PUSH2 0x1268 JUMPI PUSH4 0x5F5E100 DUP4 DIV SWAP3 POP PUSH1 0x8 ADD JUMPDEST PUSH2 0x2710 DUP4 LT PUSH2 0x127C JUMPI PUSH2 0x2710 DUP4 DIV SWAP3 POP PUSH1 0x4 ADD JUMPDEST PUSH1 0x64 DUP4 LT PUSH2 0x128E JUMPI PUSH1 0x64 DUP4 DIV SWAP3 POP PUSH1 0x2 ADD JUMPDEST PUSH1 0xA DUP4 LT PUSH2 0x34D JUMPI PUSH1 0x1 ADD SWAP3 SWAP2 POP POP JUMP JUMPDEST PUSH32 0xFFFFFFFF00000000000000000000000000000000000000000000000000000000 DUP2 AND DUP2 EQ PUSH2 0x777 JUMPI PUSH1 0x0 DUP1 REVERT JUMPDEST PUSH1 0x0 PUSH1 0x20 DUP3 DUP5 SUB SLT ISZERO PUSH2 0x12DF JUMPI PUSH1 0x0 DUP1 REVERT JUMPDEST DUP2 CALLDATALOAD PUSH2 0xDA2 DUP2 PUSH2 0x129F JUMP JUMPDEST PUSH1 0x0 JUMPDEST DUP4 DUP2 LT ISZERO PUSH2 0x1305 JUMPI DUP2 DUP2 ADD MLOAD DUP4 DUP3 ADD MSTORE PUSH1 0x20 ADD PUSH2 0x12ED JUMP JUMPDEST POP POP PUSH1 0x0 SWAP2 ADD MSTORE JUMP JUMPDEST PUSH1 0x0 DUP2 MLOAD DUP1 DUP5 MSTORE PUSH2 0x1326 DUP2 PUSH1 0x20 DUP7 ADD PUSH1 0x20 DUP7 ADD PUSH2 0x12EA JUMP JUMPDEST PUSH1 0x1F ADD PUSH32 0xFFFFFFFFFFFFFFFFFFFFFFFFFFFFFFFFFFFFFFFFFFFFFFFFFFFFFFFFFFFFFFE0 AND SWAP3 SWAP1 SWAP3 ADD PUSH1 0x20 ADD SWAP3 SWAP2 POP POP JUMP JUMPDEST PUSH1 0x20 DUP2 MSTORE PUSH1 0x0 PUSH2 0xDA2 PUSH1 0x20 DUP4 ADD DUP5 PUSH2 0x130E JUMP JUMPDEST PUSH1 0x0 PUSH1 0x20 DUP3 DUP5 SUB SLT ISZERO PUSH2 0x137D JUMPI PUSH1 0x0 DUP1 REVERT JUMPDEST POP CALLDATALOAD SWAP2 SWAP1 POP JUMP JUMPDEST DUP1 CALLDATALOAD PUSH1 0x1 PUSH1 0x1 PUSH1 0xA0 SHL SUB DUP2 AND DUP2 EQ PUSH2 0x139B JUMPI PUSH1 0x0 DUP1 REVERT JUMPDEST SWAP2 SWAP1 POP JUMP JUMPDEST PUSH1 0x0 DUP1 PUSH1 0x40 DUP4 DUP6 SUB SLT ISZERO PUSH2 0x13B3 JUMPI PUSH1 0x0 DUP1 REVERT JUMPDEST PUSH2 0x13BC DUP4 PUSH2 0x1384 JUMP JUMPDEST SWAP5 PUSH1 0x20 SWAP4 SWAP1 SWAP4 ADD CALLDATALOAD SWAP4 POP POP POP JUMP JUMPDEST PUSH1 0x0 DUP1 PUSH1 0x0 PUSH1 0x60 DUP5 DUP7 SUB SLT ISZERO PUSH2 0x13DF JUMPI PUSH1 0x0 DUP1 REVERT JUMPDEST PUSH2 0x13E8 DUP5 PUSH2 0x1384 JUMP JUMPDEST SWAP3 POP PUSH2 0x13F6 PUSH1 0x20 DUP6 ADD PUSH2 0x1384 JUMP JUMPDEST SWAP2 POP PUSH1 0x40 DUP5 ADD CALLDATALOAD SWAP1 POP SWAP3 POP SWAP3 POP SWAP3 JUMP JUMPDEST PUSH1 0x0 PUSH1 0x20 DUP3 DUP5 SUB SLT ISZERO PUSH2 0x1418 JUMPI PUSH1 0x0 DUP1 REVERT JUMPDEST PUSH2 0xDA2 DUP3 PUSH2 0x1384 JUMP JUMPDEST PUSH1 0x0 DUP1 PUSH1 0x40 DUP4 DUP6 SUB SLT ISZERO PUSH2 0x1434 JUMPI PUSH1 0x0 DUP1 REVERT JUMPDEST PUSH2 0x143D DUP4 PUSH2 0x1384 JUMP JUMPDEST SWAP2 POP PUSH1 0x20 DUP4 ADD CALLDATALOAD DUP1 ISZERO ISZERO DUP2 EQ PUSH2 0x1452 JUMPI PUSH1 0x0 DUP1 REVERT JUMPDEST DUP1 SWAP2 POP POP SWAP3 POP SWAP3 SWAP1 POP JUMP JUMPDEST PUSH32 0x4E487B7100000000000000000000000000000000000000000000000000000000 PUSH1 0x0 MSTORE PUSH1 0x41 PUSH1 0x4 MSTORE PUSH1 0x24 PUSH1 0x0 REVERT JUMPDEST PUSH1 0x0 PUSH8 0xFFFFFFFFFFFFFFFF DUP1 DUP5 GT ISZERO PUSH2 0x14A7 JUMPI PUSH2 0x14A7 PUSH2 0x145D JUMP JUMPDEST PUSH1 0x40 MLOAD PUSH1 0x1F DUP6 ADD PUSH32 0xFFFFFFFFFFFFFFFFFFFFFFFFFFFFFFFFFFFFFFFFFFFFFFFFFFFFFFFFFFFFFFE0 SWAP1 DUP2 AND PUSH1 0x3F ADD AND DUP2 ADD SWAP1 DUP3 DUP3 GT DUP2 DUP4 LT OR ISZERO PUSH2 0x14ED JUMPI PUSH2 0x14ED PUSH2 0x145D JUMP JUMPDEST DUP2 PUSH1 0x40 MSTORE DUP1 SWAP4 POP DUP6 DUP2 MSTORE DUP7 DUP7 DUP7 ADD GT ISZERO PUSH2 0x1506 JUMPI PUSH1 0x0 DUP1 REVERT JUMPDEST DUP6 DUP6 PUSH1 0x20 DUP4 ADD CALLDATACOPY PUSH1 0x0 PUSH1 0x20 DUP8 DUP4 ADD ADD MSTORE POP POP POP SWAP4 SWAP3 POP POP POP JUMP JUMPDEST PUSH1 0x0 DUP1 PUSH1 0x0 DUP1 PUSH1 0x80 DUP6 DUP8 SUB SLT ISZERO PUSH2 0x1536 JUMPI PUSH1 0x0 DUP1 REVERT JUMPDEST PUSH2 0x153F DUP6 PUSH2 0x1384 JUMP JUMPDEST SWAP4 POP PUSH2 0x154D PUSH1 0x20 DUP7 ADD PUSH2 0x1384 JUMP JUMPDEST SWAP3 POP PUSH1 0x40 DUP6 ADD CALLDATALOAD SWAP2 POP PUSH1 0x60 DUP6 ADD CALLDATALOAD PUSH8 0xFFFFFFFFFFFFFFFF DUP2 GT ISZERO PUSH2 0x1570 JUMPI PUSH1 0x0 DUP1 REVERT JUMPDEST DUP6 ADD PUSH1 0x1F DUP2 ADD DUP8 SGT PUSH2 0x1581 JUMPI PUSH1 0x0 DUP1 REVERT JUMPDEST PUSH2 0x1590 DUP8 DUP3 CALLDATALOAD PUSH1 0x20 DUP5 ADD PUSH2 0x148C JUMP JUMPDEST SWAP2 POP POP SWAP3 SWAP6 SWAP2 SWAP5 POP SWAP3 POP JUMP JUMPDEST PUSH1 0x0 DUP1 PUSH1 0x40 DUP4 DUP6 SUB SLT ISZERO PUSH2 0x15AF JUMPI PUSH1 0x0 DUP1 REVERT JUMPDEST PUSH2 0x15B8 DUP4 PUSH2 0x1384 JUMP JUMPDEST SWAP2 POP PUSH2 0x15C6 PUSH1 0x20 DUP5 ADD PUSH2 0x1384 JUMP JUMPDEST SWAP1 POP SWAP3 POP SWAP3 SWAP1 POP JUMP JUMPDEST PUSH1 0x0 DUP1 PUSH1 0x40 DUP4 DUP6 SUB SLT ISZERO PUSH2 0x15E2 JUMPI PUSH1 0x0 DUP1 REVERT JUMPDEST PUSH2 0x15EB DUP4 PUSH2 0x1384 JUMP JUMPDEST SWAP2 POP PUSH1 0x20 DUP4 ADD CALLDATALOAD PUSH8 0xFFFFFFFFFFFFFFFF DUP2 GT ISZERO PUSH2 0x1607 JUMPI PUSH1 0x0 DUP1 REVERT JUMPDEST DUP4 ADD PUSH1 0x1F DUP2 ADD DUP6 SGT PUSH2 0x1618 JUMPI PUSH1 0x0 DUP1 REVERT JUMPDEST PUSH2 0x1627 DUP6 DUP3 CALLDATALOAD PUSH1 0x20 DUP5 ADD PUSH2 0x148C JUMP JUMPDEST SWAP2 POP POP SWAP3 POP SWAP3 SWAP1 POP JUMP JUMPDEST PUSH1 0x1 DUP2 DUP2 SHR SWAP1 DUP3 AND DUP1 PUSH2 0x1645 JUMPI PUSH1 0x7F DUP3 AND SWAP2 POP JUMPDEST PUSH1 0x20 DUP3 LT DUP2 SUB PUSH2 0x167E JUMPI PUSH32 0x4E487B7100000000000000000000000000000000000000000000000000000000 PUSH1 0x0 MSTORE PUSH1 0x22 PUSH1 0x4 MSTORE PUSH1 0x24 PUSH1 0x0 REVERT JUMPDEST POP SWAP2 SWAP1 POP JUMP JUMPDEST PUSH1 0x0 DUP4 MLOAD PUSH2 0x1696 DUP2 DUP5 PUSH1 0x20 DUP9 ADD PUSH2 0x12EA JUMP JUMPDEST DUP4 MLOAD SWAP1 DUP4 ADD SWAP1 PUSH2 0x16AA DUP2 DUP4 PUSH1 0x20 DUP9 ADD PUSH2 0x12EA JUMP JUMPDEST ADD SWAP5 SWAP4 POP POP POP POP JUMP JUMPDEST PUSH32 0x4E487B7100000000000000000000000000000000000000000000000000000000 PUSH1 0x0 MSTORE PUSH1 0x11 PUSH1 0x4 MSTORE PUSH1 0x24 PUSH1 0x0 REVERT JUMPDEST DUP1 DUP3 ADD DUP1 DUP3 GT ISZERO PUSH2 0x34D JUMPI PUSH2 0x34D PUSH2 0x16B3 JUMP JUMPDEST PUSH1 0x0 PUSH32 0xFFFFFFFFFFFFFFFFFFFFFFFFFFFFFFFFFFFFFFFFFFFFFFFFFFFFFFFFFFFFFFFF DUP3 SUB PUSH2 0x1726 JUMPI PUSH2 0x1726 PUSH2 0x16B3 JUMP JUMPDEST POP PUSH1 0x1 ADD SWAP1 JUMP JUMPDEST PUSH1 0x0 PUSH1 0x1 PUSH1 0x1 PUSH1 0xA0 SHL SUB DUP1 DUP8 AND DUP4 MSTORE DUP1 DUP7 AND PUSH1 0x20 DUP5 ADD MSTORE POP DUP4 PUSH1 0x40 DUP4 ADD MSTORE PUSH1 0x80 PUSH1 0x60 DUP4 ADD MSTORE PUSH2 0x175F PUSH1 0x80 DUP4 ADD DUP5 PUSH2 0x130E JUMP JUMPDEST SWAP7 SWAP6 POP POP POP POP POP POP JUMP JUMPDEST PUSH1 0x0 PUSH1 0x20 DUP3 DUP5 SUB SLT ISZERO PUSH2 0x177B JUMPI PUSH1 0x0 DUP1 REVERT JUMPDEST DUP2 MLOAD PUSH2 0xDA2 DUP2 PUSH2 0x129F JUMP JUMPDEST PUSH1 0x1F DUP3 GT ISZERO PUSH2 0x4FA JUMPI PUSH1 0x0 DUP2 DUP2 MSTORE PUSH1 0x20 DUP2 KECCAK256 PUSH1 0x1F DUP6 ADD PUSH1 0x5 SHR DUP2 ADD PUSH1 0x20 DUP7 LT ISZERO PUSH2 0x17AD JUMPI POP DUP1 JUMPDEST PUSH1 0x1F DUP6 ADD PUSH1 0x5 SHR DUP3 ADD SWAP2 POP JUMPDEST DUP2 DUP2 LT ISZERO PUSH2 0x17CC JUMPI DUP3 DUP2 SSTORE PUSH1 0x1 ADD PUSH2 0x17B9 JUMP JUMPDEST POP POP POP POP POP POP JUMP JUMPDEST DUP2 MLOAD PUSH8 0xFFFFFFFFFFFFFFFF DUP2 GT ISZERO PUSH2 0x17EE JUMPI PUSH2 0x17EE PUSH2 0x145D JUMP JUMPDEST PUSH2 0x1802 DUP2 PUSH2 0x17FC DUP5 SLOAD PUSH2 0x1631 JUMP JUMPDEST DUP5 PUSH2 0x1786 JUMP JUMPDEST PUSH1 0x20 DUP1 PUSH1 0x1F DUP4 GT PUSH1 0x1 DUP2 EQ PUSH2 0x1855 JUMPI PUSH1 0x0 DUP5 ISZERO PUSH2 0x181F JUMPI POP DUP6 DUP4 ADD MLOAD JUMPDEST PUSH32 0xFFFFFFFFFFFFFFFFFFFFFFFFFFFFFFFFFFFFFFFFFFFFFFFFFFFFFFFFFFFFFFFF PUSH1 0x3 DUP7 SWAP1 SHL SHR NOT AND PUSH1 0x1 DUP6 SWAP1 SHL OR DUP6 SSTORE PUSH2 0x17CC JUMP JUMPDEST PUSH1 0x0 DUP6 DUP2 MSTORE PUSH1 0x20 DUP2 KECCAK256 PUSH32 0xFFFFFFFFFFFFFFFFFFFFFFFFFFFFFFFFFFFFFFFFFFFFFFFFFFFFFFFFFFFFFFE0 DUP7 AND SWAP2 JUMPDEST DUP3 DUP2 LT ISZERO PUSH2 0x18A2 JUMPI DUP9 DUP7 ADD MLOAD DUP3 SSTORE SWAP5 DUP5 ADD SWAP5 PUSH1 0x1 SWAP1 SWAP2 ADD SWAP1 DUP5 ADD PUSH2 0x1883 JUMP JUMPDEST POP DUP6 DUP3 LT ISZERO PUSH2 0x18DE JUMPI DUP8 DUP6 ADD MLOAD PUSH32 0xFFFFFFFFFFFFFFFFFFFFFFFFFFFFFFFFFFFFFFFFFFFFFFFFFFFFFFFFFFFFFFFF PUSH1 0x3 DUP9 SWAP1 SHL PUSH1 0xF8 AND SHR NOT AND DUP2 SSTORE JUMPDEST POP POP POP POP POP PUSH1 0x1 SWAP1 DUP2 SHL ADD SWAP1 SSTORE POP JUMP INVALID LOG2 PUSH5 0x6970667358 0x22 SLT KECCAK256 0x2D DUP5 0xE7 0xD1 SWAP2 0x4B PUSH17 0x8E6B808021DDB78EEF7F0B762EFE8C85B7 DUP15 SSTORE EXTCODEHASH PUSH23 0x22E3DDF464736F6C634300081400330000000000000000 "},"methodIdentifiers":{"_tickets(uint256)":"78a2db88","buyTicketByEther(address)":"c2b92c57","buyTicketByToken(address,address)":"416af209","createTBA(address,string)":"9a827de5","issueTicket(string,string,string,address,uint256,uint256,uint256,uint256)":"c0fa772b","issuedTicket(address)":"664f7d5f","ownedTickets(address,uint256)":"99eb3759","owner()":"8da5cb5b","renounceOwnership()":"715018a6","tbaAddress(address)":"97cd6077","transferOwnership(address)":"f2fde38b","updateWhiteList(address,address)":"e3bdcfd3"}}}}}