{"contracts/ERC6551Registry.sol":{"ERC6551Registry":{"abi":[{"inputs":[],"name":"AccountCreationFailed","type":"error"},{"anonymous":false,"inputs":[{"indexed":false,"internalType":"address","name":"account","type":"address"},{"indexed":true,"internalType":"address","name":"implementation","type":"address"},{"indexed":false,"internalType":"bytes32","name":"salt","type":"bytes32"},{"indexed":false,"internalType":"uint256","name":"chainId","type":"uint256"},{"indexed":true,"internalType":"address","name":"tokenContract","type":"address"},{"indexed":true,"internalType":"uint256","name":"tokenId","type":"uint256"}],"name":"ERC6551AccountCreated","type":"event"},{"inputs":[{"internalType":"address","name":"implementation","type":"address"},{"internalType":"bytes32","name":"salt","type":"bytes32"},{"internalType":"uint256","name":"chainId","type":"uint256"},{"internalType":"address","name":"tokenContract","type":"address"},{"internalType":"uint256","name":"tokenId","type":"uint256"}],"name":"account","outputs":[{"internalType":"address","name":"","type":"address"}],"stateMutability":"view","type":"function"},{"inputs":[{"internalType":"address","name":"implementation","type":"address"},{"internalType":"bytes32","name":"salt","type":"bytes32"},{"internalType":"uint256","name":"chainId","type":"uint256"},{"internalType":"address","name":"tokenContract","type":"address"},{"internalType":"uint256","name":"tokenId","type":"uint256"}],"name":"createAccount","outputs":[{"internalType":"address","name":"","type":"address"}],"stateMutability":"nonpayable","type":"function"}],"evm":{"bytecode":{"linkReferences":{},"object":"608060405234801561001057600080fd5b50610255806100206000396000f3fe608060405234801561001057600080fd5b50600436106100365760003560e01c8063246a00211461003b5780638a54c52f14610077575b600080fd5b61004e6100493660046101d1565b61008a565b60405173ffffffffffffffffffffffffffffffffffffffff909116815260200160405180910390f35b61004e6100853660046101d1565b6100ee565b600060806024608c376e5af43d82803e903d91602b57fd5bf3606c5285605d52733d60ad80600a3d3981f3363d3d373d3d3d363d7360495260ff60005360b76055206035523060601b60015284601552605560002060601b60601c60005260206000f35b600060806024608c376e5af43d82803e903d91602b57fd5bf3606c5285605d52733d60ad80600a3d3981f3363d3d373d3d3d363d7360495260ff60005360b76055206035523060601b600152846015526055600020803b610198578560b760556000f580610164576320188a596000526004601cfd5b80606c52508284887f79f19b3655ee38b1ce526556b7731a20c8f218fbda4a3990b6cc4172fdf887226060606ca46020606cf35b8060601b60601c60005260206000f35b803573ffffffffffffffffffffffffffffffffffffffff811681146101cc57600080fd5b919050565b600080600080600060a086880312156101e957600080fd5b6101f2866101a8565b9450602086013593506040860135925061020e606087016101a8565b94979396509194608001359291505056fea2646970667358221220c0e044c7f031ea3bdb6e9a4cef977a6e674b9de1cd287ee14ef3b6e4664cf9d764736f6c63430008140033","opcodes":"PUSH1 0x80 PUSH1 0x40 MSTORE CALLVALUE DUP1 ISZERO PUSH2 0x10 JUMPI PUSH1 0x0 DUP1 REVERT JUMPDEST POP PUSH2 0x255 DUP1 PUSH2 0x20 PUSH1 0x0 CODECOPY PUSH1 0x0 RETURN INVALID PUSH1 0x80 PUSH1 0x40 MSTORE CALLVALUE DUP1 ISZERO PUSH2 0x10 JUMPI PUSH1 0x0 DUP1 REVERT JUMPDEST POP PUSH1 0x4 CALLDATASIZE LT PUSH2 0x36 JUMPI PUSH1 0x0 CALLDATALOAD PUSH1 0xE0 SHR DUP1 PUSH4 0x246A0021 EQ PUSH2 0x3B JUMPI DUP1 PUSH4 0x8A54C52F EQ PUSH2 0x77 JUMPI JUMPDEST PUSH1 0x0 DUP1 REVERT JUMPDEST PUSH2 0x4E PUSH2 0x49 CALLDATASIZE PUSH1 0x4 PUSH2 0x1D1 JUMP JUMPDEST PUSH2 0x8A JUMP JUMPDEST PUSH1 0x40 MLOAD PUSH20 0xFFFFFFFFFFFFFFFFFFFFFFFFFFFFFFFFFFFFFFFF SWAP1 SWAP2 AND DUP2 MSTORE PUSH1 0x20 ADD PUSH1 0x40 MLOAD DUP1 SWAP2 SUB SWAP1 RETURN JUMPDEST PUSH2 0x4E PUSH2 0x85 CALLDATASIZE PUSH1 0x4 PUSH2 0x1D1 JUMP JUMPDEST PUSH2 0xEE JUMP JUMPDEST PUSH1 0x0 PUSH1 0x80 PUSH1 0x24 PUSH1 0x8C CALLDATACOPY PUSH15 0x5AF43D82803E903D91602B57FD5BF3 PUSH1 0x6C MSTORE DUP6 PUSH1 0x5D MSTORE PUSH20 0x3D60AD80600A3D3981F3363D3D373D3D3D363D73 PUSH1 0x49 MSTORE PUSH1 0xFF PUSH1 0x0 MSTORE8 PUSH1 0xB7 PUSH1 0x55 KECCAK256 PUSH1 0x35 MSTORE ADDRESS PUSH1 0x60 SHL PUSH1 0x1 MSTORE DUP5 PUSH1 0x15 MSTORE PUSH1 0x55 PUSH1 0x0 KECCAK256 PUSH1 0x60 SHL PUSH1 0x60 SHR PUSH1 0x0 MSTORE PUSH1 0x20 PUSH1 0x0 RETURN JUMPDEST PUSH1 0x0 PUSH1 0x80 PUSH1 0x24 PUSH1 0x8C CALLDATACOPY PUSH15 0x5AF43D82803E903D91602B57FD5BF3 PUSH1 0x6C MSTORE DUP6 PUSH1 0x5D MSTORE PUSH20 0x3D60AD80600A3D3981F3363D3D373D3D3D363D73 PUSH1 0x49 MSTORE PUSH1 0xFF PUSH1 0x0 MSTORE8 PUSH1 0xB7 PUSH1 0x55 KECCAK256 PUSH1 0x35 MSTORE ADDRESS PUSH1 0x60 SHL PUSH1 0x1 MSTORE DUP5 PUSH1 0x15 MSTORE PUSH1 0x55 PUSH1 0x0 KECCAK256 DUP1 EXTCODESIZE PUSH2 0x198 JUMPI DUP6 PUSH1 0xB7 PUSH1 0x55 PUSH1 0x0 CREATE2 DUP1 PUSH2 0x164 JUMPI PUSH4 0x20188A59 PUSH1 0x0 MSTORE PUSH1 0x4 PUSH1 0x1C REVERT JUMPDEST DUP1 PUSH1 0x6C MSTORE POP DUP3 DUP5 DUP9 PUSH32 0x79F19B3655EE38B1CE526556B7731A20C8F218FBDA4A3990B6CC4172FDF88722 PUSH1 0x60 PUSH1 0x6C LOG4 PUSH1 0x20 PUSH1 0x6C RETURN JUMPDEST DUP1 PUSH1 0x60 SHL PUSH1 0x60 SHR PUSH1 0x0 MSTORE PUSH1 0x20 PUSH1 0x0 RETURN JUMPDEST DUP1 CALLDATALOAD PUSH20 0xFFFFFFFFFFFFFFFFFFFFFFFFFFFFFFFFFFFFFFFF DUP2 AND DUP2 EQ PUSH2 0x1CC JUMPI PUSH1 0x0 DUP1 REVERT JUMPDEST SWAP2 SWAP1 POP JUMP JUMPDEST PUSH1 0x0 DUP1 PUSH1 0x0 DUP1 PUSH1 0x0 PUSH1 0xA0 DUP7 DUP9 SUB SLT ISZERO PUSH2 0x1E9 JUMPI PUSH1 0x0 DUP1 REVERT JUMPDEST PUSH2 0x1F2 DUP7 PUSH2 0x1A8 JUMP JUMPDEST SWAP5 POP PUSH1 0x20 DUP7 ADD CALLDATALOAD SWAP4 POP PUSH1 0x40 DUP7 ADD CALLDATALOAD SWAP3 POP PUSH2 0x20E PUSH1 0x60 DUP8 ADD PUSH2 0x1A8 JUMP JUMPDEST SWAP5 SWAP8 SWAP4 SWAP7 POP SWAP2 SWAP5 PUSH1 0x80 ADD CALLDATALOAD SWAP3 SWAP2 POP POP JUMP INVALID LOG2 PUSH5 0x6970667358 0x22 SLT KECCAK256 0xC0 0xE0 PREVRANDAO 0xC7 CREATE BALANCE 0xEA EXTCODESIZE 0xDB PUSH15 0x9A4CEF977A6E674B9DE1CD287EE14E RETURN 0xB6 0xE4 PUSH7 0x4CF9D764736F6C PUSH4 0x43000814 STOP CALLER "},"methodIdentifiers":{"account(address,bytes32,uint256,address,uint256)":"246a0021","createAccount(address,bytes32,uint256,address,uint256)":"8a54c52f"}}}}}