{"contracts/ERC6551Registry.sol":{"ERC6551Registry":{"abi":[{"inputs":[],"name":"AccountCreationFailed","type":"error"},{"anonymous":false,"inputs":[{"indexed":false,"internalType":"address","name":"account","type":"address"},{"indexed":true,"internalType":"address","name":"implementation","type":"address"},{"indexed":false,"internalType":"bytes32","name":"salt","type":"bytes32"},{"indexed":false,"internalType":"uint256","name":"chainId","type":"uint256"},{"indexed":true,"internalType":"address","name":"tokenContract","type":"address"},{"indexed":true,"internalType":"uint256","name":"tokenId","type":"uint256"}],"name":"ERC6551AccountCreated","type":"event"},{"inputs":[{"internalType":"address","name":"implementation","type":"address"},{"internalType":"bytes32","name":"salt","type":"bytes32"},{"internalType":"uint256","name":"chainId","type":"uint256"},{"internalType":"address","name":"tokenContract","type":"address"},{"internalType":"uint256","name":"tokenId","type":"uint256"}],"name":"account","outputs":[{"internalType":"address","name":"","type":"address"}],"stateMutability":"view","type":"function"},{"inputs":[{"internalType":"address","name":"implementation","type":"address"},{"internalType":"bytes32","name":"salt","type":"bytes32"},{"internalType":"uint256","name":"chainId","type":"uint256"},{"internalType":"address","name":"tokenContract","type":"address"},{"internalType":"uint256","name":"tokenId","type":"uint256"}],"name":"createAccount","outputs":[{"internalType":"address","name":"","type":"address"}],"stateMutability":"nonpayable","type":"function"}],"evm":{"bytecode":{"linkReferences":{},"object":"608060405234801561001057600080fd5b5061023b806100206000396000f3fe608060405234801561001057600080fd5b50600436106100365760003560e01c8063246a00211461003b5780638a54c52f1461006a575b600080fd5b61004e6100493660046101b7565b61007d565b6040516001600160a01b03909116815260200160405180910390f35b61004e6100783660046101b7565b6100e1565b600060806024608c376e5af43d82803e903d91602b57fd5bf3606c5285605d52733d60ad80600a3d3981f3363d3d373d3d3d363d7360495260ff60005360b76055206035523060601b60015284601552605560002060601b60601c60005260206000f35b600060806024608c376e5af43d82803e903d91602b57fd5bf3606c5285605d52733d60ad80600a3d3981f3363d3d373d3d3d363d7360495260ff60005360b76055206035523060601b600152846015526055600020803b61018b578560b760556000f580610157576320188a596000526004601cfd5b80606c52508284887f79f19b3655ee38b1ce526556b7731a20c8f218fbda4a3990b6cc4172fdf887226060606ca46020606cf35b8060601b60601c60005260206000f35b80356001600160a01b03811681146101b257600080fd5b919050565b600080600080600060a086880312156101cf57600080fd5b6101d88661019b565b945060208601359350604086013592506101f46060870161019b565b94979396509194608001359291505056fea264697066735822122092092f8b8d280176c4b3271b7d5b69bab854c398f577327b06661091f129fcc664736f6c63430008140033","opcodes":"PUSH1 0x80 PUSH1 0x40 MSTORE CALLVALUE DUP1 ISZERO PUSH2 0x10 JUMPI PUSH1 0x0 DUP1 REVERT JUMPDEST POP PUSH2 0x23B DUP1 PUSH2 0x20 PUSH1 0x0 CODECOPY PUSH1 0x0 RETURN INVALID PUSH1 0x80 PUSH1 0x40 MSTORE CALLVALUE DUP1 ISZERO PUSH2 0x10 JUMPI PUSH1 0x0 DUP1 REVERT JUMPDEST POP PUSH1 0x4 CALLDATASIZE LT PUSH2 0x36 JUMPI PUSH1 0x0 CALLDATALOAD PUSH1 0xE0 SHR DUP1 PUSH4 0x246A0021 EQ PUSH2 0x3B JUMPI DUP1 PUSH4 0x8A54C52F EQ PUSH2 0x6A JUMPI JUMPDEST PUSH1 0x0 DUP1 REVERT JUMPDEST PUSH2 0x4E PUSH2 0x49 CALLDATASIZE PUSH1 0x4 PUSH2 0x1B7 JUMP JUMPDEST PUSH2 0x7D JUMP JUMPDEST PUSH1 0x40 MLOAD PUSH1 0x1 PUSH1 0x1 PUSH1 0xA0 SHL SUB SWAP1 SWAP2 AND DUP2 MSTORE PUSH1 0x20 ADD PUSH1 0x40 MLOAD DUP1 SWAP2 SUB SWAP1 RETURN JUMPDEST PUSH2 0x4E PUSH2 0x78 CALLDATASIZE PUSH1 0x4 PUSH2 0x1B7 JUMP JUMPDEST PUSH2 0xE1 JUMP JUMPDEST PUSH1 0x0 PUSH1 0x80 PUSH1 0x24 PUSH1 0x8C CALLDATACOPY PUSH15 0x5AF43D82803E903D91602B57FD5BF3 PUSH1 0x6C MSTORE DUP6 PUSH1 0x5D MSTORE PUSH20 0x3D60AD80600A3D3981F3363D3D373D3D3D363D73 PUSH1 0x49 MSTORE PUSH1 0xFF PUSH1 0x0 MSTORE8 PUSH1 0xB7 PUSH1 0x55 KECCAK256 PUSH1 0x35 MSTORE ADDRESS PUSH1 0x60 SHL PUSH1 0x1 MSTORE DUP5 PUSH1 0x15 MSTORE PUSH1 0x55 PUSH1 0x0 KECCAK256 PUSH1 0x60 SHL PUSH1 0x60 SHR PUSH1 0x0 MSTORE PUSH1 0x20 PUSH1 0x0 RETURN JUMPDEST PUSH1 0x0 PUSH1 0x80 PUSH1 0x24 PUSH1 0x8C CALLDATACOPY PUSH15 0x5AF43D82803E903D91602B57FD5BF3 PUSH1 0x6C MSTORE DUP6 PUSH1 0x5D MSTORE PUSH20 0x3D60AD80600A3D3981F3363D3D373D3D3D363D73 PUSH1 0x49 MSTORE PUSH1 0xFF PUSH1 0x0 MSTORE8 PUSH1 0xB7 PUSH1 0x55 KECCAK256 PUSH1 0x35 MSTORE ADDRESS PUSH1 0x60 SHL PUSH1 0x1 MSTORE DUP5 PUSH1 0x15 MSTORE PUSH1 0x55 PUSH1 0x0 KECCAK256 DUP1 EXTCODESIZE PUSH2 0x18B JUMPI DUP6 PUSH1 0xB7 PUSH1 0x55 PUSH1 0x0 CREATE2 DUP1 PUSH2 0x157 JUMPI PUSH4 0x20188A59 PUSH1 0x0 MSTORE PUSH1 0x4 PUSH1 0x1C REVERT JUMPDEST DUP1 PUSH1 0x6C MSTORE POP DUP3 DUP5 DUP9 PUSH32 0x79F19B3655EE38B1CE526556B7731A20C8F218FBDA4A3990B6CC4172FDF88722 PUSH1 0x60 PUSH1 0x6C LOG4 PUSH1 0x20 PUSH1 0x6C RETURN JUMPDEST DUP1 PUSH1 0x60 SHL PUSH1 0x60 SHR PUSH1 0x0 MSTORE PUSH1 0x20 PUSH1 0x0 RETURN JUMPDEST DUP1 CALLDATALOAD PUSH1 0x1 PUSH1 0x1 PUSH1 0xA0 SHL SUB DUP2 AND DUP2 EQ PUSH2 0x1B2 JUMPI PUSH1 0x0 DUP1 REVERT JUMPDEST SWAP2 SWAP1 POP JUMP JUMPDEST PUSH1 0x0 DUP1 PUSH1 0x0 DUP1 PUSH1 0x0 PUSH1 0xA0 DUP7 DUP9 SUB SLT ISZERO PUSH2 0x1CF JUMPI PUSH1 0x0 DUP1 REVERT JUMPDEST PUSH2 0x1D8 DUP7 PUSH2 0x19B JUMP JUMPDEST SWAP5 POP PUSH1 0x20 DUP7 ADD CALLDATALOAD SWAP4 POP PUSH1 0x40 DUP7 ADD CALLDATALOAD SWAP3 POP PUSH2 0x1F4 PUSH1 0x60 DUP8 ADD PUSH2 0x19B JUMP JUMPDEST SWAP5 SWAP8 SWAP4 SWAP7 POP SWAP2 SWAP5 PUSH1 0x80 ADD CALLDATALOAD SWAP3 SWAP2 POP POP JUMP INVALID LOG2 PUSH5 0x6970667358 0x22 SLT KECCAK256 SWAP3 MULMOD 0x2F DUP12 DUP14 0x28 ADD PUSH23 0xC4B3271B7D5B69BAB854C398F577327B06661091F129FC 0xC6 PUSH5 0x736F6C6343 STOP ADDMOD EQ STOP CALLER "},"methodIdentifiers":{"account(address,bytes32,uint256,address,uint256)":"246a0021","createAccount(address,bytes32,uint256,address,uint256)":"8a54c52f"}}}}}