{
  "_format": "hh-sol-artifact-1",
  "contractName": "TicketImageConsumer",
  "sourceName": "contracts/TicketImageConsumer.sol",
  "abi": [
    {
      "inputs": [
        {
          "internalType": "address",
          "name": "_router",
          "type": "address"
        },
        {
          "internalType": "string",
          "name": "_source",
          "type": "string"
        },
        {
          "internalType": "bytes32",
          "name": "_donId",
          "type": "bytes32"
        },
        {
          "internalType": "uint64",
          "name": "_subscriptionId",
          "type": "uint64"
        },
        {
          "internalType": "uint32",
          "name": "_gasLimit",
          "type": "uint32"
        }
      ],
      "stateMutability": "nonpayable",
      "type": "constructor"
    },
    {
      "inputs": [],
      "name": "EmptySecrets",
      "type": "error"
    },
    {
      "inputs": [],
      "name": "EmptySource",
      "type": "error"
    },
    {
      "inputs": [],
      "name": "NoInlineSecrets",
      "type": "error"
    },
    {
      "inputs": [],
      "name": "OnlyRouterCanFulfill",
      "type": "error"
    },
    {
      "anonymous": false,
      "inputs": [
        {
          "indexed": true,
          "internalType": "address",
          "name": "from",
          "type": "address"
        },
        {
          "indexed": true,
          "internalType": "address",
          "name": "to",
          "type": "address"
        }
      ],
      "name": "OwnershipTransferRequested",
      "type": "event"
    },
    {
      "anonymous": false,
      "inputs": [
        {
          "indexed": true,
          "internalType": "address",
          "name": "from",
          "type": "address"
        },
        {
          "indexed": true,
          "internalType": "address",
          "name": "to",
          "type": "address"
        }
      ],
      "name": "OwnershipTransferred",
      "type": "event"
    },
    {
      "anonymous": false,
      "inputs": [
        {
          "indexed": true,
          "internalType": "bytes32",
          "name": "requestId",
          "type": "bytes32"
        },
        {
          "indexed": false,
          "internalType": "bytes",
          "name": "error",
          "type": "bytes"
        }
      ],
      "name": "RequestFailed",
      "type": "event"
    },
    {
      "anonymous": false,
      "inputs": [
        {
          "indexed": true,
          "internalType": "bytes32",
          "name": "id",
          "type": "bytes32"
        }
      ],
      "name": "RequestFulfilled",
      "type": "event"
    },
    {
      "anonymous": false,
      "inputs": [
        {
          "indexed": true,
          "internalType": "bytes32",
          "name": "id",
          "type": "bytes32"
        }
      ],
      "name": "RequestSent",
      "type": "event"
    },
    {
      "anonymous": false,
      "inputs": [
        {
          "indexed": true,
          "internalType": "bytes32",
          "name": "requestId",
          "type": "bytes32"
        },
        {
          "indexed": false,
          "internalType": "string",
          "name": "location",
          "type": "string"
        },
        {
          "indexed": false,
          "internalType": "string",
          "name": "keyword",
          "type": "string"
        }
      ],
      "name": "TicketImageRequestCreated",
      "type": "event"
    },
    {
      "anonymous": false,
      "inputs": [
        {
          "indexed": true,
          "internalType": "bytes32",
          "name": "requestId",
          "type": "bytes32"
        },
        {
          "indexed": false,
          "internalType": "string",
          "name": "ipfsHash",
          "type": "string"
        }
      ],
      "name": "TicketImageRequestFulfilled",
      "type": "event"
    },
    {
      "inputs": [],
      "name": "acceptOwnership",
      "outputs": [],
      "stateMutability": "nonpayable",
      "type": "function"
    },
    {
      "inputs": [],
      "name": "donId",
      "outputs": [
        {
          "internalType": "bytes32",
          "name": "",
          "type": "bytes32"
        }
      ],
      "stateMutability": "view",
      "type": "function"
    },
    {
      "inputs": [],
      "name": "gasLimit",
      "outputs": [
        {
          "internalType": "uint32",
          "name": "",
          "type": "uint32"
        }
      ],
      "stateMutability": "view",
      "type": "function"
    },
    {
      "inputs": [
        {
          "internalType": "bytes32",
          "name": "requestId",
          "type": "bytes32"
        },
        {
          "internalType": "bytes",
          "name": "response",
          "type": "bytes"
        },
        {
          "internalType": "bytes",
          "name": "err",
          "type": "bytes"
        }
      ],
      "name": "handleOracleFulfillment",
      "outputs": [],
      "stateMutability": "nonpayable",
      "type": "function"
    },
    {
      "inputs": [],
      "name": "owner",
      "outputs": [
        {
          "internalType": "address",
          "name": "",
          "type": "address"
        }
      ],
      "stateMutability": "view",
      "type": "function"
    },
    {
      "inputs": [
        {
          "internalType": "bytes",
          "name": "encryptedSecretsUrls",
          "type": "bytes"
        },
        {
          "internalType": "string",
          "name": "location",
          "type": "string"
        },
        {
          "internalType": "string",
          "name": "kewyword",
          "type": "string"
        }
      ],
      "name": "requestTicketImage",
      "outputs": [
        {
          "internalType": "bytes32",
          "name": "",
          "type": "bytes32"
        }
      ],
      "stateMutability": "nonpayable",
      "type": "function"
    },
    {
      "inputs": [
        {
          "internalType": "bytes32",
          "name": "",
          "type": "bytes32"
        }
      ],
      "name": "requests",
      "outputs": [
        {
          "internalType": "uint256",
          "name": "index",
          "type": "uint256"
        },
        {
          "internalType": "string",
          "name": "location",
          "type": "string"
        },
        {
          "internalType": "string",
          "name": "keyword",
          "type": "string"
        },
        {
          "internalType": "string",
          "name": "ipfsHash",
          "type": "string"
        },
        {
          "internalType": "bool",
          "name": "isFulfilled",
          "type": "bool"
        }
      ],
      "stateMutability": "view",
      "type": "function"
    },
    {
      "inputs": [],
      "name": "requestsCounter",
      "outputs": [
        {
          "internalType": "uint256",
          "name": "",
          "type": "uint256"
        }
      ],
      "stateMutability": "view",
      "type": "function"
    },
    {
      "inputs": [],
      "name": "source",
      "outputs": [
        {
          "internalType": "string",
          "name": "",
          "type": "string"
        }
      ],
      "stateMutability": "view",
      "type": "function"
    },
    {
      "inputs": [],
      "name": "subscriptionId",
      "outputs": [
        {
          "internalType": "uint64",
          "name": "",
          "type": "uint64"
        }
      ],
      "stateMutability": "view",
      "type": "function"
    },
    {
      "inputs": [
        {
          "internalType": "address",
          "name": "to",
          "type": "address"
        }
      ],
      "name": "transferOwnership",
      "outputs": [],
      "stateMutability": "nonpayable",
      "type": "function"
    }
  ],
  "bytecode": "0x60a06040523480156200001157600080fd5b506040516200235e3803806200235e833981016040819052620000349162000219565b6001600160a01b0385166080523380600081620000985760405162461bcd60e51b815260206004820152601860248201527f43616e6e6f7420736574206f776e657220746f207a65726f000000000000000060448201526064015b60405180910390fd5b600080546001600160a01b0319166001600160a01b0384811691909117909155811615620000cb57620000cb8162000126565b5060039150620000de90508582620003cd565b506004929092556005805463ffffffff90931668010000000000000000026001600160601b03199093166001600160401b039092169190911791909117905550620004999050565b336001600160a01b03821603620001805760405162461bcd60e51b815260206004820152601760248201527f43616e6e6f74207472616e7366657220746f2073656c6600000000000000000060448201526064016200008f565b600180546001600160a01b0319166001600160a01b0383811691821790925560008054604051929316917fed8889f560326eb138920d842192f0eb3dd22b4f139c87a2c57538e05bae12789190a350565b634e487b7160e01b600052604160045260246000fd5b80516001600160401b0381168114620001ff57600080fd5b919050565b805163ffffffff81168114620001ff57600080fd5b600080600080600060a086880312156200023257600080fd5b85516001600160a01b03811681146200024a57600080fd5b602087810151919650906001600160401b03808211156200026a57600080fd5b818901915089601f8301126200027f57600080fd5b815181811115620002945762000294620001d1565b604051601f8201601f19908116603f01168101908382118183101715620002bf57620002bf620001d1565b816040528281528c86848701011115620002d857600080fd5b600093505b82841015620002fc5784840186015181850187015292850192620002dd565b6000868483010152809950505050505050604086015192506200032260608701620001e7565b9150620003326080870162000204565b90509295509295909350565b600181811c908216806200035357607f821691505b6020821081036200037457634e487b7160e01b600052602260045260246000fd5b50919050565b601f821115620003c857600081815260208120601f850160051c81016020861015620003a35750805b601f850160051c820191505b81811015620003c457828155600101620003af565b5050505b505050565b81516001600160401b03811115620003e957620003e9620001d1565b6200040181620003fa84546200033e565b846200037a565b602080601f831160018114620004395760008415620004205750858301515b600019600386901b1c1916600185901b178555620003c4565b600085815260208120601f198616915b828110156200046a5788860151825594840194600190910190840162000449565b5085821015620004895787850151600019600388901b60f8161c191681555b5050505050600190811b01905550565b608051611ea2620004bc6000396000818161020d0152610ec00152611ea26000f3fe608060405234801561001057600080fd5b50600436106100c95760003560e01c806379ba5097116100815780639d8669851161005b5780639d8669851461018d578063f2fde38b146101b1578063f68016b7146101c457600080fd5b806379ba5097146101545780638da5cb5b1461015c5780638dbe7b9d1461018457600080fd5b806322d472df116100b257806322d472df14610115578063663c22691461013657806367e828bf1461013f57600080fd5b806309c1ba2e146100ce5780630ca7617514610100575b600080fd5b6005546100e29067ffffffffffffffff1681565b60405167ffffffffffffffff90911681526020015b60405180910390f35b61011361010e366004611877565b6101f5565b005b6101286101233660046118e4565b61029f565b6040519081526020016100f7565b61012860025481565b610147610598565b6040516100f79190611997565b610113610626565b60005460405173ffffffffffffffffffffffffffffffffffffffff90911681526020016100f7565b61012860045481565b6101a061019b3660046119aa565b610728565b6040516100f79594939291906119c3565b6101136101bf366004611a17565b6108f2565b6005546101e09068010000000000000000900463ffffffff1681565b60405163ffffffff90911681526020016100f7565b3373ffffffffffffffffffffffffffffffffffffffff7f00000000000000000000000000000000000000000000000000000000000000001614610264576040517fc6829f8300000000000000000000000000000000000000000000000000000000815260040160405180910390fd5b61026f838383610906565b60405183907f85e1543bf2f84fe80c6badbce3648c8539ad1df4d2b3d822938ca0538be727e690600090a2505050565b60006102a96109be565b6102ea6040805160e0810190915280600081526020016000815260200160008152602001606081526020016060815260200160608152602001606081525090565b610387600380546102fa90611a4d565b80601f016020809104026020016040519081016040528092919081815260200182805461032690611a4d565b80156103735780601f1061034857610100808354040283529160200191610373565b820191906000526020600020905b81548152906001019060200180831161035657829003601f168201915b505050505082610a4190919063ffffffff16565b845115610398576103988186610a52565b6002546103a6906001611acf565b600281905560408051600380825260808201909252600091816020015b60608152602001906001900390816103c35790505090506103e382610a9c565b816000815181106103f6576103f6611ae2565b6020026020010181905250858160018151811061041557610415611ae2565b6020026020010181905250848160028151811061043457610434611ae2565b6020026020010181905250600061047761044d85610b3c565b60055460045467ffffffffffffffff82169168010000000000000000900463ffffffff1690610ebb565b6040805160a08101825285815260208082018b81528284018b905283518083018552600080825260608501919091526080840181905285815260069092529290208151815591519293509160018201906104d19082611b5f565b50604082015160028201906104e69082611b5f565b50606082015160038201906104fb9082611b5f565b5060808201518160040160006101000a81548160ff021916908315150217905550905050807fa65f4c2bddbaa2fb5b8e03388cfd799b0402d2f3c92fc80b5f1c8f10922376e28360008151811061055457610554611ae2565b60200260200101518460018151811061056f5761056f611ae2565b6020026020010151604051610585929190611c3d565b60405180910390a2979650505050505050565b600380546105a590611a4d565b80601f01602080910402602001604051908101604052809291908181526020018280546105d190611a4d565b801561061e5780601f106105f35761010080835404028352916020019161061e565b820191906000526020600020905b81548152906001019060200180831161060157829003601f168201915b505050505081565b60015473ffffffffffffffffffffffffffffffffffffffff1633146106ac576040517f08c379a000000000000000000000000000000000000000000000000000000000815260206004820152601660248201527f4d7573742062652070726f706f736564206f776e65720000000000000000000060448201526064015b60405180910390fd5b60008054337fffffffffffffffffffffffff00000000000000000000000000000000000000008083168217845560018054909116905560405173ffffffffffffffffffffffffffffffffffffffff90921692909183917f8be0079c531659141344cd1fd0a4f28419497f9722a3daafe3b4186f6b6457e091a350565b6006602052600090815260409020805460018201805491929161074a90611a4d565b80601f016020809104026020016040519081016040528092919081815260200182805461077690611a4d565b80156107c35780601f10610798576101008083540402835291602001916107c3565b820191906000526020600020905b8154815290600101906020018083116107a657829003601f168201915b5050505050908060020180546107d890611a4d565b80601f016020809104026020016040519081016040528092919081815260200182805461080490611a4d565b80156108515780601f1061082657610100808354040283529160200191610851565b820191906000526020600020905b81548152906001019060200180831161083457829003601f168201915b50505050509080600301805461086690611a4d565b80601f016020809104026020016040519081016040528092919081815260200182805461089290611a4d565b80156108df5780601f106108b4576101008083540402835291602001916108df565b820191906000526020600020905b8154815290600101906020018083116108c257829003601f168201915b5050506004909301549192505060ff1685565b6108fa6109be565b61090381610f9a565b50565b8051156109af57827f61982c98cbc49d11759a948f460b92bca26bdf12ceee12c310f117eb2ca9a9cb8260405161093d9190611997565b60405180910390a26000838152600660205260408120818155906109646001830182611715565b610972600283016000611715565b610980600383016000611715565b5060040180547fffffffffffffffffffffffffffffffffffffffffffffffffffffffffffffff00169055505050565b6109b9838361108f565b505050565b60005473ffffffffffffffffffffffffffffffffffffffff163314610a3f576040517f08c379a000000000000000000000000000000000000000000000000000000000815260206004820152601660248201527f4f6e6c792063616c6c61626c65206279206f776e65720000000000000000000060448201526064016106a3565b565b610a4e8260008084611126565b5050565b8051600003610a8d576040517fe889636f00000000000000000000000000000000000000000000000000000000815260040160405180910390fd5b60016020830152608090910152565b60606000610aa9836111bd565b600101905060008167ffffffffffffffff811115610ac957610ac961179d565b6040519080825280601f01601f191660200182016040528015610af3576020820181803683370190505b5090508181016020015b600019017f3031323334353637383961626364656600000000000000000000000000000000600a86061a8153600a8504945084610afd57509392505050565b60606000610b4b6101006112a0565b9050610b956040518060400160405280600c81526020017f636f64654c6f636174696f6e0000000000000000000000000000000000000000815250826112c190919063ffffffff16565b8251610bb3906002811115610bac57610bac611c6b565b82906112da565b60408051808201909152600881527f6c616e67756167650000000000000000000000000000000000000000000000006020820152610bf29082906112c1565b6040830151610c09908015610bac57610bac611c6b565b60408051808201909152600681527f736f7572636500000000000000000000000000000000000000000000000000006020820152610c489082906112c1565b6060830151610c589082906112c1565b60a08301515115610d055760408051808201909152600481527f61726773000000000000000000000000000000000000000000000000000000006020820152610ca29082906112c1565b610cab81611313565b60005b8360a0015151811015610cfb57610ceb8460a001518281518110610cd457610cd4611ae2565b6020026020010151836112c190919063ffffffff16565b610cf481611c9a565b9050610cae565b50610d0581611337565b60808301515115610e0657600083602001516002811115610d2857610d28611c6b565b03610d5f576040517fa80d31f700000000000000000000000000000000000000000000000000000000815260040160405180910390fd5b60408051808201909152600f81527f736563726574734c6f636174696f6e00000000000000000000000000000000006020820152610d9e9082906112c1565b610db783602001516002811115610bac57610bac611c6b565b60408051808201909152600781527f73656372657473000000000000000000000000000000000000000000000000006020820152610df69082906112c1565b6080830151610e06908290611355565b60c08301515115610eb35760408051808201909152600981527f62797465734172677300000000000000000000000000000000000000000000006020820152610e509082906112c1565b610e5981611313565b60005b8360c0015151811015610ea957610e998460c001518281518110610e8257610e82611ae2565b60200260200101518361135590919063ffffffff16565b610ea281611c9a565b9050610e5c565b50610eb381611337565b515192915050565b6000807f000000000000000000000000000000000000000000000000000000000000000073ffffffffffffffffffffffffffffffffffffffff1663461d27628688600188886040518663ffffffff1660e01b8152600401610f20959493929190611cb4565b6020604051808303816000875af1158015610f3f573d6000803e3d6000fd5b505050506040513d601f19601f82011682018060405250810190610f639190611cfe565b60405190915081907f1131472297a800fee664d1d89cfa8f7676ff07189ecc53f80bbb5f4969099db890600090a295945050505050565b3373ffffffffffffffffffffffffffffffffffffffff821603611019576040517f08c379a000000000000000000000000000000000000000000000000000000000815260206004820152601760248201527f43616e6e6f74207472616e7366657220746f2073656c6600000000000000000060448201526064016106a3565b600180547fffffffffffffffffffffffff00000000000000000000000000000000000000001673ffffffffffffffffffffffffffffffffffffffff83811691821790925560008054604051929316917fed8889f560326eb138920d842192f0eb3dd22b4f139c87a2c57538e05bae12789190a350565b600082815260066020526040902081906003016110ac8282611b5f565b506000838152600660205260409081902060040180547fffffffffffffffffffffffffffffffffffffffffffffffffffffffffffffff001660011790555183907fb02eb0febcc88f6517d345dc23cc26e0a71db4dca4e35cce50661c4c06370b1890611119908490611997565b60405180910390a2505050565b8051600003611161576040517f22ce3edd00000000000000000000000000000000000000000000000000000000815260040160405180910390fd5b8383600281111561117457611174611c6b565b9081600281111561118757611187611c6b565b9052506040840182801561119d5761119d611c6b565b908180156111ad576111ad611c6b565b9052506060909301929092525050565b6000807a184f03e93ff9f4daa797ed6e38ed64bf6a1f0100000000000000008310611206577a184f03e93ff9f4daa797ed6e38ed64bf6a1f010000000000000000830492506040015b6d04ee2d6d415b85acef81000000008310611232576d04ee2d6d415b85acef8100000000830492506020015b662386f26fc10000831061125057662386f26fc10000830492506010015b6305f5e1008310611268576305f5e100830492506008015b612710831061127c57612710830492506004015b6064831061128e576064830492506002015b600a831061129a576001015b92915050565b6112a861174f565b80516112b49083611362565b5060006020820152919050565b6112ce82600383516113d9565b81516109b99082611500565b81516112e79060c2611528565b50610a4e82826040516020016112ff91815260200190565b604051602081830303815290604052611355565b61131e816004611591565b6001816020018181516113319190611acf565b90525050565b611342816007611591565b6001816020018181516113319190611d17565b6112ce82600283516113d9565b604080518082019091526060815260006020820152611382602083611d2a565b156113aa57611392602083611d2a565b61139d906020611d17565b6113a79083611acf565b91505b6020808401839052604051808552600081529081840101818110156113ce57600080fd5b604052509192915050565b60178167ffffffffffffffff16116114065782516114009060e0600585901b168317611528565b50505050565b60ff8167ffffffffffffffff161161144857825161142f906018611fe0600586901b1617611528565b5082516114009067ffffffffffffffff831660016115a8565b61ffff8167ffffffffffffffff161161148b578251611472906019611fe0600586901b1617611528565b5082516114009067ffffffffffffffff831660026115a8565b63ffffffff8167ffffffffffffffff16116114d05782516114b790601a611fe0600586901b1617611528565b5082516114009067ffffffffffffffff831660046115a8565b82516114e790601b611fe0600586901b1617611528565b5082516114009067ffffffffffffffff831660086115a8565b6040805180820190915260608152600060208201526115218383845161162d565b9392505050565b604080518082019091526060815260006020820152825151600061154d826001611acf565b90508460200151821061156e5761156e85611569836002611d65565b6116fe565b8451602083820101858153508051821115611587578181525b5093949350505050565b81516109b990601f611fe0600585901b1617611528565b60408051808201909152606081526000602082015283515160006115cc8285611acf565b905085602001518111156115e9576115e986611569836002611d65565b600060016115f986610100611e60565b6116039190611d17565b90508651828101878319825116178152508051831115611621578281525b50959695505050505050565b604080518082019091526060815260006020820152825182111561165057600080fd5b835151600061165f8483611acf565b9050856020015181111561167c5761167c86611569836002611d65565b855180518382016020019160009180851115611696578482525b505050602086015b602086106116d657805182526116b5602083611acf565b91506116c2602082611acf565b90506116cf602087611d17565b955061169e565b51815160001960208890036101000a0190811690199190911617905250849150509392505050565b815161170a8383611362565b506114008382611500565b50805461172190611a4d565b6000825580601f10611731575050565b601f0160209004906000526020600020908101906109039190611784565b6040518060400160405280611777604051806040016040528060608152602001600081525090565b8152602001600081525090565b5b808211156117995760008155600101611785565b5090565b7f4e487b7100000000000000000000000000000000000000000000000000000000600052604160045260246000fd5b600082601f8301126117dd57600080fd5b813567ffffffffffffffff808211156117f8576117f861179d565b604051601f83017fffffffffffffffffffffffffffffffffffffffffffffffffffffffffffffffe0908116603f0116810190828211818310171561183e5761183e61179d565b8160405283815286602085880101111561185757600080fd5b836020870160208301376000602085830101528094505050505092915050565b60008060006060848603121561188c57600080fd5b83359250602084013567ffffffffffffffff808211156118ab57600080fd5b6118b7878388016117cc565b935060408601359150808211156118cd57600080fd5b506118da868287016117cc565b9150509250925092565b6000806000606084860312156118f957600080fd5b833567ffffffffffffffff8082111561191157600080fd5b61191d878388016117cc565b945060208601359150808211156118ab57600080fd5b6000815180845260005b818110156119595760208185018101518683018201520161193d565b5060006020828601015260207fffffffffffffffffffffffffffffffffffffffffffffffffffffffffffffffe0601f83011685010191505092915050565b6020815260006115216020830184611933565b6000602082840312156119bc57600080fd5b5035919050565b85815260a0602082015260006119dc60a0830187611933565b82810360408401526119ee8187611933565b90508281036060840152611a028186611933565b91505082151560808301529695505050505050565b600060208284031215611a2957600080fd5b813573ffffffffffffffffffffffffffffffffffffffff8116811461152157600080fd5b600181811c90821680611a6157607f821691505b602082108103611a9a577f4e487b7100000000000000000000000000000000000000000000000000000000600052602260045260246000fd5b50919050565b7f4e487b7100000000000000000000000000000000000000000000000000000000600052601160045260246000fd5b8082018082111561129a5761129a611aa0565b7f4e487b7100000000000000000000000000000000000000000000000000000000600052603260045260246000fd5b601f8211156109b957600081815260208120601f850160051c81016020861015611b385750805b601f850160051c820191505b81811015611b5757828155600101611b44565b505050505050565b815167ffffffffffffffff811115611b7957611b7961179d565b611b8d81611b878454611a4d565b84611b11565b602080601f831160018114611bc25760008415611baa5750858301515b600019600386901b1c1916600185901b178555611b57565b6000858152602081207fffffffffffffffffffffffffffffffffffffffffffffffffffffffffffffffe08616915b82811015611c0f57888601518255948401946001909101908401611bf0565b5085821015611c2d5787850151600019600388901b60f8161c191681555b5050505050600190811b01905550565b604081526000611c506040830185611933565b8281036020840152611c628185611933565b95945050505050565b7f4e487b7100000000000000000000000000000000000000000000000000000000600052602160045260246000fd5b60006000198203611cad57611cad611aa0565b5060010190565b67ffffffffffffffff8616815260a060208201526000611cd760a0830187611933565b61ffff9590951660408301525063ffffffff92909216606083015260809091015292915050565b600060208284031215611d1057600080fd5b5051919050565b8181038181111561129a5761129a611aa0565b600082611d60577f4e487b7100000000000000000000000000000000000000000000000000000000600052601260045260246000fd5b500690565b808202811582820484141761129a5761129a611aa0565b600181815b80851115611db7578160001904821115611d9d57611d9d611aa0565b80851615611daa57918102915b93841c9390800290611d81565b509250929050565b600082611dce5750600161129a565b81611ddb5750600061129a565b8160018114611df15760028114611dfb57611e17565b600191505061129a565b60ff841115611e0c57611e0c611aa0565b50506001821b61129a565b5060208310610133831016604e8410600b8410161715611e3a575081810a61129a565b611e448383611d7c565b8060001904821115611e5857611e58611aa0565b029392505050565b60006115218383611dbf56fea26469706673582212209f47e0f1533c7f4aef4066f740a7e10c479ca45ccea998085e74530e781c2b5564736f6c63430008140033",
  "linkReferences": {},
  "deployedLinkReferences": {}
}