{
  "_format": "hh-sol-artifact-1",
  "contractName": "TicketExtended",
  "sourceName": "contracts/TicketExtended.sol",
  "abi": [
    {
      "inputs": [],
      "stateMutability": "nonpayable",
      "type": "constructor"
    },
    {
      "inputs": [
        {
          "internalType": "address",
          "name": "owner",
          "type": "address"
        }
      ],
      "name": "OwnableInvalidOwner",
      "type": "error"
    },
    {
      "inputs": [
        {
          "internalType": "address",
          "name": "account",
          "type": "address"
        }
      ],
      "name": "OwnableUnauthorizedAccount",
      "type": "error"
    },
    {
      "anonymous": false,
      "inputs": [
        {
          "indexed": true,
          "internalType": "address",
          "name": "previousOwner",
          "type": "address"
        },
        {
          "indexed": true,
          "internalType": "address",
          "name": "newOwner",
          "type": "address"
        }
      ],
      "name": "OwnershipTransferred",
      "type": "event"
    },
    {
      "anonymous": false,
      "inputs": [
        {
          "indexed": false,
          "internalType": "uint256",
          "name": "tokenId",
          "type": "uint256"
        }
      ],
      "name": "minted",
      "type": "event"
    },
    {
      "inputs": [
        {
          "internalType": "address",
          "name": "",
          "type": "address"
        }
      ],
      "name": "_tbaAddress",
      "outputs": [
        {
          "internalType": "address",
          "name": "",
          "type": "address"
        }
      ],
      "stateMutability": "view",
      "type": "function"
    },
    {
      "inputs": [
        {
          "internalType": "address",
          "name": "",
          "type": "address"
        },
        {
          "internalType": "uint256",
          "name": "",
          "type": "uint256"
        }
      ],
      "name": "_ticketAddresses",
      "outputs": [
        {
          "internalType": "address",
          "name": "",
          "type": "address"
        }
      ],
      "stateMutability": "view",
      "type": "function"
    },
    {
      "inputs": [
        {
          "internalType": "address",
          "name": "_ticketAddress",
          "type": "address"
        }
      ],
      "name": "buyTicket",
      "outputs": [
        {
          "internalType": "uint256",
          "name": "",
          "type": "uint256"
        }
      ],
      "stateMutability": "payable",
      "type": "function"
    },
    {
      "inputs": [
        {
          "internalType": "address",
          "name": "_ticketExtendedAddress",
          "type": "address"
        },
        {
          "internalType": "address",
          "name": "_tokenAddress",
          "type": "address"
        },
        {
          "internalType": "string",
          "name": "ticketName",
          "type": "string"
        },
        {
          "internalType": "string",
          "name": "ticketSymbol",
          "type": "string"
        },
        {
          "internalType": "string",
          "name": "ticketUri",
          "type": "string"
        },
        {
          "internalType": "address",
          "name": "initialOwner",
          "type": "address"
        },
        {
          "internalType": "uint256",
          "name": "ticketAmount",
          "type": "uint256"
        },
        {
          "internalType": "uint256",
          "name": "ticketPrice",
          "type": "uint256"
        }
      ],
      "name": "issueTicket",
      "outputs": [
        {
          "internalType": "address",
          "name": "",
          "type": "address"
        }
      ],
      "stateMutability": "nonpayable",
      "type": "function"
    },
    {
      "inputs": [
        {
          "internalType": "address",
          "name": "to",
          "type": "address"
        },
        {
          "internalType": "string",
          "name": "tokenURI",
          "type": "string"
        }
      ],
      "name": "mint",
      "outputs": [
        {
          "internalType": "uint256",
          "name": "",
          "type": "uint256"
        },
        {
          "internalType": "address",
          "name": "",
          "type": "address"
        }
      ],
      "stateMutability": "payable",
      "type": "function"
    },
    {
      "inputs": [],
      "name": "ownedTicket",
      "outputs": [
        {
          "internalType": "address[]",
          "name": "",
          "type": "address[]"
        }
      ],
      "stateMutability": "view",
      "type": "function"
    },
    {
      "inputs": [],
      "name": "owner",
      "outputs": [
        {
          "internalType": "address",
          "name": "",
          "type": "address"
        }
      ],
      "stateMutability": "view",
      "type": "function"
    },
    {
      "inputs": [],
      "name": "renounceOwnership",
      "outputs": [],
      "stateMutability": "nonpayable",
      "type": "function"
    },
    {
      "inputs": [
        {
          "internalType": "address",
          "name": "newOwner",
          "type": "address"
        }
      ],
      "name": "transferOwnership",
      "outputs": [],
      "stateMutability": "nonpayable",
      "type": "function"
    },
    {
      "inputs": [
        {
          "internalType": "address",
          "name": "buyer",
          "type": "address"
        },
        {
          "internalType": "address",
          "name": "newTicketAddress",
          "type": "address"
        }
      ],
      "name": "updateTicketAddresses",
      "outputs": [],
      "stateMutability": "nonpayable",
      "type": "function"
    },
    {
      "inputs": [
        {
          "internalType": "address",
          "name": "_ticketAddress",
          "type": "address"
        },
        {
          "internalType": "address",
          "name": "to",
          "type": "address"
        }
      ],
      "name": "updateWhiteList",
      "outputs": [],
      "stateMutability": "nonpayable",
      "type": "function"
    }
  ],
  "bytecode": "0x60806040523480156200001157600080fd5b5033806200003957604051631e4fbdf760e01b81526000600482015260240160405180910390fd5b62000044816200012f565b5060405162000053906200017f565b604051809103906000f08015801562000070573d6000803e3d6000fd5b50600480546001600160a01b0319166001600160a01b03929092169190911790556040516200009f906200018d565b604051809103906000f080158015620000bc573d6000803e3d6000fd5b50600380546001600160a01b0319166001600160a01b0392909216919091179055604051620000eb906200019b565b604051809103906000f08015801562000108573d6000803e3d6000fd5b50600280546001600160a01b0319166001600160a01b0392909216919091179055620001a9565b600080546001600160a01b038381166001600160a01b0319831681178455604051919092169283917f8be0079c531659141344cd1fd0a4f28419497f9722a3daafe3b4186f6b6457e09190a35050565b6116fe80620030c583390190565b610a7b80620047c383390190565b61025b806200523e83390190565b612f0c80620001b96000396000f3fe608060405260043610620000a95760003560e01c80638da5cb5b116200006c5780638da5cb5b14620001b3578063a5f8cdbb14620001d3578063d0def52114620001f9578063e3bdcfd3146200022e578063ea4a693a1462000253578063f2fde38b146200028d57600080fd5b806357dca1fa14620000ae5780635b851fde146200010d5780635ce0e13c146200014f578063715018a614620001765780638161b878146200018e575b600080fd5b348015620000bb57600080fd5b506200010b620000cd36600462000a2e565b6001600160a01b0391821660009081526007602090815260408220805460018101825590835291200180546001600160a01b03191691909216179055565b005b3480156200011a57600080fd5b50620001326200012c36600462000b17565b620002b2565b6040516001600160a01b0390911681526020015b60405180910390f35b3480156200015c57600080fd5b506200016762000331565b60405162000146919062000bf5565b3480156200018357600080fd5b506200010b6200039e565b3480156200019b57600080fd5b5062000132620001ad36600462000c44565b620003b6565b348015620001c057600080fd5b506000546001600160a01b031662000132565b620001ea620001e436600462000c73565b620003ef565b60405190815260200162000146565b620002106200020a36600462000c93565b6200053c565b604080519283526001600160a01b0390911660208301520162000146565b3480156200023b57600080fd5b506200010b6200024d36600462000a2e565b62000850565b3480156200026057600080fd5b50620001326200027236600462000c73565b6006602052600090815260409020546001600160a01b031681565b3480156200029a57600080fd5b506200010b620002ac36600462000c73565b620008d9565b6000620002be6200091d565b8888888888888888604051620002d490620009f8565b620002e798979695949392919062000d31565b604051809103906000f08015801562000304573d6000803e3d6000fd5b50600580546001600160a01b0319166001600160a01b039290921691821790559998505050505050505050565b336000908152600760209081526040918290208054835181840281018401909452808452606093928301828280156200039457602002820191906000526020600020905b81546001600160a01b0316815260019091019060200180831162000375575b5050505050905090565b620003a86200091d565b620003b460006200094c565b565b60076020528160005260406000208181548110620003d357600080fd5b6000918252602090912001546001600160a01b03169150829050565b600580546001600160a01b0319166001600160a01b0383169081179091556040516305d60ffb60e01b8152336004820152600091906305d60ffb90602401602060405180830381865afa1580156200044b573d6000803e3d6000fd5b505050506040513d601f19601f8201168201806040525081019062000471919062000dad565b620004c35760405162461bcd60e51b815260206004820152601e60248201527f726563697069656e74206973206e6f7420696e207768697465206c697374000060448201526064015b60405180910390fd5b60055460405163a5f8cdbb60e01b81523360048201526000916001600160a01b03169063a5f8cdbb906024016020604051808303816000875af11580156200050f573d6000803e3d6000fd5b505050506040513d601f19601f8201168201806040525081019062000535919062000dd1565b9392505050565b6001600160a01b03828116600090815260066020526040812054909182911615620005a15760405162461bcd60e51b8152602060048201526014602482015273151090481a5cc8185b1c9958591e48195e1a5cdd60621b6044820152606401620004ba565b600180549081906000620005b58362000deb565b91905055506000620005c66200099c565b60025460035460048054604051638a54c52f60e01b81526001600160a01b0393841692810192909252602482018590524660448301528216606482015260848101869052929350600092911690638a54c52f9060a4016020604051808303816000875af11580156200063c573d6000803e3d6000fd5b505050506040513d601f19601f8201168201806040525081019062000662919062000e13565b6002546003546004805460405163246a002160e01b81526001600160a01b039384169281019290925260248201879052466044830152821660648201526084810187905292935060009291169063246a00219060a401602060405180830381865afa158015620006d6573d6000803e3d6000fd5b505050506040513d601f19601f82011682018060405250810190620006fc919062000e13565b9050806001600160a01b0316826001600160a01b031614620007615760405162461bcd60e51b815260206004820152601760248201527f4163636f756e74206372656174696f6e206661696c65640000000000000000006044820152606401620004ba565b60048054604051633ab2af8560e21b81526000926001600160a01b039092169163eacabe149162000797918d918d910162000e33565b6020604051808303816000875af1158015620007b7573d6000803e3d6000fd5b505050506040513d601f19601f82011682018060405250810190620007dd919062000dd1565b6001600160a01b038a811660009081526006602090815260409182902080546001600160a01b03191693881693909317909255518781529192507f7dc0bf3ff15656545da2c5f0567962839fe379f74aacdfc4e8025bb24e0c082d910160405180910390a1989197509095505050505050565b600580546001600160a01b0319166001600160a01b03848116918217909255604051634fcf895160e01b8152918316600483015290634fcf8951906024016020604051808303816000875af1158015620008ae573d6000803e3d6000fd5b505050506040513d601f19601f82011682018060405250810190620008d4919062000dad565b505050565b620008e36200091d565b6001600160a01b0381166200090f57604051631e4fbdf760e01b815260006004820152602401620004ba565b6200091a816200094c565b50565b6000546001600160a01b03163314620003b45760405163118cdaa760e01b8152336004820152602401620004ba565b600080546001600160a01b038381166001600160a01b0319831681178455604051919092169283917f8be0079c531659141344cd1fd0a4f28419497f9722a3daafe3b4186f6b6457e09190a35050565b6000804233600154604051602001620009da9392919092835260609190911b6bffffffffffffffffffffffff19166020830152603482015260540190565b60408051601f19818403018152919052805160209091012092915050565b6120758062000e6283390190565b6001600160a01b03811681146200091a57600080fd5b803562000a298162000a06565b919050565b6000806040838503121562000a4257600080fd5b823562000a4f8162000a06565b9150602083013562000a618162000a06565b809150509250929050565b634e487b7160e01b600052604160045260246000fd5b600082601f83011262000a9457600080fd5b813567ffffffffffffffff8082111562000ab25762000ab262000a6c565b604051601f8301601f19908116603f0116810190828211818310171562000add5762000add62000a6c565b8160405283815286602085880101111562000af757600080fd5b836020870160208301376000602085830101528094505050505092915050565b600080600080600080600080610100898b03121562000b3557600080fd5b62000b408962000a1c565b975062000b5060208a0162000a1c565b9650604089013567ffffffffffffffff8082111562000b6e57600080fd5b62000b7c8c838d0162000a82565b975060608b013591508082111562000b9357600080fd5b62000ba18c838d0162000a82565b965060808b013591508082111562000bb857600080fd5b5062000bc78b828c0162000a82565b94505062000bd860a08a0162000a1c565b925060c0890135915060e089013590509295985092959890939650565b6020808252825182820181905260009190848201906040850190845b8181101562000c385783516001600160a01b03168352928401929184019160010162000c11565b50909695505050505050565b6000806040838503121562000c5857600080fd5b823562000c658162000a06565b946020939093013593505050565b60006020828403121562000c8657600080fd5b8135620005358162000a06565b6000806040838503121562000ca757600080fd5b823562000cb48162000a06565b9150602083013567ffffffffffffffff81111562000cd157600080fd5b62000cdf8582860162000a82565b9150509250929050565b6000815180845260005b8181101562000d115760208185018101518683018201520162000cf3565b506000602082860101526020601f19601f83011685010191505092915050565b6001600160a01b03898116825288811660208301526101006040830181905260009162000d618483018b62000ce9565b9150838203606085015262000d77828a62000ce9565b9150838203608085015262000d8d828962000ce9565b961660a0840152505060c081019290925260e09091015295945050505050565b60006020828403121562000dc057600080fd5b815180151581146200053557600080fd5b60006020828403121562000de457600080fd5b5051919050565b60006001820162000e0c57634e487b7160e01b600052601160045260246000fd5b5060010190565b60006020828403121562000e2657600080fd5b8151620005358162000a06565b6001600160a01b038316815260406020820181905260009062000e599083018462000ce9565b94935050505056fe60806040523480156200001157600080fd5b506040516200207538038062002075833981016040819052620000349162000228565b8585846001600160a01b0381166200006657604051631e4fbdf760e01b81526000600482015260240160405180910390fd5b6200007181620000f6565b50600162000080838262000394565b5060026200008f828262000394565b5050600a80546001600160a01b03808c166001600160a01b031992831617909255600b80548b8416908316179055600c859055600d80549287169290911691909117905550600e819055600f620000e7858262000394565b50505050505050505062000460565b600080546001600160a01b038381166001600160a01b0319831681178455604051919092169283917f8be0079c531659141344cd1fd0a4f28419497f9722a3daafe3b4186f6b6457e09190a35050565b80516001600160a01b03811681146200015e57600080fd5b919050565b634e487b7160e01b600052604160045260246000fd5b600082601f8301126200018b57600080fd5b81516001600160401b0380821115620001a857620001a862000163565b604051601f8301601f19908116603f01168101908282118183101715620001d357620001d362000163565b81604052838152602092508683858801011115620001f057600080fd5b600091505b83821015620002145785820183015181830184015290820190620001f5565b600093810190920192909252949350505050565b600080600080600080600080610100898b0312156200024657600080fd5b620002518962000146565b97506200026160208a0162000146565b60408a01519097506001600160401b03808211156200027f57600080fd5b6200028d8c838d0162000179565b975060608b0151915080821115620002a457600080fd5b620002b28c838d0162000179565b965060808b0151915080821115620002c957600080fd5b50620002d88b828c0162000179565b945050620002e960a08a0162000146565b60c08a015160e0909a0151989b979a5095989497939692505050565b600181811c908216806200031a57607f821691505b6020821081036200033b57634e487b7160e01b600052602260045260246000fd5b50919050565b601f8211156200038f57600081815260208120601f850160051c810160208610156200036a5750805b601f850160051c820191505b818110156200038b5782815560010162000376565b5050505b505050565b81516001600160401b03811115620003b057620003b062000163565b620003c881620003c1845462000305565b8462000341565b602080601f831160018114620004005760008415620003e75750858301515b600019600386901b1c1916600185901b1785556200038b565b600085815260208120601f198616915b82811015620004315788860151825594840194600190910190840162000410565b5085821015620004505787850151600019600388901b60f8161c191681555b5050505050600190811b01905550565b611c0580620004706000396000f3fe60806040526004361061012a5760003560e01c8063679ebf1a116100ab578063a22cb4651161006f578063a22cb4651461035f578063a5f8cdbb1461037f578063b88d4fde14610392578063c87b56dd146103b2578063e985e9c5146103d2578063f2fde38b146103f257600080fd5b8063679ebf1a146102c957806370a08231146102e9578063715018a6146103175780638da5cb5b1461032c57806395d89b411461034a57600080fd5b806323b872dd116100f257806323b872dd1461021057806342842e0e146102305780634fcf8951146102505780635e359de0146102705780636352211e146102a957600080fd5b806301ffc9a71461012f57806305d60ffb1461016457806306fdde0314610194578063081812fc146101b6578063095ea7b3146101ee575b600080fd5b34801561013b57600080fd5b5061014f61014a366004611616565b610412565b60405190151581526020015b60405180910390f35b34801561017057600080fd5b5061014f61017f366004611648565b60106020526000908152604090205460ff1681565b3480156101a057600080fd5b506101a961043d565b60405161015b91906116b5565b3480156101c257600080fd5b506101d66101d13660046116c8565b6104cf565b6040516001600160a01b03909116815260200161015b565b3480156101fa57600080fd5b5061020e6102093660046116e1565b6104f8565b005b34801561021c57600080fd5b5061020e61022b36600461170d565b610507565b34801561023c57600080fd5b5061020e61024b36600461170d565b610597565b34801561025c57600080fd5b5061014f61026b366004611648565b6105b7565b34801561027c57600080fd5b5061014f61028b366004611648565b6001600160a01b031660009081526010602052604090205460ff1690565b3480156102b557600080fd5b506101d66102c43660046116c8565b610635565b3480156102d557600080fd5b5061020e6102e436600461174e565b610640565b3480156102f557600080fd5b50610309610304366004611648565b61073e565b60405190815260200161015b565b34801561032357600080fd5b5061020e610786565b34801561033857600080fd5b506000546001600160a01b03166101d6565b34801561035657600080fd5b506101a961079a565b34801561036b57600080fd5b5061020e61037a36600461178c565b6107a9565b61030961038d366004611648565b6107b4565b34801561039e57600080fd5b5061020e6103ad3660046117d0565b6109ee565b3480156103be57600080fd5b506101a96103cd3660046116c8565b610a05565b3480156103de57600080fd5b5061014f6103ed3660046118b0565b610b16565b3480156103fe57600080fd5b5061020e61040d366004611648565b610b44565b60006001600160e01b03198216632483248360e11b1480610437575061043782610b82565b92915050565b60606001805461044c906118de565b80601f0160208091040260200160405190810160405280929190818152602001828054610478906118de565b80156104c55780601f1061049a576101008083540402835291602001916104c5565b820191906000526020600020905b8154815290600101906020018083116104a857829003601f168201915b5050505050905090565b60006104da82610bd2565b506000828152600560205260409020546001600160a01b0316610437565b610503828233610c0b565b5050565b6001600160a01b03821661053657604051633250574960e11b8152600060048201526024015b60405180910390fd5b6000610543838333610c18565b9050836001600160a01b0316816001600160a01b031614610591576040516364283d7b60e01b81526001600160a01b038086166004830152602482018490528216604482015260640161052d565b50505050565b6105b2838383604051806020016040528060008152506109ee565b505050565b6001600160a01b03811660009081526010602052604081205460ff1615156001036105e457506000919050565b6001600160a01b038216600081815260106020526040808220805460ff19166001179055517f37bdaf50464e57bc2ca69f36ace378196f59c54486a220a7051208cb4e249da09190a2506001919050565b600061043782610bd2565b3361064a83610635565b6001600160a01b0316146106a05760405162461bcd60e51b815260206004820152601c60248201527f4e6f7420746865206f776e6572206f662074686973207469636b657400000000604482015260640161052d565b3360009081526010602052604090205460ff166106f75760405162461bcd60e51b81526020600482015260156024820152742737ba102bb434ba32902634b9ba1026b2b6b132b960591b604482015260640161052d565b610702338284610597565b6040516001600160a01b03821690339084907fd15524263ae66f75c1e604c47db6085085110f23ef7322b355179ac5e3b0783a90600090a45050565b60006001600160a01b03821661076a576040516322718ad960e21b81526000600482015260240161052d565b506001600160a01b031660009081526004602052604090205490565b61078e610d11565b6107986000610d3e565b565b60606002805461044c906118de565b610503338383610d8e565b600080600c54116107f85760405162461bcd60e51b815260206004820152600e60248201526d139bc81b5bdc99481d1a58dad95d60921b604482015260640161052d565b6001600160a01b03821660009081526010602052604090205460ff166108605760405162461bcd60e51b815260206004820152601e60248201527f726563697069656e74206973206e6f7420696e207768697465206c6973740000604482015260640161052d565b600a54604051637525349d60e11b81526001600160a01b038481166004830152600092169063ea4a693a90602401602060405180830381865afa1580156108ab573d6000803e3d6000fd5b505050506040513d601f19601f820116820180604052508101906108cf9190611918565b90506001600160a01b0381166109015760405162461bcd60e51b8152602060048201526000602482015260440161052d565b600d54600e5461091e9185916001600160a01b0390911690610e2d565b6001600c5461092d919061194b565b600c55600a54604051632bee50fd60e11b81526001600160a01b038581166004830152306024830152909116906357dca1fa90604401600060405180830381600087803b15801561097d57600080fd5b505af1158015610991573d6000803e3d6000fd5b5050505060006109a282600f610fc1565b905080846001600160a01b03167f1a20407d20a51fbc0334aa014a3c3c7938099daad1333e26c6f3661e0be96657600f6040516109df919061195e565b60405180910390a39392505050565b6109f9848484610507565b6105918484848461107d565b6060610a1082610bd2565b5060008281526007602052604081208054610a2a906118de565b80601f0160208091040260200160405190810160405280929190818152602001828054610a56906118de565b8015610aa35780601f10610a7857610100808354040283529160200191610aa3565b820191906000526020600020905b815481529060010190602001808311610a8657829003601f168201915b505050505090506000610ac160408051602081019091526000815290565b90508051600003610ad3575092915050565b815115610b05578082604051602001610aed9291906119e9565b60405160208183030381529060405292505050919050565b610b0e8461119f565b949350505050565b6001600160a01b03918216600090815260066020908152604080832093909416825291909152205460ff1690565b610b4c610d11565b6001600160a01b038116610b7657604051631e4fbdf760e01b81526000600482015260240161052d565b610b7f81610d3e565b50565b60006001600160e01b031982166380ac58cd60e01b1480610bb357506001600160e01b03198216635b5e139f60e01b145b8061043757506301ffc9a760e01b6001600160e01b0319831614610437565b6000818152600360205260408120546001600160a01b03168061043757604051637e27328960e01b81526004810184905260240161052d565b6105b28383836001611213565b6000828152600360205260408120546001600160a01b0390811690831615610c4557610c45818486611319565b6001600160a01b03811615610c8357610c62600085600080611213565b6001600160a01b038116600090815260046020526040902080546000190190555b6001600160a01b03851615610cb2576001600160a01b0385166000908152600460205260409020805460010190555b60008481526003602052604080822080546001600160a01b0319166001600160a01b0389811691821790925591518793918516917fddf252ad1be2c89b69c2b068fc378daa952ba7f163c4a11628f55a4df523b3ef91a4949350505050565b6000546001600160a01b031633146107985760405163118cdaa760e01b815233600482015260240161052d565b600080546001600160a01b038381166001600160a01b0319831681178455604051919092169283917f8be0079c531659141344cd1fd0a4f28419497f9722a3daafe3b4186f6b6457e09190a35050565b6001600160a01b038216610dc057604051630b61174360e31b81526001600160a01b038316600482015260240161052d565b6001600160a01b03838116600081815260066020908152604080832094871680845294825291829020805460ff191686151590811790915591519182527f17307eab39ab6107e8899845ad3d59bd9653f200f220920489ca2b5937696c31910160405180910390a3505050565b600d546001600160a01b03838116911614610e835760405162461bcd60e51b81526020600482015260166024820152753932b1b4b834b2b73a1034b9903737ba1030b236b4b760511b604482015260640161052d565b600b546040516370a0823160e01b81526001600160a01b03858116600483015260009216906370a0823190602401602060405180830381865afa158015610ece573d6000803e3d6000fd5b505050506040513d601f19601f82011682018060405250810190610ef29190611a18565b905081811015610f3b5760405162461bcd60e51b8152602060048201526014602482015273496e73756666696369656e742062616c616e636560601b604482015260640161052d565b600b546040516323b872dd60e01b81526001600160a01b038681166004830152858116602483015260448201859052909116906323b872dd906064016020604051808303816000875af1158015610f96573d6000803e3d6000fd5b505050506040513d601f19601f82011682018060405250810190610fba9190611a31565b5050505050565b60088054600091819083610fd483611a4e565b9190505550610fe3848261137d565b61107681848054610ff3906118de565b80601f016020809104026020016040519081016040528092919081815260200182805461101f906118de565b801561106c5780601f106110415761010080835404028352916020019161106c565b820191906000526020600020905b81548152906001019060200180831161104f57829003601f168201915b50505050506113e2565b9392505050565b6001600160a01b0383163b1561059157604051630a85bd0160e11b81526001600160a01b0384169063150b7a02906110bf903390889087908790600401611a67565b6020604051808303816000875af19250505080156110fa575060408051601f3d908101601f191682019092526110f791810190611aa4565b60015b611163573d808015611128576040519150601f19603f3d011682016040523d82523d6000602084013e61112d565b606091505b50805160000361115b57604051633250574960e11b81526001600160a01b038516600482015260240161052d565b805181602001fd5b6001600160e01b03198116630a85bd0160e11b14610fba57604051633250574960e11b81526001600160a01b038516600482015260240161052d565b60606111aa82610bd2565b5060006111c260408051602081019091526000815290565b905060008151116111e25760405180602001604052806000815250611076565b806111ec84611432565b6040516020016111fd9291906119e9565b6040516020818303038152906040529392505050565b808061122757506001600160a01b03821615155b156112e957600061123784610bd2565b90506001600160a01b038316158015906112635750826001600160a01b0316816001600160a01b031614155b801561127657506112748184610b16565b155b1561129f5760405163a9fbf51f60e01b81526001600160a01b038416600482015260240161052d565b81156112e75783856001600160a01b0316826001600160a01b03167f8c5be1e5ebec7d5bd14f71427d1e84f3dd0314c0f7b2291e5b200ac8c7c3b92560405160405180910390a45b505b5050600090815260056020526040902080546001600160a01b0319166001600160a01b0392909216919091179055565b6113248383836114c5565b6105b2576001600160a01b03831661135257604051637e27328960e01b81526004810182905260240161052d565b60405163177e802f60e01b81526001600160a01b03831660048201526024810182905260440161052d565b6001600160a01b0382166113a757604051633250574960e11b81526000600482015260240161052d565b60006113b583836000610c18565b90506001600160a01b038116156105b2576040516339e3563760e11b81526000600482015260240161052d565b60008281526007602052604090206113fa8282611b0f565b506040518281527ff8e1a15aba9398e019f0b49df1a4fde98ee17ae345cb5f6b5e2c27f5033e8ce79060200160405180910390a15050565b6060600061143f83611528565b600101905060008167ffffffffffffffff81111561145f5761145f6117ba565b6040519080825280601f01601f191660200182016040528015611489576020820181803683370190505b5090508181016020015b600019016f181899199a1a9b1b9c1cb0b131b232b360811b600a86061a8153600a850494508461149357509392505050565b60006001600160a01b03831615801590610b0e5750826001600160a01b0316846001600160a01b031614806114ff57506114ff8484610b16565b80610b0e5750506000908152600560205260409020546001600160a01b03908116911614919050565b60008072184f03e93ff9f4daa797ed6e38ed64bf6a1f0160401b83106115675772184f03e93ff9f4daa797ed6e38ed64bf6a1f0160401b830492506040015b6d04ee2d6d415b85acef81000000008310611593576d04ee2d6d415b85acef8100000000830492506020015b662386f26fc1000083106115b157662386f26fc10000830492506010015b6305f5e10083106115c9576305f5e100830492506008015b61271083106115dd57612710830492506004015b606483106115ef576064830492506002015b600a83106104375760010192915050565b6001600160e01b031981168114610b7f57600080fd5b60006020828403121561162857600080fd5b813561107681611600565b6001600160a01b0381168114610b7f57600080fd5b60006020828403121561165a57600080fd5b813561107681611633565b60005b83811015611680578181015183820152602001611668565b50506000910152565b600081518084526116a1816020860160208601611665565b601f01601f19169290920160200192915050565b6020815260006110766020830184611689565b6000602082840312156116da57600080fd5b5035919050565b600080604083850312156116f457600080fd5b82356116ff81611633565b946020939093013593505050565b60008060006060848603121561172257600080fd5b833561172d81611633565b9250602084013561173d81611633565b929592945050506040919091013590565b6000806040838503121561176157600080fd5b82359150602083013561177381611633565b809150509250929050565b8015158114610b7f57600080fd5b6000806040838503121561179f57600080fd5b82356117aa81611633565b915060208301356117738161177e565b634e487b7160e01b600052604160045260246000fd5b600080600080608085870312156117e657600080fd5b84356117f181611633565b9350602085013561180181611633565b925060408501359150606085013567ffffffffffffffff8082111561182557600080fd5b818701915087601f83011261183957600080fd5b81358181111561184b5761184b6117ba565b604051601f8201601f19908116603f01168101908382118183101715611873576118736117ba565b816040528281528a602084870101111561188c57600080fd5b82602086016020830137600060208483010152809550505050505092959194509250565b600080604083850312156118c357600080fd5b82356118ce81611633565b9150602083013561177381611633565b600181811c908216806118f257607f821691505b60208210810361191257634e487b7160e01b600052602260045260246000fd5b50919050565b60006020828403121561192a57600080fd5b815161107681611633565b634e487b7160e01b600052601160045260246000fd5b8181038181111561043757610437611935565b6000602080835260008454611972816118de565b8084870152604060018084166000811461199357600181146119ad576119db565b60ff1985168984015283151560051b8901830195506119db565b896000528660002060005b858110156119d35781548b82018601529083019088016119b8565b8a0184019650505b509398975050505050505050565b600083516119fb818460208801611665565b835190830190611a0f818360208801611665565b01949350505050565b600060208284031215611a2a57600080fd5b5051919050565b600060208284031215611a4357600080fd5b81516110768161177e565b600060018201611a6057611a60611935565b5060010190565b6001600160a01b0385811682528416602082015260408101839052608060608201819052600090611a9a90830184611689565b9695505050505050565b600060208284031215611ab657600080fd5b815161107681611600565b601f8211156105b257600081815260208120601f850160051c81016020861015611ae85750805b601f850160051c820191505b81811015611b0757828155600101611af4565b505050505050565b815167ffffffffffffffff811115611b2957611b296117ba565b611b3d81611b3784546118de565b84611ac1565b602080601f831160018114611b725760008415611b5a5750858301515b600019600386901b1c1916600185901b178555611b07565b600085815260208120601f198616915b82811015611ba157888601518255948401946001909101908401611b82565b5085821015611bbf5787850151600019600388901b60f8161c191681555b5050505050600190811b0190555056fea26469706673582212209b1aadc1971890acbf9884520c57325bf4be24bbb65f88666c9cc09ac8758c4564736f6c63430008140033a264697066735822122038ab47ecc56b3ef2a3734d463fa536ae26035a4f4757b5d6e353af24cdde4fc964736f6c6343000814003360806040523480156200001157600080fd5b50336040518060400160405280600f81526020016e12195c9bc8151a58dad95d08139195608a1b81525060405180604001604052806003815260200162242a2760e91b8152508160009081620000689190620001b2565b506001620000778282620001b2565b5050506001600160a01b038116620000a957604051631e4fbdf760e01b81526000600482015260240160405180910390fd5b620000b481620000bb565b506200027e565b600780546001600160a01b038381166001600160a01b0319831681179093556040519116919082907f8be0079c531659141344cd1fd0a4f28419497f9722a3daafe3b4186f6b6457e090600090a35050565b634e487b7160e01b600052604160045260246000fd5b600181811c908216806200013857607f821691505b6020821081036200015957634e487b7160e01b600052602260045260246000fd5b50919050565b601f821115620001ad57600081815260208120601f850160051c81016020861015620001885750805b601f850160051c820191505b81811015620001a95782815560010162000194565b5050505b505050565b81516001600160401b03811115620001ce57620001ce6200010d565b620001e681620001df845462000123565b846200015f565b602080601f8311600181146200021e5760008415620002055750858301515b600019600386901b1c1916600185901b178555620001a9565b600085815260208120601f198616915b828110156200024f578886015182559484019460019091019084016200022e565b50858210156200026e5787850151600019600388901b60f8161c191681555b5050505050600190811b01905550565b611470806200028e6000396000f3fe608060405234801561001057600080fd5b50600436106101165760003560e01c8063715018a6116100a2578063b88d4fde11610071578063b88d4fde1461024f578063c87b56dd14610262578063e985e9c514610275578063eacabe1414610288578063f2fde38b1461029b57600080fd5b8063715018a61461021b5780638da5cb5b1461022357806395d89b4114610234578063a22cb4651461023c57600080fd5b806323b872dd116100e957806323b872dd1461019857806323ca0cd2146101ab57806342842e0e146101e25780636352211e146101f557806370a082311461020857600080fd5b806301ffc9a71461011b57806306fdde0314610143578063081812fc14610158578063095ea7b314610183575b600080fd5b61012e610129366004610f18565b6102ae565b60405190151581526020015b60405180910390f35b61014b6102d9565b60405161013a9190610f85565b61016b610166366004610f98565b61036b565b6040516001600160a01b03909116815260200161013a565b610196610191366004610fcd565b610394565b005b6101966101a6366004610ff7565b6103a3565b6101d46101b9366004611033565b6001600160a01b031660009081526009602052604090205490565b60405190815260200161013a565b6101966101f0366004610ff7565b610433565b61016b610203366004610f98565b610453565b6101d4610216366004611033565b61045e565b6101966104a6565b6007546001600160a01b031661016b565b61014b6104ba565b61019661024a36600461104e565b6104c9565b61019661025d366004611116565b6104d4565b61014b610270366004610f98565b6104eb565b61012e610283366004611192565b6105fc565b6101d46102963660046111c5565b61062a565b6101966102a9366004611033565b61068c565b60006001600160e01b03198216632483248360e11b14806102d357506102d3826106ca565b92915050565b6060600080546102e890611227565b80601f016020809104026020016040519081016040528092919081815260200182805461031490611227565b80156103615780601f1061033657610100808354040283529160200191610361565b820191906000526020600020905b81548152906001019060200180831161034457829003601f168201915b5050505050905090565b60006103768261071a565b506000828152600460205260409020546001600160a01b03166102d3565b61039f828233610753565b5050565b6001600160a01b0382166103d257604051633250574960e11b8152600060048201526024015b60405180910390fd5b60006103df838333610760565b9050836001600160a01b0316816001600160a01b03161461042d576040516364283d7b60e01b81526001600160a01b03808616600483015260248201849052821660448201526064016103c9565b50505050565b61044e838383604051806020016040528060008152506104d4565b505050565b60006102d38261071a565b60006001600160a01b03821661048a576040516322718ad960e21b8152600060048201526024016103c9565b506001600160a01b031660009081526003602052604090205490565b6104ae610859565b6104b86000610886565b565b6060600180546102e890611227565b61039f3383836108d8565b6104df8484846103a3565b61042d84848484610977565b60606104f68261071a565b506000828152600660205260408120805461051090611227565b80601f016020809104026020016040519081016040528092919081815260200182805461053c90611227565b80156105895780601f1061055e57610100808354040283529160200191610589565b820191906000526020600020905b81548152906001019060200180831161056c57829003601f168201915b5050505050905060006105a760408051602081019091526000815290565b905080516000036105b9575092915050565b8151156105eb5780826040516020016105d3929190611261565b60405160208183030381529060405292505050919050565b6105f484610aa0565b949350505050565b6001600160a01b03918216600090815260056020908152604080832093909416825291909152205460ff1690565b6000610634610859565b6008546106429060016112a6565b60088190556106518482610b15565b61065b8184610b7a565b6001600160a01b038416600090815260096020526040812080549161067f836112b9565b9091555090949350505050565b610694610859565b6001600160a01b0381166106be57604051631e4fbdf760e01b8152600060048201526024016103c9565b6106c781610886565b50565b60006001600160e01b031982166380ac58cd60e01b14806106fb57506001600160e01b03198216635b5e139f60e01b145b806102d357506301ffc9a760e01b6001600160e01b03198316146102d3565b6000818152600260205260408120546001600160a01b0316806102d357604051637e27328960e01b8152600481018490526024016103c9565b61044e8383836001610bca565b6000828152600260205260408120546001600160a01b039081169083161561078d5761078d818486610cd0565b6001600160a01b038116156107cb576107aa600085600080610bca565b6001600160a01b038116600090815260036020526040902080546000190190555b6001600160a01b038516156107fa576001600160a01b0385166000908152600360205260409020805460010190555b60008481526002602052604080822080546001600160a01b0319166001600160a01b0389811691821790925591518793918516917fddf252ad1be2c89b69c2b068fc378daa952ba7f163c4a11628f55a4df523b3ef91a4949350505050565b6007546001600160a01b031633146104b85760405163118cdaa760e01b81523360048201526024016103c9565b600780546001600160a01b038381166001600160a01b0319831681179093556040519116919082907f8be0079c531659141344cd1fd0a4f28419497f9722a3daafe3b4186f6b6457e090600090a35050565b6001600160a01b03821661090a57604051630b61174360e31b81526001600160a01b03831660048201526024016103c9565b6001600160a01b03838116600081815260056020908152604080832094871680845294825291829020805460ff191686151590811790915591519182527f17307eab39ab6107e8899845ad3d59bd9653f200f220920489ca2b5937696c31910160405180910390a3505050565b6001600160a01b0383163b1561042d57604051630a85bd0160e11b81526001600160a01b0384169063150b7a02906109b99033908890879087906004016112d2565b6020604051808303816000875af19250505080156109f4575060408051601f3d908101601f191682019092526109f19181019061130f565b60015b610a5d573d808015610a22576040519150601f19603f3d011682016040523d82523d6000602084013e610a27565b606091505b508051600003610a5557604051633250574960e11b81526001600160a01b03851660048201526024016103c9565b805181602001fd5b6001600160e01b03198116630a85bd0160e11b14610a9957604051633250574960e11b81526001600160a01b03851660048201526024016103c9565b5050505050565b6060610aab8261071a565b506000610ac360408051602081019091526000815290565b90506000815111610ae35760405180602001604052806000815250610b0e565b80610aed84610d34565b604051602001610afe929190611261565b6040516020818303038152906040525b9392505050565b6001600160a01b038216610b3f57604051633250574960e11b8152600060048201526024016103c9565b6000610b4d83836000610760565b90506001600160a01b0381161561044e576040516339e3563760e11b8152600060048201526024016103c9565b6000828152600660205260409020610b92828261137a565b506040518281527ff8e1a15aba9398e019f0b49df1a4fde98ee17ae345cb5f6b5e2c27f5033e8ce79060200160405180910390a15050565b8080610bde57506001600160a01b03821615155b15610ca0576000610bee8461071a565b90506001600160a01b03831615801590610c1a5750826001600160a01b0316816001600160a01b031614155b8015610c2d5750610c2b81846105fc565b155b15610c565760405163a9fbf51f60e01b81526001600160a01b03841660048201526024016103c9565b8115610c9e5783856001600160a01b0316826001600160a01b03167f8c5be1e5ebec7d5bd14f71427d1e84f3dd0314c0f7b2291e5b200ac8c7c3b92560405160405180910390a45b505b5050600090815260046020526040902080546001600160a01b0319166001600160a01b0392909216919091179055565b610cdb838383610dc7565b61044e576001600160a01b038316610d0957604051637e27328960e01b8152600481018290526024016103c9565b60405163177e802f60e01b81526001600160a01b0383166004820152602481018290526044016103c9565b60606000610d4183610e2a565b600101905060008167ffffffffffffffff811115610d6157610d6161108a565b6040519080825280601f01601f191660200182016040528015610d8b576020820181803683370190505b5090508181016020015b600019016f181899199a1a9b1b9c1cb0b131b232b360811b600a86061a8153600a8504945084610d9557509392505050565b60006001600160a01b038316158015906105f45750826001600160a01b0316846001600160a01b03161480610e015750610e0184846105fc565b806105f45750506000908152600460205260409020546001600160a01b03908116911614919050565b60008072184f03e93ff9f4daa797ed6e38ed64bf6a1f0160401b8310610e695772184f03e93ff9f4daa797ed6e38ed64bf6a1f0160401b830492506040015b6d04ee2d6d415b85acef81000000008310610e95576d04ee2d6d415b85acef8100000000830492506020015b662386f26fc100008310610eb357662386f26fc10000830492506010015b6305f5e1008310610ecb576305f5e100830492506008015b6127108310610edf57612710830492506004015b60648310610ef1576064830492506002015b600a83106102d35760010192915050565b6001600160e01b0319811681146106c757600080fd5b600060208284031215610f2a57600080fd5b8135610b0e81610f02565b60005b83811015610f50578181015183820152602001610f38565b50506000910152565b60008151808452610f71816020860160208601610f35565b601f01601f19169290920160200192915050565b602081526000610b0e6020830184610f59565b600060208284031215610faa57600080fd5b5035919050565b80356001600160a01b0381168114610fc857600080fd5b919050565b60008060408385031215610fe057600080fd5b610fe983610fb1565b946020939093013593505050565b60008060006060848603121561100c57600080fd5b61101584610fb1565b925061102360208501610fb1565b9150604084013590509250925092565b60006020828403121561104557600080fd5b610b0e82610fb1565b6000806040838503121561106157600080fd5b61106a83610fb1565b91506020830135801515811461107f57600080fd5b809150509250929050565b634e487b7160e01b600052604160045260246000fd5b600067ffffffffffffffff808411156110bb576110bb61108a565b604051601f8501601f19908116603f011681019082821181831017156110e3576110e361108a565b816040528093508581528686860111156110fc57600080fd5b858560208301376000602087830101525050509392505050565b6000806000806080858703121561112c57600080fd5b61113585610fb1565b935061114360208601610fb1565b925060408501359150606085013567ffffffffffffffff81111561116657600080fd5b8501601f8101871361117757600080fd5b611186878235602084016110a0565b91505092959194509250565b600080604083850312156111a557600080fd5b6111ae83610fb1565b91506111bc60208401610fb1565b90509250929050565b600080604083850312156111d857600080fd5b6111e183610fb1565b9150602083013567ffffffffffffffff8111156111fd57600080fd5b8301601f8101851361120e57600080fd5b61121d858235602084016110a0565b9150509250929050565b600181811c9082168061123b57607f821691505b60208210810361125b57634e487b7160e01b600052602260045260246000fd5b50919050565b60008351611273818460208801610f35565b835190830190611287818360208801610f35565b01949350505050565b634e487b7160e01b600052601160045260246000fd5b808201808211156102d3576102d3611290565b6000600182016112cb576112cb611290565b5060010190565b6001600160a01b038581168252841660208201526040810183905260806060820181905260009061130590830184610f59565b9695505050505050565b60006020828403121561132157600080fd5b8151610b0e81610f02565b601f82111561044e57600081815260208120601f850160051c810160208610156113535750805b601f850160051c820191505b818110156113725782815560010161135f565b505050505050565b815167ffffffffffffffff8111156113945761139461108a565b6113a8816113a28454611227565b8461132c565b602080601f8311600181146113dd57600084156113c55750858301515b600019600386901b1c1916600185901b178555611372565b600085815260208120601f198616915b8281101561140c578886015182559484019460019091019084016113ed565b508582101561142a5787850151600019600388901b60f8161c191681555b5050505050600190811b0190555056fea26469706673582212201337e1d6f42963cb68303884c2a886c7b26df0e901b55d88480bd5f2f6576ec864736f6c63430008140033608060405234801561001057600080fd5b50610a5b806100206000396000f3fe6080604052600436106100595760003560e01c80631626ba7e1461006557806351945447146100a3578063523e3260146100c35780638da5cb5b146100e3578063c19d93fb14610110578063fc0c546a1461013457600080fd5b3661006057005b600080fd5b34801561007157600080fd5b506100856100803660046106de565b61016c565b6040516001600160e01b031990911681526020015b60405180910390f35b6100b66100b13660046107fa565b6101a5565b60405161009a91906108c4565b3480156100cf57600080fd5b506100856100de3660046108d7565b6102de565b3480156100ef57600080fd5b506100f8610307565b6040516001600160a01b03909116815260200161009a565b34801561011c57600080fd5b5061012660005481565b60405190815260200161009a565b34801561014057600080fd5b506101496103f7565b604080519384526001600160a01b0390921660208401529082015260600161009a565b60008061018161017a610307565b858561044a565b905080156101995750630b135d3f60e11b905061019f565b60009150505b92915050565b60606101b0336104ac565b6101f25760405162461bcd60e51b815260206004820152600e60248201526d24b73b30b634b21039b4b3b732b960911b60448201526064015b60405180910390fd5b60ff82161561024e5760405162461bcd60e51b815260206004820152602260248201527f4f6e6c792063616c6c206f7065726174696f6e732061726520737570706f7274604482015261195960f21b60648201526084016101e9565b600080815461025c9061092c565b919050819055506000866001600160a01b0316868686604051610280929190610953565b60006040518083038185875af1925050503d80600081146102bd576040519150601f19603f3d011682016040523d82523d6000602084013e6102c2565b606091505b5092509050806102d457815160208301fd5b5095945050505050565b60006102e9846104ac565b156102fc5750630291f19360e51b610300565b5060005b9392505050565b600080600080306001600160a01b031663fc0c546a6040518163ffffffff1660e01b8152600401606060405180830381865afa15801561034b573d6000803e3d6000fd5b505050506040513d601f19601f8201168201806040525081019061036f9190610963565b925092509250468314610386576000935050505090565b6040516331a9108f60e11b8152600481018290526001600160a01b03831690636352211e90602401602060405180830381865afa1580156103cb573d6000803e3d6000fd5b505050506040513d601f19601f820116820180604052508101906103ef919061099c565b935050505090565b60408051606080825260808201909252600091829182918291906020820181803683370190505090506060604d60208301303c8080602001905181019061043e9190610963565b93509350935050909192565b600080600061045985856104d1565b5090925090506000816003811115610473576104736109b9565b1480156104915750856001600160a01b0316826001600160a01b0316145b806104a257506104a286868661051e565b9695505050505050565b60006104b6610307565b6001600160a01b0316826001600160a01b0316149050919050565b6000806000835160410361050b5760208401516040850151606086015160001a6104fd888285856105f9565b955095509550505050610517565b50508151600091506002905b9250925092565b6000806000856001600160a01b031685856040516024016105409291906109cf565b60408051601f198184030181529181526020820180516001600160e01b0316630b135d3f60e11b1790525161057591906109f0565b600060405180830381855afa9150503d80600081146105b0576040519150601f19603f3d011682016040523d82523d6000602084013e6105b5565b606091505b50915091508180156105c957506020815110155b80156104a257508051630b135d3f60e11b906105ee9083016020908101908401610a0c565b149695505050505050565b600080807f7fffffffffffffffffffffffffffffff5d576e7357a4501ddfe92f46681b20a084111561063457506000915060039050826106be565b604080516000808252602082018084528a905260ff891692820192909252606081018790526080810186905260019060a0016020604051602081039080840390855afa158015610688573d6000803e3d6000fd5b5050604051601f1901519150506001600160a01b0381166106b4575060009250600191508290506106be565b9250600091508190505b9450945094915050565b634e487b7160e01b600052604160045260246000fd5b600080604083850312156106f157600080fd5b82359150602083013567ffffffffffffffff8082111561071057600080fd5b818501915085601f83011261072457600080fd5b813581811115610736576107366106c8565b604051601f8201601f19908116603f0116810190838211818310171561075e5761075e6106c8565b8160405282815288602084870101111561077757600080fd5b8260208601602083013760006020848301015280955050505050509250929050565b6001600160a01b03811681146107ae57600080fd5b50565b60008083601f8401126107c357600080fd5b50813567ffffffffffffffff8111156107db57600080fd5b6020830191508360208285010111156107f357600080fd5b9250929050565b60008060008060006080868803121561081257600080fd5b853561081d81610799565b945060208601359350604086013567ffffffffffffffff81111561084057600080fd5b61084c888289016107b1565b909450925050606086013560ff8116811461086657600080fd5b809150509295509295909350565b60005b8381101561088f578181015183820152602001610877565b50506000910152565b600081518084526108b0816020860160208601610874565b601f01601f19169290920160200192915050565b6020815260006103006020830184610898565b6000806000604084860312156108ec57600080fd5b83356108f781610799565b9250602084013567ffffffffffffffff81111561091357600080fd5b61091f868287016107b1565b9497909650939450505050565b60006001820161094c57634e487b7160e01b600052601160045260246000fd5b5060010190565b8183823760009101908152919050565b60008060006060848603121561097857600080fd5b83519250602084015161098a81610799565b80925050604084015190509250925092565b6000602082840312156109ae57600080fd5b815161030081610799565b634e487b7160e01b600052602160045260246000fd5b8281526040602082015260006109e86040830184610898565b949350505050565b60008251610a02818460208701610874565b9190910192915050565b600060208284031215610a1e57600080fd5b505191905056fea2646970667358221220a96fb86b30d6c0f27e07eb4596acf0b19f9b8180e16104888a7af36135c387f464736f6c63430008140033608060405234801561001057600080fd5b5061023b806100206000396000f3fe608060405234801561001057600080fd5b50600436106100365760003560e01c8063246a00211461003b5780638a54c52f1461006a575b600080fd5b61004e6100493660046101b7565b61007d565b6040516001600160a01b03909116815260200160405180910390f35b61004e6100783660046101b7565b6100e1565b600060806024608c376e5af43d82803e903d91602b57fd5bf3606c5285605d52733d60ad80600a3d3981f3363d3d373d3d3d363d7360495260ff60005360b76055206035523060601b60015284601552605560002060601b60601c60005260206000f35b600060806024608c376e5af43d82803e903d91602b57fd5bf3606c5285605d52733d60ad80600a3d3981f3363d3d373d3d3d363d7360495260ff60005360b76055206035523060601b600152846015526055600020803b61018b578560b760556000f580610157576320188a596000526004601cfd5b80606c52508284887f79f19b3655ee38b1ce526556b7731a20c8f218fbda4a3990b6cc4172fdf887226060606ca46020606cf35b8060601b60601c60005260206000f35b80356001600160a01b03811681146101b257600080fd5b919050565b600080600080600060a086880312156101cf57600080fd5b6101d88661019b565b945060208601359350604086013592506101f46060870161019b565b94979396509194608001359291505056fea264697066735822122092092f8b8d280176c4b3271b7d5b69bab854c398f577327b06661091f129fcc664736f6c63430008140033",
  "linkReferences": {},
  "deployedLinkReferences": {}
}