{
  "_format": "hh-sol-artifact-1",
  "contractName": "HeroTicket",
  "sourceName": "contracts/HeroTicket.sol",
  "abi": [
    {
      "inputs": [
        {
          "internalType": "address payable",
          "name": "accountImpl",
          "type": "address"
        },
        {
          "internalType": "address",
          "name": "registryImpl",
          "type": "address"
        },
        {
          "internalType": "address",
          "name": "ticketImageConsumerImpl",
          "type": "address"
        }
      ],
      "stateMutability": "nonpayable",
      "type": "constructor"
    },
    {
      "inputs": [],
      "name": "InvalidAddress",
      "type": "error"
    },
    {
      "inputs": [],
      "name": "InvalidPaymentAmount",
      "type": "error"
    },
    {
      "inputs": [
        {
          "internalType": "address",
          "name": "owner",
          "type": "address"
        }
      ],
      "name": "OwnableInvalidOwner",
      "type": "error"
    },
    {
      "inputs": [
        {
          "internalType": "address",
          "name": "account",
          "type": "address"
        }
      ],
      "name": "OwnableUnauthorizedAccount",
      "type": "error"
    },
    {
      "inputs": [],
      "name": "TBAAlreadyExists",
      "type": "error"
    },
    {
      "inputs": [],
      "name": "TicketNotIssuedByHeroTicket",
      "type": "error"
    },
    {
      "anonymous": false,
      "inputs": [
        {
          "indexed": true,
          "internalType": "address",
          "name": "previousOwner",
          "type": "address"
        },
        {
          "indexed": true,
          "internalType": "address",
          "name": "newOwner",
          "type": "address"
        }
      ],
      "name": "OwnershipTransferred",
      "type": "event"
    },
    {
      "anonymous": false,
      "inputs": [
        {
          "indexed": true,
          "internalType": "address",
          "name": "owner",
          "type": "address"
        },
        {
          "indexed": true,
          "internalType": "address",
          "name": "account",
          "type": "address"
        },
        {
          "indexed": false,
          "internalType": "uint256",
          "name": "tokenId",
          "type": "uint256"
        }
      ],
      "name": "TBACreated",
      "type": "event"
    },
    {
      "anonymous": false,
      "inputs": [
        {
          "indexed": true,
          "internalType": "bytes32",
          "name": "requestId",
          "type": "bytes32"
        },
        {
          "indexed": false,
          "internalType": "string",
          "name": "location",
          "type": "string"
        },
        {
          "indexed": false,
          "internalType": "string",
          "name": "keyword",
          "type": "string"
        }
      ],
      "name": "TicketImageRequestCreated",
      "type": "event"
    },
    {
      "anonymous": false,
      "inputs": [
        {
          "indexed": true,
          "internalType": "address",
          "name": "_ticketAddress",
          "type": "address"
        },
        {
          "indexed": true,
          "internalType": "address",
          "name": "_owner",
          "type": "address"
        },
        {
          "indexed": false,
          "internalType": "string",
          "name": "_ticketName",
          "type": "string"
        },
        {
          "indexed": false,
          "internalType": "string",
          "name": "_ticketSymbol",
          "type": "string"
        },
        {
          "indexed": false,
          "internalType": "string",
          "name": "_ticketUri",
          "type": "string"
        },
        {
          "indexed": false,
          "internalType": "address",
          "name": "_initialOwner",
          "type": "address"
        },
        {
          "indexed": false,
          "internalType": "uint256",
          "name": "_ticketAmount",
          "type": "uint256"
        },
        {
          "indexed": false,
          "internalType": "uint256",
          "name": "_ticketEthPrice",
          "type": "uint256"
        },
        {
          "indexed": false,
          "internalType": "uint256",
          "name": "_ticketTokenPrice",
          "type": "uint256"
        },
        {
          "indexed": false,
          "internalType": "uint256",
          "name": "_saleDuration",
          "type": "uint256"
        }
      ],
      "name": "TicketIssued",
      "type": "event"
    },
    {
      "anonymous": false,
      "inputs": [
        {
          "indexed": true,
          "internalType": "address",
          "name": "_ticketAddress",
          "type": "address"
        },
        {
          "indexed": true,
          "internalType": "address",
          "name": "_buyer",
          "type": "address"
        },
        {
          "indexed": false,
          "internalType": "uint256",
          "name": "_ticketId",
          "type": "uint256"
        },
        {
          "indexed": false,
          "internalType": "enum ITicketExtended.TicketSaleType",
          "name": "_saleType",
          "type": "uint8"
        }
      ],
      "name": "TicketSold",
      "type": "event"
    },
    {
      "anonymous": false,
      "inputs": [
        {
          "indexed": true,
          "internalType": "address",
          "name": "_issuer",
          "type": "address"
        },
        {
          "indexed": false,
          "internalType": "uint256",
          "name": "_ticketTokenPrice",
          "type": "uint256"
        }
      ],
      "name": "TokenPaymentForIssueTicket",
      "type": "event"
    },
    {
      "anonymous": false,
      "inputs": [
        {
          "indexed": false,
          "internalType": "address",
          "name": "to",
          "type": "address"
        },
        {
          "indexed": false,
          "internalType": "uint256",
          "name": "amount",
          "type": "uint256"
        }
      ],
      "name": "TokenReward",
      "type": "event"
    },
    {
      "inputs": [
        {
          "internalType": "uint256",
          "name": "",
          "type": "uint256"
        }
      ],
      "name": "_tickets",
      "outputs": [
        {
          "internalType": "address",
          "name": "",
          "type": "address"
        }
      ],
      "stateMutability": "view",
      "type": "function"
    },
    {
      "inputs": [],
      "name": "acceptOwnership",
      "outputs": [],
      "stateMutability": "nonpayable",
      "type": "function"
    },
    {
      "inputs": [
        {
          "internalType": "address",
          "name": "_ticketAddress",
          "type": "address"
        }
      ],
      "name": "buyTicketByEther",
      "outputs": [
        {
          "internalType": "uint256",
          "name": "",
          "type": "uint256"
        }
      ],
      "stateMutability": "payable",
      "type": "function"
    },
    {
      "inputs": [
        {
          "internalType": "address",
          "name": "_ticketAddress",
          "type": "address"
        },
        {
          "internalType": "address",
          "name": "_buyer",
          "type": "address"
        }
      ],
      "name": "buyTicketByToken",
      "outputs": [
        {
          "internalType": "uint256",
          "name": "",
          "type": "uint256"
        }
      ],
      "stateMutability": "nonpayable",
      "type": "function"
    },
    {
      "inputs": [
        {
          "internalType": "address",
          "name": "to",
          "type": "address"
        },
        {
          "internalType": "string",
          "name": "tokenURI",
          "type": "string"
        }
      ],
      "name": "createTBA",
      "outputs": [
        {
          "internalType": "uint256",
          "name": "",
          "type": "uint256"
        },
        {
          "internalType": "address",
          "name": "",
          "type": "address"
        }
      ],
      "stateMutability": "payable",
      "type": "function"
    },
    {
      "inputs": [
        {
          "internalType": "address",
          "name": "owner",
          "type": "address"
        },
        {
          "internalType": "address",
          "name": "ticketAddress",
          "type": "address"
        }
      ],
      "name": "hasTicket",
      "outputs": [
        {
          "internalType": "bool",
          "name": "",
          "type": "bool"
        }
      ],
      "stateMutability": "view",
      "type": "function"
    },
    {
      "inputs": [
        {
          "internalType": "address",
          "name": "ticketAddress",
          "type": "address"
        },
        {
          "internalType": "address",
          "name": "to",
          "type": "address"
        }
      ],
      "name": "isWhiteListed",
      "outputs": [
        {
          "internalType": "bool",
          "name": "",
          "type": "bool"
        }
      ],
      "stateMutability": "view",
      "type": "function"
    },
    {
      "inputs": [
        {
          "internalType": "string",
          "name": "ticketName",
          "type": "string"
        },
        {
          "internalType": "string",
          "name": "ticketSymbol",
          "type": "string"
        },
        {
          "internalType": "string",
          "name": "ticketUri",
          "type": "string"
        },
        {
          "internalType": "address",
          "name": "issuer",
          "type": "address"
        },
        {
          "internalType": "uint256",
          "name": "ticketAmount",
          "type": "uint256"
        },
        {
          "internalType": "uint256",
          "name": "ticketEthPrice",
          "type": "uint256"
        },
        {
          "internalType": "uint256",
          "name": "ticketTokenPrice",
          "type": "uint256"
        },
        {
          "internalType": "uint256",
          "name": "saleDuration",
          "type": "uint256"
        }
      ],
      "name": "issueTicket",
      "outputs": [
        {
          "internalType": "address",
          "name": "",
          "type": "address"
        }
      ],
      "stateMutability": "nonpayable",
      "type": "function"
    },
    {
      "inputs": [
        {
          "internalType": "address",
          "name": "",
          "type": "address"
        }
      ],
      "name": "issuedTicket",
      "outputs": [
        {
          "internalType": "bool",
          "name": "",
          "type": "bool"
        }
      ],
      "stateMutability": "view",
      "type": "function"
    },
    {
      "inputs": [
        {
          "internalType": "address",
          "name": "",
          "type": "address"
        },
        {
          "internalType": "uint256",
          "name": "",
          "type": "uint256"
        }
      ],
      "name": "ownedTickets",
      "outputs": [
        {
          "internalType": "address",
          "name": "",
          "type": "address"
        }
      ],
      "stateMutability": "view",
      "type": "function"
    },
    {
      "inputs": [],
      "name": "owner",
      "outputs": [
        {
          "internalType": "address",
          "name": "",
          "type": "address"
        }
      ],
      "stateMutability": "view",
      "type": "function"
    },
    {
      "inputs": [],
      "name": "renounceOwnership",
      "outputs": [],
      "stateMutability": "nonpayable",
      "type": "function"
    },
    {
      "inputs": [
        {
          "internalType": "bytes",
          "name": "encryptedSecretsUrls",
          "type": "bytes"
        },
        {
          "internalType": "string",
          "name": "location",
          "type": "string"
        },
        {
          "internalType": "string",
          "name": "keyword",
          "type": "string"
        }
      ],
      "name": "requestTicketImage",
      "outputs": [
        {
          "internalType": "bytes32",
          "name": "",
          "type": "bytes32"
        }
      ],
      "stateMutability": "nonpayable",
      "type": "function"
    },
    {
      "inputs": [
        {
          "internalType": "bytes32",
          "name": "requestId",
          "type": "bytes32"
        }
      ],
      "name": "requests",
      "outputs": [
        {
          "internalType": "uint256",
          "name": "",
          "type": "uint256"
        },
        {
          "internalType": "string",
          "name": "",
          "type": "string"
        },
        {
          "internalType": "string",
          "name": "",
          "type": "string"
        },
        {
          "internalType": "string",
          "name": "",
          "type": "string"
        },
        {
          "internalType": "bool",
          "name": "",
          "type": "bool"
        }
      ],
      "stateMutability": "view",
      "type": "function"
    },
    {
      "inputs": [
        {
          "internalType": "address",
          "name": "",
          "type": "address"
        }
      ],
      "name": "tbaAddress",
      "outputs": [
        {
          "internalType": "address",
          "name": "",
          "type": "address"
        }
      ],
      "stateMutability": "view",
      "type": "function"
    },
    {
      "inputs": [
        {
          "internalType": "address",
          "name": "ticketAddress",
          "type": "address"
        }
      ],
      "name": "ticketInfo",
      "outputs": [
        {
          "internalType": "address",
          "name": "",
          "type": "address"
        },
        {
          "internalType": "uint256",
          "name": "",
          "type": "uint256"
        },
        {
          "internalType": "uint256",
          "name": "",
          "type": "uint256"
        },
        {
          "internalType": "uint256",
          "name": "",
          "type": "uint256"
        },
        {
          "internalType": "uint256",
          "name": "",
          "type": "uint256"
        },
        {
          "internalType": "uint256",
          "name": "",
          "type": "uint256"
        }
      ],
      "stateMutability": "view",
      "type": "function"
    },
    {
      "inputs": [
        {
          "internalType": "address",
          "name": "owner",
          "type": "address"
        }
      ],
      "name": "ticketsByOwner",
      "outputs": [
        {
          "internalType": "address[]",
          "name": "",
          "type": "address[]"
        }
      ],
      "stateMutability": "view",
      "type": "function"
    },
    {
      "inputs": [
        {
          "internalType": "address",
          "name": "owner",
          "type": "address"
        }
      ],
      "name": "tokenBalanceOf",
      "outputs": [
        {
          "internalType": "uint256",
          "name": "",
          "type": "uint256"
        }
      ],
      "stateMutability": "view",
      "type": "function"
    },
    {
      "inputs": [
        {
          "internalType": "address",
          "name": "newOwner",
          "type": "address"
        }
      ],
      "name": "transferOwnership",
      "outputs": [],
      "stateMutability": "nonpayable",
      "type": "function"
    },
    {
      "inputs": [
        {
          "internalType": "address",
          "name": "_ticketAddress",
          "type": "address"
        },
        {
          "internalType": "address",
          "name": "to",
          "type": "address"
        }
      ],
      "name": "updateWhiteList",
      "outputs": [],
      "stateMutability": "nonpayable",
      "type": "function"
    }
  ],
  "bytecode": "0x60806040523480156200001157600080fd5b5060405162008172380380620081728339810160408190526200003491620001ef565b33806200005b57604051631e4fbdf760e01b81526000600482015260240160405180910390fd5b62000066816200016a565b506040516200007590620001ba565b604051809103906000f08015801562000092573d6000803e3d6000fd5b50600380546001600160a01b0319166001600160a01b0392909216919091179055604051620000c190620001c8565b6040808252600990820152682432b937aa37b5b2b760b91b606082015260806020820181905260029082015261121560f21b60a082015260c001604051809103906000f08015801562000118573d6000803e3d6000fd5b50600480546001600160a01b03199081166001600160a01b0393841617909155600280548216958316959095179094556001805485169382169390931790925560058054909316911617905562000243565b600080546001600160a01b038381166001600160a01b0319831681178455604051919092169283917f8be0079c531659141344cd1fd0a4f28419497f9722a3daafe3b4186f6b6457e09190a35050565b611b03806200552783390190565b611148806200702a83390190565b6001600160a01b0381168114620001ec57600080fd5b50565b6000806000606084860312156200020557600080fd5b83516200021281620001d6565b60208501519093506200022581620001d6565b60408501519092506200023881620001d6565b809150509250925092565b6152d480620002536000396000f3fe6080604052600436106200017b5760003560e01c80639d86698511620000cf578063de1b3965116200007d578063e42c08f21162000060578063e42c08f21462000495578063f2fde38b14620004ba578063fce4d31514620004df57600080fd5b8063de1b39651462000413578063e3bdcfd3146200047057600080fd5b8063bf295ea811620000b2578063bf295ea814620003a3578063c0fa772b14620003d7578063c2b92c5714620003fc57600080fd5b80639d8669851462000346578063a10cda99146200037e57600080fd5b806379ba5097116200012d57806397cd6077116200011057806397cd607714620002b257806399eb375914620002ec5780639a827de5146200031157600080fd5b806379ba5097146200027a5780638da5cb5b146200029257600080fd5b8063664f7d5f1162000162578063664f7d5f14620001dd578063715018a6146200022257806378a2db88146200023c57600080fd5b806322d472df1462000180578063416af20914620001b8575b600080fd5b3480156200018d57600080fd5b50620001a56200019f36600462001e85565b62000504565b6040519081526020015b60405180910390f35b348015620001c557600080fd5b50620001a5620001d736600462001f57565b620005ec565b348015620001ea57600080fd5b5062000211620001fc36600462001f95565b60086020526000908152604090205460ff1681565b6040519015158152602001620001af565b3480156200022f57600080fd5b506200023a620009a3565b005b3480156200024957600080fd5b50620002616200025b36600462001fb5565b620009bb565b6040516001600160a01b039091168152602001620001af565b3480156200028757600080fd5b506200023a620009e6565b3480156200029f57600080fd5b506000546001600160a01b031662000261565b348015620002bf57600080fd5b5062000261620002d136600462001f95565b6006602052600090815260409020546001600160a01b031681565b348015620002f957600080fd5b50620002616200030b36600462001fcf565b62000a5c565b620003286200032236600462001ffe565b62000a95565b604080519283526001600160a01b03909116602083015201620001af565b3480156200035357600080fd5b506200036b6200036536600462001fb5565b62000e7d565b604051620001af959493929190620020c6565b3480156200038b57600080fd5b50620002116200039d36600462001f57565b62000f44565b348015620003b057600080fd5b50620003c8620003c236600462001f95565b62000fd8565b604051620001af919062002120565b348015620003e457600080fd5b5062000261620003f63660046200216f565b62001050565b620001a56200040d36600462001f95565b620011c3565b3480156200042057600080fd5b50620004386200043236600462001f95565b62001442565b604080516001600160a01b0390971687526020870195909552938501929092526060840152608083015260a082015260c001620001af565b3480156200047d57600080fd5b506200023a6200048f36600462001f57565b620016db565b348015620004a257600080fd5b50620001a5620004b436600462001f95565b620017fe565b348015620004c757600080fd5b506200023a620004d936600462001f95565b6200188e565b348015620004ec57600080fd5b5062000211620004fe36600462001f57565b620018eb565b60006200051062001938565b6005546040517f22d472df0000000000000000000000000000000000000000000000000000000081526000916001600160a01b0316906322d472df90620005609088908890889060040162002238565b6020604051808303816000875af115801562000580573d6000803e3d6000fd5b505050506040513d601f19601f82011682018060405250810190620005a6919062002281565b9050807fa65f4c2bddbaa2fb5b8e03388cfd799b0402d2f3c92fc80b5f1c8f10922376e28585604051620005dc9291906200229b565b60405180910390a2949350505050565b6000620005f862001938565b6001600160a01b03831660009081526008602052604090205460ff166200064b576040517f3151c82a00000000000000000000000000000000000000000000000000000000815260040160405180910390fd5b6001600160a01b0382166200068c576040517fe6c4247b00000000000000000000000000000000000000000000000000000000815260040160405180910390fd5b6001600160a01b038083166000908152600660205260409020541680620006df576040517fe6c4247b00000000000000000000000000000000000000000000000000000000815260040160405180910390fd5b60008490506000816001600160a01b03166380a3e2836040518163ffffffff1660e01b8152600401602060405180830381865afa15801562000725573d6000803e3d6000fd5b505050506040513d601f19601f820116820180604052508101906200074b919062002281565b600480546040517f70a082310000000000000000000000000000000000000000000000000000000081526001600160a01b03878116938201939093529293506000929116906370a0823190602401602060405180830381865afa158015620007b7573d6000803e3d6000fd5b505050506040513d601f19601f82011682018060405250810190620007dd919062002281565b9050818110156200081a576040517ffc512fde00000000000000000000000000000000000000000000000000000000815260040160405180910390fd5b600480546040517fed8c2a250000000000000000000000000000000000000000000000000000000081526001600160a01b038781169382019390935289831660248201526044810185905291169063ed8c2a25906064016020604051808303816000875af115801562000891573d6000803e3d6000fd5b505050506040513d601f19601f82011682018060405250810190620008b79190620022de565b506040517f6eb78beb0000000000000000000000000000000000000000000000000000000081526001600160a01b03858116600483015260009190851690636eb78beb906024016020604051808303816000875af11580156200091e573d6000803e3d6000fd5b505050506040513d601f19601f8201168201806040525081019062000944919062002281565b9050866001600160a01b0316886001600160a01b03167f1e4e0bc720755ad50b7af8209717b1f6044596f0ef3f0bac4908cfe59d1104f38360016040516200098e929190620022fc565b60405180910390a39450505050505b92915050565b620009ad62001938565b620009b9600062001980565b565b60098181548110620009cc57600080fd5b6000918252602090912001546001600160a01b0316905081565b620009f062001938565b600560009054906101000a90046001600160a01b03166001600160a01b03166379ba50976040518163ffffffff1660e01b8152600401600060405180830381600087803b15801562000a4157600080fd5b505af115801562000a56573d6000803e3d6000fd5b50505050565b6007602052816000526040600020818154811062000a7957600080fd5b6000918252602090912001546001600160a01b03169150829050565b60008062000aa262001938565b6001600160a01b03848116600090815260066020526040902054161562000af5576040517fc333923c00000000000000000000000000000000000000000000000000000000815260040160405180910390fd5b6003546040517feacabe140000000000000000000000000000000000000000000000000000000081526000916001600160a01b03169063eacabe149062000b43908890889060040162002348565b6020604051808303816000875af115801562000b63573d6000803e3d6000fd5b505050506040513d601f19601f8201168201806040525081019062000b89919062002281565b60408051426020808301919091527fffffffffffffffffffffffffffffffffffffffff0000000000000000000000003360601b1682840152605480830185905283518084039091018152607490920190925280519101209091506000906001546002546003546040517f8a54c52f0000000000000000000000000000000000000000000000000000000081526001600160a01b03928316600482015260248101859052466044820152908216606482015260848101869052929350600092911690638a54c52f9060a4016020604051808303816000875af115801562000c73573d6000803e3d6000fd5b505050506040513d601f19601f8201168201806040525081019062000c9991906200236c565b6001546002546003546040517f246a00210000000000000000000000000000000000000000000000000000000081526001600160a01b0392831660048201526024810187905246604482015290821660648201526084810187905292935060009291169063246a00219060a401602060405180830381865afa15801562000d24573d6000803e3d6000fd5b505050506040513d601f19601f8201168201806040525081019062000d4a91906200236c565b9050806001600160a01b0316826001600160a01b03161462000dcd576040517f08c379a000000000000000000000000000000000000000000000000000000000815260206004820152601760248201527f4163636f756e74206372656174696f6e206661696c656400000000000000000060448201526064015b60405180910390fd5b6001600160a01b03888116600090815260066020526040902080547fffffffffffffffffffffffff00000000000000000000000000000000000000001691841691909117905562000e21826103e8620019e8565b816001600160a01b0316886001600160a01b03167f99846f4a13095aea1fa388bfc0280cce1bba671fd6788b108d637ce604b6faaf8660405162000e6791815260200190565b60405180910390a3509196919550909350505050565b6005546040517f9d866985000000000000000000000000000000000000000000000000000000008152600481018390526000916060918291829185916001600160a01b031690639d86698590602401600060405180830381865afa15801562000eea573d6000803e3d6000fd5b505050506040513d6000823e601f3d9081017fffffffffffffffffffffffffffffffffffffffffffffffffffffffffffffffe016820160405262000f329190810190620023d8565b939a9299509097509550909350915050565b6040517f372c12b10000000000000000000000000000000000000000000000000000000081526001600160a01b038281166004830152600091849182169063372c12b1906024015b602060405180830381865afa15801562000faa573d6000803e3d6000fd5b505050506040513d601f19601f8201168201806040525081019062000fd09190620022de565b949350505050565b6001600160a01b0381166000908152600760209081526040918290208054835181840281018401909452808452606093928301828280156200104457602002820191906000526020600020905b81546001600160a01b0316815260019091019060200180831162001025575b50505050509050919050565b60006200105c62001938565b6200106a866101f462001c08565b6000600460009054906101000a90046001600160a01b03168a8a8a8a8a8a8a8a604051620010989062001d40565b620010ac9998979695949392919062002487565b604051809103906000f080158015620010c9573d6000803e3d6000fd5b506001600160a01b03811660008181526008602052604080822080547fffffffffffffffffffffffffffffffffffffffffffffffffffffffffffffff001660019081179091556009805491820181559092527f6e1540171b6c0c960b71a7020d9f60077f6af931a8bbf590da0223dacf75c7af90910180547fffffffffffffffffffffffff000000000000000000000000000000000000000016831790555191925082913091907fb68a2626e56537ae86f86105124fefc066702f3e0b088ab131b4432afdc60dc590620011ad908f908f908f908f908f908f908f908f9062002506565b60405180910390a39a9950505050505050505050565b6001600160a01b03811660009081526008602052604081205460ff1662001216576040517f3151c82a00000000000000000000000000000000000000000000000000000000815260040160405180910390fd5b33806200124f576040517fe6c4247b00000000000000000000000000000000000000000000000000000000815260040160405180910390fd5b6001600160a01b038082166000908152600660205260409020541680620012a2576040517fe6c4247b00000000000000000000000000000000000000000000000000000000815260040160405180910390fd5b60008490506000816001600160a01b03166311ddc2366040518163ffffffff1660e01b8152600401602060405180830381865afa158015620012e8573d6000803e3d6000fd5b505050506040513d601f19601f820116820180604052508101906200130e919062002281565b90508034146200134a576040517ffc512fde00000000000000000000000000000000000000000000000000000000815260040160405180910390fd5b6040517fc2b92c570000000000000000000000000000000000000000000000000000000081526001600160a01b0384811660048301526000919084169063c2b92c5790849060240160206040518083038185885af1158015620013b1573d6000803e3d6000fd5b50505050506040513d601f19601f82011682018060405250810190620013d8919062002281565b9050620013e8846103e8620019e8565b336001600160a01b0316876001600160a01b03167f1e4e0bc720755ad50b7af8209717b1f6044596f0ef3f0bac4908cfe59d1104f383600060405162001430929190620022fc565b60405180910390a39695505050505050565b60008060008060008060008790506000816001600160a01b031663a63234e06040518163ffffffff1660e01b8152600401602060405180830381865afa15801562001491573d6000803e3d6000fd5b505050506040513d601f19601f82011682018060405250810190620014b791906200236c565b90506000826001600160a01b031663b163d6526040518163ffffffff1660e01b8152600401602060405180830381865afa158015620014fa573d6000803e3d6000fd5b505050506040513d601f19601f8201168201806040525081019062001520919062002281565b90506000836001600160a01b03166311ddc2366040518163ffffffff1660e01b8152600401602060405180830381865afa15801562001563573d6000803e3d6000fd5b505050506040513d601f19601f8201168201806040525081019062001589919062002281565b90506000846001600160a01b03166380a3e2836040518163ffffffff1660e01b8152600401602060405180830381865afa158015620015cc573d6000803e3d6000fd5b505050506040513d601f19601f82011682018060405250810190620015f2919062002281565b90506000856001600160a01b031663cbe8b7b46040518163ffffffff1660e01b8152600401602060405180830381865afa15801562001635573d6000803e3d6000fd5b505050506040513d601f19601f820116820180604052508101906200165b919062002281565b90506000866001600160a01b0316631b0226736040518163ffffffff1660e01b8152600401602060405180830381865afa1580156200169e573d6000803e3d6000fd5b505050506040513d601f19601f82011682018060405250810190620016c4919062002281565b959e949d50929b5090995097509195509350505050565b620016e562001938565b6001600160a01b03821660009081526008602052604090205460ff1662001738576040517f3151c82a00000000000000000000000000000000000000000000000000000000815260040160405180910390fd5b6001600160a01b03811662001779576040517fe6c4247b00000000000000000000000000000000000000000000000000000000815260040160405180910390fd5b6040517fac1d06090000000000000000000000000000000000000000000000000000000081526001600160a01b0382811660048301526001602483015283919082169063ac1d060990604401600060405180830381600087803b158015620017e057600080fd5b505af1158015620017f5573d6000803e3d6000fd5b50505050505050565b600480546040517f70a082310000000000000000000000000000000000000000000000000000000081526001600160a01b0384811693820193909352600092909116906370a0823190602401602060405180830381865afa15801562001868573d6000803e3d6000fd5b505050506040513d601f19601f820116820180604052508101906200099d919062002281565b6200189862001938565b6001600160a01b038116620018dd576040517f1e4fbdf70000000000000000000000000000000000000000000000000000000081526000600482015260240162000dc4565b620018e88162001980565b50565b6040517fe2142fde0000000000000000000000000000000000000000000000000000000081526001600160a01b038381166004830152600091839182169063e2142fde9060240162000f8c565b6000546001600160a01b03163314620009b9576040517f118cdaa700000000000000000000000000000000000000000000000000000000815233600482015260240162000dc4565b600080546001600160a01b038381167fffffffffffffffffffffffff0000000000000000000000000000000000000000831681178455604051919092169283917f8be0079c531659141344cd1fd0a4f28419497f9722a3daafe3b4186f6b6457e09190a35050565b600480546040517f70a0823100000000000000000000000000000000000000000000000000000000815230928101929092526000916001600160a01b03909116906370a0823190602401602060405180830381865afa15801562001a50573d6000803e3d6000fd5b505050506040513d601f19601f8201168201806040525081019062001a76919062002281565b90508181101562001b2657600062001a8f82846200257d565b600480546040517f776a81c90000000000000000000000000000000000000000000000000000000081529293506001600160a01b03169163776a81c99162001add9185910190815260200190565b6020604051808303816000875af115801562001afd573d6000803e3d6000fd5b505050506040513d601f19601f8201168201806040525081019062001b239190620022de565b50505b600480546040517f422d054700000000000000000000000000000000000000000000000000000000815230928101929092526001600160a01b03858116602484015260448301859052169063422d0547906064016020604051808303816000875af115801562001b9a573d6000803e3d6000fd5b505050506040513d601f19601f8201168201806040525081019062001bc09190620022de565b50604080516001600160a01b0385168152602081018490527f395c411eb901f31b59d14e8279edd4fa68fbe920fad004145896160eaff413b4910160405180910390a1505050565b6001600160a01b03808316600090815260066020526040902054168062001c5b576040517fe6c4247b00000000000000000000000000000000000000000000000000000000815260040160405180910390fd5b600480546040517f422d05470000000000000000000000000000000000000000000000000000000081526001600160a01b03848116938201939093523060248201526044810185905291169063422d0547906064016020604051808303816000875af115801562001cd0573d6000803e3d6000fd5b505050506040513d601f19601f8201168201806040525081019062001cf69190620022de565b50826001600160a01b03167f59efabaa79c4e0cc241af94aaa1ee64d5230d63a8db41eb2b33342c69ba11cce8360405162001d3391815260200190565b60405180910390a2505050565b612ce680620025b983390190565b7f4e487b7100000000000000000000000000000000000000000000000000000000600052604160045260246000fd5b604051601f82017fffffffffffffffffffffffffffffffffffffffffffffffffffffffffffffffe016810167ffffffffffffffff8111828210171562001dc75762001dc762001d4e565b604052919050565b600067ffffffffffffffff82111562001dec5762001dec62001d4e565b50601f017fffffffffffffffffffffffffffffffffffffffffffffffffffffffffffffffe01660200190565b600062001e2f62001e298462001dcf565b62001d7d565b905082815283838301111562001e4457600080fd5b828260208301376000602084830101529392505050565b600082601f83011262001e6d57600080fd5b62001e7e8383356020850162001e18565b9392505050565b60008060006060848603121562001e9b57600080fd5b833567ffffffffffffffff8082111562001eb457600080fd5b818601915086601f83011262001ec957600080fd5b62001eda8783356020850162001e18565b9450602086013591508082111562001ef157600080fd5b62001eff8783880162001e5b565b9350604086013591508082111562001f1657600080fd5b5062001f258682870162001e5b565b9150509250925092565b6001600160a01b0381168114620018e857600080fd5b803562001f528162001f2f565b919050565b6000806040838503121562001f6b57600080fd5b823562001f788162001f2f565b9150602083013562001f8a8162001f2f565b809150509250929050565b60006020828403121562001fa857600080fd5b813562001e7e8162001f2f565b60006020828403121562001fc857600080fd5b5035919050565b6000806040838503121562001fe357600080fd5b823562001ff08162001f2f565b946020939093013593505050565b600080604083850312156200201257600080fd5b82356200201f8162001f2f565b9150602083013567ffffffffffffffff8111156200203c57600080fd5b6200204a8582860162001e5b565b9150509250929050565b60005b838110156200207157818101518382015260200162002057565b50506000910152565b600081518084526200209481602086016020860162002054565b601f017fffffffffffffffffffffffffffffffffffffffffffffffffffffffffffffffe0169290920160200192915050565b85815260a060208201526000620020e160a08301876200207a565b8281036040840152620020f581876200207a565b905082810360608401526200210b81866200207a565b91505082151560808301529695505050505050565b6020808252825182820181905260009190848201906040850190845b81811015620021635783516001600160a01b0316835292840192918401916001016200213c565b50909695505050505050565b600080600080600080600080610100898b0312156200218d57600080fd5b883567ffffffffffffffff80821115620021a657600080fd5b620021b48c838d0162001e5b565b995060208b0135915080821115620021cb57600080fd5b620021d98c838d0162001e5b565b985060408b0135915080821115620021f057600080fd5b50620021ff8b828c0162001e5b565b9650506200221060608a0162001f45565b979a969950949760808101359660a0820135965060c0820135955060e0909101359350915050565b6060815260006200224d60608301866200207a565b82810360208401526200226181866200207a565b905082810360408401526200227781856200207a565b9695505050505050565b6000602082840312156200229457600080fd5b5051919050565b604081526000620022b060408301856200207a565b8281036020840152620022c481856200207a565b95945050505050565b8051801515811462001f5257600080fd5b600060208284031215620022f157600080fd5b62001e7e82620022cd565b82815260408101600283106200233b577f4e487b7100000000000000000000000000000000000000000000000000000000600052602160045260246000fd5b8260208301529392505050565b6001600160a01b038316815260406020820152600062000fd060408301846200207a565b6000602082840312156200237f57600080fd5b815162001e7e8162001f2f565b600082601f8301126200239e57600080fd5b8151620023af62001e298262001dcf565b818152846020838601011115620023c557600080fd5b62000fd082602083016020870162002054565b600080600080600060a08688031215620023f157600080fd5b85519450602086015167ffffffffffffffff808211156200241157600080fd5b6200241f89838a016200238c565b955060408801519150808211156200243657600080fd5b6200244489838a016200238c565b945060608801519150808211156200245b57600080fd5b506200246a888289016200238c565b9250506200247b60808701620022cd565b90509295509295909350565b60006101206001600160a01b03808d168452816020850152620024ad8285018d6200207a565b91508382036040850152620024c3828c6200207a565b91508382036060850152620024d9828b6200207a565b98166080840152505060a081019490945260c084019290925260e083015261010090910152949350505050565b60006101008083526200251c8184018c6200207a565b9050828103602084015262002532818b6200207a565b9050828103604084015262002548818a6200207a565b6001600160a01b039890981660608401525050608081019490945260a084019290925260c083015260e0909101529392505050565b818103818111156200099d577f4e487b7100000000000000000000000000000000000000000000000000000000600052601160045260246000fdfe60806040523480156200001157600080fd5b5060405162002ce638038062002ce683398101604081905262000034916200030f565b878733806200005d57604051631e4fbdf760e01b81526000600482015260240160405180910390fd5b6200006881620001dd565b5060016200007783826200047d565b5060026200008682826200047d565b5050506001600160a01b038916620000b15760405163e6c4247b60e01b815260040160405180910390fd5b6001600160a01b038516620000d95760405163e6c4247b60e01b815260040160405180910390fd5b6001841015620000fb5760405162fab39f60e31b815260040160405180910390fd5b633b9aca0083101562000121576040516306f6808b60e01b815260040160405180910390fd5b600182101562000144576040516306f6808b60e01b815260040160405180910390fd5b620151808110156200016957604051636f736f7560e01b815260040160405180910390fd5b600880546001600160a01b03808c166001600160a01b031992831617909255600c869055600b805492881692909116919091179055600d839055600e829055600a620001b687826200047d565b5042600f819055620001ca90829062000549565b6010555062000571975050505050505050565b600080546001600160a01b038381166001600160a01b0319831681178455604051919092169283917f8be0079c531659141344cd1fd0a4f28419497f9722a3daafe3b4186f6b6457e09190a35050565b80516001600160a01b03811681146200024557600080fd5b919050565b634e487b7160e01b600052604160045260246000fd5b600082601f8301126200027257600080fd5b81516001600160401b03808211156200028f576200028f6200024a565b604051601f8301601f19908116603f01168101908282118183101715620002ba57620002ba6200024a565b81604052838152602092508683858801011115620002d757600080fd5b600091505b83821015620002fb5785820183015181830184015290820190620002dc565b600093810190920192909252949350505050565b60008060008060008060008060006101208a8c0312156200032f57600080fd5b6200033a8a6200022d565b60208b01519099506001600160401b03808211156200035857600080fd5b620003668d838e0162000260565b995060408c01519150808211156200037d57600080fd5b6200038b8d838e0162000260565b985060608c0151915080821115620003a257600080fd5b50620003b18c828d0162000260565b965050620003c260808b016200022d565b945060a08a0151935060c08a0151925060e08a015191506101008a015190509295985092959850929598565b600181811c908216806200040357607f821691505b6020821081036200042457634e487b7160e01b600052602260045260246000fd5b50919050565b601f8211156200047857600081815260208120601f850160051c81016020861015620004535750805b601f850160051c820191505b8181101562000474578281556001016200045f565b5050505b505050565b81516001600160401b038111156200049957620004996200024a565b620004b181620004aa8454620003ee565b846200042a565b602080601f831160018114620004e95760008415620004d05750858301515b600019600386901b1c1916600185901b17855562000474565b600085815260208120601f198616915b828110156200051a57888601518255948401946001909101908401620004f9565b5085821015620005395787850151600019600388901b60f8161c191681555b5050505050600190811b01905550565b808201808211156200056b57634e487b7160e01b600052601160045260246000fd5b92915050565b61276580620005816000396000f3fe6080604052600436106102345760003560e01c80638cea8e8f11610138578063b88d4fde116100b0578063c87b56dd1161007f578063e2142fde11610064578063e2142fde146105d6578063e985e9c514610606578063f2fde38b1461064f57600080fd5b8063c87b56dd146105a0578063cbe8b7b4146105c057600080fd5b8063b88d4fde14610542578063c2b92c5714610562578063c43c36db14610575578063c48dfcbb1461058a57600080fd5b8063a22cb46511610107578063ac1d0609116100ec578063ac1d0609146104f5578063ac9b2c3414610515578063b163d6521461052c57600080fd5b8063a22cb465146104b5578063a63234e0146104d557600080fd5b80638cea8e8f1461046a5780638da5cb5b1461048257806395d89b41146104a0578063a0c40d361461029057600080fd5b8063372c12b1116101cb5780636eb78beb1161019a578063715018a61161017f578063715018a61461042957806380a3e2831461043e57806386c7a8951461045457600080fd5b80636eb78beb146103e957806370a082311461040957600080fd5b8063372c12b11461035957806342842e0e146103895780636352211e146103a9578063679ebf1a146103c957600080fd5b8063095ea7b311610207578063095ea7b3146102eb57806311ddc2361461030d5780631b0226731461032357806323b872dd1461033957600080fd5b806301ffc9a71461023957806306fdde031461026e57806307960e7e14610290578063081812fc146102b3575b600080fd5b34801561024557600080fd5b506102596102543660046120a5565b61066f565b60405190151581526020015b60405180910390f35b34801561027a57600080fd5b506102836106cb565b6040516102659190612130565b34801561029c57600080fd5b506102a5600181565b604051908152602001610265565b3480156102bf57600080fd5b506102d36102ce366004612143565b61075d565b6040516001600160a01b039091168152602001610265565b3480156102f757600080fd5b5061030b610306366004612173565b610786565b005b34801561031957600080fd5b506102a5600d5481565b34801561032f57600080fd5b506102a560105481565b34801561034557600080fd5b5061030b61035436600461219d565b610795565b34801561036557600080fd5b506102596103743660046121d9565b60136020526000908152604090205460ff1681565b34801561039557600080fd5b5061030b6103a436600461219d565b610857565b3480156103b557600080fd5b506102d36103c4366004612143565b610877565b3480156103d557600080fd5b5061030b6103e43660046121f4565b610882565b3480156103f557600080fd5b506102a56104043660046121d9565b61095c565b34801561041557600080fd5b506102a56104243660046121d9565b610b55565b34801561043557600080fd5b5061030b610bb6565b34801561044a57600080fd5b506102a5600e5481565b34801561046057600080fd5b506102a560125481565b34801561047657600080fd5b506102a5633b9aca0081565b34801561048e57600080fd5b506000546001600160a01b03166102d3565b3480156104ac57600080fd5b50610283610bca565b3480156104c157600080fd5b5061030b6104d036600461222e565b610bd9565b3480156104e157600080fd5b50600b546102d3906001600160a01b031681565b34801561050157600080fd5b5061030b61051036600461222e565b610be4565b34801561052157600080fd5b506102a56201518081565b34801561053857600080fd5b506102a5600c5481565b34801561054e57600080fd5b5061030b61055d366004612294565b610caa565b6102a56105703660046121d9565b610cc1565b34801561058157600080fd5b5061030b610eeb565b34801561059657600080fd5b506102a560115481565b3480156105ac57600080fd5b506102836105bb366004612143565b6110a1565b3480156105cc57600080fd5b506102a5600f5481565b3480156105e257600080fd5b506102596105f13660046121d9565b60146020526000908152604090205460ff1681565b34801561061257600080fd5b5061025961062136600461238e565b6001600160a01b03918216600090815260066020908152604080832093909416825291909152205460ff1690565b34801561065b57600080fd5b5061030b61066a3660046121d9565b6111b2565b60007fffffffff0000000000000000000000000000000000000000000000000000000082167f490649060000000000000000000000000000000000000000000000000000000014806106c557506106c582611209565b92915050565b6060600180546106da906123b8565b80601f0160208091040260200160405190810160405280929190818152602001828054610706906123b8565b80156107535780601f1061072857610100808354040283529160200191610753565b820191906000526020600020905b81548152906001019060200180831161073657829003601f168201915b5050505050905090565b6000610768826112ec565b506000828152600560205260409020546001600160a01b03166106c5565b61079182823361133e565b5050565b6001600160a01b0382166107dd576040517f64a0ae92000000000000000000000000000000000000000000000000000000008152600060048201526024015b60405180910390fd5b60006107ea83833361134b565b9050836001600160a01b0316816001600160a01b031614610851576040517f64283d7b0000000000000000000000000000000000000000000000000000000081526001600160a01b03808616600483015260248201849052821660448201526064016107d4565b50505050565b61087283838360405180602001604052806000815250610caa565b505050565b60006106c5826112ec565b6001600160a01b0381166108c2576040517fe6c4247b00000000000000000000000000000000000000000000000000000000815260040160405180910390fd5b336108cc83610877565b6001600160a01b031614610915576040517fabd28577000000000000000000000000000000000000000000000000000000008152600481018390523360248201526044016107d4565b610920338284610857565b6040516001600160a01b03821690339084907fd15524263ae66f75c1e604c47db6085085110f23ef7322b355179ac5e3b0783a90600090a45050565b600061096661147a565b600c546000036109a2576040517f1281480200000000000000000000000000000000000000000000000000000000815260040160405180910390fd5b60105442106109dd576040517f28d09ec100000000000000000000000000000000000000000000000000000000815260040160405180910390fd5b6001600160a01b038216610a1d576040517fe6c4247b00000000000000000000000000000000000000000000000000000000815260040160405180910390fd5b6001600160a01b03821660009081526014602052604090205460ff1615610a7b576040517f66c1a1440000000000000000000000000000000000000000000000000000000081526001600160a01b03831660048201526024016107d4565b610a84826114c0565b6001600160a01b038216600090815260146020526040812080547fffffffffffffffffffffffffffffffffffffffffffffffffffffffffffffff00166001908117909155600c805491929091610adb90849061243a565b9091555050600e5460128054600090610af590849061244d565b9091555060009050610b0883600a61174b565b905080836001600160a01b03167f64c70245ecf357faebc70330126993aeb69711984c09059595df6399dd510857600a604051610b459190612460565b60405180910390a390505b919050565b60006001600160a01b038216610b9a576040517f89c62b64000000000000000000000000000000000000000000000000000000008152600060048201526024016107d4565b506001600160a01b031660009081526004602052604090205490565b610bbe61147a565b610bc8600061180c565b565b6060600280546106da906123b8565b610791338383611874565b610bec61147a565b6001600160a01b038216610c2c576040517fe6c4247b00000000000000000000000000000000000000000000000000000000815260040160405180910390fd5b6001600160a01b03821660008181526013602090815260409182902080547fffffffffffffffffffffffffffffffffffffffffffffffffffffffffffffff001685151590811790915591519182527fb1288e9f7bae3599e10819d5553febea48e11a6f8f585b32c8abad397dd2627e91015b60405180910390a25050565b610cb5848484610795565b6108518484848461194a565b6000610ccb61147a565b600c54600003610d07576040517f1281480200000000000000000000000000000000000000000000000000000000815260040160405180910390fd5b6010544210610d42576040517f28d09ec100000000000000000000000000000000000000000000000000000000815260040160405180910390fd5b6001600160a01b038216610d82576040517fe6c4247b00000000000000000000000000000000000000000000000000000000815260040160405180910390fd5b6001600160a01b03821660009081526013602052604090205460ff16610ddf576040517fb4535f360000000000000000000000000000000000000000000000000000000081526001600160a01b03831660048201526024016107d4565b6001600160a01b03821660009081526014602052604090205460ff1615610e3d576040517f66c1a1440000000000000000000000000000000000000000000000000000000081526001600160a01b03831660048201526024016107d4565b600d543414610e7a576040517f296d36e80000000000000000000000000000000000000000000000000000000081523460048201526024016107d4565b6001600160a01b038216600090815260146020526040812080547fffffffffffffffffffffffffffffffffffffffffffffffffffffffffffffff00166001908117909155600c805491929091610ed190849061243a565b9091555050600d5460118054600090610af590849061244d565b601054421015610f27576040517f21539dff00000000000000000000000000000000000000000000000000000000815260040160405180910390fd5b6011548015610f985760006011819055600b546040516001600160a01b039091169083908381818185875af1925050503d8060008114610f83576040519150601f19603f3d011682016040523d82523d6000602084013e610f88565b606091505b5050905080610f9657600080fd5b505b60125480156110485760006012819055600854600b546040517fa9059cbb0000000000000000000000000000000000000000000000000000000081526001600160a01b0391821660048201526024810185905291169063a9059cbb906044016020604051808303816000875af1158015611016573d6000803e3d6000fd5b505050506040513d601f19601f8201168201806040525081019061103a9190612509565b90508061104657600080fd5b505b60008211806110575750600081115b1561079157600b5460408051848152602081018490526001600160a01b03909216917f7aad6f98d5cb1c7d292c4cc72de936265c595b1317165c9c45b46bd2a2c5fe9f9101610c9e565b60606110ac826112ec565b50600082815260076020526040812080546110c6906123b8565b80601f01602080910402602001604051908101604052809291908181526020018280546110f2906123b8565b801561113f5780601f106111145761010080835404028352916020019161113f565b820191906000526020600020905b81548152906001019060200180831161112257829003601f168201915b50505050509050600061115d60408051602081019091526000815290565b9050805160000361116f575092915050565b8151156111a1578082604051602001611189929190612526565b60405160208183030381529060405292505050919050565b6111aa84611b0d565b949350505050565b6111ba61147a565b6001600160a01b0381166111fd576040517f1e4fbdf7000000000000000000000000000000000000000000000000000000008152600060048201526024016107d4565b6112068161180c565b50565b60007fffffffff0000000000000000000000000000000000000000000000000000000082167f80ac58cd00000000000000000000000000000000000000000000000000000000148061129c57507fffffffff0000000000000000000000000000000000000000000000000000000082167f5b5e139f00000000000000000000000000000000000000000000000000000000145b806106c557507f01ffc9a7000000000000000000000000000000000000000000000000000000007fffffffff000000000000000000000000000000000000000000000000000000008316146106c5565b6000818152600360205260408120546001600160a01b0316806106c5576040517f7e273289000000000000000000000000000000000000000000000000000000008152600481018490526024016107d4565b6108728383836001611b81565b6000828152600360205260408120546001600160a01b039081169083161561137857611378818486611cd7565b6001600160a01b038116156113d457611395600085600080611b81565b6001600160a01b038116600090815260046020526040902080547fffffffffffffffffffffffffffffffffffffffffffffffffffffffffffffffff0190555b6001600160a01b03851615611403576001600160a01b0385166000908152600460205260409020805460010190555b60008481526003602052604080822080547fffffffffffffffffffffffff0000000000000000000000000000000000000000166001600160a01b0389811691821790925591518793918516917fddf252ad1be2c89b69c2b068fc378daa952ba7f163c4a11628f55a4df523b3ef91a4949350505050565b6000546001600160a01b03163314610bc8576040517f118cdaa70000000000000000000000000000000000000000000000000000000081523360048201526024016107d4565b6008546040517f70a082310000000000000000000000000000000000000000000000000000000081526001600160a01b03838116600483015260009216906370a0823190602401602060405180830381865afa158015611524573d6000803e3d6000fd5b505050506040513d601f19601f820116820180604052508101906115489190612555565b9050600e54811015611589576040517f1bc3a582000000000000000000000000000000000000000000000000000000008152600481018290526024016107d4565b6008546040517fdd62ed3e0000000000000000000000000000000000000000000000000000000081526001600160a01b038481166004830152306024830152600092169063dd62ed3e90604401602060405180830381865afa1580156115f3573d6000803e3d6000fd5b505050506040513d601f19601f820116820180604052508101906116179190612555565b9050600e54811015611658576040517f8ef24d4d000000000000000000000000000000000000000000000000000000008152600481018290526024016107d4565b600854600e546040517f23b872dd0000000000000000000000000000000000000000000000000000000081526001600160a01b038681166004830152306024830152604482019290925260009291909116906323b872dd906064016020604051808303816000875af11580156116d2573d6000803e3d6000fd5b505050506040513d601f19601f820116820180604052508101906116f69190612509565b90508061085157600e546040517fbf182be80000000000000000000000000000000000000000000000000000000081526001600160a01b038616600482015230602482015260448101919091526064016107d4565b6000600160096000828254611760919061244d565b90915550506009546117728482611d6d565b61180581848054611782906123b8565b80601f01602080910402602001604051908101604052809291908181526020018280546117ae906123b8565b80156117fb5780601f106117d0576101008083540402835291602001916117fb565b820191906000526020600020905b8154815290600101906020018083116117de57829003601f168201915b5050505050611e04565b9392505050565b600080546001600160a01b038381167fffffffffffffffffffffffff0000000000000000000000000000000000000000831681178455604051919092169283917f8be0079c531659141344cd1fd0a4f28419497f9722a3daafe3b4186f6b6457e09190a35050565b6001600160a01b0382166118bf576040517f5b08ba180000000000000000000000000000000000000000000000000000000081526001600160a01b03831660048201526024016107d4565b6001600160a01b0383811660008181526006602090815260408083209487168084529482529182902080547fffffffffffffffffffffffffffffffffffffffffffffffffffffffffffffff001686151590811790915591519182527f17307eab39ab6107e8899845ad3d59bd9653f200f220920489ca2b5937696c31910160405180910390a3505050565b6001600160a01b0383163b15610851576040517f150b7a020000000000000000000000000000000000000000000000000000000081526001600160a01b0384169063150b7a02906119a590339088908790879060040161256e565b6020604051808303816000875af19250505080156119fe575060408051601f3d9081017fffffffffffffffffffffffffffffffffffffffffffffffffffffffffffffffe01682019092526119fb918101906125aa565b60015b611a80573d808015611a2c576040519150601f19603f3d011682016040523d82523d6000602084013e611a31565b606091505b508051600003611a78576040517f64a0ae920000000000000000000000000000000000000000000000000000000081526001600160a01b03851660048201526024016107d4565b805181602001fd5b7fffffffff0000000000000000000000000000000000000000000000000000000081167f150b7a020000000000000000000000000000000000000000000000000000000014611b06576040517f64a0ae920000000000000000000000000000000000000000000000000000000081526001600160a01b03851660048201526024016107d4565b5050505050565b6060611b18826112ec565b506000611b3060408051602081019091526000815290565b90506000815111611b505760405180602001604052806000815250611805565b80611b5a84611e54565b604051602001611b6b929190612526565b6040516020818303038152906040529392505050565b8080611b9557506001600160a01b03821615155b15611c8f576000611ba5846112ec565b90506001600160a01b03831615801590611bd15750826001600160a01b0316816001600160a01b031614155b8015611c0357506001600160a01b0380821660009081526006602090815260408083209387168352929052205460ff16155b15611c45576040517fa9fbf51f0000000000000000000000000000000000000000000000000000000081526001600160a01b03841660048201526024016107d4565b8115611c8d5783856001600160a01b0316826001600160a01b03167f8c5be1e5ebec7d5bd14f71427d1e84f3dd0314c0f7b2291e5b200ac8c7c3b92560405160405180910390a45b505b5050600090815260056020526040902080547fffffffffffffffffffffffff0000000000000000000000000000000000000000166001600160a01b0392909216919091179055565b611ce2838383611f12565b610872576001600160a01b038316611d29576040517f7e273289000000000000000000000000000000000000000000000000000000008152600481018290526024016107d4565b6040517f177e802f0000000000000000000000000000000000000000000000000000000081526001600160a01b0383166004820152602481018290526044016107d4565b6001600160a01b038216611db0576040517f64a0ae92000000000000000000000000000000000000000000000000000000008152600060048201526024016107d4565b6000611dbe8383600061134b565b90506001600160a01b03811615610872576040517f73c6ac6e000000000000000000000000000000000000000000000000000000008152600060048201526024016107d4565b6000828152600760205260409020611e1c8282612615565b506040518281527ff8e1a15aba9398e019f0b49df1a4fde98ee17ae345cb5f6b5e2c27f5033e8ce79060200160405180910390a15050565b60606000611e6183611f95565b600101905060008167ffffffffffffffff811115611e8157611e81612265565b6040519080825280601f01601f191660200182016040528015611eab576020820181803683370190505b5090508181016020015b7fffffffffffffffffffffffffffffffffffffffffffffffffffffffffffffffff017f3031323334353637383961626364656600000000000000000000000000000000600a86061a8153600a8504945084611eb557509392505050565b60006001600160a01b038316158015906111aa5750826001600160a01b0316846001600160a01b03161480611f6c57506001600160a01b0380851660009081526006602090815260408083209387168352929052205460ff165b806111aa5750506000908152600560205260409020546001600160a01b03908116911614919050565b6000807a184f03e93ff9f4daa797ed6e38ed64bf6a1f0100000000000000008310611fde577a184f03e93ff9f4daa797ed6e38ed64bf6a1f010000000000000000830492506040015b6d04ee2d6d415b85acef8100000000831061200a576d04ee2d6d415b85acef8100000000830492506020015b662386f26fc10000831061202857662386f26fc10000830492506010015b6305f5e1008310612040576305f5e100830492506008015b612710831061205457612710830492506004015b60648310612066576064830492506002015b600a83106106c55760010192915050565b7fffffffff000000000000000000000000000000000000000000000000000000008116811461120657600080fd5b6000602082840312156120b757600080fd5b813561180581612077565b60005b838110156120dd5781810151838201526020016120c5565b50506000910152565b600081518084526120fe8160208601602086016120c2565b601f017fffffffffffffffffffffffffffffffffffffffffffffffffffffffffffffffe0169290920160200192915050565b60208152600061180560208301846120e6565b60006020828403121561215557600080fd5b5035919050565b80356001600160a01b0381168114610b5057600080fd5b6000806040838503121561218657600080fd5b61218f8361215c565b946020939093013593505050565b6000806000606084860312156121b257600080fd5b6121bb8461215c565b92506121c96020850161215c565b9150604084013590509250925092565b6000602082840312156121eb57600080fd5b6118058261215c565b6000806040838503121561220757600080fd5b823591506122176020840161215c565b90509250929050565b801515811461120657600080fd5b6000806040838503121561224157600080fd5b61224a8361215c565b9150602083013561225a81612220565b809150509250929050565b7f4e487b7100000000000000000000000000000000000000000000000000000000600052604160045260246000fd5b600080600080608085870312156122aa57600080fd5b6122b38561215c565b93506122c16020860161215c565b925060408501359150606085013567ffffffffffffffff808211156122e557600080fd5b818701915087601f8301126122f957600080fd5b81358181111561230b5761230b612265565b604051601f82017fffffffffffffffffffffffffffffffffffffffffffffffffffffffffffffffe0908116603f0116810190838211818310171561235157612351612265565b816040528281528a602084870101111561236a57600080fd5b82602086016020830137600060208483010152809550505050505092959194509250565b600080604083850312156123a157600080fd5b6123aa8361215c565b91506122176020840161215c565b600181811c908216806123cc57607f821691505b602082108103612405577f4e487b7100000000000000000000000000000000000000000000000000000000600052602260045260246000fd5b50919050565b7f4e487b7100000000000000000000000000000000000000000000000000000000600052601160045260246000fd5b818103818111156106c5576106c561240b565b808201808211156106c5576106c561240b565b6000602080835260008454612474816123b8565b8084870152604060018084166000811461249557600181146124cd576124fb565b7fffffffffffffffffffffffffffffffffffffffffffffffffffffffffffffff008516838a01528284151560051b8a010195506124fb565b896000528660002060005b858110156124f35781548b82018601529083019088016124d8565b8a0184019650505b509398975050505050505050565b60006020828403121561251b57600080fd5b815161180581612220565b600083516125388184602088016120c2565b83519083019061254c8183602088016120c2565b01949350505050565b60006020828403121561256757600080fd5b5051919050565b60006001600160a01b038087168352808616602084015250836040830152608060608301526125a060808301846120e6565b9695505050505050565b6000602082840312156125bc57600080fd5b815161180581612077565b601f82111561087257600081815260208120601f850160051c810160208610156125ee5750805b601f850160051c820191505b8181101561260d578281556001016125fa565b505050505050565b815167ffffffffffffffff81111561262f5761262f612265565b6126438161263d84546123b8565b846125c7565b602080601f83116001811461269657600084156126605750858301515b7fffffffffffffffffffffffffffffffffffffffffffffffffffffffffffffffff600386901b1c1916600185901b17855561260d565b6000858152602081207fffffffffffffffffffffffffffffffffffffffffffffffffffffffffffffffe08616915b828110156126e3578886015182559484019460019091019084016126c4565b508582101561271f57878501517fffffffffffffffffffffffffffffffffffffffffffffffffffffffffffffffff600388901b60f8161c191681555b5050505050600190811b0190555056fea26469706673582212202a1d32aa6dbaf17bc15e333d3e06a6e2251737113f6c0d76b53a42babab0016164736f6c63430008140033a2646970667358221220c20ec8ae9fbcf2ecc0a6a08a0a18a92c140900560cac272e9aafb44f99b3dc6b64736f6c6343000814003360806040523480156200001157600080fd5b50336040518060400160405280600f81526020016e12195c9bc8151a58dad95d08139195608a1b81525060405180604001604052806003815260200162242a2760e91b8152508160009081620000689190620001b2565b506001620000778282620001b2565b5050506001600160a01b038116620000a957604051631e4fbdf760e01b81526000600482015260240160405180910390fd5b620000b481620000bb565b506200027e565b600780546001600160a01b038381166001600160a01b0319831681179093556040519116919082907f8be0079c531659141344cd1fd0a4f28419497f9722a3daafe3b4186f6b6457e090600090a35050565b634e487b7160e01b600052604160045260246000fd5b600181811c908216806200013857607f821691505b6020821081036200015957634e487b7160e01b600052602260045260246000fd5b50919050565b601f821115620001ad57600081815260208120601f850160051c81016020861015620001885750805b601f850160051c820191505b81811015620001a95782815560010162000194565b5050505b505050565b81516001600160401b03811115620001ce57620001ce6200010d565b620001e681620001df845462000123565b846200015f565b602080601f8311600181146200021e5760008415620002055750858301515b600019600386901b1c1916600185901b178555620001a9565b600085815260208120601f198616915b828110156200024f578886015182559484019460019091019084016200022e565b50858210156200026e5787850151600019600388901b60f8161c191681555b5050505050600190811b01905550565b611875806200028e6000396000f3fe608060405234801561001057600080fd5b506004361061011b5760003560e01c8063715018a6116100b2578063b88d4fde11610081578063e985e9c511610066578063e985e9c514610251578063eacabe141461028d578063f2fde38b146102a057600080fd5b8063b88d4fde1461022b578063c87b56dd1461023e57600080fd5b8063715018a6146101f75780638da5cb5b146101ff57806395d89b4114610210578063a22cb4651461021857600080fd5b806323b872dd116100ee57806323b872dd1461019d57806342842e0e146101b05780636352211e146101c357806370a08231146101d657600080fd5b806301ffc9a71461012057806306fdde0314610148578063081812fc1461015d578063095ea7b314610188575b600080fd5b61013361012e36600461125e565b6102b3565b60405190151581526020015b60405180910390f35b61015061030f565b60405161013f91906112e9565b61017061016b3660046112fc565b6103a1565b6040516001600160a01b03909116815260200161013f565b61019b610196366004611331565b6103ca565b005b61019b6101ab36600461135b565b6103d9565b61019b6101be36600461135b565b61049b565b6101706101d13660046112fc565b6104bb565b6101e96101e4366004611397565b6104c6565b60405190815260200161013f565b61019b610527565b6007546001600160a01b0316610170565b61015061053b565b61019b6102263660046113b2565b61054a565b61019b6102393660046114b1565b610555565b61015061024c3660046112fc565b61056c565b61013361025f36600461152d565b6001600160a01b03918216600090815260056020908152604080832093909416825291909152205460ff1690565b6101e961029b366004611560565b61067d565b61019b6102ae366004611397565b6106b5565b60007fffffffff0000000000000000000000000000000000000000000000000000000082167f4906490600000000000000000000000000000000000000000000000000000000148061030957506103098261070c565b92915050565b60606000805461031e906115c2565b80601f016020809104026020016040519081016040528092919081815260200182805461034a906115c2565b80156103975780601f1061036c57610100808354040283529160200191610397565b820191906000526020600020905b81548152906001019060200180831161037a57829003601f168201915b5050505050905090565b60006103ac826107ef565b506000828152600460205260409020546001600160a01b0316610309565b6103d5828233610841565b5050565b6001600160a01b038216610421576040517f64a0ae92000000000000000000000000000000000000000000000000000000008152600060048201526024015b60405180910390fd5b600061042e83833361084e565b9050836001600160a01b0316816001600160a01b031614610495576040517f64283d7b0000000000000000000000000000000000000000000000000000000081526001600160a01b0380861660048301526024820184905282166044820152606401610418565b50505050565b6104b683838360405180602001604052806000815250610555565b505050565b6000610309826107ef565b60006001600160a01b03821661050b576040517f89c62b6400000000000000000000000000000000000000000000000000000000815260006004820152602401610418565b506001600160a01b031660009081526003602052604090205490565b61052f61097d565b61053960006109c3565b565b60606001805461031e906115c2565b6103d5338383610a2d565b6105608484846103d9565b61049584848484610b03565b6060610577826107ef565b5060008281526006602052604081208054610591906115c2565b80601f01602080910402602001604051908101604052809291908181526020018280546105bd906115c2565b801561060a5780601f106105df5761010080835404028352916020019161060a565b820191906000526020600020905b8154815290600101906020018083116105ed57829003601f168201915b50505050509050600061062860408051602081019091526000815290565b9050805160000361063a575092915050565b81511561066c578082604051602001610654929190611615565b60405160208183030381529060405292505050919050565b61067584610cc6565b949350505050565b600061068761097d565b600854610695906001611644565b60088190556106a48482610d3a565b6106ae8184610dd1565b9392505050565b6106bd61097d565b6001600160a01b038116610700576040517f1e4fbdf700000000000000000000000000000000000000000000000000000000815260006004820152602401610418565b610709816109c3565b50565b60007fffffffff0000000000000000000000000000000000000000000000000000000082167f80ac58cd00000000000000000000000000000000000000000000000000000000148061079f57507fffffffff0000000000000000000000000000000000000000000000000000000082167f5b5e139f00000000000000000000000000000000000000000000000000000000145b8061030957507f01ffc9a7000000000000000000000000000000000000000000000000000000007fffffffff00000000000000000000000000000000000000000000000000000000831614610309565b6000818152600260205260408120546001600160a01b031680610309576040517f7e27328900000000000000000000000000000000000000000000000000000000815260048101849052602401610418565b6104b68383836001610e21565b6000828152600260205260408120546001600160a01b039081169083161561087b5761087b818486610f77565b6001600160a01b038116156108d757610898600085600080610e21565b6001600160a01b038116600090815260036020526040902080547fffffffffffffffffffffffffffffffffffffffffffffffffffffffffffffffff0190555b6001600160a01b03851615610906576001600160a01b0385166000908152600360205260409020805460010190555b60008481526002602052604080822080547fffffffffffffffffffffffff0000000000000000000000000000000000000000166001600160a01b0389811691821790925591518793918516917fddf252ad1be2c89b69c2b068fc378daa952ba7f163c4a11628f55a4df523b3ef91a4949350505050565b6007546001600160a01b03163314610539576040517f118cdaa7000000000000000000000000000000000000000000000000000000008152336004820152602401610418565b600780546001600160a01b038381167fffffffffffffffffffffffff0000000000000000000000000000000000000000831681179093556040519116919082907f8be0079c531659141344cd1fd0a4f28419497f9722a3daafe3b4186f6b6457e090600090a35050565b6001600160a01b038216610a78576040517f5b08ba180000000000000000000000000000000000000000000000000000000081526001600160a01b0383166004820152602401610418565b6001600160a01b0383811660008181526005602090815260408083209487168084529482529182902080547fffffffffffffffffffffffffffffffffffffffffffffffffffffffffffffff001686151590811790915591519182527f17307eab39ab6107e8899845ad3d59bd9653f200f220920489ca2b5937696c31910160405180910390a3505050565b6001600160a01b0383163b15610495576040517f150b7a020000000000000000000000000000000000000000000000000000000081526001600160a01b0384169063150b7a0290610b5e90339088908790879060040161167e565b6020604051808303816000875af1925050508015610bb7575060408051601f3d9081017fffffffffffffffffffffffffffffffffffffffffffffffffffffffffffffffe0168201909252610bb4918101906116ba565b60015b610c39573d808015610be5576040519150601f19603f3d011682016040523d82523d6000602084013e610bea565b606091505b508051600003610c31576040517f64a0ae920000000000000000000000000000000000000000000000000000000081526001600160a01b0385166004820152602401610418565b805181602001fd5b7fffffffff0000000000000000000000000000000000000000000000000000000081167f150b7a020000000000000000000000000000000000000000000000000000000014610cbf576040517f64a0ae920000000000000000000000000000000000000000000000000000000081526001600160a01b0385166004820152602401610418565b5050505050565b6060610cd1826107ef565b506000610ce960408051602081019091526000815290565b90506000815111610d0957604051806020016040528060008152506106ae565b80610d138461100d565b604051602001610d24929190611615565b6040516020818303038152906040529392505050565b6001600160a01b038216610d7d576040517f64a0ae9200000000000000000000000000000000000000000000000000000000815260006004820152602401610418565b6000610d8b8383600061084e565b90506001600160a01b038116156104b6576040517f73c6ac6e00000000000000000000000000000000000000000000000000000000815260006004820152602401610418565b6000828152600660205260409020610de98282611725565b506040518281527ff8e1a15aba9398e019f0b49df1a4fde98ee17ae345cb5f6b5e2c27f5033e8ce79060200160405180910390a15050565b8080610e3557506001600160a01b03821615155b15610f2f576000610e45846107ef565b90506001600160a01b03831615801590610e715750826001600160a01b0316816001600160a01b031614155b8015610ea357506001600160a01b0380821660009081526005602090815260408083209387168352929052205460ff16155b15610ee5576040517fa9fbf51f0000000000000000000000000000000000000000000000000000000081526001600160a01b0384166004820152602401610418565b8115610f2d5783856001600160a01b0316826001600160a01b03167f8c5be1e5ebec7d5bd14f71427d1e84f3dd0314c0f7b2291e5b200ac8c7c3b92560405160405180910390a45b505b5050600090815260046020526040902080547fffffffffffffffffffffffff0000000000000000000000000000000000000000166001600160a01b0392909216919091179055565b610f828383836110cb565b6104b6576001600160a01b038316610fc9576040517f7e27328900000000000000000000000000000000000000000000000000000000815260048101829052602401610418565b6040517f177e802f0000000000000000000000000000000000000000000000000000000081526001600160a01b038316600482015260248101829052604401610418565b6060600061101a8361114e565b600101905060008167ffffffffffffffff81111561103a5761103a6113ee565b6040519080825280601f01601f191660200182016040528015611064576020820181803683370190505b5090508181016020015b7fffffffffffffffffffffffffffffffffffffffffffffffffffffffffffffffff017f3031323334353637383961626364656600000000000000000000000000000000600a86061a8153600a850494508461106e57509392505050565b60006001600160a01b038316158015906106755750826001600160a01b0316846001600160a01b0316148061112557506001600160a01b0380851660009081526005602090815260408083209387168352929052205460ff165b806106755750506000908152600460205260409020546001600160a01b03908116911614919050565b6000807a184f03e93ff9f4daa797ed6e38ed64bf6a1f0100000000000000008310611197577a184f03e93ff9f4daa797ed6e38ed64bf6a1f010000000000000000830492506040015b6d04ee2d6d415b85acef810000000083106111c3576d04ee2d6d415b85acef8100000000830492506020015b662386f26fc1000083106111e157662386f26fc10000830492506010015b6305f5e10083106111f9576305f5e100830492506008015b612710831061120d57612710830492506004015b6064831061121f576064830492506002015b600a83106103095760010192915050565b7fffffffff000000000000000000000000000000000000000000000000000000008116811461070957600080fd5b60006020828403121561127057600080fd5b81356106ae81611230565b60005b8381101561129657818101518382015260200161127e565b50506000910152565b600081518084526112b781602086016020860161127b565b601f017fffffffffffffffffffffffffffffffffffffffffffffffffffffffffffffffe0169290920160200192915050565b6020815260006106ae602083018461129f565b60006020828403121561130e57600080fd5b5035919050565b80356001600160a01b038116811461132c57600080fd5b919050565b6000806040838503121561134457600080fd5b61134d83611315565b946020939093013593505050565b60008060006060848603121561137057600080fd5b61137984611315565b925061138760208501611315565b9150604084013590509250925092565b6000602082840312156113a957600080fd5b6106ae82611315565b600080604083850312156113c557600080fd5b6113ce83611315565b9150602083013580151581146113e357600080fd5b809150509250929050565b7f4e487b7100000000000000000000000000000000000000000000000000000000600052604160045260246000fd5b600067ffffffffffffffff80841115611438576114386113ee565b604051601f85017fffffffffffffffffffffffffffffffffffffffffffffffffffffffffffffffe0908116603f0116810190828211818310171561147e5761147e6113ee565b8160405280935085815286868601111561149757600080fd5b858560208301376000602087830101525050509392505050565b600080600080608085870312156114c757600080fd5b6114d085611315565b93506114de60208601611315565b925060408501359150606085013567ffffffffffffffff81111561150157600080fd5b8501601f8101871361151257600080fd5b6115218782356020840161141d565b91505092959194509250565b6000806040838503121561154057600080fd5b61154983611315565b915061155760208401611315565b90509250929050565b6000806040838503121561157357600080fd5b61157c83611315565b9150602083013567ffffffffffffffff81111561159857600080fd5b8301601f810185136115a957600080fd5b6115b88582356020840161141d565b9150509250929050565b600181811c908216806115d657607f821691505b60208210810361160f577f4e487b7100000000000000000000000000000000000000000000000000000000600052602260045260246000fd5b50919050565b6000835161162781846020880161127b565b83519083019061163b81836020880161127b565b01949350505050565b80820180821115610309577f4e487b7100000000000000000000000000000000000000000000000000000000600052601160045260246000fd5b60006001600160a01b038087168352808616602084015250836040830152608060608301526116b0608083018461129f565b9695505050505050565b6000602082840312156116cc57600080fd5b81516106ae81611230565b601f8211156104b657600081815260208120601f850160051c810160208610156116fe5750805b601f850160051c820191505b8181101561171d5782815560010161170a565b505050505050565b815167ffffffffffffffff81111561173f5761173f6113ee565b6117538161174d84546115c2565b846116d7565b602080601f8311600181146117a657600084156117705750858301515b7fffffffffffffffffffffffffffffffffffffffffffffffffffffffffffffffff600386901b1c1916600185901b17855561171d565b6000858152602081207fffffffffffffffffffffffffffffffffffffffffffffffffffffffffffffffe08616915b828110156117f3578886015182559484019460019091019084016117d4565b508582101561182f57878501517fffffffffffffffffffffffffffffffffffffffffffffffffffffffffffffffff600388901b60f8161c191681555b5050505050600190811b0190555056fea26469706673582212206e6017719e43643cddec900478f0294d84af63579fc1de3dc0fa25f7c6fd76f064736f6c6343000814003360806040523480156200001157600080fd5b50604051620011483803806200114883398101604081905262000034916200033a565b338282600362000045838262000433565b50600462000054828262000433565b5050506001600160a01b0381166200008757604051631e4fbdf760e01b8152600060048201526024015b60405180910390fd5b6200009281620000b2565b50620000aa336a52b7d2dcc80cd2e400000062000104565b505062000527565b600580546001600160a01b038381166001600160a01b0319831681179093556040519116919082907f8be0079c531659141344cd1fd0a4f28419497f9722a3daafe3b4186f6b6457e090600090a35050565b6001600160a01b038216620001305760405163ec442f0560e01b8152600060048201526024016200007e565b6200013e6000838362000142565b5050565b6001600160a01b03831662000171578060026000828254620001659190620004ff565b90915550620001e59050565b6001600160a01b03831660009081526020819052604090205481811015620001c65760405163391434e360e21b81526001600160a01b038516600482015260248101829052604481018390526064016200007e565b6001600160a01b03841660009081526020819052604090209082900390555b6001600160a01b038216620002035760028054829003905562000222565b6001600160a01b03821660009081526020819052604090208054820190555b816001600160a01b0316836001600160a01b03167fddf252ad1be2c89b69c2b068fc378daa952ba7f163c4a11628f55a4df523b3ef836040516200026891815260200190565b60405180910390a3505050565b634e487b7160e01b600052604160045260246000fd5b600082601f8301126200029d57600080fd5b81516001600160401b0380821115620002ba57620002ba62000275565b604051601f8301601f19908116603f01168101908282118183101715620002e557620002e562000275565b816040528381526020925086838588010111156200030257600080fd5b600091505b8382101562000326578582018301518183018401529082019062000307565b600093810190920192909252949350505050565b600080604083850312156200034e57600080fd5b82516001600160401b03808211156200036657600080fd5b62000374868387016200028b565b935060208501519150808211156200038b57600080fd5b506200039a858286016200028b565b9150509250929050565b600181811c90821680620003b957607f821691505b602082108103620003da57634e487b7160e01b600052602260045260246000fd5b50919050565b601f8211156200042e57600081815260208120601f850160051c81016020861015620004095750805b601f850160051c820191505b818110156200042a5782815560010162000415565b5050505b505050565b81516001600160401b038111156200044f576200044f62000275565b6200046781620004608454620003a4565b84620003e0565b602080601f8311600181146200049f5760008415620004865750858301515b600019600386901b1c1916600185901b1785556200042a565b600085815260208120601f198616915b82811015620004d057888601518255948401946001909101908401620004af565b5085821015620004ef5787850151600019600388901b60f8161c191681555b5050505050600190811b01905550565b808201808211156200052157634e487b7160e01b600052601160045260246000fd5b92915050565b610c1180620005376000396000f3fe608060405234801561001057600080fd5b50600436106100f55760003560e01c8063715018a611610097578063a9059cbb11610066578063a9059cbb14610205578063dd62ed3e14610218578063ed8c2a251461025e578063f2fde38b1461027157600080fd5b8063715018a6146101b8578063776a81c9146101c25780638da5cb5b146101d557806395d89b41146101fd57600080fd5b806323b872dd116100d357806323b872dd1461014d578063313ce56714610160578063422d05471461016f57806370a082311461018257600080fd5b806306fdde03146100fa578063095ea7b31461011857806318160ddd1461013b575b600080fd5b610102610284565b60405161010f91906109ea565b60405180910390f35b61012b610126366004610a7a565b610316565b604051901515815260200161010f565b6002545b60405190815260200161010f565b61012b61015b366004610aa4565b610330565b6040516012815260200161010f565b61012b61017d366004610aa4565b610354565b61013f610190366004610ae0565b73ffffffffffffffffffffffffffffffffffffffff1660009081526020819052604090205490565b6101c0610373565b005b61012b6101d0366004610b02565b610387565b60055460405173ffffffffffffffffffffffffffffffffffffffff909116815260200161010f565b6101026103a4565b61012b610213366004610a7a565b6103b3565b61013f610226366004610b1b565b73ffffffffffffffffffffffffffffffffffffffff918216600090815260016020908152604080832093909416825291909152205490565b61012b61026c366004610aa4565b6103c1565b6101c061027f366004610ae0565b6103d8565b60606003805461029390610b4e565b80601f01602080910402602001604051908101604052809291908181526020018280546102bf90610b4e565b801561030c5780601f106102e15761010080835404028352916020019161030c565b820191906000526020600020905b8154815290600101906020018083116102ef57829003601f168201915b5050505050905090565b600033610324818585610441565b60019150505b92915050565b60003361033e858285610453565b610349858585610522565b506001949350505050565b600061035e6105cd565b610369848484610522565b5060019392505050565b61037b6105cd565b6103856000610620565b565b60006103916105cd565b61039b3383610697565b5060015b919050565b60606004805461029390610b4e565b600033610324818585610522565b60006103cb6105cd565b61036984848460006106f7565b6103e06105cd565b73ffffffffffffffffffffffffffffffffffffffff8116610435576040517f1e4fbdf7000000000000000000000000000000000000000000000000000000008152600060048201526024015b60405180910390fd5b61043e81610620565b50565b61044e83838360016106f7565b505050565b73ffffffffffffffffffffffffffffffffffffffff8381166000908152600160209081526040808320938616835292905220547fffffffffffffffffffffffffffffffffffffffffffffffffffffffffffffffff811461051c578181101561050d576040517ffb8f41b200000000000000000000000000000000000000000000000000000000815273ffffffffffffffffffffffffffffffffffffffff84166004820152602481018290526044810183905260640161042c565b61051c848484840360006106f7565b50505050565b73ffffffffffffffffffffffffffffffffffffffff8316610572576040517f96c6fd1e0000000000000000000000000000000000000000000000000000000081526000600482015260240161042c565b73ffffffffffffffffffffffffffffffffffffffff82166105c2576040517fec442f050000000000000000000000000000000000000000000000000000000081526000600482015260240161042c565b61044e83838361083f565b60055473ffffffffffffffffffffffffffffffffffffffff163314610385576040517f118cdaa700000000000000000000000000000000000000000000000000000000815233600482015260240161042c565b6005805473ffffffffffffffffffffffffffffffffffffffff8381167fffffffffffffffffffffffff0000000000000000000000000000000000000000831681179093556040519116919082907f8be0079c531659141344cd1fd0a4f28419497f9722a3daafe3b4186f6b6457e090600090a35050565b73ffffffffffffffffffffffffffffffffffffffff82166106e7576040517fec442f050000000000000000000000000000000000000000000000000000000081526000600482015260240161042c565b6106f36000838361083f565b5050565b73ffffffffffffffffffffffffffffffffffffffff8416610747576040517fe602df050000000000000000000000000000000000000000000000000000000081526000600482015260240161042c565b73ffffffffffffffffffffffffffffffffffffffff8316610797576040517f94280d620000000000000000000000000000000000000000000000000000000081526000600482015260240161042c565b73ffffffffffffffffffffffffffffffffffffffff8085166000908152600160209081526040808320938716835292905220829055801561051c578273ffffffffffffffffffffffffffffffffffffffff168473ffffffffffffffffffffffffffffffffffffffff167f8c5be1e5ebec7d5bd14f71427d1e84f3dd0314c0f7b2291e5b200ac8c7c3b9258460405161083191815260200190565b60405180910390a350505050565b73ffffffffffffffffffffffffffffffffffffffff831661087757806002600082825461086c9190610ba1565b909155506109299050565b73ffffffffffffffffffffffffffffffffffffffff8316600090815260208190526040902054818110156108fd576040517fe450d38c00000000000000000000000000000000000000000000000000000000815273ffffffffffffffffffffffffffffffffffffffff85166004820152602481018290526044810183905260640161042c565b73ffffffffffffffffffffffffffffffffffffffff841660009081526020819052604090209082900390555b73ffffffffffffffffffffffffffffffffffffffff82166109525760028054829003905561097e565b73ffffffffffffffffffffffffffffffffffffffff821660009081526020819052604090208054820190555b8173ffffffffffffffffffffffffffffffffffffffff168373ffffffffffffffffffffffffffffffffffffffff167fddf252ad1be2c89b69c2b068fc378daa952ba7f163c4a11628f55a4df523b3ef836040516109dd91815260200190565b60405180910390a3505050565b600060208083528351808285015260005b81811015610a17578581018301518582016040015282016109fb565b5060006040828601015260407fffffffffffffffffffffffffffffffffffffffffffffffffffffffffffffffe0601f8301168501019250505092915050565b803573ffffffffffffffffffffffffffffffffffffffff8116811461039f57600080fd5b60008060408385031215610a8d57600080fd5b610a9683610a56565b946020939093013593505050565b600080600060608486031215610ab957600080fd5b610ac284610a56565b9250610ad060208501610a56565b9150604084013590509250925092565b600060208284031215610af257600080fd5b610afb82610a56565b9392505050565b600060208284031215610b1457600080fd5b5035919050565b60008060408385031215610b2e57600080fd5b610b3783610a56565b9150610b4560208401610a56565b90509250929050565b600181811c90821680610b6257607f821691505b602082108103610b9b577f4e487b7100000000000000000000000000000000000000000000000000000000600052602260045260246000fd5b50919050565b8082018082111561032a577f4e487b7100000000000000000000000000000000000000000000000000000000600052601160045260246000fdfea2646970667358221220d468058cc57be26faff9c0679da064dbd1e8a1fba957359654651867df64a78364736f6c63430008140033",
  "linkReferences": {},
  "deployedLinkReferences": {}
}