{
  "_format": "hh-sol-artifact-1",
  "contractName": "ERC6551Account",
  "sourceName": "contracts/ERC6551Account.sol",
  "abi": [
    {
      "anonymous": false,
      "inputs": [
        {
          "indexed": false,
          "internalType": "uint256",
          "name": "tokenId",
          "type": "uint256"
        },
        {
          "indexed": false,
          "internalType": "address",
          "name": "to",
          "type": "address"
        }
      ],
      "name": "TransferExecuted",
      "type": "event"
    },
    {
      "inputs": [
        {
          "internalType": "address",
          "name": "to",
          "type": "address"
        },
        {
          "internalType": "uint256",
          "name": "value",
          "type": "uint256"
        },
        {
          "internalType": "bytes",
          "name": "data",
          "type": "bytes"
        },
        {
          "internalType": "uint8",
          "name": "operation",
          "type": "uint8"
        }
      ],
      "name": "execute",
      "outputs": [
        {
          "internalType": "bytes",
          "name": "result",
          "type": "bytes"
        }
      ],
      "stateMutability": "payable",
      "type": "function"
    },
    {
      "inputs": [
        {
          "internalType": "bytes32",
          "name": "hash",
          "type": "bytes32"
        },
        {
          "internalType": "bytes",
          "name": "signature",
          "type": "bytes"
        }
      ],
      "name": "isValidSignature",
      "outputs": [
        {
          "internalType": "bytes4",
          "name": "magicValue",
          "type": "bytes4"
        }
      ],
      "stateMutability": "view",
      "type": "function"
    },
    {
      "inputs": [
        {
          "internalType": "address",
          "name": "signer",
          "type": "address"
        },
        {
          "internalType": "bytes",
          "name": "",
          "type": "bytes"
        }
      ],
      "name": "isValidSigner",
      "outputs": [
        {
          "internalType": "bytes4",
          "name": "",
          "type": "bytes4"
        }
      ],
      "stateMutability": "view",
      "type": "function"
    },
    {
      "inputs": [],
      "name": "owner",
      "outputs": [
        {
          "internalType": "address",
          "name": "",
          "type": "address"
        }
      ],
      "stateMutability": "view",
      "type": "function"
    },
    {
      "inputs": [],
      "name": "state",
      "outputs": [
        {
          "internalType": "uint256",
          "name": "",
          "type": "uint256"
        }
      ],
      "stateMutability": "view",
      "type": "function"
    },
    {
      "inputs": [],
      "name": "token",
      "outputs": [
        {
          "internalType": "uint256",
          "name": "",
          "type": "uint256"
        },
        {
          "internalType": "address",
          "name": "",
          "type": "address"
        },
        {
          "internalType": "uint256",
          "name": "",
          "type": "uint256"
        }
      ],
      "stateMutability": "view",
      "type": "function"
    },
    {
      "stateMutability": "payable",
      "type": "receive"
    }
  ],
  "bytecode": "0x608060405234801561001057600080fd5b50610a5b806100206000396000f3fe6080604052600436106100595760003560e01c80631626ba7e1461006557806351945447146100a3578063523e3260146100c35780638da5cb5b146100e3578063c19d93fb14610110578063fc0c546a1461013457600080fd5b3661006057005b600080fd5b34801561007157600080fd5b506100856100803660046106de565b61016c565b6040516001600160e01b031990911681526020015b60405180910390f35b6100b66100b13660046107fa565b6101a5565b60405161009a91906108c4565b3480156100cf57600080fd5b506100856100de3660046108d7565b6102de565b3480156100ef57600080fd5b506100f8610307565b6040516001600160a01b03909116815260200161009a565b34801561011c57600080fd5b5061012660005481565b60405190815260200161009a565b34801561014057600080fd5b506101496103f7565b604080519384526001600160a01b0390921660208401529082015260600161009a565b60008061018161017a610307565b858561044a565b905080156101995750630b135d3f60e11b905061019f565b60009150505b92915050565b60606101b0336104ac565b6101f25760405162461bcd60e51b815260206004820152600e60248201526d24b73b30b634b21039b4b3b732b960911b60448201526064015b60405180910390fd5b60ff82161561024e5760405162461bcd60e51b815260206004820152602260248201527f4f6e6c792063616c6c206f7065726174696f6e732061726520737570706f7274604482015261195960f21b60648201526084016101e9565b600080815461025c9061092c565b919050819055506000866001600160a01b0316868686604051610280929190610953565b60006040518083038185875af1925050503d80600081146102bd576040519150601f19603f3d011682016040523d82523d6000602084013e6102c2565b606091505b5092509050806102d457815160208301fd5b5095945050505050565b60006102e9846104ac565b156102fc5750630291f19360e51b610300565b5060005b9392505050565b600080600080306001600160a01b031663fc0c546a6040518163ffffffff1660e01b8152600401606060405180830381865afa15801561034b573d6000803e3d6000fd5b505050506040513d601f19601f8201168201806040525081019061036f9190610963565b925092509250468314610386576000935050505090565b6040516331a9108f60e11b8152600481018290526001600160a01b03831690636352211e90602401602060405180830381865afa1580156103cb573d6000803e3d6000fd5b505050506040513d601f19601f820116820180604052508101906103ef919061099c565b935050505090565b60408051606080825260808201909252600091829182918291906020820181803683370190505090506060604d60208301303c8080602001905181019061043e9190610963565b93509350935050909192565b600080600061045985856104d1565b5090925090506000816003811115610473576104736109b9565b1480156104915750856001600160a01b0316826001600160a01b0316145b806104a257506104a286868661051e565b9695505050505050565b60006104b6610307565b6001600160a01b0316826001600160a01b0316149050919050565b6000806000835160410361050b5760208401516040850151606086015160001a6104fd888285856105f9565b955095509550505050610517565b50508151600091506002905b9250925092565b6000806000856001600160a01b031685856040516024016105409291906109cf565b60408051601f198184030181529181526020820180516001600160e01b0316630b135d3f60e11b1790525161057591906109f0565b600060405180830381855afa9150503d80600081146105b0576040519150601f19603f3d011682016040523d82523d6000602084013e6105b5565b606091505b50915091508180156105c957506020815110155b80156104a257508051630b135d3f60e11b906105ee9083016020908101908401610a0c565b149695505050505050565b600080807f7fffffffffffffffffffffffffffffff5d576e7357a4501ddfe92f46681b20a084111561063457506000915060039050826106be565b604080516000808252602082018084528a905260ff891692820192909252606081018790526080810186905260019060a0016020604051602081039080840390855afa158015610688573d6000803e3d6000fd5b5050604051601f1901519150506001600160a01b0381166106b4575060009250600191508290506106be565b9250600091508190505b9450945094915050565b634e487b7160e01b600052604160045260246000fd5b600080604083850312156106f157600080fd5b82359150602083013567ffffffffffffffff8082111561071057600080fd5b818501915085601f83011261072457600080fd5b813581811115610736576107366106c8565b604051601f8201601f19908116603f0116810190838211818310171561075e5761075e6106c8565b8160405282815288602084870101111561077757600080fd5b8260208601602083013760006020848301015280955050505050509250929050565b6001600160a01b03811681146107ae57600080fd5b50565b60008083601f8401126107c357600080fd5b50813567ffffffffffffffff8111156107db57600080fd5b6020830191508360208285010111156107f357600080fd5b9250929050565b60008060008060006080868803121561081257600080fd5b853561081d81610799565b945060208601359350604086013567ffffffffffffffff81111561084057600080fd5b61084c888289016107b1565b909450925050606086013560ff8116811461086657600080fd5b809150509295509295909350565b60005b8381101561088f578181015183820152602001610877565b50506000910152565b600081518084526108b0816020860160208601610874565b601f01601f19169290920160200192915050565b6020815260006103006020830184610898565b6000806000604084860312156108ec57600080fd5b83356108f781610799565b9250602084013567ffffffffffffffff81111561091357600080fd5b61091f868287016107b1565b9497909650939450505050565b60006001820161094c57634e487b7160e01b600052601160045260246000fd5b5060010190565b8183823760009101908152919050565b60008060006060848603121561097857600080fd5b83519250602084015161098a81610799565b80925050604084015190509250925092565b6000602082840312156109ae57600080fd5b815161030081610799565b634e487b7160e01b600052602160045260246000fd5b8281526040602082015260006109e86040830184610898565b949350505050565b60008251610a02818460208701610874565b9190910192915050565b600060208284031215610a1e57600080fd5b505191905056fea2646970667358221220a96fb86b30d6c0f27e07eb4596acf0b19f9b8180e16104888a7af36135c387f464736f6c63430008140033",
  "linkReferences": {},
  "deployedLinkReferences": {}
}