{
  "_format": "hh-sol-artifact-1",
  "contractName": "ERC6551Account",
  "sourceName": "contracts/ERC6551Account.sol",
  "abi": [
    {
      "anonymous": false,
      "inputs": [
        {
          "indexed": false,
          "internalType": "uint256",
          "name": "tokenId",
          "type": "uint256"
        },
        {
          "indexed": false,
          "internalType": "address",
          "name": "to",
          "type": "address"
        }
      ],
      "name": "TransferExecuted",
      "type": "event"
    },
    {
      "inputs": [
        {
          "internalType": "address",
          "name": "to",
          "type": "address"
        },
        {
          "internalType": "uint256",
          "name": "value",
          "type": "uint256"
        },
        {
          "internalType": "bytes",
          "name": "data",
          "type": "bytes"
        },
        {
          "internalType": "uint8",
          "name": "operation",
          "type": "uint8"
        }
      ],
      "name": "execute",
      "outputs": [
        {
          "internalType": "bytes",
          "name": "result",
          "type": "bytes"
        }
      ],
      "stateMutability": "payable",
      "type": "function"
    },
    {
      "inputs": [
        {
          "internalType": "bytes32",
          "name": "hash",
          "type": "bytes32"
        },
        {
          "internalType": "bytes",
          "name": "signature",
          "type": "bytes"
        }
      ],
      "name": "isValidSignature",
      "outputs": [
        {
          "internalType": "bytes4",
          "name": "magicValue",
          "type": "bytes4"
        }
      ],
      "stateMutability": "view",
      "type": "function"
    },
    {
      "inputs": [
        {
          "internalType": "address",
          "name": "signer",
          "type": "address"
        },
        {
          "internalType": "bytes",
          "name": "",
          "type": "bytes"
        }
      ],
      "name": "isValidSigner",
      "outputs": [
        {
          "internalType": "bytes4",
          "name": "",
          "type": "bytes4"
        }
      ],
      "stateMutability": "view",
      "type": "function"
    },
    {
      "inputs": [],
      "name": "owner",
      "outputs": [
        {
          "internalType": "address",
          "name": "",
          "type": "address"
        }
      ],
      "stateMutability": "view",
      "type": "function"
    },
    {
      "inputs": [],
      "name": "state",
      "outputs": [
        {
          "internalType": "uint256",
          "name": "",
          "type": "uint256"
        }
      ],
      "stateMutability": "view",
      "type": "function"
    },
    {
      "inputs": [],
      "name": "token",
      "outputs": [
        {
          "internalType": "uint256",
          "name": "",
          "type": "uint256"
        },
        {
          "internalType": "address",
          "name": "",
          "type": "address"
        },
        {
          "internalType": "uint256",
          "name": "",
          "type": "uint256"
        }
      ],
      "stateMutability": "view",
      "type": "function"
    },
    {
      "stateMutability": "payable",
      "type": "receive"
    }
  ],
  "bytecode": "0x608060405234801561001057600080fd5b50610cf1806100206000396000f3fe6080604052600436106100695760003560e01c80638da5cb5b116100435780638da5cb5b1461010b578063c19d93fb14610145578063fc0c546a1461016957600080fd5b80631626ba7e1461007557806351945447146100cb578063523e3260146100eb57600080fd5b3661007057005b600080fd5b34801561008157600080fd5b506100956100903660046108da565b6101ae565b6040517fffffffff0000000000000000000000000000000000000000000000000000000090911681526020015b60405180910390f35b6100de6100d9366004610a21565b610200565b6040516100c29190610b09565b3480156100f757600080fd5b50610095610106366004610b1c565b6103a4565b34801561011757600080fd5b506101206103e6565b60405173ffffffffffffffffffffffffffffffffffffffff90911681526020016100c2565b34801561015157600080fd5b5061015b60005481565b6040519081526020016100c2565b34801561017557600080fd5b5061017e610509565b6040805193845273ffffffffffffffffffffffffffffffffffffffff9092166020840152908201526060016100c2565b6000806101c36101bc6103e6565b858561055c565b905080156101f457507f1626ba7e0000000000000000000000000000000000000000000000000000000090506101fa565b60009150505b92915050565b606061020b336105d8565b610276576040517f08c379a000000000000000000000000000000000000000000000000000000000815260206004820152600e60248201527f496e76616c6964207369676e657200000000000000000000000000000000000060448201526064015b60405180910390fd5b60ff821615610307576040517f08c379a000000000000000000000000000000000000000000000000000000000815260206004820152602260248201527f4f6e6c792063616c6c206f7065726174696f6e732061726520737570706f727460448201527f6564000000000000000000000000000000000000000000000000000000000000606482015260840161026d565b600080815461031590610b71565b9190508190555060008673ffffffffffffffffffffffffffffffffffffffff16868686604051610346929190610bd0565b60006040518083038185875af1925050503d8060008114610383576040519150601f19603f3d011682016040523d82523d6000602084013e610388565b606091505b50925090508061039a57815160208301fd5b5095945050505050565b60006103af846105d8565b156103db57507f523e3260000000000000000000000000000000000000000000000000000000006103df565b5060005b9392505050565b6000806000803073ffffffffffffffffffffffffffffffffffffffff1663fc0c546a6040518163ffffffff1660e01b8152600401606060405180830381865afa158015610437573d6000803e3d6000fd5b505050506040513d601f19601f8201168201806040525081019061045b9190610be0565b925092509250468314610472576000935050505090565b6040517f6352211e0000000000000000000000000000000000000000000000000000000081526004810182905273ffffffffffffffffffffffffffffffffffffffff831690636352211e90602401602060405180830381865afa1580156104dd573d6000803e3d6000fd5b505050506040513d601f19601f820116820180604052508101906105019190610c19565b935050505090565b60408051606080825260808201909252600091829182918291906020820181803683370190505090506060604d60208301303c808060200190518101906105509190610be0565b93509350935050909192565b600080600061056b8585610617565b509092509050600081600381111561058557610585610c36565b1480156105bd57508573ffffffffffffffffffffffffffffffffffffffff168273ffffffffffffffffffffffffffffffffffffffff16145b806105ce57506105ce868686610664565b9695505050505050565b60006105e26103e6565b73ffffffffffffffffffffffffffffffffffffffff168273ffffffffffffffffffffffffffffffffffffffff16149050919050565b600080600083516041036106515760208401516040850151606086015160001a610643888285856107b1565b95509550955050505061065d565b50508151600091506002905b9250925092565b60008060008573ffffffffffffffffffffffffffffffffffffffff168585604051602401610693929190610c65565b604080517fffffffffffffffffffffffffffffffffffffffffffffffffffffffffffffffe08184030181529181526020820180517bffffffffffffffffffffffffffffffffffffffffffffffffffffffff167f1626ba7e00000000000000000000000000000000000000000000000000000000179052516107149190610c86565b600060405180830381855afa9150503d806000811461074f576040519150601f19603f3d011682016040523d82523d6000602084013e610754565b606091505b509150915081801561076857506020815110155b80156105ce575080517f1626ba7e00000000000000000000000000000000000000000000000000000000906107a69083016020908101908401610ca2565b149695505050505050565b600080807f7fffffffffffffffffffffffffffffff5d576e7357a4501ddfe92f46681b20a08411156107ec57506000915060039050826108a1565b604080516000808252602082018084528a905260ff891692820192909252606081018790526080810186905260019060a0016020604051602081039080840390855afa158015610840573d6000803e3d6000fd5b50506040517fffffffffffffffffffffffffffffffffffffffffffffffffffffffffffffffe0015191505073ffffffffffffffffffffffffffffffffffffffff8116610897575060009250600191508290506108a1565b9250600091508190505b9450945094915050565b7f4e487b7100000000000000000000000000000000000000000000000000000000600052604160045260246000fd5b600080604083850312156108ed57600080fd5b82359150602083013567ffffffffffffffff8082111561090c57600080fd5b818501915085601f83011261092057600080fd5b813581811115610932576109326108ab565b604051601f82017fffffffffffffffffffffffffffffffffffffffffffffffffffffffffffffffe0908116603f01168101908382118183101715610978576109786108ab565b8160405282815288602084870101111561099157600080fd5b8260208601602083013760006020848301015280955050505050509250929050565b73ffffffffffffffffffffffffffffffffffffffff811681146109d557600080fd5b50565b60008083601f8401126109ea57600080fd5b50813567ffffffffffffffff811115610a0257600080fd5b602083019150836020828501011115610a1a57600080fd5b9250929050565b600080600080600060808688031215610a3957600080fd5b8535610a44816109b3565b945060208601359350604086013567ffffffffffffffff811115610a6757600080fd5b610a73888289016109d8565b909450925050606086013560ff81168114610a8d57600080fd5b809150509295509295909350565b60005b83811015610ab6578181015183820152602001610a9e565b50506000910152565b60008151808452610ad7816020860160208601610a9b565b601f017fffffffffffffffffffffffffffffffffffffffffffffffffffffffffffffffe0169290920160200192915050565b6020815260006103df6020830184610abf565b600080600060408486031215610b3157600080fd5b8335610b3c816109b3565b9250602084013567ffffffffffffffff811115610b5857600080fd5b610b64868287016109d8565b9497909650939450505050565b60007fffffffffffffffffffffffffffffffffffffffffffffffffffffffffffffffff8203610bc9577f4e487b7100000000000000000000000000000000000000000000000000000000600052601160045260246000fd5b5060010190565b8183823760009101908152919050565b600080600060608486031215610bf557600080fd5b835192506020840151610c07816109b3565b80925050604084015190509250925092565b600060208284031215610c2b57600080fd5b81516103df816109b3565b7f4e487b7100000000000000000000000000000000000000000000000000000000600052602160045260246000fd5b828152604060208201526000610c7e6040830184610abf565b949350505050565b60008251610c98818460208701610a9b565b9190910192915050565b600060208284031215610cb457600080fd5b505191905056fea264697066735822122038bed5452f70f75a0a81f2f44c0d01fe253214f1ef60ebc8e77bf4236eb2085a64736f6c63430008140033",
  "linkReferences": {},
  "deployedLinkReferences": {}
}