{
  "_format": "hh-sol-artifact-1",
  "contractName": "Ticket",
  "sourceName": "contracts/Ticket.sol",
  "abi": [
    {
      "inputs": [
        {
          "internalType": "address",
          "name": "_ticketExtendedAddress",
          "type": "address"
        },
        {
          "internalType": "address",
          "name": "_tokenAddress",
          "type": "address"
        },
        {
          "internalType": "string",
          "name": "ticketName",
          "type": "string"
        },
        {
          "internalType": "string",
          "name": "ticketSymbol",
          "type": "string"
        },
        {
          "internalType": "string",
          "name": "ticketUri",
          "type": "string"
        },
        {
          "internalType": "address",
          "name": "initialOwner",
          "type": "address"
        },
        {
          "internalType": "uint256",
          "name": "ticketAmount",
          "type": "uint256"
        },
        {
          "internalType": "uint256",
          "name": "_ticketPrice",
          "type": "uint256"
        }
      ],
      "stateMutability": "nonpayable",
      "type": "constructor"
    },
    {
      "inputs": [
        {
          "internalType": "address",
          "name": "sender",
          "type": "address"
        },
        {
          "internalType": "uint256",
          "name": "tokenId",
          "type": "uint256"
        },
        {
          "internalType": "address",
          "name": "owner",
          "type": "address"
        }
      ],
      "name": "ERC721IncorrectOwner",
      "type": "error"
    },
    {
      "inputs": [
        {
          "internalType": "address",
          "name": "operator",
          "type": "address"
        },
        {
          "internalType": "uint256",
          "name": "tokenId",
          "type": "uint256"
        }
      ],
      "name": "ERC721InsufficientApproval",
      "type": "error"
    },
    {
      "inputs": [
        {
          "internalType": "address",
          "name": "approver",
          "type": "address"
        }
      ],
      "name": "ERC721InvalidApprover",
      "type": "error"
    },
    {
      "inputs": [
        {
          "internalType": "address",
          "name": "operator",
          "type": "address"
        }
      ],
      "name": "ERC721InvalidOperator",
      "type": "error"
    },
    {
      "inputs": [
        {
          "internalType": "address",
          "name": "owner",
          "type": "address"
        }
      ],
      "name": "ERC721InvalidOwner",
      "type": "error"
    },
    {
      "inputs": [
        {
          "internalType": "address",
          "name": "receiver",
          "type": "address"
        }
      ],
      "name": "ERC721InvalidReceiver",
      "type": "error"
    },
    {
      "inputs": [
        {
          "internalType": "address",
          "name": "sender",
          "type": "address"
        }
      ],
      "name": "ERC721InvalidSender",
      "type": "error"
    },
    {
      "inputs": [
        {
          "internalType": "uint256",
          "name": "tokenId",
          "type": "uint256"
        }
      ],
      "name": "ERC721NonexistentToken",
      "type": "error"
    },
    {
      "inputs": [
        {
          "internalType": "address",
          "name": "owner",
          "type": "address"
        }
      ],
      "name": "OwnableInvalidOwner",
      "type": "error"
    },
    {
      "inputs": [
        {
          "internalType": "address",
          "name": "account",
          "type": "address"
        }
      ],
      "name": "OwnableUnauthorizedAccount",
      "type": "error"
    },
    {
      "anonymous": false,
      "inputs": [
        {
          "indexed": true,
          "internalType": "address",
          "name": "owner",
          "type": "address"
        },
        {
          "indexed": true,
          "internalType": "address",
          "name": "approved",
          "type": "address"
        },
        {
          "indexed": true,
          "internalType": "uint256",
          "name": "tokenId",
          "type": "uint256"
        }
      ],
      "name": "Approval",
      "type": "event"
    },
    {
      "anonymous": false,
      "inputs": [
        {
          "indexed": true,
          "internalType": "address",
          "name": "owner",
          "type": "address"
        },
        {
          "indexed": true,
          "internalType": "address",
          "name": "operator",
          "type": "address"
        },
        {
          "indexed": false,
          "internalType": "bool",
          "name": "approved",
          "type": "bool"
        }
      ],
      "name": "ApprovalForAll",
      "type": "event"
    },
    {
      "anonymous": false,
      "inputs": [
        {
          "indexed": false,
          "internalType": "uint256",
          "name": "_fromTokenId",
          "type": "uint256"
        },
        {
          "indexed": false,
          "internalType": "uint256",
          "name": "_toTokenId",
          "type": "uint256"
        }
      ],
      "name": "BatchMetadataUpdate",
      "type": "event"
    },
    {
      "anonymous": false,
      "inputs": [
        {
          "indexed": false,
          "internalType": "uint256",
          "name": "_tokenId",
          "type": "uint256"
        }
      ],
      "name": "MetadataUpdate",
      "type": "event"
    },
    {
      "anonymous": false,
      "inputs": [
        {
          "indexed": true,
          "internalType": "address",
          "name": "previousOwner",
          "type": "address"
        },
        {
          "indexed": true,
          "internalType": "address",
          "name": "newOwner",
          "type": "address"
        }
      ],
      "name": "OwnershipTransferred",
      "type": "event"
    },
    {
      "anonymous": false,
      "inputs": [
        {
          "indexed": true,
          "internalType": "address",
          "name": "to",
          "type": "address"
        },
        {
          "indexed": true,
          "internalType": "uint256",
          "name": "tokenId",
          "type": "uint256"
        },
        {
          "indexed": false,
          "internalType": "string",
          "name": "tokenURI",
          "type": "string"
        }
      ],
      "name": "TicketBuy",
      "type": "event"
    },
    {
      "anonymous": false,
      "inputs": [
        {
          "indexed": true,
          "internalType": "uint256",
          "name": "tokenId",
          "type": "uint256"
        },
        {
          "indexed": true,
          "internalType": "address",
          "name": "from",
          "type": "address"
        },
        {
          "indexed": true,
          "internalType": "address",
          "name": "to",
          "type": "address"
        }
      ],
      "name": "TicketTransferred",
      "type": "event"
    },
    {
      "anonymous": false,
      "inputs": [
        {
          "indexed": true,
          "internalType": "address",
          "name": "from",
          "type": "address"
        },
        {
          "indexed": true,
          "internalType": "address",
          "name": "to",
          "type": "address"
        },
        {
          "indexed": true,
          "internalType": "uint256",
          "name": "tokenId",
          "type": "uint256"
        }
      ],
      "name": "Transfer",
      "type": "event"
    },
    {
      "anonymous": false,
      "inputs": [
        {
          "indexed": true,
          "internalType": "address",
          "name": "to",
          "type": "address"
        }
      ],
      "name": "WhiteListUpdated",
      "type": "event"
    },
    {
      "inputs": [
        {
          "internalType": "address",
          "name": "",
          "type": "address"
        }
      ],
      "name": "_whiteList",
      "outputs": [
        {
          "internalType": "bool",
          "name": "",
          "type": "bool"
        }
      ],
      "stateMutability": "view",
      "type": "function"
    },
    {
      "inputs": [
        {
          "internalType": "address",
          "name": "to",
          "type": "address"
        },
        {
          "internalType": "uint256",
          "name": "tokenId",
          "type": "uint256"
        }
      ],
      "name": "approve",
      "outputs": [],
      "stateMutability": "nonpayable",
      "type": "function"
    },
    {
      "inputs": [
        {
          "internalType": "address",
          "name": "owner",
          "type": "address"
        }
      ],
      "name": "balanceOf",
      "outputs": [
        {
          "internalType": "uint256",
          "name": "",
          "type": "uint256"
        }
      ],
      "stateMutability": "view",
      "type": "function"
    },
    {
      "inputs": [
        {
          "internalType": "address",
          "name": "buyer",
          "type": "address"
        }
      ],
      "name": "buyTicket",
      "outputs": [
        {
          "internalType": "uint256",
          "name": "",
          "type": "uint256"
        }
      ],
      "stateMutability": "payable",
      "type": "function"
    },
    {
      "inputs": [
        {
          "internalType": "uint256",
          "name": "tokenId",
          "type": "uint256"
        }
      ],
      "name": "getApproved",
      "outputs": [
        {
          "internalType": "address",
          "name": "",
          "type": "address"
        }
      ],
      "stateMutability": "view",
      "type": "function"
    },
    {
      "inputs": [
        {
          "internalType": "address",
          "name": "recipient",
          "type": "address"
        }
      ],
      "name": "isAddressInWhiteList",
      "outputs": [
        {
          "internalType": "bool",
          "name": "",
          "type": "bool"
        }
      ],
      "stateMutability": "view",
      "type": "function"
    },
    {
      "inputs": [
        {
          "internalType": "address",
          "name": "owner",
          "type": "address"
        },
        {
          "internalType": "address",
          "name": "operator",
          "type": "address"
        }
      ],
      "name": "isApprovedForAll",
      "outputs": [
        {
          "internalType": "bool",
          "name": "",
          "type": "bool"
        }
      ],
      "stateMutability": "view",
      "type": "function"
    },
    {
      "inputs": [],
      "name": "name",
      "outputs": [
        {
          "internalType": "string",
          "name": "",
          "type": "string"
        }
      ],
      "stateMutability": "view",
      "type": "function"
    },
    {
      "inputs": [],
      "name": "owner",
      "outputs": [
        {
          "internalType": "address",
          "name": "",
          "type": "address"
        }
      ],
      "stateMutability": "view",
      "type": "function"
    },
    {
      "inputs": [
        {
          "internalType": "uint256",
          "name": "tokenId",
          "type": "uint256"
        }
      ],
      "name": "ownerOf",
      "outputs": [
        {
          "internalType": "address",
          "name": "",
          "type": "address"
        }
      ],
      "stateMutability": "view",
      "type": "function"
    },
    {
      "inputs": [],
      "name": "renounceOwnership",
      "outputs": [],
      "stateMutability": "nonpayable",
      "type": "function"
    },
    {
      "inputs": [
        {
          "internalType": "address",
          "name": "from",
          "type": "address"
        },
        {
          "internalType": "address",
          "name": "to",
          "type": "address"
        },
        {
          "internalType": "uint256",
          "name": "tokenId",
          "type": "uint256"
        }
      ],
      "name": "safeTransferFrom",
      "outputs": [],
      "stateMutability": "nonpayable",
      "type": "function"
    },
    {
      "inputs": [
        {
          "internalType": "address",
          "name": "from",
          "type": "address"
        },
        {
          "internalType": "address",
          "name": "to",
          "type": "address"
        },
        {
          "internalType": "uint256",
          "name": "tokenId",
          "type": "uint256"
        },
        {
          "internalType": "bytes",
          "name": "data",
          "type": "bytes"
        }
      ],
      "name": "safeTransferFrom",
      "outputs": [],
      "stateMutability": "nonpayable",
      "type": "function"
    },
    {
      "inputs": [
        {
          "internalType": "address",
          "name": "operator",
          "type": "address"
        },
        {
          "internalType": "bool",
          "name": "approved",
          "type": "bool"
        }
      ],
      "name": "setApprovalForAll",
      "outputs": [],
      "stateMutability": "nonpayable",
      "type": "function"
    },
    {
      "inputs": [
        {
          "internalType": "bytes4",
          "name": "interfaceId",
          "type": "bytes4"
        }
      ],
      "name": "supportsInterface",
      "outputs": [
        {
          "internalType": "bool",
          "name": "",
          "type": "bool"
        }
      ],
      "stateMutability": "view",
      "type": "function"
    },
    {
      "inputs": [],
      "name": "symbol",
      "outputs": [
        {
          "internalType": "string",
          "name": "",
          "type": "string"
        }
      ],
      "stateMutability": "view",
      "type": "function"
    },
    {
      "inputs": [
        {
          "internalType": "uint256",
          "name": "tokenId",
          "type": "uint256"
        }
      ],
      "name": "tokenURI",
      "outputs": [
        {
          "internalType": "string",
          "name": "",
          "type": "string"
        }
      ],
      "stateMutability": "view",
      "type": "function"
    },
    {
      "inputs": [
        {
          "internalType": "address",
          "name": "from",
          "type": "address"
        },
        {
          "internalType": "address",
          "name": "to",
          "type": "address"
        },
        {
          "internalType": "uint256",
          "name": "tokenId",
          "type": "uint256"
        }
      ],
      "name": "transferFrom",
      "outputs": [],
      "stateMutability": "nonpayable",
      "type": "function"
    },
    {
      "inputs": [
        {
          "internalType": "address",
          "name": "newOwner",
          "type": "address"
        }
      ],
      "name": "transferOwnership",
      "outputs": [],
      "stateMutability": "nonpayable",
      "type": "function"
    },
    {
      "inputs": [
        {
          "internalType": "uint256",
          "name": "_tokenId",
          "type": "uint256"
        },
        {
          "internalType": "address",
          "name": "_buyer",
          "type": "address"
        }
      ],
      "name": "transferTicket",
      "outputs": [],
      "stateMutability": "nonpayable",
      "type": "function"
    },
    {
      "inputs": [
        {
          "internalType": "address",
          "name": "to",
          "type": "address"
        }
      ],
      "name": "updateWhiteList",
      "outputs": [
        {
          "internalType": "bool",
          "name": "",
          "type": "bool"
        }
      ],
      "stateMutability": "nonpayable",
      "type": "function"
    }
  ],
  "bytecode": "0x60806040523480156200001157600080fd5b506040516200207538038062002075833981016040819052620000349162000228565b8585846001600160a01b0381166200006657604051631e4fbdf760e01b81526000600482015260240160405180910390fd5b6200007181620000f6565b50600162000080838262000394565b5060026200008f828262000394565b5050600a80546001600160a01b03808c166001600160a01b031992831617909255600b80548b8416908316179055600c859055600d80549287169290911691909117905550600e819055600f620000e7858262000394565b50505050505050505062000460565b600080546001600160a01b038381166001600160a01b0319831681178455604051919092169283917f8be0079c531659141344cd1fd0a4f28419497f9722a3daafe3b4186f6b6457e09190a35050565b80516001600160a01b03811681146200015e57600080fd5b919050565b634e487b7160e01b600052604160045260246000fd5b600082601f8301126200018b57600080fd5b81516001600160401b0380821115620001a857620001a862000163565b604051601f8301601f19908116603f01168101908282118183101715620001d357620001d362000163565b81604052838152602092508683858801011115620001f057600080fd5b600091505b83821015620002145785820183015181830184015290820190620001f5565b600093810190920192909252949350505050565b600080600080600080600080610100898b0312156200024657600080fd5b620002518962000146565b97506200026160208a0162000146565b60408a01519097506001600160401b03808211156200027f57600080fd5b6200028d8c838d0162000179565b975060608b0151915080821115620002a457600080fd5b620002b28c838d0162000179565b965060808b0151915080821115620002c957600080fd5b50620002d88b828c0162000179565b945050620002e960a08a0162000146565b60c08a015160e0909a0151989b979a5095989497939692505050565b600181811c908216806200031a57607f821691505b6020821081036200033b57634e487b7160e01b600052602260045260246000fd5b50919050565b601f8211156200038f57600081815260208120601f850160051c810160208610156200036a5750805b601f850160051c820191505b818110156200038b5782815560010162000376565b5050505b505050565b81516001600160401b03811115620003b057620003b062000163565b620003c881620003c1845462000305565b8462000341565b602080601f831160018114620004005760008415620003e75750858301515b600019600386901b1c1916600185901b1785556200038b565b600085815260208120601f198616915b82811015620004315788860151825594840194600190910190840162000410565b5085821015620004505787850151600019600388901b60f8161c191681555b5050505050600190811b01905550565b611c0580620004706000396000f3fe60806040526004361061012a5760003560e01c8063679ebf1a116100ab578063a22cb4651161006f578063a22cb4651461035f578063a5f8cdbb1461037f578063b88d4fde14610392578063c87b56dd146103b2578063e985e9c5146103d2578063f2fde38b146103f257600080fd5b8063679ebf1a146102c957806370a08231146102e9578063715018a6146103175780638da5cb5b1461032c57806395d89b411461034a57600080fd5b806323b872dd116100f257806323b872dd1461021057806342842e0e146102305780634fcf8951146102505780635e359de0146102705780636352211e146102a957600080fd5b806301ffc9a71461012f57806305d60ffb1461016457806306fdde0314610194578063081812fc146101b6578063095ea7b3146101ee575b600080fd5b34801561013b57600080fd5b5061014f61014a366004611616565b610412565b60405190151581526020015b60405180910390f35b34801561017057600080fd5b5061014f61017f366004611648565b60106020526000908152604090205460ff1681565b3480156101a057600080fd5b506101a961043d565b60405161015b91906116b5565b3480156101c257600080fd5b506101d66101d13660046116c8565b6104cf565b6040516001600160a01b03909116815260200161015b565b3480156101fa57600080fd5b5061020e6102093660046116e1565b6104f8565b005b34801561021c57600080fd5b5061020e61022b36600461170d565b610507565b34801561023c57600080fd5b5061020e61024b36600461170d565b610597565b34801561025c57600080fd5b5061014f61026b366004611648565b6105b7565b34801561027c57600080fd5b5061014f61028b366004611648565b6001600160a01b031660009081526010602052604090205460ff1690565b3480156102b557600080fd5b506101d66102c43660046116c8565b610635565b3480156102d557600080fd5b5061020e6102e436600461174e565b610640565b3480156102f557600080fd5b50610309610304366004611648565b61073e565b60405190815260200161015b565b34801561032357600080fd5b5061020e610786565b34801561033857600080fd5b506000546001600160a01b03166101d6565b34801561035657600080fd5b506101a961079a565b34801561036b57600080fd5b5061020e61037a36600461178c565b6107a9565b61030961038d366004611648565b6107b4565b34801561039e57600080fd5b5061020e6103ad3660046117d0565b6109ee565b3480156103be57600080fd5b506101a96103cd3660046116c8565b610a05565b3480156103de57600080fd5b5061014f6103ed3660046118b0565b610b16565b3480156103fe57600080fd5b5061020e61040d366004611648565b610b44565b60006001600160e01b03198216632483248360e11b1480610437575061043782610b82565b92915050565b60606001805461044c906118de565b80601f0160208091040260200160405190810160405280929190818152602001828054610478906118de565b80156104c55780601f1061049a576101008083540402835291602001916104c5565b820191906000526020600020905b8154815290600101906020018083116104a857829003601f168201915b5050505050905090565b60006104da82610bd2565b506000828152600560205260409020546001600160a01b0316610437565b610503828233610c0b565b5050565b6001600160a01b03821661053657604051633250574960e11b8152600060048201526024015b60405180910390fd5b6000610543838333610c18565b9050836001600160a01b0316816001600160a01b031614610591576040516364283d7b60e01b81526001600160a01b038086166004830152602482018490528216604482015260640161052d565b50505050565b6105b2838383604051806020016040528060008152506109ee565b505050565b6001600160a01b03811660009081526010602052604081205460ff1615156001036105e457506000919050565b6001600160a01b038216600081815260106020526040808220805460ff19166001179055517f37bdaf50464e57bc2ca69f36ace378196f59c54486a220a7051208cb4e249da09190a2506001919050565b600061043782610bd2565b3361064a83610635565b6001600160a01b0316146106a05760405162461bcd60e51b815260206004820152601c60248201527f4e6f7420746865206f776e6572206f662074686973207469636b657400000000604482015260640161052d565b3360009081526010602052604090205460ff166106f75760405162461bcd60e51b81526020600482015260156024820152742737ba102bb434ba32902634b9ba1026b2b6b132b960591b604482015260640161052d565b610702338284610597565b6040516001600160a01b03821690339084907fd15524263ae66f75c1e604c47db6085085110f23ef7322b355179ac5e3b0783a90600090a45050565b60006001600160a01b03821661076a576040516322718ad960e21b81526000600482015260240161052d565b506001600160a01b031660009081526004602052604090205490565b61078e610d11565b6107986000610d3e565b565b60606002805461044c906118de565b610503338383610d8e565b600080600c54116107f85760405162461bcd60e51b815260206004820152600e60248201526d139bc81b5bdc99481d1a58dad95d60921b604482015260640161052d565b6001600160a01b03821660009081526010602052604090205460ff166108605760405162461bcd60e51b815260206004820152601e60248201527f726563697069656e74206973206e6f7420696e207768697465206c6973740000604482015260640161052d565b600a54604051637525349d60e11b81526001600160a01b038481166004830152600092169063ea4a693a90602401602060405180830381865afa1580156108ab573d6000803e3d6000fd5b505050506040513d601f19601f820116820180604052508101906108cf9190611918565b90506001600160a01b0381166109015760405162461bcd60e51b8152602060048201526000602482015260440161052d565b600d54600e5461091e9185916001600160a01b0390911690610e2d565b6001600c5461092d919061194b565b600c55600a54604051632bee50fd60e11b81526001600160a01b038581166004830152306024830152909116906357dca1fa90604401600060405180830381600087803b15801561097d57600080fd5b505af1158015610991573d6000803e3d6000fd5b5050505060006109a282600f610fc1565b905080846001600160a01b03167f1a20407d20a51fbc0334aa014a3c3c7938099daad1333e26c6f3661e0be96657600f6040516109df919061195e565b60405180910390a39392505050565b6109f9848484610507565b6105918484848461107d565b6060610a1082610bd2565b5060008281526007602052604081208054610a2a906118de565b80601f0160208091040260200160405190810160405280929190818152602001828054610a56906118de565b8015610aa35780601f10610a7857610100808354040283529160200191610aa3565b820191906000526020600020905b815481529060010190602001808311610a8657829003601f168201915b505050505090506000610ac160408051602081019091526000815290565b90508051600003610ad3575092915050565b815115610b05578082604051602001610aed9291906119e9565b60405160208183030381529060405292505050919050565b610b0e8461119f565b949350505050565b6001600160a01b03918216600090815260066020908152604080832093909416825291909152205460ff1690565b610b4c610d11565b6001600160a01b038116610b7657604051631e4fbdf760e01b81526000600482015260240161052d565b610b7f81610d3e565b50565b60006001600160e01b031982166380ac58cd60e01b1480610bb357506001600160e01b03198216635b5e139f60e01b145b8061043757506301ffc9a760e01b6001600160e01b0319831614610437565b6000818152600360205260408120546001600160a01b03168061043757604051637e27328960e01b81526004810184905260240161052d565b6105b28383836001611213565b6000828152600360205260408120546001600160a01b0390811690831615610c4557610c45818486611319565b6001600160a01b03811615610c8357610c62600085600080611213565b6001600160a01b038116600090815260046020526040902080546000190190555b6001600160a01b03851615610cb2576001600160a01b0385166000908152600460205260409020805460010190555b60008481526003602052604080822080546001600160a01b0319166001600160a01b0389811691821790925591518793918516917fddf252ad1be2c89b69c2b068fc378daa952ba7f163c4a11628f55a4df523b3ef91a4949350505050565b6000546001600160a01b031633146107985760405163118cdaa760e01b815233600482015260240161052d565b600080546001600160a01b038381166001600160a01b0319831681178455604051919092169283917f8be0079c531659141344cd1fd0a4f28419497f9722a3daafe3b4186f6b6457e09190a35050565b6001600160a01b038216610dc057604051630b61174360e31b81526001600160a01b038316600482015260240161052d565b6001600160a01b03838116600081815260066020908152604080832094871680845294825291829020805460ff191686151590811790915591519182527f17307eab39ab6107e8899845ad3d59bd9653f200f220920489ca2b5937696c31910160405180910390a3505050565b600d546001600160a01b03838116911614610e835760405162461bcd60e51b81526020600482015260166024820152753932b1b4b834b2b73a1034b9903737ba1030b236b4b760511b604482015260640161052d565b600b546040516370a0823160e01b81526001600160a01b03858116600483015260009216906370a0823190602401602060405180830381865afa158015610ece573d6000803e3d6000fd5b505050506040513d601f19601f82011682018060405250810190610ef29190611a18565b905081811015610f3b5760405162461bcd60e51b8152602060048201526014602482015273496e73756666696369656e742062616c616e636560601b604482015260640161052d565b600b546040516323b872dd60e01b81526001600160a01b038681166004830152858116602483015260448201859052909116906323b872dd906064016020604051808303816000875af1158015610f96573d6000803e3d6000fd5b505050506040513d601f19601f82011682018060405250810190610fba9190611a31565b5050505050565b60088054600091819083610fd483611a4e565b9190505550610fe3848261137d565b61107681848054610ff3906118de565b80601f016020809104026020016040519081016040528092919081815260200182805461101f906118de565b801561106c5780601f106110415761010080835404028352916020019161106c565b820191906000526020600020905b81548152906001019060200180831161104f57829003601f168201915b50505050506113e2565b9392505050565b6001600160a01b0383163b1561059157604051630a85bd0160e11b81526001600160a01b0384169063150b7a02906110bf903390889087908790600401611a67565b6020604051808303816000875af19250505080156110fa575060408051601f3d908101601f191682019092526110f791810190611aa4565b60015b611163573d808015611128576040519150601f19603f3d011682016040523d82523d6000602084013e61112d565b606091505b50805160000361115b57604051633250574960e11b81526001600160a01b038516600482015260240161052d565b805181602001fd5b6001600160e01b03198116630a85bd0160e11b14610fba57604051633250574960e11b81526001600160a01b038516600482015260240161052d565b60606111aa82610bd2565b5060006111c260408051602081019091526000815290565b905060008151116111e25760405180602001604052806000815250611076565b806111ec84611432565b6040516020016111fd9291906119e9565b6040516020818303038152906040529392505050565b808061122757506001600160a01b03821615155b156112e957600061123784610bd2565b90506001600160a01b038316158015906112635750826001600160a01b0316816001600160a01b031614155b801561127657506112748184610b16565b155b1561129f5760405163a9fbf51f60e01b81526001600160a01b038416600482015260240161052d565b81156112e75783856001600160a01b0316826001600160a01b03167f8c5be1e5ebec7d5bd14f71427d1e84f3dd0314c0f7b2291e5b200ac8c7c3b92560405160405180910390a45b505b5050600090815260056020526040902080546001600160a01b0319166001600160a01b0392909216919091179055565b6113248383836114c5565b6105b2576001600160a01b03831661135257604051637e27328960e01b81526004810182905260240161052d565b60405163177e802f60e01b81526001600160a01b03831660048201526024810182905260440161052d565b6001600160a01b0382166113a757604051633250574960e11b81526000600482015260240161052d565b60006113b583836000610c18565b90506001600160a01b038116156105b2576040516339e3563760e11b81526000600482015260240161052d565b60008281526007602052604090206113fa8282611b0f565b506040518281527ff8e1a15aba9398e019f0b49df1a4fde98ee17ae345cb5f6b5e2c27f5033e8ce79060200160405180910390a15050565b6060600061143f83611528565b600101905060008167ffffffffffffffff81111561145f5761145f6117ba565b6040519080825280601f01601f191660200182016040528015611489576020820181803683370190505b5090508181016020015b600019016f181899199a1a9b1b9c1cb0b131b232b360811b600a86061a8153600a850494508461149357509392505050565b60006001600160a01b03831615801590610b0e5750826001600160a01b0316846001600160a01b031614806114ff57506114ff8484610b16565b80610b0e5750506000908152600560205260409020546001600160a01b03908116911614919050565b60008072184f03e93ff9f4daa797ed6e38ed64bf6a1f0160401b83106115675772184f03e93ff9f4daa797ed6e38ed64bf6a1f0160401b830492506040015b6d04ee2d6d415b85acef81000000008310611593576d04ee2d6d415b85acef8100000000830492506020015b662386f26fc1000083106115b157662386f26fc10000830492506010015b6305f5e10083106115c9576305f5e100830492506008015b61271083106115dd57612710830492506004015b606483106115ef576064830492506002015b600a83106104375760010192915050565b6001600160e01b031981168114610b7f57600080fd5b60006020828403121561162857600080fd5b813561107681611600565b6001600160a01b0381168114610b7f57600080fd5b60006020828403121561165a57600080fd5b813561107681611633565b60005b83811015611680578181015183820152602001611668565b50506000910152565b600081518084526116a1816020860160208601611665565b601f01601f19169290920160200192915050565b6020815260006110766020830184611689565b6000602082840312156116da57600080fd5b5035919050565b600080604083850312156116f457600080fd5b82356116ff81611633565b946020939093013593505050565b60008060006060848603121561172257600080fd5b833561172d81611633565b9250602084013561173d81611633565b929592945050506040919091013590565b6000806040838503121561176157600080fd5b82359150602083013561177381611633565b809150509250929050565b8015158114610b7f57600080fd5b6000806040838503121561179f57600080fd5b82356117aa81611633565b915060208301356117738161177e565b634e487b7160e01b600052604160045260246000fd5b600080600080608085870312156117e657600080fd5b84356117f181611633565b9350602085013561180181611633565b925060408501359150606085013567ffffffffffffffff8082111561182557600080fd5b818701915087601f83011261183957600080fd5b81358181111561184b5761184b6117ba565b604051601f8201601f19908116603f01168101908382118183101715611873576118736117ba565b816040528281528a602084870101111561188c57600080fd5b82602086016020830137600060208483010152809550505050505092959194509250565b600080604083850312156118c357600080fd5b82356118ce81611633565b9150602083013561177381611633565b600181811c908216806118f257607f821691505b60208210810361191257634e487b7160e01b600052602260045260246000fd5b50919050565b60006020828403121561192a57600080fd5b815161107681611633565b634e487b7160e01b600052601160045260246000fd5b8181038181111561043757610437611935565b6000602080835260008454611972816118de565b8084870152604060018084166000811461199357600181146119ad576119db565b60ff1985168984015283151560051b8901830195506119db565b896000528660002060005b858110156119d35781548b82018601529083019088016119b8565b8a0184019650505b509398975050505050505050565b600083516119fb818460208801611665565b835190830190611a0f818360208801611665565b01949350505050565b600060208284031215611a2a57600080fd5b5051919050565b600060208284031215611a4357600080fd5b81516110768161177e565b600060018201611a6057611a60611935565b5060010190565b6001600160a01b0385811682528416602082015260408101839052608060608201819052600090611a9a90830184611689565b9695505050505050565b600060208284031215611ab657600080fd5b815161107681611600565b601f8211156105b257600081815260208120601f850160051c81016020861015611ae85750805b601f850160051c820191505b81811015611b0757828155600101611af4565b505050505050565b815167ffffffffffffffff811115611b2957611b296117ba565b611b3d81611b3784546118de565b84611ac1565b602080601f831160018114611b725760008415611b5a5750858301515b600019600386901b1c1916600185901b178555611b07565b600085815260208120601f198616915b82811015611ba157888601518255948401946001909101908401611b82565b5085821015611bbf5787850151600019600388901b60f8161c191681555b5050505050600190811b0190555056fea26469706673582212209b1aadc1971890acbf9884520c57325bf4be24bbb65f88666c9cc09ac8758c4564736f6c63430008140033",
  "linkReferences": {},
  "deployedLinkReferences": {}
}