{
  "_format": "hh-sol-artifact-1",
  "contractName": "Ticket",
  "sourceName": "contracts/Ticket.sol",
  "abi": [
    {
      "inputs": [
        {
          "internalType": "address",
          "name": "_tokenAddress",
          "type": "address"
        },
        {
          "internalType": "string",
          "name": "ticketName",
          "type": "string"
        },
        {
          "internalType": "string",
          "name": "ticketSymbol",
          "type": "string"
        },
        {
          "internalType": "string",
          "name": "ticketUri",
          "type": "string"
        },
        {
          "internalType": "address",
          "name": "_issuerAddress",
          "type": "address"
        },
        {
          "internalType": "uint256",
          "name": "ticketAmount",
          "type": "uint256"
        },
        {
          "internalType": "uint256",
          "name": "_ticketEthPrice",
          "type": "uint256"
        },
        {
          "internalType": "uint256",
          "name": "_ticketTokenPrice",
          "type": "uint256"
        },
        {
          "internalType": "uint256",
          "name": "ticketSaleDuration",
          "type": "uint256"
        }
      ],
      "stateMutability": "nonpayable",
      "type": "constructor"
    },
    {
      "inputs": [
        {
          "internalType": "address",
          "name": "buyer",
          "type": "address"
        }
      ],
      "name": "AlreadyHasTicket",
      "type": "error"
    },
    {
      "inputs": [
        {
          "internalType": "address",
          "name": "sender",
          "type": "address"
        },
        {
          "internalType": "uint256",
          "name": "tokenId",
          "type": "uint256"
        },
        {
          "internalType": "address",
          "name": "owner",
          "type": "address"
        }
      ],
      "name": "ERC721IncorrectOwner",
      "type": "error"
    },
    {
      "inputs": [
        {
          "internalType": "address",
          "name": "operator",
          "type": "address"
        },
        {
          "internalType": "uint256",
          "name": "tokenId",
          "type": "uint256"
        }
      ],
      "name": "ERC721InsufficientApproval",
      "type": "error"
    },
    {
      "inputs": [
        {
          "internalType": "address",
          "name": "approver",
          "type": "address"
        }
      ],
      "name": "ERC721InvalidApprover",
      "type": "error"
    },
    {
      "inputs": [
        {
          "internalType": "address",
          "name": "operator",
          "type": "address"
        }
      ],
      "name": "ERC721InvalidOperator",
      "type": "error"
    },
    {
      "inputs": [
        {
          "internalType": "address",
          "name": "owner",
          "type": "address"
        }
      ],
      "name": "ERC721InvalidOwner",
      "type": "error"
    },
    {
      "inputs": [
        {
          "internalType": "address",
          "name": "receiver",
          "type": "address"
        }
      ],
      "name": "ERC721InvalidReceiver",
      "type": "error"
    },
    {
      "inputs": [
        {
          "internalType": "address",
          "name": "sender",
          "type": "address"
        }
      ],
      "name": "ERC721InvalidSender",
      "type": "error"
    },
    {
      "inputs": [
        {
          "internalType": "uint256",
          "name": "tokenId",
          "type": "uint256"
        }
      ],
      "name": "ERC721NonexistentToken",
      "type": "error"
    },
    {
      "inputs": [],
      "name": "InsuffientTicketAmount",
      "type": "error"
    },
    {
      "inputs": [],
      "name": "InvalidAddress",
      "type": "error"
    },
    {
      "inputs": [
        {
          "internalType": "uint256",
          "name": "ethAmount",
          "type": "uint256"
        }
      ],
      "name": "InvalidEthAmount",
      "type": "error"
    },
    {
      "inputs": [],
      "name": "InvalidTicketAmount",
      "type": "error"
    },
    {
      "inputs": [],
      "name": "InvalidTicketPrice",
      "type": "error"
    },
    {
      "inputs": [],
      "name": "InvalidTicketSaleDuration",
      "type": "error"
    },
    {
      "inputs": [
        {
          "internalType": "uint256",
          "name": "tokenAllowance",
          "type": "uint256"
        }
      ],
      "name": "InvalidTokenAllowance",
      "type": "error"
    },
    {
      "inputs": [
        {
          "internalType": "uint256",
          "name": "tokenAmount",
          "type": "uint256"
        }
      ],
      "name": "InvalidTokenAmount",
      "type": "error"
    },
    {
      "inputs": [
        {
          "internalType": "address",
          "name": "blockedAddress",
          "type": "address"
        }
      ],
      "name": "NotAllowedToBuyTicket",
      "type": "error"
    },
    {
      "inputs": [
        {
          "internalType": "uint256",
          "name": "_tokenId",
          "type": "uint256"
        },
        {
          "internalType": "address",
          "name": "sender",
          "type": "address"
        }
      ],
      "name": "NotOwnerOfTicket",
      "type": "error"
    },
    {
      "inputs": [
        {
          "internalType": "address",
          "name": "owner",
          "type": "address"
        }
      ],
      "name": "OwnableInvalidOwner",
      "type": "error"
    },
    {
      "inputs": [
        {
          "internalType": "address",
          "name": "account",
          "type": "address"
        }
      ],
      "name": "OwnableUnauthorizedAccount",
      "type": "error"
    },
    {
      "inputs": [],
      "name": "SalePeriodNotEnded",
      "type": "error"
    },
    {
      "inputs": [],
      "name": "TicketSalePeriodEnded",
      "type": "error"
    },
    {
      "inputs": [
        {
          "internalType": "address",
          "name": "from",
          "type": "address"
        },
        {
          "internalType": "address",
          "name": "to",
          "type": "address"
        },
        {
          "internalType": "uint256",
          "name": "amount",
          "type": "uint256"
        }
      ],
      "name": "TransferFailed",
      "type": "error"
    },
    {
      "anonymous": false,
      "inputs": [
        {
          "indexed": true,
          "internalType": "address",
          "name": "owner",
          "type": "address"
        },
        {
          "indexed": true,
          "internalType": "address",
          "name": "approved",
          "type": "address"
        },
        {
          "indexed": true,
          "internalType": "uint256",
          "name": "tokenId",
          "type": "uint256"
        }
      ],
      "name": "Approval",
      "type": "event"
    },
    {
      "anonymous": false,
      "inputs": [
        {
          "indexed": true,
          "internalType": "address",
          "name": "owner",
          "type": "address"
        },
        {
          "indexed": true,
          "internalType": "address",
          "name": "operator",
          "type": "address"
        },
        {
          "indexed": false,
          "internalType": "bool",
          "name": "approved",
          "type": "bool"
        }
      ],
      "name": "ApprovalForAll",
      "type": "event"
    },
    {
      "anonymous": false,
      "inputs": [
        {
          "indexed": false,
          "internalType": "uint256",
          "name": "_fromTokenId",
          "type": "uint256"
        },
        {
          "indexed": false,
          "internalType": "uint256",
          "name": "_toTokenId",
          "type": "uint256"
        }
      ],
      "name": "BatchMetadataUpdate",
      "type": "event"
    },
    {
      "anonymous": false,
      "inputs": [
        {
          "indexed": false,
          "internalType": "uint256",
          "name": "_tokenId",
          "type": "uint256"
        }
      ],
      "name": "MetadataUpdate",
      "type": "event"
    },
    {
      "anonymous": false,
      "inputs": [
        {
          "indexed": true,
          "internalType": "address",
          "name": "previousOwner",
          "type": "address"
        },
        {
          "indexed": true,
          "internalType": "address",
          "name": "newOwner",
          "type": "address"
        }
      ],
      "name": "OwnershipTransferred",
      "type": "event"
    },
    {
      "anonymous": false,
      "inputs": [
        {
          "indexed": true,
          "internalType": "address",
          "name": "claimer",
          "type": "address"
        },
        {
          "indexed": false,
          "internalType": "uint256",
          "name": "ethAmount",
          "type": "uint256"
        },
        {
          "indexed": false,
          "internalType": "uint256",
          "name": "tokenAmount",
          "type": "uint256"
        }
      ],
      "name": "SettlementClaimed",
      "type": "event"
    },
    {
      "anonymous": false,
      "inputs": [
        {
          "indexed": true,
          "internalType": "address",
          "name": "to",
          "type": "address"
        },
        {
          "indexed": true,
          "internalType": "uint256",
          "name": "tokenId",
          "type": "uint256"
        },
        {
          "indexed": false,
          "internalType": "string",
          "name": "tokenURI",
          "type": "string"
        }
      ],
      "name": "TicketSold",
      "type": "event"
    },
    {
      "anonymous": false,
      "inputs": [
        {
          "indexed": true,
          "internalType": "uint256",
          "name": "tokenId",
          "type": "uint256"
        },
        {
          "indexed": true,
          "internalType": "address",
          "name": "from",
          "type": "address"
        },
        {
          "indexed": true,
          "internalType": "address",
          "name": "to",
          "type": "address"
        }
      ],
      "name": "TicketTransferred",
      "type": "event"
    },
    {
      "anonymous": false,
      "inputs": [
        {
          "indexed": true,
          "internalType": "address",
          "name": "from",
          "type": "address"
        },
        {
          "indexed": true,
          "internalType": "address",
          "name": "to",
          "type": "address"
        },
        {
          "indexed": true,
          "internalType": "uint256",
          "name": "tokenId",
          "type": "uint256"
        }
      ],
      "name": "Transfer",
      "type": "event"
    },
    {
      "anonymous": false,
      "inputs": [
        {
          "indexed": true,
          "internalType": "address",
          "name": "to",
          "type": "address"
        },
        {
          "indexed": false,
          "internalType": "bool",
          "name": "allow",
          "type": "bool"
        }
      ],
      "name": "WhiteListUpdated",
      "type": "event"
    },
    {
      "inputs": [],
      "name": "MIN_TICKET_ETH_PRICE",
      "outputs": [
        {
          "internalType": "uint256",
          "name": "",
          "type": "uint256"
        }
      ],
      "stateMutability": "view",
      "type": "function"
    },
    {
      "inputs": [],
      "name": "MIN_TICKET_SALE_DURATION",
      "outputs": [
        {
          "internalType": "uint256",
          "name": "",
          "type": "uint256"
        }
      ],
      "stateMutability": "view",
      "type": "function"
    },
    {
      "inputs": [],
      "name": "MIN_TICKET_SUPPLY",
      "outputs": [
        {
          "internalType": "uint256",
          "name": "",
          "type": "uint256"
        }
      ],
      "stateMutability": "view",
      "type": "function"
    },
    {
      "inputs": [],
      "name": "MIN_TICKET_TOKEN_PRICE",
      "outputs": [
        {
          "internalType": "uint256",
          "name": "",
          "type": "uint256"
        }
      ],
      "stateMutability": "view",
      "type": "function"
    },
    {
      "inputs": [
        {
          "internalType": "address",
          "name": "to",
          "type": "address"
        },
        {
          "internalType": "uint256",
          "name": "tokenId",
          "type": "uint256"
        }
      ],
      "name": "approve",
      "outputs": [],
      "stateMutability": "nonpayable",
      "type": "function"
    },
    {
      "inputs": [
        {
          "internalType": "address",
          "name": "owner",
          "type": "address"
        }
      ],
      "name": "balanceOf",
      "outputs": [
        {
          "internalType": "uint256",
          "name": "",
          "type": "uint256"
        }
      ],
      "stateMutability": "view",
      "type": "function"
    },
    {
      "inputs": [
        {
          "internalType": "address",
          "name": "buyer",
          "type": "address"
        }
      ],
      "name": "buyTicketByEther",
      "outputs": [
        {
          "internalType": "uint256",
          "name": "",
          "type": "uint256"
        }
      ],
      "stateMutability": "payable",
      "type": "function"
    },
    {
      "inputs": [
        {
          "internalType": "address",
          "name": "buyer",
          "type": "address"
        }
      ],
      "name": "buyTicketByToken",
      "outputs": [
        {
          "internalType": "uint256",
          "name": "",
          "type": "uint256"
        }
      ],
      "stateMutability": "nonpayable",
      "type": "function"
    },
    {
      "inputs": [],
      "name": "claimSettlement",
      "outputs": [],
      "stateMutability": "nonpayable",
      "type": "function"
    },
    {
      "inputs": [
        {
          "internalType": "uint256",
          "name": "tokenId",
          "type": "uint256"
        }
      ],
      "name": "getApproved",
      "outputs": [
        {
          "internalType": "address",
          "name": "",
          "type": "address"
        }
      ],
      "stateMutability": "view",
      "type": "function"
    },
    {
      "inputs": [
        {
          "internalType": "address",
          "name": "",
          "type": "address"
        }
      ],
      "name": "hasTicket",
      "outputs": [
        {
          "internalType": "bool",
          "name": "",
          "type": "bool"
        }
      ],
      "stateMutability": "view",
      "type": "function"
    },
    {
      "inputs": [
        {
          "internalType": "address",
          "name": "owner",
          "type": "address"
        },
        {
          "internalType": "address",
          "name": "operator",
          "type": "address"
        }
      ],
      "name": "isApprovedForAll",
      "outputs": [
        {
          "internalType": "bool",
          "name": "",
          "type": "bool"
        }
      ],
      "stateMutability": "view",
      "type": "function"
    },
    {
      "inputs": [],
      "name": "issuerAddress",
      "outputs": [
        {
          "internalType": "address",
          "name": "",
          "type": "address"
        }
      ],
      "stateMutability": "view",
      "type": "function"
    },
    {
      "inputs": [],
      "name": "name",
      "outputs": [
        {
          "internalType": "string",
          "name": "",
          "type": "string"
        }
      ],
      "stateMutability": "view",
      "type": "function"
    },
    {
      "inputs": [],
      "name": "owner",
      "outputs": [
        {
          "internalType": "address",
          "name": "",
          "type": "address"
        }
      ],
      "stateMutability": "view",
      "type": "function"
    },
    {
      "inputs": [
        {
          "internalType": "uint256",
          "name": "tokenId",
          "type": "uint256"
        }
      ],
      "name": "ownerOf",
      "outputs": [
        {
          "internalType": "address",
          "name": "",
          "type": "address"
        }
      ],
      "stateMutability": "view",
      "type": "function"
    },
    {
      "inputs": [],
      "name": "remainTicketAmount",
      "outputs": [
        {
          "internalType": "uint256",
          "name": "",
          "type": "uint256"
        }
      ],
      "stateMutability": "view",
      "type": "function"
    },
    {
      "inputs": [],
      "name": "renounceOwnership",
      "outputs": [],
      "stateMutability": "nonpayable",
      "type": "function"
    },
    {
      "inputs": [
        {
          "internalType": "address",
          "name": "from",
          "type": "address"
        },
        {
          "internalType": "address",
          "name": "to",
          "type": "address"
        },
        {
          "internalType": "uint256",
          "name": "tokenId",
          "type": "uint256"
        }
      ],
      "name": "safeTransferFrom",
      "outputs": [],
      "stateMutability": "nonpayable",
      "type": "function"
    },
    {
      "inputs": [
        {
          "internalType": "address",
          "name": "from",
          "type": "address"
        },
        {
          "internalType": "address",
          "name": "to",
          "type": "address"
        },
        {
          "internalType": "uint256",
          "name": "tokenId",
          "type": "uint256"
        },
        {
          "internalType": "bytes",
          "name": "data",
          "type": "bytes"
        }
      ],
      "name": "safeTransferFrom",
      "outputs": [],
      "stateMutability": "nonpayable",
      "type": "function"
    },
    {
      "inputs": [
        {
          "internalType": "address",
          "name": "operator",
          "type": "address"
        },
        {
          "internalType": "bool",
          "name": "approved",
          "type": "bool"
        }
      ],
      "name": "setApprovalForAll",
      "outputs": [],
      "stateMutability": "nonpayable",
      "type": "function"
    },
    {
      "inputs": [
        {
          "internalType": "bytes4",
          "name": "interfaceId",
          "type": "bytes4"
        }
      ],
      "name": "supportsInterface",
      "outputs": [
        {
          "internalType": "bool",
          "name": "",
          "type": "bool"
        }
      ],
      "stateMutability": "view",
      "type": "function"
    },
    {
      "inputs": [],
      "name": "symbol",
      "outputs": [
        {
          "internalType": "string",
          "name": "",
          "type": "string"
        }
      ],
      "stateMutability": "view",
      "type": "function"
    },
    {
      "inputs": [],
      "name": "ticketEthPrice",
      "outputs": [
        {
          "internalType": "uint256",
          "name": "",
          "type": "uint256"
        }
      ],
      "stateMutability": "view",
      "type": "function"
    },
    {
      "inputs": [],
      "name": "ticketSaleEndAt",
      "outputs": [
        {
          "internalType": "uint256",
          "name": "",
          "type": "uint256"
        }
      ],
      "stateMutability": "view",
      "type": "function"
    },
    {
      "inputs": [],
      "name": "ticketSaleEthIncome",
      "outputs": [
        {
          "internalType": "uint256",
          "name": "",
          "type": "uint256"
        }
      ],
      "stateMutability": "view",
      "type": "function"
    },
    {
      "inputs": [],
      "name": "ticketSaleStartAt",
      "outputs": [
        {
          "internalType": "uint256",
          "name": "",
          "type": "uint256"
        }
      ],
      "stateMutability": "view",
      "type": "function"
    },
    {
      "inputs": [],
      "name": "ticketSaleTokenIncome",
      "outputs": [
        {
          "internalType": "uint256",
          "name": "",
          "type": "uint256"
        }
      ],
      "stateMutability": "view",
      "type": "function"
    },
    {
      "inputs": [],
      "name": "ticketTokenPrice",
      "outputs": [
        {
          "internalType": "uint256",
          "name": "",
          "type": "uint256"
        }
      ],
      "stateMutability": "view",
      "type": "function"
    },
    {
      "inputs": [
        {
          "internalType": "uint256",
          "name": "tokenId",
          "type": "uint256"
        }
      ],
      "name": "tokenURI",
      "outputs": [
        {
          "internalType": "string",
          "name": "",
          "type": "string"
        }
      ],
      "stateMutability": "view",
      "type": "function"
    },
    {
      "inputs": [
        {
          "internalType": "address",
          "name": "from",
          "type": "address"
        },
        {
          "internalType": "address",
          "name": "to",
          "type": "address"
        },
        {
          "internalType": "uint256",
          "name": "tokenId",
          "type": "uint256"
        }
      ],
      "name": "transferFrom",
      "outputs": [],
      "stateMutability": "nonpayable",
      "type": "function"
    },
    {
      "inputs": [
        {
          "internalType": "address",
          "name": "newOwner",
          "type": "address"
        }
      ],
      "name": "transferOwnership",
      "outputs": [],
      "stateMutability": "nonpayable",
      "type": "function"
    },
    {
      "inputs": [
        {
          "internalType": "uint256",
          "name": "_tokenId",
          "type": "uint256"
        },
        {
          "internalType": "address",
          "name": "_buyer",
          "type": "address"
        }
      ],
      "name": "transferTicket",
      "outputs": [],
      "stateMutability": "nonpayable",
      "type": "function"
    },
    {
      "inputs": [
        {
          "internalType": "address",
          "name": "to",
          "type": "address"
        },
        {
          "internalType": "bool",
          "name": "allow",
          "type": "bool"
        }
      ],
      "name": "updateWhiteList",
      "outputs": [],
      "stateMutability": "nonpayable",
      "type": "function"
    },
    {
      "inputs": [
        {
          "internalType": "address",
          "name": "",
          "type": "address"
        }
      ],
      "name": "whiteList",
      "outputs": [
        {
          "internalType": "bool",
          "name": "",
          "type": "bool"
        }
      ],
      "stateMutability": "view",
      "type": "function"
    }
  ],
  "bytecode": "0x60806040523480156200001157600080fd5b5060405162002ce638038062002ce683398101604081905262000034916200030f565b878733806200005d57604051631e4fbdf760e01b81526000600482015260240160405180910390fd5b6200006881620001dd565b5060016200007783826200047d565b5060026200008682826200047d565b5050506001600160a01b038916620000b15760405163e6c4247b60e01b815260040160405180910390fd5b6001600160a01b038516620000d95760405163e6c4247b60e01b815260040160405180910390fd5b6001841015620000fb5760405162fab39f60e31b815260040160405180910390fd5b633b9aca0083101562000121576040516306f6808b60e01b815260040160405180910390fd5b600182101562000144576040516306f6808b60e01b815260040160405180910390fd5b620151808110156200016957604051636f736f7560e01b815260040160405180910390fd5b600880546001600160a01b03808c166001600160a01b031992831617909255600c869055600b805492881692909116919091179055600d839055600e829055600a620001b687826200047d565b5042600f819055620001ca90829062000549565b6010555062000571975050505050505050565b600080546001600160a01b038381166001600160a01b0319831681178455604051919092169283917f8be0079c531659141344cd1fd0a4f28419497f9722a3daafe3b4186f6b6457e09190a35050565b80516001600160a01b03811681146200024557600080fd5b919050565b634e487b7160e01b600052604160045260246000fd5b600082601f8301126200027257600080fd5b81516001600160401b03808211156200028f576200028f6200024a565b604051601f8301601f19908116603f01168101908282118183101715620002ba57620002ba6200024a565b81604052838152602092508683858801011115620002d757600080fd5b600091505b83821015620002fb5785820183015181830184015290820190620002dc565b600093810190920192909252949350505050565b60008060008060008060008060006101208a8c0312156200032f57600080fd5b6200033a8a6200022d565b60208b01519099506001600160401b03808211156200035857600080fd5b620003668d838e0162000260565b995060408c01519150808211156200037d57600080fd5b6200038b8d838e0162000260565b985060608c0151915080821115620003a257600080fd5b50620003b18c828d0162000260565b965050620003c260808b016200022d565b945060a08a0151935060c08a0151925060e08a015191506101008a015190509295985092959850929598565b600181811c908216806200040357607f821691505b6020821081036200042457634e487b7160e01b600052602260045260246000fd5b50919050565b601f8211156200047857600081815260208120601f850160051c81016020861015620004535750805b601f850160051c820191505b8181101562000474578281556001016200045f565b5050505b505050565b81516001600160401b038111156200049957620004996200024a565b620004b181620004aa8454620003ee565b846200042a565b602080601f831160018114620004e95760008415620004d05750858301515b600019600386901b1c1916600185901b17855562000474565b600085815260208120601f198616915b828110156200051a57888601518255948401946001909101908401620004f9565b5085821015620005395787850151600019600388901b60f8161c191681555b5050505050600190811b01905550565b808201808211156200056b57634e487b7160e01b600052601160045260246000fd5b92915050565b61276580620005816000396000f3fe6080604052600436106102345760003560e01c80638cea8e8f11610138578063b88d4fde116100b0578063c87b56dd1161007f578063e2142fde11610064578063e2142fde146105d6578063e985e9c514610606578063f2fde38b1461064f57600080fd5b8063c87b56dd146105a0578063cbe8b7b4146105c057600080fd5b8063b88d4fde14610542578063c2b92c5714610562578063c43c36db14610575578063c48dfcbb1461058a57600080fd5b8063a22cb46511610107578063ac1d0609116100ec578063ac1d0609146104f5578063ac9b2c3414610515578063b163d6521461052c57600080fd5b8063a22cb465146104b5578063a63234e0146104d557600080fd5b80638cea8e8f1461046a5780638da5cb5b1461048257806395d89b41146104a0578063a0c40d361461029057600080fd5b8063372c12b1116101cb5780636eb78beb1161019a578063715018a61161017f578063715018a61461042957806380a3e2831461043e57806386c7a8951461045457600080fd5b80636eb78beb146103e957806370a082311461040957600080fd5b8063372c12b11461035957806342842e0e146103895780636352211e146103a9578063679ebf1a146103c957600080fd5b8063095ea7b311610207578063095ea7b3146102eb57806311ddc2361461030d5780631b0226731461032357806323b872dd1461033957600080fd5b806301ffc9a71461023957806306fdde031461026e57806307960e7e14610290578063081812fc146102b3575b600080fd5b34801561024557600080fd5b506102596102543660046120a5565b61066f565b60405190151581526020015b60405180910390f35b34801561027a57600080fd5b506102836106cb565b6040516102659190612130565b34801561029c57600080fd5b506102a5600181565b604051908152602001610265565b3480156102bf57600080fd5b506102d36102ce366004612143565b61075d565b6040516001600160a01b039091168152602001610265565b3480156102f757600080fd5b5061030b610306366004612173565b610786565b005b34801561031957600080fd5b506102a5600d5481565b34801561032f57600080fd5b506102a560105481565b34801561034557600080fd5b5061030b61035436600461219d565b610795565b34801561036557600080fd5b506102596103743660046121d9565b60136020526000908152604090205460ff1681565b34801561039557600080fd5b5061030b6103a436600461219d565b610857565b3480156103b557600080fd5b506102d36103c4366004612143565b610877565b3480156103d557600080fd5b5061030b6103e43660046121f4565b610882565b3480156103f557600080fd5b506102a56104043660046121d9565b61095c565b34801561041557600080fd5b506102a56104243660046121d9565b610b55565b34801561043557600080fd5b5061030b610bb6565b34801561044a57600080fd5b506102a5600e5481565b34801561046057600080fd5b506102a560125481565b34801561047657600080fd5b506102a5633b9aca0081565b34801561048e57600080fd5b506000546001600160a01b03166102d3565b3480156104ac57600080fd5b50610283610bca565b3480156104c157600080fd5b5061030b6104d036600461222e565b610bd9565b3480156104e157600080fd5b50600b546102d3906001600160a01b031681565b34801561050157600080fd5b5061030b61051036600461222e565b610be4565b34801561052157600080fd5b506102a56201518081565b34801561053857600080fd5b506102a5600c5481565b34801561054e57600080fd5b5061030b61055d366004612294565b610caa565b6102a56105703660046121d9565b610cc1565b34801561058157600080fd5b5061030b610eeb565b34801561059657600080fd5b506102a560115481565b3480156105ac57600080fd5b506102836105bb366004612143565b6110a1565b3480156105cc57600080fd5b506102a5600f5481565b3480156105e257600080fd5b506102596105f13660046121d9565b60146020526000908152604090205460ff1681565b34801561061257600080fd5b5061025961062136600461238e565b6001600160a01b03918216600090815260066020908152604080832093909416825291909152205460ff1690565b34801561065b57600080fd5b5061030b61066a3660046121d9565b6111b2565b60007fffffffff0000000000000000000000000000000000000000000000000000000082167f490649060000000000000000000000000000000000000000000000000000000014806106c557506106c582611209565b92915050565b6060600180546106da906123b8565b80601f0160208091040260200160405190810160405280929190818152602001828054610706906123b8565b80156107535780601f1061072857610100808354040283529160200191610753565b820191906000526020600020905b81548152906001019060200180831161073657829003601f168201915b5050505050905090565b6000610768826112ec565b506000828152600560205260409020546001600160a01b03166106c5565b61079182823361133e565b5050565b6001600160a01b0382166107dd576040517f64a0ae92000000000000000000000000000000000000000000000000000000008152600060048201526024015b60405180910390fd5b60006107ea83833361134b565b9050836001600160a01b0316816001600160a01b031614610851576040517f64283d7b0000000000000000000000000000000000000000000000000000000081526001600160a01b03808616600483015260248201849052821660448201526064016107d4565b50505050565b61087283838360405180602001604052806000815250610caa565b505050565b60006106c5826112ec565b6001600160a01b0381166108c2576040517fe6c4247b00000000000000000000000000000000000000000000000000000000815260040160405180910390fd5b336108cc83610877565b6001600160a01b031614610915576040517fabd28577000000000000000000000000000000000000000000000000000000008152600481018390523360248201526044016107d4565b610920338284610857565b6040516001600160a01b03821690339084907fd15524263ae66f75c1e604c47db6085085110f23ef7322b355179ac5e3b0783a90600090a45050565b600061096661147a565b600c546000036109a2576040517f1281480200000000000000000000000000000000000000000000000000000000815260040160405180910390fd5b60105442106109dd576040517f28d09ec100000000000000000000000000000000000000000000000000000000815260040160405180910390fd5b6001600160a01b038216610a1d576040517fe6c4247b00000000000000000000000000000000000000000000000000000000815260040160405180910390fd5b6001600160a01b03821660009081526014602052604090205460ff1615610a7b576040517f66c1a1440000000000000000000000000000000000000000000000000000000081526001600160a01b03831660048201526024016107d4565b610a84826114c0565b6001600160a01b038216600090815260146020526040812080547fffffffffffffffffffffffffffffffffffffffffffffffffffffffffffffff00166001908117909155600c805491929091610adb90849061243a565b9091555050600e5460128054600090610af590849061244d565b9091555060009050610b0883600a61174b565b905080836001600160a01b03167f64c70245ecf357faebc70330126993aeb69711984c09059595df6399dd510857600a604051610b459190612460565b60405180910390a390505b919050565b60006001600160a01b038216610b9a576040517f89c62b64000000000000000000000000000000000000000000000000000000008152600060048201526024016107d4565b506001600160a01b031660009081526004602052604090205490565b610bbe61147a565b610bc8600061180c565b565b6060600280546106da906123b8565b610791338383611874565b610bec61147a565b6001600160a01b038216610c2c576040517fe6c4247b00000000000000000000000000000000000000000000000000000000815260040160405180910390fd5b6001600160a01b03821660008181526013602090815260409182902080547fffffffffffffffffffffffffffffffffffffffffffffffffffffffffffffff001685151590811790915591519182527fb1288e9f7bae3599e10819d5553febea48e11a6f8f585b32c8abad397dd2627e91015b60405180910390a25050565b610cb5848484610795565b6108518484848461194a565b6000610ccb61147a565b600c54600003610d07576040517f1281480200000000000000000000000000000000000000000000000000000000815260040160405180910390fd5b6010544210610d42576040517f28d09ec100000000000000000000000000000000000000000000000000000000815260040160405180910390fd5b6001600160a01b038216610d82576040517fe6c4247b00000000000000000000000000000000000000000000000000000000815260040160405180910390fd5b6001600160a01b03821660009081526013602052604090205460ff16610ddf576040517fb4535f360000000000000000000000000000000000000000000000000000000081526001600160a01b03831660048201526024016107d4565b6001600160a01b03821660009081526014602052604090205460ff1615610e3d576040517f66c1a1440000000000000000000000000000000000000000000000000000000081526001600160a01b03831660048201526024016107d4565b600d543414610e7a576040517f296d36e80000000000000000000000000000000000000000000000000000000081523460048201526024016107d4565b6001600160a01b038216600090815260146020526040812080547fffffffffffffffffffffffffffffffffffffffffffffffffffffffffffffff00166001908117909155600c805491929091610ed190849061243a565b9091555050600d5460118054600090610af590849061244d565b601054421015610f27576040517f21539dff00000000000000000000000000000000000000000000000000000000815260040160405180910390fd5b6011548015610f985760006011819055600b546040516001600160a01b039091169083908381818185875af1925050503d8060008114610f83576040519150601f19603f3d011682016040523d82523d6000602084013e610f88565b606091505b5050905080610f9657600080fd5b505b60125480156110485760006012819055600854600b546040517fa9059cbb0000000000000000000000000000000000000000000000000000000081526001600160a01b0391821660048201526024810185905291169063a9059cbb906044016020604051808303816000875af1158015611016573d6000803e3d6000fd5b505050506040513d601f19601f8201168201806040525081019061103a9190612509565b90508061104657600080fd5b505b60008211806110575750600081115b1561079157600b5460408051848152602081018490526001600160a01b03909216917f7aad6f98d5cb1c7d292c4cc72de936265c595b1317165c9c45b46bd2a2c5fe9f9101610c9e565b60606110ac826112ec565b50600082815260076020526040812080546110c6906123b8565b80601f01602080910402602001604051908101604052809291908181526020018280546110f2906123b8565b801561113f5780601f106111145761010080835404028352916020019161113f565b820191906000526020600020905b81548152906001019060200180831161112257829003601f168201915b50505050509050600061115d60408051602081019091526000815290565b9050805160000361116f575092915050565b8151156111a1578082604051602001611189929190612526565b60405160208183030381529060405292505050919050565b6111aa84611b0d565b949350505050565b6111ba61147a565b6001600160a01b0381166111fd576040517f1e4fbdf7000000000000000000000000000000000000000000000000000000008152600060048201526024016107d4565b6112068161180c565b50565b60007fffffffff0000000000000000000000000000000000000000000000000000000082167f80ac58cd00000000000000000000000000000000000000000000000000000000148061129c57507fffffffff0000000000000000000000000000000000000000000000000000000082167f5b5e139f00000000000000000000000000000000000000000000000000000000145b806106c557507f01ffc9a7000000000000000000000000000000000000000000000000000000007fffffffff000000000000000000000000000000000000000000000000000000008316146106c5565b6000818152600360205260408120546001600160a01b0316806106c5576040517f7e273289000000000000000000000000000000000000000000000000000000008152600481018490526024016107d4565b6108728383836001611b81565b6000828152600360205260408120546001600160a01b039081169083161561137857611378818486611cd7565b6001600160a01b038116156113d457611395600085600080611b81565b6001600160a01b038116600090815260046020526040902080547fffffffffffffffffffffffffffffffffffffffffffffffffffffffffffffffff0190555b6001600160a01b03851615611403576001600160a01b0385166000908152600460205260409020805460010190555b60008481526003602052604080822080547fffffffffffffffffffffffff0000000000000000000000000000000000000000166001600160a01b0389811691821790925591518793918516917fddf252ad1be2c89b69c2b068fc378daa952ba7f163c4a11628f55a4df523b3ef91a4949350505050565b6000546001600160a01b03163314610bc8576040517f118cdaa70000000000000000000000000000000000000000000000000000000081523360048201526024016107d4565b6008546040517f70a082310000000000000000000000000000000000000000000000000000000081526001600160a01b03838116600483015260009216906370a0823190602401602060405180830381865afa158015611524573d6000803e3d6000fd5b505050506040513d601f19601f820116820180604052508101906115489190612555565b9050600e54811015611589576040517f1bc3a582000000000000000000000000000000000000000000000000000000008152600481018290526024016107d4565b6008546040517fdd62ed3e0000000000000000000000000000000000000000000000000000000081526001600160a01b038481166004830152306024830152600092169063dd62ed3e90604401602060405180830381865afa1580156115f3573d6000803e3d6000fd5b505050506040513d601f19601f820116820180604052508101906116179190612555565b9050600e54811015611658576040517f8ef24d4d000000000000000000000000000000000000000000000000000000008152600481018290526024016107d4565b600854600e546040517f23b872dd0000000000000000000000000000000000000000000000000000000081526001600160a01b038681166004830152306024830152604482019290925260009291909116906323b872dd906064016020604051808303816000875af11580156116d2573d6000803e3d6000fd5b505050506040513d601f19601f820116820180604052508101906116f69190612509565b90508061085157600e546040517fbf182be80000000000000000000000000000000000000000000000000000000081526001600160a01b038616600482015230602482015260448101919091526064016107d4565b6000600160096000828254611760919061244d565b90915550506009546117728482611d6d565b61180581848054611782906123b8565b80601f01602080910402602001604051908101604052809291908181526020018280546117ae906123b8565b80156117fb5780601f106117d0576101008083540402835291602001916117fb565b820191906000526020600020905b8154815290600101906020018083116117de57829003601f168201915b5050505050611e04565b9392505050565b600080546001600160a01b038381167fffffffffffffffffffffffff0000000000000000000000000000000000000000831681178455604051919092169283917f8be0079c531659141344cd1fd0a4f28419497f9722a3daafe3b4186f6b6457e09190a35050565b6001600160a01b0382166118bf576040517f5b08ba180000000000000000000000000000000000000000000000000000000081526001600160a01b03831660048201526024016107d4565b6001600160a01b0383811660008181526006602090815260408083209487168084529482529182902080547fffffffffffffffffffffffffffffffffffffffffffffffffffffffffffffff001686151590811790915591519182527f17307eab39ab6107e8899845ad3d59bd9653f200f220920489ca2b5937696c31910160405180910390a3505050565b6001600160a01b0383163b15610851576040517f150b7a020000000000000000000000000000000000000000000000000000000081526001600160a01b0384169063150b7a02906119a590339088908790879060040161256e565b6020604051808303816000875af19250505080156119fe575060408051601f3d9081017fffffffffffffffffffffffffffffffffffffffffffffffffffffffffffffffe01682019092526119fb918101906125aa565b60015b611a80573d808015611a2c576040519150601f19603f3d011682016040523d82523d6000602084013e611a31565b606091505b508051600003611a78576040517f64a0ae920000000000000000000000000000000000000000000000000000000081526001600160a01b03851660048201526024016107d4565b805181602001fd5b7fffffffff0000000000000000000000000000000000000000000000000000000081167f150b7a020000000000000000000000000000000000000000000000000000000014611b06576040517f64a0ae920000000000000000000000000000000000000000000000000000000081526001600160a01b03851660048201526024016107d4565b5050505050565b6060611b18826112ec565b506000611b3060408051602081019091526000815290565b90506000815111611b505760405180602001604052806000815250611805565b80611b5a84611e54565b604051602001611b6b929190612526565b6040516020818303038152906040529392505050565b8080611b9557506001600160a01b03821615155b15611c8f576000611ba5846112ec565b90506001600160a01b03831615801590611bd15750826001600160a01b0316816001600160a01b031614155b8015611c0357506001600160a01b0380821660009081526006602090815260408083209387168352929052205460ff16155b15611c45576040517fa9fbf51f0000000000000000000000000000000000000000000000000000000081526001600160a01b03841660048201526024016107d4565b8115611c8d5783856001600160a01b0316826001600160a01b03167f8c5be1e5ebec7d5bd14f71427d1e84f3dd0314c0f7b2291e5b200ac8c7c3b92560405160405180910390a45b505b5050600090815260056020526040902080547fffffffffffffffffffffffff0000000000000000000000000000000000000000166001600160a01b0392909216919091179055565b611ce2838383611f12565b610872576001600160a01b038316611d29576040517f7e273289000000000000000000000000000000000000000000000000000000008152600481018290526024016107d4565b6040517f177e802f0000000000000000000000000000000000000000000000000000000081526001600160a01b0383166004820152602481018290526044016107d4565b6001600160a01b038216611db0576040517f64a0ae92000000000000000000000000000000000000000000000000000000008152600060048201526024016107d4565b6000611dbe8383600061134b565b90506001600160a01b03811615610872576040517f73c6ac6e000000000000000000000000000000000000000000000000000000008152600060048201526024016107d4565b6000828152600760205260409020611e1c8282612615565b506040518281527ff8e1a15aba9398e019f0b49df1a4fde98ee17ae345cb5f6b5e2c27f5033e8ce79060200160405180910390a15050565b60606000611e6183611f95565b600101905060008167ffffffffffffffff811115611e8157611e81612265565b6040519080825280601f01601f191660200182016040528015611eab576020820181803683370190505b5090508181016020015b7fffffffffffffffffffffffffffffffffffffffffffffffffffffffffffffffff017f3031323334353637383961626364656600000000000000000000000000000000600a86061a8153600a8504945084611eb557509392505050565b60006001600160a01b038316158015906111aa5750826001600160a01b0316846001600160a01b03161480611f6c57506001600160a01b0380851660009081526006602090815260408083209387168352929052205460ff165b806111aa5750506000908152600560205260409020546001600160a01b03908116911614919050565b6000807a184f03e93ff9f4daa797ed6e38ed64bf6a1f0100000000000000008310611fde577a184f03e93ff9f4daa797ed6e38ed64bf6a1f010000000000000000830492506040015b6d04ee2d6d415b85acef8100000000831061200a576d04ee2d6d415b85acef8100000000830492506020015b662386f26fc10000831061202857662386f26fc10000830492506010015b6305f5e1008310612040576305f5e100830492506008015b612710831061205457612710830492506004015b60648310612066576064830492506002015b600a83106106c55760010192915050565b7fffffffff000000000000000000000000000000000000000000000000000000008116811461120657600080fd5b6000602082840312156120b757600080fd5b813561180581612077565b60005b838110156120dd5781810151838201526020016120c5565b50506000910152565b600081518084526120fe8160208601602086016120c2565b601f017fffffffffffffffffffffffffffffffffffffffffffffffffffffffffffffffe0169290920160200192915050565b60208152600061180560208301846120e6565b60006020828403121561215557600080fd5b5035919050565b80356001600160a01b0381168114610b5057600080fd5b6000806040838503121561218657600080fd5b61218f8361215c565b946020939093013593505050565b6000806000606084860312156121b257600080fd5b6121bb8461215c565b92506121c96020850161215c565b9150604084013590509250925092565b6000602082840312156121eb57600080fd5b6118058261215c565b6000806040838503121561220757600080fd5b823591506122176020840161215c565b90509250929050565b801515811461120657600080fd5b6000806040838503121561224157600080fd5b61224a8361215c565b9150602083013561225a81612220565b809150509250929050565b7f4e487b7100000000000000000000000000000000000000000000000000000000600052604160045260246000fd5b600080600080608085870312156122aa57600080fd5b6122b38561215c565b93506122c16020860161215c565b925060408501359150606085013567ffffffffffffffff808211156122e557600080fd5b818701915087601f8301126122f957600080fd5b81358181111561230b5761230b612265565b604051601f82017fffffffffffffffffffffffffffffffffffffffffffffffffffffffffffffffe0908116603f0116810190838211818310171561235157612351612265565b816040528281528a602084870101111561236a57600080fd5b82602086016020830137600060208483010152809550505050505092959194509250565b600080604083850312156123a157600080fd5b6123aa8361215c565b91506122176020840161215c565b600181811c908216806123cc57607f821691505b602082108103612405577f4e487b7100000000000000000000000000000000000000000000000000000000600052602260045260246000fd5b50919050565b7f4e487b7100000000000000000000000000000000000000000000000000000000600052601160045260246000fd5b818103818111156106c5576106c561240b565b808201808211156106c5576106c561240b565b6000602080835260008454612474816123b8565b8084870152604060018084166000811461249557600181146124cd576124fb565b7fffffffffffffffffffffffffffffffffffffffffffffffffffffffffffffff008516838a01528284151560051b8a010195506124fb565b896000528660002060005b858110156124f35781548b82018601529083019088016124d8565b8a0184019650505b509398975050505050505050565b60006020828403121561251b57600080fd5b815161180581612220565b600083516125388184602088016120c2565b83519083019061254c8183602088016120c2565b01949350505050565b60006020828403121561256757600080fd5b5051919050565b60006001600160a01b038087168352808616602084015250836040830152608060608301526125a060808301846120e6565b9695505050505050565b6000602082840312156125bc57600080fd5b815161180581612077565b601f82111561087257600081815260208120601f850160051c810160208610156125ee5750805b601f850160051c820191505b8181101561260d578281556001016125fa565b505050505050565b815167ffffffffffffffff81111561262f5761262f612265565b6126438161263d84546123b8565b846125c7565b602080601f83116001811461269657600084156126605750858301515b7fffffffffffffffffffffffffffffffffffffffffffffffffffffffffffffffff600386901b1c1916600185901b17855561260d565b6000858152602081207fffffffffffffffffffffffffffffffffffffffffffffffffffffffffffffffe08616915b828110156126e3578886015182559484019460019091019084016126c4565b508582101561271f57878501517fffffffffffffffffffffffffffffffffffffffffffffffffffffffffffffffff600388901b60f8161c191681555b5050505050600190811b0190555056fea26469706673582212202a1d32aa6dbaf17bc15e333d3e06a6e2251737113f6c0d76b53a42babab0016164736f6c63430008140033",
  "linkReferences": {},
  "deployedLinkReferences": {}
}