{
  "_format": "hh-sol-artifact-1",
  "contractName": "NFTFactory",
  "sourceName": "contracts/NFTFactory.sol",
  "abi": [
    {
      "inputs": [],
      "stateMutability": "nonpayable",
      "type": "constructor"
    },
    {
      "inputs": [
        {
          "internalType": "address",
          "name": "sender",
          "type": "address"
        },
        {
          "internalType": "uint256",
          "name": "tokenId",
          "type": "uint256"
        },
        {
          "internalType": "address",
          "name": "owner",
          "type": "address"
        }
      ],
      "name": "ERC721IncorrectOwner",
      "type": "error"
    },
    {
      "inputs": [
        {
          "internalType": "address",
          "name": "operator",
          "type": "address"
        },
        {
          "internalType": "uint256",
          "name": "tokenId",
          "type": "uint256"
        }
      ],
      "name": "ERC721InsufficientApproval",
      "type": "error"
    },
    {
      "inputs": [
        {
          "internalType": "address",
          "name": "approver",
          "type": "address"
        }
      ],
      "name": "ERC721InvalidApprover",
      "type": "error"
    },
    {
      "inputs": [
        {
          "internalType": "address",
          "name": "operator",
          "type": "address"
        }
      ],
      "name": "ERC721InvalidOperator",
      "type": "error"
    },
    {
      "inputs": [
        {
          "internalType": "address",
          "name": "owner",
          "type": "address"
        }
      ],
      "name": "ERC721InvalidOwner",
      "type": "error"
    },
    {
      "inputs": [
        {
          "internalType": "address",
          "name": "receiver",
          "type": "address"
        }
      ],
      "name": "ERC721InvalidReceiver",
      "type": "error"
    },
    {
      "inputs": [
        {
          "internalType": "address",
          "name": "sender",
          "type": "address"
        }
      ],
      "name": "ERC721InvalidSender",
      "type": "error"
    },
    {
      "inputs": [
        {
          "internalType": "uint256",
          "name": "tokenId",
          "type": "uint256"
        }
      ],
      "name": "ERC721NonexistentToken",
      "type": "error"
    },
    {
      "inputs": [
        {
          "internalType": "address",
          "name": "owner",
          "type": "address"
        }
      ],
      "name": "OwnableInvalidOwner",
      "type": "error"
    },
    {
      "inputs": [
        {
          "internalType": "address",
          "name": "account",
          "type": "address"
        }
      ],
      "name": "OwnableUnauthorizedAccount",
      "type": "error"
    },
    {
      "anonymous": false,
      "inputs": [
        {
          "indexed": true,
          "internalType": "address",
          "name": "owner",
          "type": "address"
        },
        {
          "indexed": true,
          "internalType": "address",
          "name": "approved",
          "type": "address"
        },
        {
          "indexed": true,
          "internalType": "uint256",
          "name": "tokenId",
          "type": "uint256"
        }
      ],
      "name": "Approval",
      "type": "event"
    },
    {
      "anonymous": false,
      "inputs": [
        {
          "indexed": true,
          "internalType": "address",
          "name": "owner",
          "type": "address"
        },
        {
          "indexed": true,
          "internalType": "address",
          "name": "operator",
          "type": "address"
        },
        {
          "indexed": false,
          "internalType": "bool",
          "name": "approved",
          "type": "bool"
        }
      ],
      "name": "ApprovalForAll",
      "type": "event"
    },
    {
      "anonymous": false,
      "inputs": [
        {
          "indexed": false,
          "internalType": "uint256",
          "name": "_fromTokenId",
          "type": "uint256"
        },
        {
          "indexed": false,
          "internalType": "uint256",
          "name": "_toTokenId",
          "type": "uint256"
        }
      ],
      "name": "BatchMetadataUpdate",
      "type": "event"
    },
    {
      "anonymous": false,
      "inputs": [
        {
          "indexed": false,
          "internalType": "uint256",
          "name": "_tokenId",
          "type": "uint256"
        }
      ],
      "name": "MetadataUpdate",
      "type": "event"
    },
    {
      "anonymous": false,
      "inputs": [
        {
          "indexed": true,
          "internalType": "address",
          "name": "previousOwner",
          "type": "address"
        },
        {
          "indexed": true,
          "internalType": "address",
          "name": "newOwner",
          "type": "address"
        }
      ],
      "name": "OwnershipTransferred",
      "type": "event"
    },
    {
      "anonymous": false,
      "inputs": [
        {
          "indexed": true,
          "internalType": "address",
          "name": "from",
          "type": "address"
        },
        {
          "indexed": true,
          "internalType": "address",
          "name": "to",
          "type": "address"
        },
        {
          "indexed": true,
          "internalType": "uint256",
          "name": "tokenId",
          "type": "uint256"
        }
      ],
      "name": "Transfer",
      "type": "event"
    },
    {
      "inputs": [
        {
          "internalType": "address",
          "name": "to",
          "type": "address"
        },
        {
          "internalType": "uint256",
          "name": "tokenId",
          "type": "uint256"
        }
      ],
      "name": "approve",
      "outputs": [],
      "stateMutability": "nonpayable",
      "type": "function"
    },
    {
      "inputs": [
        {
          "internalType": "address",
          "name": "owner",
          "type": "address"
        }
      ],
      "name": "balanceOf",
      "outputs": [
        {
          "internalType": "uint256",
          "name": "",
          "type": "uint256"
        }
      ],
      "stateMutability": "view",
      "type": "function"
    },
    {
      "inputs": [
        {
          "internalType": "uint256",
          "name": "tokenId",
          "type": "uint256"
        }
      ],
      "name": "getApproved",
      "outputs": [
        {
          "internalType": "address",
          "name": "",
          "type": "address"
        }
      ],
      "stateMutability": "view",
      "type": "function"
    },
    {
      "inputs": [
        {
          "internalType": "address",
          "name": "account",
          "type": "address"
        }
      ],
      "name": "getTransactionCount",
      "outputs": [
        {
          "internalType": "uint256",
          "name": "",
          "type": "uint256"
        }
      ],
      "stateMutability": "view",
      "type": "function"
    },
    {
      "inputs": [
        {
          "internalType": "address",
          "name": "owner",
          "type": "address"
        },
        {
          "internalType": "address",
          "name": "operator",
          "type": "address"
        }
      ],
      "name": "isApprovedForAll",
      "outputs": [
        {
          "internalType": "bool",
          "name": "",
          "type": "bool"
        }
      ],
      "stateMutability": "view",
      "type": "function"
    },
    {
      "inputs": [
        {
          "internalType": "address",
          "name": "recipient",
          "type": "address"
        },
        {
          "internalType": "string",
          "name": "tokenURI",
          "type": "string"
        }
      ],
      "name": "mintNFT",
      "outputs": [
        {
          "internalType": "uint256",
          "name": "",
          "type": "uint256"
        }
      ],
      "stateMutability": "nonpayable",
      "type": "function"
    },
    {
      "inputs": [],
      "name": "name",
      "outputs": [
        {
          "internalType": "string",
          "name": "",
          "type": "string"
        }
      ],
      "stateMutability": "view",
      "type": "function"
    },
    {
      "inputs": [],
      "name": "owner",
      "outputs": [
        {
          "internalType": "address",
          "name": "",
          "type": "address"
        }
      ],
      "stateMutability": "view",
      "type": "function"
    },
    {
      "inputs": [
        {
          "internalType": "uint256",
          "name": "tokenId",
          "type": "uint256"
        }
      ],
      "name": "ownerOf",
      "outputs": [
        {
          "internalType": "address",
          "name": "",
          "type": "address"
        }
      ],
      "stateMutability": "view",
      "type": "function"
    },
    {
      "inputs": [],
      "name": "renounceOwnership",
      "outputs": [],
      "stateMutability": "nonpayable",
      "type": "function"
    },
    {
      "inputs": [
        {
          "internalType": "address",
          "name": "from",
          "type": "address"
        },
        {
          "internalType": "address",
          "name": "to",
          "type": "address"
        },
        {
          "internalType": "uint256",
          "name": "tokenId",
          "type": "uint256"
        }
      ],
      "name": "safeTransferFrom",
      "outputs": [],
      "stateMutability": "nonpayable",
      "type": "function"
    },
    {
      "inputs": [
        {
          "internalType": "address",
          "name": "from",
          "type": "address"
        },
        {
          "internalType": "address",
          "name": "to",
          "type": "address"
        },
        {
          "internalType": "uint256",
          "name": "tokenId",
          "type": "uint256"
        },
        {
          "internalType": "bytes",
          "name": "data",
          "type": "bytes"
        }
      ],
      "name": "safeTransferFrom",
      "outputs": [],
      "stateMutability": "nonpayable",
      "type": "function"
    },
    {
      "inputs": [
        {
          "internalType": "address",
          "name": "operator",
          "type": "address"
        },
        {
          "internalType": "bool",
          "name": "approved",
          "type": "bool"
        }
      ],
      "name": "setApprovalForAll",
      "outputs": [],
      "stateMutability": "nonpayable",
      "type": "function"
    },
    {
      "inputs": [
        {
          "internalType": "bytes4",
          "name": "interfaceId",
          "type": "bytes4"
        }
      ],
      "name": "supportsInterface",
      "outputs": [
        {
          "internalType": "bool",
          "name": "",
          "type": "bool"
        }
      ],
      "stateMutability": "view",
      "type": "function"
    },
    {
      "inputs": [],
      "name": "symbol",
      "outputs": [
        {
          "internalType": "string",
          "name": "",
          "type": "string"
        }
      ],
      "stateMutability": "view",
      "type": "function"
    },
    {
      "inputs": [
        {
          "internalType": "uint256",
          "name": "tokenId",
          "type": "uint256"
        }
      ],
      "name": "tokenURI",
      "outputs": [
        {
          "internalType": "string",
          "name": "",
          "type": "string"
        }
      ],
      "stateMutability": "view",
      "type": "function"
    },
    {
      "inputs": [
        {
          "internalType": "address",
          "name": "from",
          "type": "address"
        },
        {
          "internalType": "address",
          "name": "to",
          "type": "address"
        },
        {
          "internalType": "uint256",
          "name": "tokenId",
          "type": "uint256"
        }
      ],
      "name": "transferFrom",
      "outputs": [],
      "stateMutability": "nonpayable",
      "type": "function"
    },
    {
      "inputs": [
        {
          "internalType": "address",
          "name": "newOwner",
          "type": "address"
        }
      ],
      "name": "transferOwnership",
      "outputs": [],
      "stateMutability": "nonpayable",
      "type": "function"
    }
  ],
  "bytecode": "0x60806040523480156200001157600080fd5b50336040518060400160405280600f81526020016e12195c9bc8151a58dad95d08139195608a1b81525060405180604001604052806003815260200162242a2760e91b8152508160009081620000689190620001b2565b506001620000778282620001b2565b5050506001600160a01b038116620000a957604051631e4fbdf760e01b81526000600482015260240160405180910390fd5b620000b481620000bb565b506200027e565b600780546001600160a01b038381166001600160a01b0319831681179093556040519116919082907f8be0079c531659141344cd1fd0a4f28419497f9722a3daafe3b4186f6b6457e090600090a35050565b634e487b7160e01b600052604160045260246000fd5b600181811c908216806200013857607f821691505b6020821081036200015957634e487b7160e01b600052602260045260246000fd5b50919050565b601f821115620001ad57600081815260208120601f850160051c81016020861015620001885750805b601f850160051c820191505b81811015620001a95782815560010162000194565b5050505b505050565b81516001600160401b03811115620001ce57620001ce6200010d565b620001e681620001df845462000123565b846200015f565b602080601f8311600181146200021e5760008415620002055750858301515b600019600386901b1c1916600185901b178555620001a9565b600085815260208120601f198616915b828110156200024f578886015182559484019460019091019084016200022e565b50858210156200026e5787850151600019600388901b60f8161c191681555b5050505050600190811b01905550565b611470806200028e6000396000f3fe608060405234801561001057600080fd5b50600436106101165760003560e01c8063715018a6116100a2578063b88d4fde11610071578063b88d4fde1461024f578063c87b56dd14610262578063e985e9c514610275578063eacabe1414610288578063f2fde38b1461029b57600080fd5b8063715018a61461021b5780638da5cb5b1461022357806395d89b4114610234578063a22cb4651461023c57600080fd5b806323b872dd116100e957806323b872dd1461019857806323ca0cd2146101ab57806342842e0e146101e25780636352211e146101f557806370a082311461020857600080fd5b806301ffc9a71461011b57806306fdde0314610143578063081812fc14610158578063095ea7b314610183575b600080fd5b61012e610129366004610f18565b6102ae565b60405190151581526020015b60405180910390f35b61014b6102d9565b60405161013a9190610f85565b61016b610166366004610f98565b61036b565b6040516001600160a01b03909116815260200161013a565b610196610191366004610fcd565b610394565b005b6101966101a6366004610ff7565b6103a3565b6101d46101b9366004611033565b6001600160a01b031660009081526009602052604090205490565b60405190815260200161013a565b6101966101f0366004610ff7565b610433565b61016b610203366004610f98565b610453565b6101d4610216366004611033565b61045e565b6101966104a6565b6007546001600160a01b031661016b565b61014b6104ba565b61019661024a36600461104e565b6104c9565b61019661025d366004611116565b6104d4565b61014b610270366004610f98565b6104eb565b61012e610283366004611192565b6105fc565b6101d46102963660046111c5565b61062a565b6101966102a9366004611033565b61068c565b60006001600160e01b03198216632483248360e11b14806102d357506102d3826106ca565b92915050565b6060600080546102e890611227565b80601f016020809104026020016040519081016040528092919081815260200182805461031490611227565b80156103615780601f1061033657610100808354040283529160200191610361565b820191906000526020600020905b81548152906001019060200180831161034457829003601f168201915b5050505050905090565b60006103768261071a565b506000828152600460205260409020546001600160a01b03166102d3565b61039f828233610753565b5050565b6001600160a01b0382166103d257604051633250574960e11b8152600060048201526024015b60405180910390fd5b60006103df838333610760565b9050836001600160a01b0316816001600160a01b03161461042d576040516364283d7b60e01b81526001600160a01b03808616600483015260248201849052821660448201526064016103c9565b50505050565b61044e838383604051806020016040528060008152506104d4565b505050565b60006102d38261071a565b60006001600160a01b03821661048a576040516322718ad960e21b8152600060048201526024016103c9565b506001600160a01b031660009081526003602052604090205490565b6104ae610859565b6104b86000610886565b565b6060600180546102e890611227565b61039f3383836108d8565b6104df8484846103a3565b61042d84848484610977565b60606104f68261071a565b506000828152600660205260408120805461051090611227565b80601f016020809104026020016040519081016040528092919081815260200182805461053c90611227565b80156105895780601f1061055e57610100808354040283529160200191610589565b820191906000526020600020905b81548152906001019060200180831161056c57829003601f168201915b5050505050905060006105a760408051602081019091526000815290565b905080516000036105b9575092915050565b8151156105eb5780826040516020016105d3929190611261565b60405160208183030381529060405292505050919050565b6105f484610aa0565b949350505050565b6001600160a01b03918216600090815260056020908152604080832093909416825291909152205460ff1690565b6000610634610859565b6008546106429060016112a6565b60088190556106518482610b15565b61065b8184610b7a565b6001600160a01b038416600090815260096020526040812080549161067f836112b9565b9091555090949350505050565b610694610859565b6001600160a01b0381166106be57604051631e4fbdf760e01b8152600060048201526024016103c9565b6106c781610886565b50565b60006001600160e01b031982166380ac58cd60e01b14806106fb57506001600160e01b03198216635b5e139f60e01b145b806102d357506301ffc9a760e01b6001600160e01b03198316146102d3565b6000818152600260205260408120546001600160a01b0316806102d357604051637e27328960e01b8152600481018490526024016103c9565b61044e8383836001610bca565b6000828152600260205260408120546001600160a01b039081169083161561078d5761078d818486610cd0565b6001600160a01b038116156107cb576107aa600085600080610bca565b6001600160a01b038116600090815260036020526040902080546000190190555b6001600160a01b038516156107fa576001600160a01b0385166000908152600360205260409020805460010190555b60008481526002602052604080822080546001600160a01b0319166001600160a01b0389811691821790925591518793918516917fddf252ad1be2c89b69c2b068fc378daa952ba7f163c4a11628f55a4df523b3ef91a4949350505050565b6007546001600160a01b031633146104b85760405163118cdaa760e01b81523360048201526024016103c9565b600780546001600160a01b038381166001600160a01b0319831681179093556040519116919082907f8be0079c531659141344cd1fd0a4f28419497f9722a3daafe3b4186f6b6457e090600090a35050565b6001600160a01b03821661090a57604051630b61174360e31b81526001600160a01b03831660048201526024016103c9565b6001600160a01b03838116600081815260056020908152604080832094871680845294825291829020805460ff191686151590811790915591519182527f17307eab39ab6107e8899845ad3d59bd9653f200f220920489ca2b5937696c31910160405180910390a3505050565b6001600160a01b0383163b1561042d57604051630a85bd0160e11b81526001600160a01b0384169063150b7a02906109b99033908890879087906004016112d2565b6020604051808303816000875af19250505080156109f4575060408051601f3d908101601f191682019092526109f19181019061130f565b60015b610a5d573d808015610a22576040519150601f19603f3d011682016040523d82523d6000602084013e610a27565b606091505b508051600003610a5557604051633250574960e11b81526001600160a01b03851660048201526024016103c9565b805181602001fd5b6001600160e01b03198116630a85bd0160e11b14610a9957604051633250574960e11b81526001600160a01b03851660048201526024016103c9565b5050505050565b6060610aab8261071a565b506000610ac360408051602081019091526000815290565b90506000815111610ae35760405180602001604052806000815250610b0e565b80610aed84610d34565b604051602001610afe929190611261565b6040516020818303038152906040525b9392505050565b6001600160a01b038216610b3f57604051633250574960e11b8152600060048201526024016103c9565b6000610b4d83836000610760565b90506001600160a01b0381161561044e576040516339e3563760e11b8152600060048201526024016103c9565b6000828152600660205260409020610b92828261137a565b506040518281527ff8e1a15aba9398e019f0b49df1a4fde98ee17ae345cb5f6b5e2c27f5033e8ce79060200160405180910390a15050565b8080610bde57506001600160a01b03821615155b15610ca0576000610bee8461071a565b90506001600160a01b03831615801590610c1a5750826001600160a01b0316816001600160a01b031614155b8015610c2d5750610c2b81846105fc565b155b15610c565760405163a9fbf51f60e01b81526001600160a01b03841660048201526024016103c9565b8115610c9e5783856001600160a01b0316826001600160a01b03167f8c5be1e5ebec7d5bd14f71427d1e84f3dd0314c0f7b2291e5b200ac8c7c3b92560405160405180910390a45b505b5050600090815260046020526040902080546001600160a01b0319166001600160a01b0392909216919091179055565b610cdb838383610dc7565b61044e576001600160a01b038316610d0957604051637e27328960e01b8152600481018290526024016103c9565b60405163177e802f60e01b81526001600160a01b0383166004820152602481018290526044016103c9565b60606000610d4183610e2a565b600101905060008167ffffffffffffffff811115610d6157610d6161108a565b6040519080825280601f01601f191660200182016040528015610d8b576020820181803683370190505b5090508181016020015b600019016f181899199a1a9b1b9c1cb0b131b232b360811b600a86061a8153600a8504945084610d9557509392505050565b60006001600160a01b038316158015906105f45750826001600160a01b0316846001600160a01b03161480610e015750610e0184846105fc565b806105f45750506000908152600460205260409020546001600160a01b03908116911614919050565b60008072184f03e93ff9f4daa797ed6e38ed64bf6a1f0160401b8310610e695772184f03e93ff9f4daa797ed6e38ed64bf6a1f0160401b830492506040015b6d04ee2d6d415b85acef81000000008310610e95576d04ee2d6d415b85acef8100000000830492506020015b662386f26fc100008310610eb357662386f26fc10000830492506010015b6305f5e1008310610ecb576305f5e100830492506008015b6127108310610edf57612710830492506004015b60648310610ef1576064830492506002015b600a83106102d35760010192915050565b6001600160e01b0319811681146106c757600080fd5b600060208284031215610f2a57600080fd5b8135610b0e81610f02565b60005b83811015610f50578181015183820152602001610f38565b50506000910152565b60008151808452610f71816020860160208601610f35565b601f01601f19169290920160200192915050565b602081526000610b0e6020830184610f59565b600060208284031215610faa57600080fd5b5035919050565b80356001600160a01b0381168114610fc857600080fd5b919050565b60008060408385031215610fe057600080fd5b610fe983610fb1565b946020939093013593505050565b60008060006060848603121561100c57600080fd5b61101584610fb1565b925061102360208501610fb1565b9150604084013590509250925092565b60006020828403121561104557600080fd5b610b0e82610fb1565b6000806040838503121561106157600080fd5b61106a83610fb1565b91506020830135801515811461107f57600080fd5b809150509250929050565b634e487b7160e01b600052604160045260246000fd5b600067ffffffffffffffff808411156110bb576110bb61108a565b604051601f8501601f19908116603f011681019082821181831017156110e3576110e361108a565b816040528093508581528686860111156110fc57600080fd5b858560208301376000602087830101525050509392505050565b6000806000806080858703121561112c57600080fd5b61113585610fb1565b935061114360208601610fb1565b925060408501359150606085013567ffffffffffffffff81111561116657600080fd5b8501601f8101871361117757600080fd5b611186878235602084016110a0565b91505092959194509250565b600080604083850312156111a557600080fd5b6111ae83610fb1565b91506111bc60208401610fb1565b90509250929050565b600080604083850312156111d857600080fd5b6111e183610fb1565b9150602083013567ffffffffffffffff8111156111fd57600080fd5b8301601f8101851361120e57600080fd5b61121d858235602084016110a0565b9150509250929050565b600181811c9082168061123b57607f821691505b60208210810361125b57634e487b7160e01b600052602260045260246000fd5b50919050565b60008351611273818460208801610f35565b835190830190611287818360208801610f35565b01949350505050565b634e487b7160e01b600052601160045260246000fd5b808201808211156102d3576102d3611290565b6000600182016112cb576112cb611290565b5060010190565b6001600160a01b038581168252841660208201526040810183905260806060820181905260009061130590830184610f59565b9695505050505050565b60006020828403121561132157600080fd5b8151610b0e81610f02565b601f82111561044e57600081815260208120601f850160051c810160208610156113535750805b601f850160051c820191505b818110156113725782815560010161135f565b505050505050565b815167ffffffffffffffff8111156113945761139461108a565b6113a8816113a28454611227565b8461132c565b602080601f8311600181146113dd57600084156113c55750858301515b600019600386901b1c1916600185901b178555611372565b600085815260208120601f198616915b8281101561140c578886015182559484019460019091019084016113ed565b508582101561142a5787850151600019600388901b60f8161c191681555b5050505050600190811b0190555056fea26469706673582212201337e1d6f42963cb68303884c2a886c7b26df0e901b55d88480bd5f2f6576ec864736f6c63430008140033",
  "linkReferences": {},
  "deployedLinkReferences": {}
}